:100000000C943F000C9467000C9467000C946700FC
:100010000C9467000C9467000C94AC2B0C94670054
:100020000C9467000C9467000C9467000C946700B4
:100030000C9467000C9467000C9467000C946700A4
:100040000C9433270C9467000C94F5260C94CF265F
:100050000C9467000C9467000C9467000C94670084
:100060000C9467000C94670064296429642927298B
:1000700087299529642964292729872995331124FB
:100080001FBECFEFD8E0DEBFCDBF11E0A0E0B1E0F2
:10009000EEEAF2E702C005900D92A439B107D9F754
:1000A00022E0A4E9B1E001C01D92AF3FB207E1F741
:1000B00010E0CFE3D0E004C02197FE010E94AF35ED
:1000C000CE33D107C9F70E94C2330C9455390C9432
:1000D00000001092EB021092EC021092ED021092CE
:1000E000EE021092B9021092BA021092BB02109264
:1000F000BC023FB7F8948091B2029091B302A091F4
:10010000B402B091B50226B5A89B05C02F3F19F0E7
:100110000196A11DB11D3FBFBA2FA92F982F882787
:10012000820F911DA11DB11D12E0880F991FAA1FFA
:10013000BB1F1A95D1F700ED17E020E030E0FFB7C4
:10014000F8944091B2025091B3026091B402709160
:10015000B502E6B5A89B06C0EF3F21F04F5F5F4FA9
:100160006F4F7F4FFFBF762F652F542F44274E0FC1
:10017000511D611D711DC2E0440F551F661F771F81
:10018000CA95D1F7481B590B6A0B7B0B483E53406D
:100190006105710540F001501109210931098851AB
:1001A0009C4FAF4FBF4F011511052105310539F6A1
:1001B00081E192E09093EA028093E902E0912102CA
:1001C000F091220282E08083E0911D02F0911E02F4
:1001D0001082E0911F02F091200280E18083109252
:1001E0002902E0912502F091260286E08083E091C9
:1001F0002302F0912402808180618083E0912302B8
:10020000F0912402808188608083E0912302F09144
:100210002402808180688083E0912302F09124028F
:1002200080818F7D80832FB7F8948091AE0290916A
:10023000AF02A091B002B091B1022FBF4091B902BC
:100240005091BA026091BB027091BC02841B950B65
:10025000A60BB70BC297A105B10508F065C03FB763
:10026000F8948091B2029091B302A091B402B0913F
:10027000B50226B5A89B05C02F3F19F00196A11D18
:10028000B11D3FBFBA2FA92F982F8827820F911D2C
:10029000A11DB11D12E0880F991FAA1FBB1F1A953F
:1002A000D1F703E010E020E030E0FFB7F894409190
:1002B000B2025091B3026091B4027091B502E6B5FA
:1002C000A89B06C0EF3F21F04F5F5F4F6F4F7F4FFE
:1002D000FFBF762F652F542F44274E0F511D611DF0
:1002E000711DC2E0440F551F661F771FCA95D1F7D5
:1002F000481B590B6A0B7B0B483E53406105710547
:1003000068F0015011092109310988519C4FAF4F04
:10031000BF4F011511052105310539F601151105EC
:100320002105310511F67FCF2FB7F8948091AE02E9
:100330009091AF02A091B002B091B1022FBF809313
:10034000B9029093BA02A093BB02B093BC02809111
:10035000E9029091EA02DC01ED91FC910280F381C7
:10036000E02D41E150E06AE271E009953FB7F89471
:100370008091B2029091B302A091B402B091B50203
:1003800026B5A89B05C02F3F19F00196A11DB11DF0
:100390003FBFBA2FA92F982F8827820F911DA11D2B
:1003A000B11D12E0880F991FAA1FBB1F1A95D1F724
:1003B0000AE010E020E030E0FFB7F8944091B2028C
:1003C0005091B3026091B4027091B502E6B5A89B5A
:1003D00006C0EF3F21F04F5F5F4F6F4F7F4FFFBF72
:1003E000762F652F542F44274E0F511D611D711D0F
:1003F000C2E0440F551F661F771FCA95D1F7481BEF
:10040000590B6A0B7B0B483E53406105710540F068
:10041000015011092109310988519C4FAF4FBF4F3D
:10042000011511052105310539F681E08093BD02E2
:10043000E0912102F091220282E08083E0911D028E
:10044000F0911E021082E0911F02F091200280E1E3
:10045000808310922902E0912502F091260286E025
:100460008083E0912302F091240280818061808367
:10047000E0912302F0912402808188608083E091E2
:100480002302F0912402808180688083E09123021E
:10049000F091240280818F7D808383E0809300012E
:1004A0008091B6029091B702892B09F096C4809191
:1004B000F7028F5F8093F7028FE190E00E94CD36C4
:1004C000EC010FB6F8940F928091F702815080935F
:1004D000F7028091F7028111D3C180911002882325
:1004E00009F4CEC12091D1013091D20169E071E0CF
:1004F0008091CC01882309F490C0D9011696ED9122
:10050000FC911797E488F5884685578580899189FD
:10051000DA0115969C938E93149780899189DC015A
:1005200013965C934E931297AF01445F5F4FD701D0
:1005300011960D911C9112970417150721F412962C
:100540009C938E931197158A148AD7018C918150B0
:100550008C93AF014E5F5F4FE284F3840481158179
:1005600086819781D80115969C938E9314978681E6
:100570009781DC0113961C930E931297D701119665
:100580000D911C9112970417150721F412969C9354
:100590008E93119713861286D7018C9181508C937C
:1005A000A68980910B028A1710F4A0930B026A9F10
:1005B000D00111248D0109511E4F7801D8011196E7
:1005C0008D919C91129795838483DC0114960D91F3
:1005D0001C9115971783068314960D911C911597FE
:1005E000D80113965C934E931297DC0115965C9399
:1005F0004E931497F386E286D7018C918F5F8C938C
:10060000A0910E02B0910F02968956968C91981780
:1006100008F46ECF709399016BCF8091980181118E
:1006200008C080919901813009F02AC10E94772C7D
:1006300027C199E0BB24B3944FEF5FEF80919801FD
:10064000882379F38091F702811107C12091B301CA
:100650003091B4012F5F3F4F3093B4012093B30129
:100660002091B3013091B4012115310589F56091D4
:10067000B8017091B901E091B601F091B701F09322
:10068000B901E093B8017093B7016093B60180910E
:10069000B5018F5F8093B501E091B801F091B90188
:1006A0008081811105C050939B0140939A0110C035
:1006B000E091B801F091B9010580F681E02D068046
:1006C000F781E02D6281738170939B0160939A01A1
:1006D00060919A0170919B0180E02617370708F41A
:1006E000ADC0E091B801F091B9016081611105C020
:1006F00050939B0140939A01A1C0E091B801F09101
:10070000B9010580F681E02D0680F781E02D628138
:1007100073812617370728F470939B0160939A0121
:100720008DC0BF016E5F7F4FC284D384E480F580AB
:1007300006811781D70115961C930E931497068195
:100740001781D8011396FC92EE921297D60111965A
:10075000ED90FC901297E616F70621F412961C9382
:100760000E93119713861286D6011C9111501C937B
:10077000848895888114910429F106851785E0887D
:10078000F188D8011596FC92EE921497E088F188D2
:10079000D70113961C930E931297D4011196CD9006
:1007A000DC9012978F01045F1F4FC016D10621F411
:1007B0001296FC92EE921197158A148AD4011C911C
:1007C00011501C93A689B0910B02BA1710F4A09394
:1007D0000B029A9FD00111248D0109511E4F68010F
:1007E000D80111960D911C91129715830483D8019D
:1007F0001496ED90FC901597F782E6821496ED9092
:10080000FC901597D70113967C936E931297D8019D
:1008100015967C936E931497D386C286D6016C91FD
:100820006F5F6C93A0910E02B0910F02768956967D
:100830006C91761708F455CF81E053CFE0910E020A
:10084000F0910F02E6899E9FF0011124E951FE4FBD
:100850002081223040F081E006C0809198018F5FB6
:100860008093980180E020919901211101C08111AC
:10087000B092990180919801815080939801DECEC9
:100880000F900FBE209769F4259A2D9ABFEFC0E70D
:10089000D2E0B150C040D040E1F700C000001D9A46
:1008A000F5CF1B821A82198218821D821C821F8238
:1008B0001E821A8E81E08B8F1C8E8FEF8D8F8E8F14
:1008C000CE010B969A8789872FEF3FEF3C872B87C6
:1008D0009E878D87988B8F87188609969B8B8A8B2E
:1008E0003D8B2C8B9F8B8E8B998F888F198A0FB69F
:1008F000F8940F929A8D8B8D981708F03DC18881DE
:100900009981892B09F075C0EA81FB81309711F438
:1009100080E06CC082A1815082A3268991A1291711
:10092000B9F38111F5CF9F012E5F3F4F628573852B
:100930004481558186819781DA0115969C938E9327
:10094000149786819781DC0113965C934E931297DE
:10095000DB0111964D915C9112974217530721F4D8
:1009600012969C938E93119713861286DB018C91BD
:1009700081508C9381A1868B682F70E044E050E019
:10098000461B570B5587448790910B02981710F41C
:1009900080930B0289E0869FD001879FB00D1124C0
:1009A000BD0169517E4FDB0111968D919C9112978B
:1009B00095838483DC0114964D915C911597578340
:1009C000468314964D915C911597DA0113963C93EA
:1009D0002E931297DC0115963C932E9314977387F0
:1009E0006287FB0180818F5F808381E01B821A8296
:1009F00001C080E09A8D9F5F9A8F9989992309F4AD
:100A0000B8C0EE89FF890680F781E02DCF010C96F2
:100A1000648975894685578520893189DA0115965B
:100A20003C932E93149720893189D90113965C93B6
:100A30004E931297DB0111964D915C9112974817D6
:100A4000590721F412963C932E931197158A148A14
:100A5000DB012C9121502C932091F702211158C0D9
:100A60009F012E5F3F4F628573854481558186814A
:100A70009781DA0115969C938E93149786819781BE
:100A8000DC0113965C934E931297DB0111964D9106
:100A90005C9112974217530721F412969C938E9300
:100AA000119713861286DB018C9181508C93A68955
:100AB00080910B028A1710F4A0930B0209E0A09F0B
:100AC000D0011124BD0169517E4FDB0111968D913A
:100AD0009C91129795838483DC0114964D915C91CF
:100AE00015975783468314964D915C911597DA01BB
:100AF00013963C932E931297DC0115963C932E93FC
:100B0000149773876287DB018C918F5F8C9324C06D
:100B10004091CD015091CE0157874687DA01149656
:100B20002D913C911597318B208B14962D913C91F2
:100B30001597D90113969C938E931297DA01159607
:100B40009C938E9314978CEC91E0958B848B809181
:100B5000CC018F5F8093CC01A0910E02B0910F0267
:100B6000968956968C91891738F481E08093990183
:100B700001C081110E94772C0F900FBED093B70255
:100B8000C093B6020FB6F8940F929A8D8B8D98177A
:100B900008F021C188819981892B09F075C0EA810B
:100BA000FB81309711F480E06CC082A1815082A358
:100BB000268991A12917B9F38111F5CF9F012E5FE5
:100BC0003F4F628573854481558186819781DA0123
:100BD00015969C938E93149786819781DC011396CA
:100BE0005C934E931297DB0111964D915C91129795
:100BF0004217530721F412969C938E9311971386F4
:100C00001286DB018C9181508C9381A1868B682F99
:100C100070E044E050E0461B570B558744879091A5
:100C20000B02981710F480930B0289E0869FD00185
:100C3000879FB00D1124BD0169517E4FDB011196D4
:100C40008D919C91129795838483DC0114964D912C
:100C50005C9115975783468314964D915C91159737
:100C6000DA0113963C932E931297DC0115963C9370
:100C70002E93149773876287FB0180818F5F808337
:100C800081E01B821A8201C080E09A8D9F5F9A8F5B
:100C90009989992309F49CC0EE89FF890680F78120
:100CA000E02DCF010C96A489B5892685378540892A
:100CB0005189E9015D834C83C089D1893B832A83B3
:100CC00011962D913C9112972817390721F412960D
:100CD000DC93CE931197158A148A2C9121502C9372
:100CE0002091F702211148C0CF010296A285B38559
:100CF0002481358146815781E9015D834C83C6811A
:100D0000D7813B832A8311962D913C911297281706
:100D1000390721F41296DC93CE931197138612862D
:100D20002C9121502C93A68920910B022A1710F4A4
:100D3000A0930B02D9E0AD9FD0011124AD01495120
:100D40005E4FDA011196CD91DC911297D583C48361
:100D50002C813D81378326832C813D81D9011396D7
:100D60009C938E9312979D838C8353874287EA01CD
:100D700088818F5F88831FC0A091CD01B091CE0183
:100D8000B787A68714962D913C911597318B208BB0
:100D90001496CD91DC9115979B838A8315969C932D
:100DA0008E9314978CEC91E0958B848B8091CC0181
:100DB0008F5F8093CC01A0910E02B0910F029689B3
:100DC00056968C91891738F481E08093990101C07F
:100DD00081110E94772C0F900FBE8091F7028F5FD8
:100DE0008093F70280E890E00E94CD36EC010FB6C8
:100DF000F8940F928091F70281508093F7028091CE
:100E0000F7028111D3C180911002882309F4CEC169
:100E10002091D1013091D20169E071E08091CC0143
:100E2000882309F490C0D9011696ED91FC9117978B
:100E3000E488F5884685578580899189DA01159679
:100E40009C938E93149780899189DC0113965C930F
:100E50004E931297AF01445F5F4FD70111960D91EA
:100E60001C9112970417150721F412969C938E93E8
:100E70001197158A148AD7018C9181508C93AF01F8
:100E80004E5F5F4FE284F3840481158186819781F0
:100E9000D80115969C938E93149786819781DC01D7
:100EA00013961C930E931297D70111960D911C91D6
:100EB00012970417150721F412969C938E9311979D
:100EC00013861286D7018C9181508C93A6898091CC
:100ED0000B028A1710F4A0930B026A9FD001112411
:100EE0008D0109511E4F7801D80111968D919C9169
:100EF000129795838483DC0114960D911C911597AC
:100F00001783068314960D911C911597D80113969B
:100F10005C934E931297DC0115965C934E93149755
:100F2000F386E286D7018C918F5F8C93A0910E029D
:100F3000B0910F02968956968C91981708F46ECF4F
:100F4000709399016BCF80919801811108C08091B5
:100F50009901813009F02AC10E94772C27C199E0BC
:100F6000BB24B3944FEF5FEF80919801882379F30E
:100F70008091F702811107C12091B3013091B40132
:100F80002F5F3F4F3093B4012093B3012091B30101
:100F90003091B4012115310589F56091B801709146
:100FA000B901E091B601F091B701F093B901E09376
:100FB000B8017093B7016093B6018091B5018F5F5E
:100FC0008093B501E091B801F091B9018081811160
:100FD00005C050939B0140939A0110C0E091B80165
:100FE000F091B9010580F681E02D0680F781E02DB2
:100FF0006281738170939B0160939A0160919A0161
:1010000070919B0180E02617370708F4ADC0E0918E
:10101000B801F091B9016081611105C050939B0145
:1010200040939A01A1C0E091B801F091B901058007
:10103000F681E02D0680F781E02D6281738126170D
:10104000370728F470939B0160939A018DC0BF010C
:101050006E5F7F4FC284D384E480F5800681178160
:10106000D70115961C930E93149706811781D8010A
:101070001396FC92EE921297D6011196ED90FC9089
:101080001297E616F70621F412961C930E93119709
:1010900013861286D6011C9111501C938488958862
:1010A0008114910429F106851785E088F188D8011B
:1010B0001596FC92EE921497E088F188D70113966A
:1010C0001C930E931297D4011196CD90DC90129739
:1010D0008F01045F1F4FC016D10621F41296FC92B7
:1010E000EE921197158A148AD4011C9111501C9309
:1010F000A689B0910B02BA1710F4A0930B029A9F25
:10110000D00111248D0109511E4F6801D80111969B
:101110000D911C91129715830483D8011496ED90BC
:10112000FC901597F782E6821496ED90FC90159747
:10113000D70113967C936E931297D80115967C93E2
:101140006E931497D386C286D6016C916F5F6C93B1
:10115000A0910E02B0910F02768956966C91761787
:1011600008F455CF81E053CFE0910E02F0910F02C9
:10117000E6899E9FF0011124E951FE4F2081223023
:1011800040F081E006C0809198018F5F80939801C4
:1011900080E020919901211101C08111B092990143
:1011A00080919801815080939801DECE0F900FBE00
:1011B000209769F4259A2D9ABFEFC0E7D2E0B1508D
:1011C000C040D040E1F700C000001D9AF5CF8091EB
:1011D000F7028F5F8093F70289E290E00E94CD369C
:1011E0008C010FB6F8940F928091F7028150809392
:1011F000F7028091F7028111D4C1809110028823F7
:1012000009F4CFC12091D1013091D20169E071E0A0
:101210008091CC01882309F490C0D9011696ED91F4
:10122000FC911797C488D588468557858089918910
:10123000DA0115969C938E93149780899189DC012D
:1012400013965C934E931297AF01445F5F4FD601A4
:101250001196ED90FC901297E416F50621F4129683
:101260009C938E931197158A148AD6018C91815084
:101270008C93AF014E5F5F4FC284D384E480F580CE
:1012800086819781D70115969C938E9314978681BA
:101290009781DC011396FC92EE921297D60111967B
:1012A000ED90FC901297E416F50621F412969C93AB
:1012B0008E93119713861286D6018C9181508C9350
:1012C000A68980910B028A1710F4A0930B026A9FE3
:1012D000D0011124CD0189519E4F6C01DC01119682
:1012E0008D919C91129795838483DC011496ED90E7
:1012F000FC901597F782E6821496ED90FC90159776
:10130000D70113965C934E931297DC0115965C936C
:101310004E931497D386C286D6018C918F5F8C939F
:10132000A0910E02B0910F02968956968C91981753
:1013300008F46ECF709399016BCF80919801811161
:1013400008C080919901813009F02BC10E94772C4F
:1013500028C139E0A32E992493946FEF7FEF8091F9
:101360009801882371F38091F702811107C1809160
:10137000B3019091B40101969093B4018093B301AD
:101380008091B3019091B401009789F52091B80143
:101390003091B9014091B6015091B7015093B90114
:1013A0004093B8013093B7012093B6012091B50165
:1013B0002F5F2093B501E091B801F091B901208130
:1013C000211105C070939B0160939A0110C0E091B8
:1013D000B801F091B9010580F681E02D0680F78112
:1013E000E02D2281338130939B0120939A0120913B
:1013F0009A0130919B01B12C8217930708F4AEC07B
:10140000E091B801F091B9012081211105C07093DC
:101410009B0160939A01A2C0E091B801F091B901DB
:101420000580F681E02D0680F781E02D2281338151
:101430008217930728F430939B0120939A018EC062
:101440009F012E5F3F4FC284D384E480F5804681A4
:101450005781D70115965C934E9314974681578117
:10146000DA011396FC92EE921297D6011196ED9046
:10147000FC901297E216F30621F412965C934E93B9
:10148000119713861286D6014C9141504C93648873
:1014900075886114710429F146855785E088F188C3
:1014A000DA011596FC92EE921497E088F188D70144
:1014B00013965C934E931297D3011196CD90DC90C6
:1014C0001297AF01445F5F4FC416D50621F4129600
:1014D000FC92EE921197158A148AD3014C914150D7
:1014E0004C93A68940910B024A1710F4A0930B026B
:1014F000AA9ED0011124AD0149515E4F6A01DA0163
:1015000011964D915C91129755834483DA0114969C
:10151000ED90FC901597F782E6821496ED90FC9082
:101520001597D70113963C932E931297DA011596CF
:101530003C932E931497D386C286D6012C912F5FAD
:101540002C93A0910E02B0910F02368956962C91E1
:10155000321708F455CFBB24B39452CFE0910E025A
:10156000F0910F02E689AE9EF0011124E951FE4F81
:101570008081823048F0BB24B39406C080919801EA
:101580008F5F80939801B12C80919901811101C0E6
:10159000B1109092990180919801815080939801A7
:1015A000DECE0F900FBE0115110569F4259A2D9A14
:1015B000BFEFC0E7D2E0B150C040D040E1F700C07B
:1015C00000001D9AF5CFF801D08FC78B40E850E09E
:1015D00065EA70E0CE010E940838D8015996E7E22A
:1015E000F1E098E09E0F81918D93882311F09E1376
:1015F000FACFD80190961C92909782E056968C93E1
:10160000569791968C93919792961C9292971B96CF
:101610001C921E921A9755961C921E9254971996D8
:101620001C930E93189722E030E01D963C932E9366
:101630001C9753961C930E935297F80113A214A271
:1016400015A216A210A617A2FE01E158FF4F21E134
:101650002083319792E29083319733E330834FEBCD
:1016600054E23197408331975083319710823197FC
:1016700030E830833197108231978083319783E04F
:101680008083319784E08083319785E08083319730
:1016900086E08083319787E08083319788E080837C
:1016A000319789E08083319780E18083319720836F
:1016B000319782E18083319783E18083319784E1A0
:1016C0008083319785E18083319786E180833197EC
:1016D00087E18083319788E18083319789E1808336
:1016E000319780E28083319781E2808331979083C4
:1016F000319783E28083319710823197108231973E
:1017000086E28083319787E28083319788E2808305
:10171000319789E28083319780E38083319781E339
:101720008083C75ADF4FCD93DC930FB6F8940F92A6
:10173000809110028F5F8093100280910E02909131
:101740000F02892B09F091C010930F0200930E0233
:1017500080911002813009F097C0E7EEF1E04FEF81
:101760005FEF9F012D5F3F4F328321838FEF9FEF0C
:1017700054834383368325833087278310823996A9
:10178000B2E0EB30FB0769F721EE31E03093E00186
:101790002093DF019093E2018093E1013093E40113
:1017A0002093E3013093E6012093E5011092DE01DE
:1017B00028ED31E03093D7012093D6019093D901E1
:1017C0008093D8013093DB012093DA013093DD015F
:1017D0002093DC011092D5012FEC31E03093CE0143
:1017E0002093CD019093D0018093CF013093D2010B
:1017F0002093D1013093D4012093D3011092CC01D6
:1018000026EC31E03093C5012093C4019093C701C9
:101810008093C6013093C9012093C8013093CB0156
:101820002093CA011092C3012DEB31E03093BC012B
:101830002093BB019093BE018093BD013093C00102
:101840002093BF013093C2012093C1011092BA01CD
:101850008EED91E09093B9018093B80185ED91E010
:101860009093B7018093B6010FC080910D02811152
:101870000BC0E0910E02F0910F028689833020F4B4
:1018800010930F0200930E0280910C028F5F8093E1
:101890000C02E801EE8980910B028E1710F4E093A0
:1018A0000B02C8010296D9E0ED9FF0011124E95125
:1018B000FE4FA181B281E801BD83AC8314962D91C6
:1018C0003C9115973F832E831496CD91DC9115970B
:1018D0009B838A8315969C938E931497D8011B96AD
:1018E000FC93EE931A9780818F5F80830F900FBED9
:1018F00080910D02882349F0E0910E02F0910F02D1
:101900008689823010F40E94772C8091F7028F5FD5
:101910008093F70280E890E00E94CD36EC010FB68C
:10192000F8940F928091F70281508093F702809192
:10193000F7028111D3C180911002882309F4CEC12E
:101940002091D1013091D20169E071E08091CC0108
:10195000882309F490C0D9011696ED91FC91179750
:10196000E488F5884685578580899189DA0115963E
:101970009C938E93149780899189DC0113965C93D4
:101980004E931297AF01445F5F4FD70111960D91AF
:101990001C9112970417150721F412969C938E93AD
:1019A0001197158A148AD7018C9181508C93AF01BD
:1019B0004E5F5F4FE284F3840481158186819781B5
:1019C000D80115969C938E93149786819781DC019C
:1019D00013961C930E931297D70111960D911C919B
:1019E00012970417150721F412969C938E93119762
:1019F00013861286D7018C9181508C93A689809191
:101A00000B028A1710F4A0930B026A9FD0011124D5
:101A10008D0109511E4F7801D80111968D919C912D
:101A2000129795838483DC0114960D911C91159770
:101A30001783068314960D911C911597D801139660
:101A40005C934E931297DC0115965C934E9314971A
:101A5000F386E286D7018C918F5F8C93A0910E0262
:101A6000B0910F02968956968C91981708F46ECF14
:101A7000709399016BCF80919801811108C080917A
:101A80009901813009F02AC10E94772C27C199E081
:101A9000BB24B3944FEF5FEF80919801882379F3D3
:101AA0008091F702811107C12091B3013091B401F7
:101AB0002F5F3F4F3093B4012093B3012091B301C6
:101AC0003091B4012115310589F56091B80170910B
:101AD000B901E091B601F091B701F093B901E0933B
:101AE000B8017093B7016093B6018091B5018F5F23
:101AF0008093B501E091B801F091B9018081811125
:101B000005C050939B0140939A0110C0E091B80129
:101B1000F091B9010580F681E02D0680F781E02D76
:101B20006281738170939B0160939A0160919A0125
:101B300070919B0180E02617370708F4ADC0E09153
:101B4000B801F091B9016081611105C050939B010A
:101B500040939A01A1C0E091B801F091B9010580CC
:101B6000F681E02D0680F781E02D628173812617D2
:101B7000370728F470939B0160939A018DC0BF01D1
:101B80006E5F7F4FC284D384E480F5800681178125
:101B9000D70115961C930E93149706811781D801CF
:101BA0001396FC92EE921297D6011196ED90FC904E
:101BB0001297E616F70621F412961C930E931197CE
:101BC00013861286D6011C9111501C938488958827
:101BD0008114910429F106851785E088F188D801E0
:101BE0001596FC92EE921497E088F188D70113962F
:101BF0001C930E931297D4011196CD90DC901297FE
:101C00008F01045F1F4FC016D10621F41296FC927B
:101C1000EE921197158A148AD4011C9111501C93CD
:101C2000A689B0910B02BA1710F4A0930B029A9FE9
:101C3000D00111248D0109511E4F6801D801119660
:101C40000D911C91129715830483D8011496ED9081
:101C5000FC901597F782E6821496ED90FC9015970C
:101C6000D70113967C936E931297D80115967C93A7
:101C70006E931497D386C286D6016C916F5F6C9376
:101C8000A0910E02B0910F02768956966C9176174C
:101C900008F455CF81E053CFE0910E02F0910F028E
:101CA000E6899E9FF0011124E951FE4F20812230E8
:101CB00040F081E006C0809198018F5F8093980189
:101CC00080E020919901211101C08111B092990108
:101CD00080919801815080939801DECE0F900FBEC5
:101CE000209769F4259A2D9ABFEFC0E7D2E0B15052
:101CF000C040D040E1F700C000001D9AF5CF8091B0
:101D0000F7028F5F8093F70289E290E00E94CD3660
:101D10008C010FB6F8940F928091F7028150809356
:101D2000F7028091F7028111D4C1809110028823BB
:101D300009F4CFC12091D1013091D20169E071E065
:101D40008091CC01882309F490C0D9011696ED91B9
:101D5000FC911797C488D5884685578580899189D5
:101D6000DA0115969C938E93149780899189DC01F2
:101D700013965C934E931297AF01445F5F4FD60169
:101D80001196ED90FC901297E416F50621F4129648
:101D90009C938E931197158A148AD6018C91815049
:101DA0008C93AF014E5F5F4FC284D384E480F58093
:101DB00086819781D70115969C938E93149786817F
:101DC0009781DC011396FC92EE921297D601119640
:101DD000ED90FC901297E416F50621F412969C9370
:101DE0008E93119713861286D6018C9181508C9315
:101DF000A68980910B028A1710F4A0930B026A9FA8
:101E0000D0011124CD0189519E4F6C01DC01119646
:101E10008D919C91129795838483DC011496ED90AB
:101E2000FC901597F782E6821496ED90FC9015973A
:101E3000D70113965C934E931297DC0115965C9331
:101E40004E931497D386C286D6018C918F5F8C9364
:101E5000A0910E02B0910F02968956968C91981718
:101E600008F46ECF709399016BCF80919801811126
:101E700008C080919901813009F02BC10E94772C14
:101E800028C129E0A22E992493946FEF7FEF8091CF
:101E90009801882371F38091F702811107C1809125
:101EA000B3019091B40101969093B4018093B30172
:101EB0008091B3019091B401009789F52091B80108
:101EC0003091B9014091B6015091B7015093B901D9
:101ED0004093B8013093B7012093B6012091B5012A
:101EE0002F5F2093B501E091B801F091B9012081F5
:101EF000211105C070939B0160939A0110C0E0917D
:101F0000B801F091B9010580F681E02D0680F781D6
:101F1000E02D2281338130939B0120939A012091FF
:101F20009A0130919B01B12C8217930708F4AEC03F
:101F3000E091B801F091B9012081211105C07093A1
:101F40009B0160939A01A2C0E091B801F091B901A0
:101F50000580F681E02D0680F781E02D2281338116
:101F60008217930728F430939B0120939A018EC027
:101F70009F012E5F3F4FC284D384E480F580468169
:101F80005781D70115965C934E93149746815781DC
:101F9000DA011396FC92EE921297D6011196ED900B
:101FA000FC901297E216F30621F412965C934E937E
:101FB000119713861286D6014C9141504C93648838
:101FC00075886114710429F146855785E088F18888
:101FD000DA011596FC92EE921497E088F188D70109
:101FE00013965C934E931297D3011196CD90DC908B
:101FF0001297AF01445F5F4FC416D50621F41296C5
:10200000FC92EE921197158A148AD3014C9141509B
:102010004C93A68940910B024A1710F4A0930B022F
:10202000AA9ED0011124AD0149515E4F6A01DA0127
:1020300011964D915C91129755834483DA01149661
:10204000ED90FC901597F782E6821496ED90FC9047
:102050001597D70113963C932E931297DA01159694
:102060003C932E931497D386C286D6012C912F5F72
:102070002C93A0910E02B0910F02368956962C91A6
:10208000321708F455CFBB24B39452CFE0910E021F
:10209000F0910F02E689AE9EF0011124E951FE4F46
:1020A0008081823048F0BB24B39406C080919801AF
:1020B0008F5F80939801B12C80919901811101C0AB
:1020C000B11090929901809198018150809398016C
:1020D000DECE0F900FBE0115110569F4259A2D9AD9
:1020E000BFEFC0E7D2E0B150C040D040E1F700C040
:1020F00000001D9AF5CFF801D08FC78B40E850E063
:1021000065EA70E0CE010E940838D8015996E4E2F1
:10211000F1E098E09E0F81918D93882311F09E133A
:10212000FACFD80190961C92909781E056968C93A6
:10213000569791968C93919792961C9292971B9694
:102140001C921E921A9755961C921E92549719969D
:102150001C930E93189783E090E01D969C938E93AA
:102160001C9753961C930E935297F80113A214A236
:1021700015A216A210A617A2FE01E158FF4F91E189
:102180009083319782E28083319723E3208328EB89
:1021900034E2319720833197308331971082319721
:1021A00020E8208331971082319722E020833197F5
:1021B00023E02083319724E02083319725E020839A
:1021C000319726E02083319727E02083319728E05C
:1021D0002083319729E02083319720E120833197B4
:1021E0009083319792E19083319793E19083319777
:1021F00094E19083319795E19083319796E19083B4
:10220000319797E19083319798E19083319799E1E5
:102210009083319790E29083319791E29083319748
:102220008083319783E280833197108231971082C7
:10223000319786E28083319787E28083319788E205
:102240008083319789E28083319780E3808331975F
:1022500081E38083C75ADF4FCD93DC930FB6F894A8
:102260000F92809110028F5F8093100280910E0276
:1022700090910F02892B09F091C010930F020093E7
:102280000E0280911002813009F097C0E7EEF1E074
:102290004FEF5FEF9F012D5F3F4F328321838FEF21
:1022A0009FEF5483438336832583308727831082AF
:1022B0003996B2E0EB30FB0769F721EE31E030935D
:1022C000E0012093DF019093E2018093E1013093DC
:1022D000E4012093E3013093E6012093E50110929D
:1022E000DE0128ED31E03093D7012093D6019093A1
:1022F000D9018093D8013093DB012093DA01309328
:10230000DD012093DC011092D5012FEC31E03093F8
:10231000CE012093CD019093D0018093CF013093D3
:10232000D2012093D1013093D4012093D301109294
:10233000CC0126EC31E03093C5012093C401909389
:10234000C7018093C6013093C9012093C80130931F
:10235000CB012093CA011092C3012DEB31E03093E1
:10236000BC012093BB019093BE018093BD013093CB
:10237000C0012093BF013093C2012093C10110928C
:10238000BA018EED91E09093B9018093B80185ED8B
:1023900091E09093B7018093B6010FC080910D0238
:1023A00081110BC0E0910E02F0910F0286898230FC
:1023B00020F410930F0200930E0280910C028F5FA5
:1023C00080930C02E801EE8980910B028E1710F4C5
:1023D000E0930B02C8010296D9E0ED9FF0011124B1
:1023E000E951FE4FA181B281E801BD83AC8314960F
:1023F0002D913C9115973F832E831496CD91DC91BE
:1024000015979B838A8315969C938E931497D80176
:102410001B96FC93EE931A9780818F5F80830F90B9
:102420000FBE80910D02882349F0E0910E02F091D9
:102430000F028689811102C00E94772C8091F702D9
:102440008F5F8093F70280E890E00E94CD36EC0128
:102450000FB6F8940F928091F70281508093F702A3
:102460008091F7028111D3C180911002882309F471
:10247000CEC12091D1013091D20169E071E080910B
:10248000CC01882309F490C0D9011696ED91FC91F6
:102490001797E488F5884685578580899189DA0100
:1024A00015969C938E93149780899189DC011396DD
:1024B0005C934E931297AF01445F5F4FD701119623
:1024C0000D911C9112970417150721F412969C93F5
:1024D0008E931197158A148AD7018C9181508C9311
:1024E000AF014E5F5F4FE284F384048115818681E2
:1024F0009781D80115969C938E9314978681978126
:10250000DC0113961C930E931297D70111960D912F
:102510001C9112970417150721F412969C938E9321
:10252000119713861286D7018C9181508C93A689BE
:1025300080910B028A1710F4A0930B026A9FD001BE
:1025400011248D0109511E4F7801D80111968D91EA
:102550009C91129795838483DC0114960D911C91B4
:1025600015971783068314960D911C911597D80122
:1025700013965C934E931297DC0115965C934E93E1
:102580001497F386E286D7018C918F5F8C93A0918C
:102590000E02B0910F02968956968C91981708F406
:1025A0006ECF709399016BCF80919801811108C013
:1025B00080919901813009F02AC10E94772C27C1AE
:1025C00099E0BB24B3944FEF5FEF8091980188238B
:1025D00079F38091F702811107C12091B301309105
:1025E000B4012F5F3F4F3093B4012093B30120918A
:1025F000B3013091B4012115310589F56091B8011D
:102600007091B901E091B601F091B701F093B90171
:10261000E093B8017093B7016093B6018091B50162
:102620008F5F8093B501E091B801F091B90180818D
:10263000811105C050939B0140939A0110C0E09115
:10264000B801F091B9010580F681E02D0680F7818F
:10265000E02D6281738170939B0160939A01609178
:102660009A0170919B0180E02617370708F4ADC0EE
:10267000E091B801F091B9016081611105C05093FA
:102680009B0140939A01A1C0E091B801F091B9017A
:102690000580F681E02D0680F781E02D628173814F
:1026A0002617370728F470939B0160939A018DC019
:1026B000BF016E5F7F4FC284D384E480F5800681C2
:1026C0001781D70115961C930E93149706811781D5
:1026D000D8011396FC92EE921297D6011196ED90C6
:1026E000FC901297E616F70621F412961C930E93AF
:1026F000119713861286D6011C9111501C93848861
:1027000095888114910429F106851785E088F18860
:10271000D8011596FC92EE921497E088F188D701C3
:1027200013961C930E931297D4011196CD90DC90C2
:1027300012978F01045F1F4FC016D10621F4129625
:10274000FC92EE921197158A148AD4011C911150B3
:102750001C93A689B0910B02BA1710F4A0930B0238
:102760009A9FD00111248D0109511E4F6801D80193
:1027700011960D911C91129715830483D80114961C
:10278000ED90FC901597F782E6821496ED90FC9000
:102790001597D70113967C936E931297D8011596CF
:1027A0007C936E931497D386C286D6016C916F5F2B
:1027B0006C93A0910E02B0910F02768956966C919F
:1027C000761708F455CF81E053CFE0910E02F091D7
:1027D0000F02E6899E9FF0011124E951FE4F2081EE
:1027E000223040F081E006C0809198018F5F809395
:1027F000980180E020919901211101C08111B092CE
:10280000990180919801815080939801DECE0F90BC
:102810000FBE209769F4259A2D9ABFEFC0E7D2E04A
:10282000B150C040D040E1F700C000001D9AF5CF84
:102830008091F7028F5F8093F70289E290E00E9417
:10284000CD368C010FB6F8940F928091F70281502B
:102850008093F7028091F7028111D4C18091100218
:10286000882309F4CFC12091D1013091D20169E0D0
:1028700071E08091CC01882309F490C0D9011696AB
:10288000ED91FC911797C488D58846855785808936
:102890009189DA0115969C938E931497808991897A
:1028A000DC0113965C934E931297AF01445F5F4F28
:1028B000D6011196ED90FC901297E416F50621F4DE
:1028C00012969C938E931197158A148AD6018C9137
:1028D00081508C93AF014E5F5F4FC284D384E480FC
:1028E000F58086819781D70115969C938E931497D6
:1028F00086819781DC011396FC92EE921297D601A5
:102900001196ED90FC901297E416F50621F41296BC
:102910009C938E93119713861286D6018C918150C9
:102920008C93A68980910B028A1710F4A0930B0256
:102930006A9FD0011124CD0189519E4F6C01DC01A9
:1029400011968D919C91129795838483DC01149646
:10295000ED90FC901597F782E6821496ED90FC902E
:102960001597D70113965C934E931297DC01159639
:102970005C934E931497D386C286D6018C918F5F59
:102980008C93A0910E02B0910F02968956968C916D
:10299000981708F46ECF709399016BCF80919801CE
:1029A000811108C080919901813009F02BC10E94EA
:1029B000772C28C199E0A92E992493946FEF7FEF8B
:1029C00080919801882371F38091F702811107C1EA
:1029D0008091B3019091B40101969093B4018093DA
:1029E000B3018091B3019091B401009789F52091D2
:1029F000B8013091B9014091B6015091B70150939F
:102A0000B9014093B8013093B7012093B6012091EA
:102A1000B5012F5F2093B501E091B801F091B901A4
:102A20002081211105C070939B0160939A0110C011
:102A3000E091B801F091B9010580F681E02D0680A2
:102A4000F781E02D2281338130939B0120939A01FD
:102A500020919A0130919B01B12C8217930708F4C1
:102A6000AEC0E091B801F091B9012081211105C0FB
:102A700070939B0160939A01A2C0E091B801F0911C
:102A8000B9010580F681E02D0680F781E02D2281D5
:102A900033818217930728F430939B0120939A0186
:102AA0008EC09F012E5F3F4FC284D384E480F580A7
:102AB00046815781D70115965C934E9314974681B2
:102AC0005781DA011396FC92EE921297D601119675
:102AD000ED90FC901297E216F30621F412965C93A7
:102AE0004E93119713861286D6014C9141504C9308
:102AF000648875886114710429F146855785E088DA
:102B0000F188DA011596FC92EE921497E088F1882C
:102B1000D70113965C934E931297D3011196CD90E3
:102B2000DC901297AF01445F5F4FC416D50621F4C5
:102B30001296FC92EE921197158A148AD3014C9149
:102B400041504C93A68940910B024A1710F4A09370
:102B50000B02AA9ED0011124AD0149515E4F6A01BA
:102B6000DA0111964D915C91129755834483DA01F5
:102B70001496ED90FC901597F782E6821496ED90EE
:102B8000FC901597D70113963C932E931297DA0178
:102B900015963C932E931497D386C286D6012C911A
:102BA0002F5F2C93A0910E02B0910F02368956969A
:102BB0002C91321708F455CFBB24B39452CFE09137
:102BC0000E02F0910F02E689AE9EF0011124E95148
:102BD000FE4F8081823048F0BB24B39406C08091C0
:102BE00098018F5F80939801B12C80919901811198
:102BF00001C0B11090929901809198018150809309
:102C00009801DECE0F900FBE0115110569F4259ACB
:102C10002D9ABFEFC0E7D2E0B150C040D040E1F7FD
:102C200000C000001D9AF5CFF801D08FC78B40E897
:102C300050E065EA70E0CE010E940838D80159964C
:102C4000EFE1F1E098E09E0F81918D93882311F0E0
:102C50009E13FACFD80190961C92909756961C928C
:102C6000569791961C92919792961C9292971B96CA
:102C70001C921E921A9755961C921E925497199662
:102C80001C930E93189784E090E01D969C938E936E
:102C90001C9753961C930E935297F80113A214A2FB
:102CA00015A216A210A617A2FE01E158FF4F91E14E
:102CB0009083319782E28083319723E320832CE055
:102CC00030E23197208331973083319710823197EA
:102CD00020E8208331971082319722E020833197BA
:102CE00023E02083319724E02083319725E020835F
:102CF000319726E02083319727E02083319728E021
:102D00002083319729E02083319720E12083319778
:102D10009083319792E19083319793E1908331973B
:102D200094E19083319795E19083319796E1908378
:102D3000319797E19083319798E19083319799E1AA
:102D40009083319790E29083319791E2908331970D
:102D50008083319783E2808331971082319710828C
:102D6000319786E28083319787E28083319788E2CA
:102D70008083319789E28083319780E38083319724
:102D800081E38083C75ADF4FCD93DC930FB6F8946D
:102D90000F92809110028F5F8093100280910E023B
:102DA00090910F02892B09F091C010930F020093AC
:102DB0000E0280911002813009F097C0E7EEF1E039
:102DC0004FEF5FEF9F012D5F3F4F328321838FEFE6
:102DD0009FEF548343833683258330872783108274
:102DE0003996B2E0EB30FB0769F721EE31E0309322
:102DF000E0012093DF019093E2018093E1013093A1
:102E0000E4012093E3013093E6012093E501109261
:102E1000DE0128ED31E03093D7012093D601909365
:102E2000D9018093D8013093DB012093DA013093EC
:102E3000DD012093DC011092D5012FEC31E03093BD
:102E4000CE012093CD019093D0018093CF01309398
:102E5000D2012093D1013093D4012093D301109259
:102E6000CC0126EC31E03093C5012093C40190934E
:102E7000C7018093C6013093C9012093C8013093E4
:102E8000CB012093CA011092C3012DEB31E03093A6
:102E9000BC012093BB019093BE018093BD01309390
:102EA000C0012093BF013093C2012093C101109251
:102EB000BA018EED91E09093B9018093B80185ED50
:102EC00091E09093B7018093B6010FC080910D02FD
:102ED00081110BC0E0910E02F0910F0286898111E1
:102EE00004C010930F0200930E0280910C028F5FBA
:102EF00080930C02E801EE8980910B028E1710F48A
:102F0000E0930B02C8010296D9E0ED9FF001112475
:102F1000E951FE4FA181B281E801BD83AC831496D3
:102F20002D913C9115973F832E831496CD91DC9182
:102F300015979B838A8315969C938E931497D8013B
:102F40001B96FC93EE931A9780818F5F80830F907E
:102F50000FBE80910D02882321F080910E02909186
:102F60000F020FB6F8940F928091F8029091F90237
:102F7000892B09F070C288EA91E09093A7018093B1
:102F8000A6012FEF3FEF3093A9012093A801909362
:102F9000AB018093AA019093AD018093AC01109294
:102FA000A5018FE991E090939E0180939D0130935C
:102FB000A00120939F019093A2018093A10190937F
:102FC000A4018093A30110929C0185EA91E0909363
:102FD0009701809396018CE991E0909395018093FD
:102FE00094018091F7028F5F8093F70282E590E071
:102FF0000E94CD36EC010FB6F8940F928091F70243
:1030000081508093F7028091F7028111D3C18091A2
:103010001002882309F4CEC12091D1013091D20150
:1030200069E071E08091CC01882309F490C0D90156
:103030001696ED91FC911797E488F588468557859B
:1030400080899189DA0115969C938E9314978089D3
:103050009189DC0113965C934E931297AF01445F04
:103060005F4FD70111960D911C9112970417150708
:1030700021F412969C938E931197158A148AD70186
:103080008C9181508C93AF014E5F5F4FE284F3844B
:103090000481158186819781D80115969C938E9322
:1030A000149786819781DC0113961C930E931297D7
:1030B000D70111960D911C9112970417150721F451
:1030C00012969C938E93119713861286D7018C913A
:1030D00081508C93A68980910B028A1710F4A093DB
:1030E0000B026A9FD00111248D0109511E4F7801F6
:1030F000D80111968D919C91129795838483DC0160
:1031000014960D911C9115971783068314960D91B3
:103110001C911597D80113965C934E931297DC017E
:1031200015965C934E931497F386E286D7018C91A3
:103130008F5F8C93A0910E02B0910F0296895696E4
:103140008C91981708F46ECF709399016BCF809192
:103150009801811108C080919901813009F02AC13C
:103160000E94772C27C199E0BB24B3944FEF5FEF07
:1031700080919801882379F38091F702811107C12A
:103180002091B3013091B4012F5F3F4F3093B401D0
:103190002093B3012091B3013091B4012115310581
:1031A00089F56091B8017091B901E091B601F09193
:1031B000B701F093B901E093B8017093B701609340
:1031C000B6018091B5018F5F8093B501E091B801A0
:1031D000F091B9018081811105C050939B0140930A
:1031E0009A0110C0E091B801F091B9010580F68113
:1031F000E02D0680F781E02D6281738170939B0141
:1032000060939A0160919A0170919B0180E026176A
:10321000370708F4ADC0E091B801F091B9016081C1
:10322000611105C050939B0140939A01A1C0E091A8
:10323000B801F091B9010580F681E02D0680F78193
:10324000E02D628173812617370728F470939B0164
:1032500060939A018DC0BF016E5F7F4FC284D3849B
:10326000E480F58006811781D70115961C930E9393
:10327000149706811781D8011396FC92EE9212974B
:10328000D6011196ED90FC901297E616F70621F400
:1032900012961C930E93119713861286D6011C91D9
:1032A00011501C93848895888114910429F1068516
:1032B0001785E088F188D8011596FC92EE92149754
:1032C000E088F188D70113961C930E931297D401CE
:1032D0001196CD90DC9012978F01045F1F4FC0169E
:1032E000D10621F41296FC92EE921197158A148A57
:1032F000D4011C9111501C93A689B0910B02BA17EE
:1033000010F4A0930B029A9FD00111248D01095152
:103310001E4F6801D80111960D911C9112971583CB
:103320000483D8011496ED90FC901597F782E682FD
:103330001496ED90FC901597D70113967C936E939D
:103340001297D80115967C936E931497D386C286F4
:10335000D6016C916F5F6C93A0910E02B0910F0239
:10336000768956966C91761708F455CF81E053CF45
:10337000E0910E02F0910F02E6899E9FF001112468
:10338000E951FE4F2081223040F081E006C080915B
:1033900098018F5F8093980180E02091990121111D
:1033A00001C08111B0929901809198018150809360
:1033B0009801DECE0F900FBE209769F4259A2D9AC2
:1033C000BFEFC0E7D2E0B150C040D040E1F700C04D
:1033D00000001D9AF5CFCE014F96998388838AE02D
:1033E0008B8F85E08C8F0FB6F8940F9228813981EE
:1033F0009B8D4C8D949FC0011124B901680F791FDA
:103400007B836A831A8E3D832C83841B9109820FF0
:10341000931F9F838E838FEF8D8F8E8FCE010B96A0
:103420009A8789872FEF3FEF3C872B879E878D8771
:10343000988B8F87188609969B8B8A8B3D8B2C8B5C
:103440009F8B8E8B998F888F198A0F900FBED09388
:10345000F902C093F8020F900FBE8091F80290918C
:10346000F902892B09F4CBC58091F7028F5F809315
:10347000F70285E590E00E94CD36EC010FB6F89496
:103480000F928091F70281508093F7028091F702AA
:103490008111D3C180911002882309F4CEC12091FB
:1034A000D1013091D20169E071E08091CC01882393
:1034B00009F490C0D9011696ED91FC911797E48814
:1034C000F5884685578580899189DA0115969C9300
:1034D0008E93149780899189DC0113965C934E93A7
:1034E0001297AF01445F5F4FD70111960D911C9168
:1034F00012970417150721F412969C938E93119737
:10350000158A148AD7018C9181508C93AF014E5F3C
:103510005F4FE284F3840481158186819781D8010D
:1035200015969C938E93149786819781DC01139650
:103530001C930E931297D70111960D911C9112971F
:103540000417150721F412969C938E9311971386F6
:103550001286D7018C9181508C93A68980910B02A1
:103560008A1710F4A0930B026A9FD00111248D01D9
:1035700009511E4F7801D80111968D919C91129797
:1035800095838483DC0114960D911C911597178304
:10359000068314960D911C911597D80113965C9390
:1035A0004E931297DC0115965C934E931497F38615
:1035B000E286D7018C918F5F8C93A0910E02B0911F
:1035C0000F02968956968C91981708F46ECF7093D7
:1035D00099016BCF80919801811108C08091990168
:1035E000813009F02AC10E94772C27C199E0BB24C1
:1035F000B3944FEF5FEF80919801882379F3809126
:10360000F702811107C12091B3013091B4012F5FFE
:103610003F4F3093B4012093B3012091B301309117
:10362000B4012115310589F56091B8017091B90196
:10363000E091B601F091B701F093B901E093B801C0
:103640007093B7016093B6018091B5018F5F80934D
:10365000B501E091B801F091B9018081811105C0F7
:1036600050939B0140939A0110C0E091B801F091F2
:10367000B9010580F681E02D0680F781E02D628199
:10368000738170939B0160939A0160919A0170918C
:103690009B0180E02617370708F4ADC0E091B80120
:1036A000F091B9016081611105C050939B01409375
:1036B0009A01A1C0E091B801F091B9010580F681AD
:1036C000E02D0680F781E02D628173812617370790
:1036D00028F470939B0160939A018DC0BF016E5FC7
:1036E0007F4FC284D384E480F58006811781D7019F
:1036F00015961C930E93149706811781D801139683
:10370000FC92EE921297D6011196ED90FC901297D2
:10371000E616F70621F412961C930E931197138662
:103720001286D6011C9111501C93848895888114AF
:10373000910429F106851785E088F188D80115964E
:10374000FC92EE921497E088F188D70113961C93AF
:103750000E931297D4011196CD90DC9012978F01A1
:10376000045F1F4FC016D10621F41296FC92EE9210
:103770001197158A148AD4011C9111501C93A689A3
:10378000B0910B02BA1710F4A0930B029A9FD001CC
:1037900011248D0109511E4F6801D80111960D9118
:1037A0001C91129715830483D8011496ED90FC9018
:1037B0001597F782E6821496ED90FC901597D70145
:1037C00013967C936E931297D80115967C936E9303
:1037D0001497D386C286D6016C916F5F6C93A091CB
:1037E0000E02B0910F02768956966C91761708F406
:1037F00055CF81E053CFE0910E02F0910F02E689A0
:103800009E9FF0011124E951FE4F2081223040F0AB
:1038100081E006C0809198018F5F8093980180E0DD
:1038200020919901211101C08111B09299018091DB
:103830009801815080939801DECE0F900FBE2097A3
:1038400069F4259A2D9ABFEFC0E7D2E0B150C0408D
:10385000D040E1F700C000001D9AF5CF8091F7023B
:103860008F5F8093F70289E290E00E94CD368C0151
:103870000FB6F8940F928091F70281508093F7026F
:103880008091F7028111D4C180911002882309F43C
:10389000CFC12091D1013091D20169E071E08091D6
:1038A000CC01882309F490C0D9011696ED91FC91C2
:1038B0001797C488D5884685578580899189DA010C
:1038C00015969C938E93149780899189DC011396A9
:1038D0005C934E931297AF01445F5F4FD6011196F0
:1038E000ED90FC901297E416F50621F412969C9345
:1038F0008E931197158A148AD6018C9181508C93DE
:10390000AF014E5F5F4FC284D384E480F58086812F
:103910009781D70115969C938E93149786819781F2
:10392000DC011396FC92EE921297D6011196ED905F
:10393000FC901297E416F50621F412969C938E9350
:10394000119713861286D6018C9181508C93A6898B
:1039500080910B028A1710F4A0930B026A9FD0018A
:103960001124CD0189519E4F6C01DC0111968D917E
:103970009C91129795838483DC011496ED90FC90C2
:103980001597F782E6821496ED90FC901597D70173
:1039900013965C934E931297DC0115965C934E93AD
:1039A0001497D386C286D6018C918F5F8C93A09199
:1039B0000E02B0910F02968956968C91981708F4D2
:1039C0006ECF709399016BCF80919801811108C0DF
:1039D00080919901813009F02BC10E94772C28C178
:1039E00089E0A82E992493946FEF7FEF809198013E
:1039F000882371F38091F702811107C18091B3018F
:103A00009091B40101969093B4018093B301809199
:103A1000B3019091B401009789F52091B8013091DC
:103A2000B9014091B6015091B7015093B90140934B
:103A3000B8013093B7012093B6012091B5012F5FF3
:103A40002093B501E091B801F091B90120812111D5
:103A500005C070939B0160939A0110C0E091B8017A
:103A6000F091B9010580F681E02D0680F781E02D07
:103A70002281338130939B0120939A0120919A01F6
:103A800030919B01B12C8217930708F4AEC0E091EE
:103A9000B801F091B9012081211105C070939B01FB
:103AA00060939A01A2C0E091B801F091B90105803C
:103AB000F681E02D0680F781E02D22813381821787
:103AC000930728F430939B0120939A018EC09F01A5
:103AD0002E5F3F4FC284D384E480F58046815781B6
:103AE000D70115965C934E93149746815781DA015E
:103AF0001396FC92EE921297D6011196ED90FC90DF
:103B00001297E216F30621F412965C934E931197E6
:103B100013861286D6014C9141504C936488758867
:103B20006114710429F146855785E088F188DA012E
:103B30001596FC92EE921497E088F188D7011396BF
:103B40005C934E931297D3011196CD90DC9012970F
:103B5000AF01445F5F4FC416D50621F41296FC9264
:103B6000EE921197158A148AD3014C9141504C93CF
:103B7000A68940910B024A1710F4A0930B02AA9E4B
:103B8000D0011124AD0149515E4F6A01DA0111964D
:103B90004D915C91129755834483DA011496ED9010
:103BA000FC901597F782E6821496ED90FC9015979D
:103BB000D70113963C932E931297DA0115963C93F6
:103BC0002E931497D386C286D6012C912F5F2C9307
:103BD000A0910E02B0910F02368956962C913217A1
:103BE00008F455CFBB24B39452CFE0910E02F0916C
:103BF0000F02E689AE9EF0011124E951FE4F80814B
:103C0000823048F0BB24B39406C0809198018F5F46
:103C100080939801B12C80919901811101C0B1105C
:103C20009092990180919801815080939801DECE05
:103C30000F900FBE0115110569F4259A2D9ABFEF5B
:103C4000C0E7D2E0B150C040D040E1F700C0000072
:103C50001D9AF5CFF801D08FC78B45E550E065EA96
:103C600070E0CE010E940838D8015996E7E1F1E0F2
:103C700098E09E0F81918D93882311F09E13FACFC7
:103C8000D80190961C92909783E056968C93569705
:103C900091968C93919792961C9292971B961C9258
:103CA0001E921A9755961C921E92549719961C9321
:103CB0000E93189721E030E01D963C932E931C97AD
:103CC00053961C930E935297F80113A214A215A2B7
:103CD00016A210A617A2FE01EC5AFF4F21E1208385
:103CE000319792E29083319733E3308346E658E28E
:103CF000319740833197508331971082319730E864
:103D0000308331971082319732E03083319780834E
:103D1000319784E08083319785E08083319786E016
:103D20008083319787E08083319788E08083319763
:103D300089E08083319780E18083319720833197B8
:103D400082E18083319783E18083319784E18083AE
:103D500085E18FAF86E18EAF87E18DAF88E18CAFD3
:103D600089E18BAF80E28AAF81E289AF98AF83E2CD
:103D70008FAB1EAA1DAA86E28CAB87E28BAB88E2D2
:103D80008AAB89E289AB80E388AB81E38FA7AE96EB
:103D9000CD93DC930FB6F8940F92809110028F5F51
:103DA0008093100280910E0290910F02892B09F0EE
:103DB00091C010930F0200930E0280911002813087
:103DC00009F097C0E7EEF1E04FEF5FEF9F012D5F45
:103DD0003F4F328321838FEF9FEF5483438336839A
:103DE00025833087278310823996B2E0EB30FB07BA
:103DF00069F721EE31E03093E0012093DF019093E9
:103E0000E2018093E1013093E4012093E3013093D8
:103E1000E6012093E5011092DE0128ED31E03093B8
:103E2000D7012093D6019093D9018093D801309384
:103E3000DB012093DA013093DD012093DC01109245
:103E4000D5012FEC31E03093CE012093CD0190933A
:103E5000D0018093CF013093D2012093D1013093D0
:103E6000D4012093D3011092CC0126EC31E03093A1
:103E7000C5012093C4019093C7018093C60130937C
:103E8000C9012093C8013093CB012093CA0110923D
:103E9000C3012DEB31E03093BC012093BB01909323
:103EA000BE018093BD013093C0012093BF013093C8
:103EB000C2012093C1011092BA018EED91E090935E
:103EC000B9018093B80185ED91E09093B70180939B
:103ED000B6010FC080910D0281110BC0E0910E025E
:103EE000F0910F028689883020F410930F0200931E
:103EF0000E0280910C028F5F80930C02E801EE8924
:103F000080910B028E1710F4E0930B02C801029609
:103F1000D9E0ED9FF0011124E951FE4FA181B2815A
:103F2000E801BD83AC8314962D913C9115973F8396
:103F30002E831496CD91DC9115979B838A831596D9
:103F40009C938E931497D8011B96FC93EE931A972B
:103F500080818F5F80830F900FBE80910D02882338
:103F600049F0E0910E02F0910F028689873010F43B
:103F70000E94772CF8948FEF9FEF90939B01809392
:103F80009A0181E080930D021092B4011092B30166
:103F9000A89520EC88E190E00FB6F894A89580935E
:103FA00060000FBE20936000A0910E02B0910F023E
:103FB000CD91CDBFDD91DEBFFF91EF91DF91CF912C
:103FC000BF91AF919F918F917F916F915F914F9131
:103FD0003F912F911F910F91FF90EF90DF90CF9025
:103FE000BF90AF909F908F907F906F905F904F9019
:103FF0003F902F901F900F900FBE0F900895259A1D
:104000002D9ABFEFC0E7D2E0B150C040D040E1F7F9
:1040100000C000001D9AF5CFCF93DF93CDB7DEB778
:10402000A1970FB6F894DEBF0FBECDBF0AE0402EB9
:10403000512C612C712C81E3982E7E0100E2E00E60
:10404000F11C90E0A92E90E0B92E8091AE0188235A
:1040500061F10E94A62B1091C3010E943D2D1123F6
:10406000A1F30FB6F8940F92E091C801F091C90145
:1040700006811781C80102960E94AF2B8091100221
:104080008150809310028091AE0181508093AE01E7
:104090000F900FBED80157968D919C9158970E9412
:1040A000CE2EC8010E94CE2ED0CF8091E701823063
:1040B00010F00E94772C2FB7F8948091AE02909167
:1040C000AF02A091B002B091B1022FBF892B8A2B11
:1040D0008B2B81F42FB7F8948091AE029091AF02B0
:1040E000A091B002B091B1022FBF0297A105B10516
:1040F00008F480C12FB7F8948091AE029091AF027E
:10410000A091B002B091B1022FBF8093F3029093BF
:10411000F402A093F502B093F6024091EF025091A1
:10412000F0026091F1027091F20284179507A607E0
:10413000B70740F48093EF029093F002A093F1024E
:10414000B093F2024091EF025091F0026091F102BF
:104150007091F2028C019D01041B150B260B370B8D
:104160000A3F11052105310508F444C18093EF028F
:104170009093F002A093F102B093F2022FB7F8945B
:104180008091AE029091AF02A091B002B091B102C5
:104190002FBF4091B9025091BA026091BB02709159
:1041A000BC02841B950BA60BB70BC297A105B105EA
:1041B00008F435C12FB7F8948091AE029091AF0208
:1041C000A091B002B091B1022FBF8093B902909339
:1041D000BA02A093BB02B093BC028091E902909115
:1041E000EA02DC01ED91FC910280F381E02D47E0D1
:1041F00050E06CE371E009958091E9029091EA0248
:10420000DC01ED91FC910280F381E02D41E050E072
:1042100064E471E009958FB7F8942091AE02309173
:10422000AF024091B0025091B1028FBFC090E9023D
:10423000D090EA0219A28E010F5D1F4FCA01B90189
:10424000A30192010E943339605DF80162938F01EE
:10425000211531054105510589F7309781F001900D
:104260000020E9F73197AF01401B510BD601ED91CA
:10427000FC910280F381E02DB801C601099580917F
:10428000E9029091EA02DC01ED91FC910280F38158
:10429000E02D48E050E066E471E009953FB7F894FE
:1042A0008091B2029091B302A091B402B091B50294
:1042B00026B5A89919C13FBFBA2FA92F982F8827D3
:1042C000820F911DA11DB11D12E0880F991FAA1F19
:1042D000BB1F1A95D1F705E010E020E030E0FFB7F2
:1042E000F8944091B2025091B3026091B40270917F
:1042F000B502E6B5A899FFC0FFBF762F652F542FF2
:1043000044274E0F511D611D711DE2E0440F551FE2
:10431000661F771FEA95D1F7481B590B6A0B7B0B79
:10432000483E53406105710540F0015011092109D3
:10433000310988519C4FAF4FBF4F01151105210521
:10434000310569F63FB7F8948091B2029091B302BB
:10435000A091B402B091B50226B5A899D4C03FBFD0
:10436000BA2FA92F982F8827820F911DA11DB11D4B
:1043700012E0880F991FAA1FBB1F1A95D1F70AE0F8
:1043800010E020E030E0FFB7F8944091B202509185
:10439000B3026091B4027091B502E6B5A899BAC0B3
:1043A000FFBF762F652F542F44274E0F511D611DDF
:1043B000711DE2E0440F551F661F771FEA95D1F784
:1043C000481B590B6A0B7B0B483E53406105710536
:1043D00040F0015011092109310988519C4FAF4F1C
:1043E000BF4F011511052105310569F68091BD0208
:1043F000811198C0A114B10409F427CE80912A023A
:1044000020912B0290E0805C9F4F821B91098F735B
:104410009927892B09F419CE0E94000016CE3FB7C8
:10442000F8948091B2029091B302A091B402B0913D
:10443000B50226B5A89B05C02F3F19F00196A11D16
:10444000B11D3FBFBA2FA92F982F8827820F911D2A
:10445000A11DB11D12E0880F991FAA1FBB1F1A953D
:10446000D1F703E010E020E030E0FFB7F89440918E
:10447000B2025091B3026091B4027091B502E6B5F8
:10448000A89B06C0EF3F21F04F5F5F4F6F4F7F4FFC
:10449000FFBF762F652F542F44274E0F511D611DEE
:1044A000711DE2E0440F551F661F771FEA95D1F793
:1044B000481B590B6A0B7B0B483E53406105710545
:1044C00068F0015011092109310988519C4FAF4F03
:1044D000BF4F011511052105310539F601151105EB
:1044E0002105310511F64ACE2F3F09F4E4CE01969D
:1044F000A11DB11DE0CEEF3F09F4FECE4F5F5F4F2F
:104500006F4F7F4FF9CE2F3F09F429CF0196A11DA0
:10451000B11D25CFEF3F09F443CF4F5F5F4F6F4F82
:104520007F4F3ECF8091E9029091EA02DC01ED914C
:10453000FC910480F581E02D0995892B99F38091F8
:10454000E9029091EA02DC01ED91FC910480F58191
:10455000E02D0995181619060CF04CCF8091E90250
:104560009091EA02DC01ED91FC910680F781E02D4B
:10457000099599278336910551F08637910509F4FD
:1045800039CF88359105D9F61092BD02D8CF8091E8
:10459000E9029091EA02DC01ED91FC910280F38145
:1045A000E02D46E050E06FE471E009958091E9026A
:1045B0009091EA0219A298A2F70101900020E9F770
:1045C0003197AF014E195F09DC01ED91FC9102803A
:1045D000F381E02DB70109958091E9029091EA02FB
:1045E000DC01ED91FC910280F381E02D48E050E088
:1045F00066E571E009953FB7F8948091B202909119
:10460000B302A091B402B091B50226B5A89B05C033
:104610002F3F19F00196A11DB11D3FBFBA2FA92F41
:10462000982F8827820F911DA11DB11D12E0880FC0
:10463000991FAA1FBB1F1A95D1F702E310E020E0D3
:1046400030E0FFB7F8944091B2025091B30260910C
:10465000B4027091B502E6B5A89B06C0EF3F21F009
:104660004F5F5F4F6F4F7F4FFFBF762F652F542FE8
:1046700044274E0F511D611D711DE2E0440F551F6F
:10468000661F771FEA95D1F7481B590B6A0B7B0B06
:10469000483E53406105710540F001501109210960
:1046A000310988519C4FAF4FBF4F011511052105AE
:1046B000310539F69FCE4F925F926F927F928F9223
:1046C0009F92AF92BF92CF92DF92EF92FF928E3085
:1046D00008F08E5087702091000190E4299F90018E
:1046E0001124822B80937C0080917A0080648093D7
:1046F0007A0080917A0086FDFCCF609178008091ED
:10470000790070E07B01F82AF092B201E092B101E9
:104710000E9427274B015C0145E050E060E070E01B
:104720008091B6029091B7020E947A31813009F0EF
:1047300012C16FE571E081E192E00E94CD26B7FEE3
:1047400005C0C501B4010E94EE2407C02AE0B501EE
:10475000A40181E192E00E9484266FE671E081E18C
:1047600092E00E94CD264091B1015091B201052EF8
:10477000000C660B770B77FF05C0CB01BA010E94D6
:10478000EE2405C02AE081E192E00E948426B70170
:10479000FF0C880B990B0E9416382DEC3CEC4CE872
:1047A0005AE30E9475382DEC3CEC4CEC5EE30E9421
:1047B000B53527E73EEB4FE95CE30E9422366B01FB
:1047C0007C014B015C016BE771E081E192E00E94AA
:1047D000CD26A7019601C701B6010E94C8368823DD
:1047E00019F065E871E01AC026013701E89477F8FE
:1047F0002FEF3FEF4FE75FE7C301B2010E94C836DA
:10480000811111C02FEF3FEF4FE75FE7C301B20106
:104810000E940F3818163CF469E871E081E192E0DB
:104820000E946F2686C02FEF3FEF4FE75FE4C7017E
:10483000B6010E94C33618161CF46DE871E0EECF85
:104840002FEF3FEF4FE75FECC701B6010E940F3833
:1048500087FDF3CF20E030E0A901C701B6010E9437
:104860000F3887FF11C0E0911102F0911202019000
:10487000F081E02D6DE281E192E00995460157015A
:10488000B7FAB094B7F8B0942AE037ED43EA5BE3A7
:10489000C501B4010E94B6354B015C010E949436FB
:1048A0006B017C010E9414389B01AC01C501B4016D
:1048B0000E94B5354B015C012AE0B701A60181E1F8
:1048C00092E00E94842661E971E081E192E00E9419
:1048D0006F2620E030E040E251E4C501B4010E94BF
:1048E00075384B015C010E9494366B01E12CF12C70
:1048F0002AE0B701A60181E192E00E948426C70167
:10490000B6010E9414389B01AC01C501B4010E949C
:10491000B53520E030E040E251E40E9475380E9455
:104920009436AB0160E070E02AE081E192E00E9401
:1049300084266CE571E081E192E0FF90EF90DF90DA
:10494000CF90BF90AF909F908F907F906F905F902F
:104950004F900C946F26FF90EF90DF90CF90BF9018
:10496000AF909F908F907F906F905F904F90089541
:104970008FE090E00E945B230E945E31F9CF8EE0D1
:1049800090E00E945B230E945E31F9CFE1E1F2E00A
:10499000A089B18982E08C93A485B5851C92A685F7
:1049A000B78580E18C93108EA489B58986E08C93BD
:1049B000A289B3898C9180618C93A289B3898C91EF
:1049C00088608C93A289B3898C9180688C930288CB
:1049D000F389E02D80818F7D80830895CF92DF92CF
:1049E000EF92FF92CF93DF936B017C01E091110274
:1049F000F09112020190F081E02D6DE281E192E0F0
:104A00000995EC0144275527BA014C195D096E0937
:104A10007F092AE081E192E00E9484268C0F9D1F8D
:104A2000DF91CF91FF90EF90DF90CF900895CF92DC
:104A3000DF92EF92FF920F931F93CF93DF936C015E
:104A40007A018B01C0E0D0E0CE15DF0589F0D801F6
:104A50006D918D01D601ED91FC910190F081E02DD9
:104A6000C6010995892B11F47E0102C02196ECCF75
:104A7000C701DF91CF911F910F91FF90EF90DF90D1
:104A8000CF900895FC01918D828D981761F0828DF1
:104A9000DF01A80FB11D5D968C91928D9F5F9F7372
:104AA000928F90E008958FEF9FEF0895FC01918D14
:104AB000828D981731F0828DE80FF11D858D90E081
:104AC00008958FEF9FEF0895FC01918D228D892F1E
:104AD00090E0805C9F4F821B91098F739927089506
:104AE00081E192E00E94642521E0892B09F420E015
:104AF000822F0895FC01848DDF01A80FB11DA35AF8
:104B0000BF4F2C91848D90E001968F739927848FED
:104B1000A689B7892C93A089B1898C9180648C93E4
:104B2000938D848D981306C00288F389E02D8081CF
:104B30008F7D80830895EF92FF920F931F93CF9301
:104B4000DF93EC0181E0888F9B8D8C8D981305C0DD
:104B5000E889F989808185FD24C0F62E0B8D10E04F
:104B60000F5F1F4F0F731127E02E8C8DE8120CC0C2
:104B70000FB607FCFACFE889F989808185FFF5CF68
:104B8000CE010E947A25F1CF8B8DFE01E80FF11D39
:104B9000E35AFF4FF0820B8FEA89FB8980818062A4
:104BA00007C0EE89FF896083E889F9898081806484
:104BB000808381E090E0DF91CF911F910F91FF9072
:104BC000EF900895CF93DF93EC01888D8823C9F08F
:104BD000EA89FB89808185FD05C0A889B9898C9106
:104BE00086FD0FC00FB607FCF5CF808185FFF2CFA1
:104BF000A889B9898C9185FFEDCFCE010E947A25D5
:104C0000E7CFDF91CF91089580E090E0892B29F0E4
:104C10000E94702581110C94000008953FB7F8940C
:104C20008091B2029091B302A091B402B091B5020A
:104C300026B5A89B05C02F3F19F00196A11DB11DF7
:104C40003FBFBA2FA92F982F8827820F911DA11D32
:104C5000B11DBC01CD0142E0660F771F881F991F6F
:104C60004A95D1F708958F929F92AF92BF92CF92BB
:104C7000DF92EF92FF926B017C010E940E264B01A6
:104C80005C01C114D104E104F104F1F00E940E268C
:104C9000DC01CB0188199909AA09BB09883E934018
:104CA000A105B10570F321E0C21AD108E108F108AD
:104CB00088EE880E83E0981EA11CB11CC114D1049B
:104CC000E104F10419F7DDCFFF90EF90DF90CF9072
:104CD000BF90AF909F908F9008950E94FA37611512
:104CE000710579F0FB0101900020E9F73197AF01E0
:104CF000461B570BDC01ED91FC910280F381E02D06
:104D0000099480E090E008954F925F926F927F92B5
:104D1000EF92FF920F931F93CF93DF93CDB7DEB740
:104D2000A1970FB6F894DEBF0FBECDBF7C01FA018C
:104D3000CB0119A2223008F42AE08E010F5D1F4F2B
:104D4000422E512C612C712CBF01A30192010E94B3
:104D50003339F901CA01015011096A3014F4605D58
:104D600001C0695CD8016C93232B242B252B61F7A0
:104D7000B801C7010E946F26A1960FB6F894DEBF56
:104D80000FBECDBFDF91CF911F910F91FF90EF909C
:104D90007F906F905F904F9008950C946F261F92B4
:104DA0000F920FB60F9211242F933F934F935F935F
:104DB0006F937F938F939F93AF93BF93EF93FF93E3
:104DC00081E192E00E947A25FF91EF91BF91AF912E
:104DD0009F918F917F916F915F914F913F912F9113
:104DE0000F900FBE0F901F9018951F920F920FB645
:104DF0000F9211242F938F939F93EF93FF93E09142
:104E00002102F09122028081E0912702F091280294
:104E100082FD12C0908180912A028F5F8F73209152
:104E20002B02821751F0E0912A02F0E0EF5EFD4F75
:104E3000958F80932A0201C08081FF91EF919F910D
:104E40008F912F910F900FBE0F901F9018952FB735
:104E5000F8946091AE027091AF028091B00290918F
:104E6000B1022FBF08951F920F920FB60F92112417
:104E70002F933F938F939F93AF93BF938091AE02F5
:104E80009091AF02A091B002B091B1023091FA02BC
:104E900023E0230F2D3720F40196A11DB11D05C07D
:104EA00026E8230F0296A11DB11D2093FA028093DC
:104EB000AE029093AF02A093B002B093B102809182
:104EC000B2029091B302A091B402B091B5020196E2
:104ED000A11DB11D8093B2029093B302A093B402BE
:104EE000B093B502BF91AF919F918F913F912F9158
:104EF0000F900FBE0F901F901895FC017383628373
:104F0000918780874617570778F0421B530B84859B
:104F1000958548175907C8F4BF016E5F7F4F809190
:104F20009401909195010DC04217530718F4621730
:104F3000730758F4BF016E5F7F4F80919601909187
:104F400097010E94692E80E0089581E00895EF9214
:104F5000FF920F931F93CF93DF93E0919601F0910F
:104F600097018081882369F10580F681E02D008119
:104F70001181C681D7817E0182E0E80EF11CC70154
:104F80000E94AF2BE989FA89CE0109958E8581307F
:104F900021F72C853D85200F311F0217130760F480
:104FA0003B832A83D987C887B70180919601909166
:104FB00097010E94692ED1CFB801CE010E946C33B7
:104FC000CCCF80919401909195019093970180931B
:104FD0009601F0939501E0939401DF91CF911F9199
:104FE0000F91FF90EF9008950F931F93CF93DF934E
:104FF000FC01892B11F480E02CC082A1815082A396
:10500000268991A12917B9F38111F5CFEF018F01FD
:105010000E5F1F4FC8010E94AF2B99A19E8B492F95
:1050200050E024E030E0241B350B3D872C87809135
:105030000B02891710F490930B0229E0249FC00102
:10504000259F900D1124B80189519E4F0E94D22BAB
:1050500081E0DF91CF911F910F910895CF93DF935E
:10506000E0910E02F0910F02938382832091B301AD
:105070003091B4018217930770F460910E02709121
:105080000F028091B6019091B7016E5F7F4FDF9163
:10509000CF910C94692EEC0160910E0270910F0279
:1050A0008091B8019091B9016E5F7F4F0E94692E87
:1050B00080919A0190919B01C817D90720F4D09351
:1050C0009B01C0939A01DF91CF910895CF93DF9315
:1050D000CDB7DEB727970FB6F894DEBF0FBECDBFB2
:1050E000E0919601F091970111E08081882339F0D9
:1050F00010E00580F681E02DE080F18002C0E12C17
:10510000F12C0E94A62B0E949C2B6C018091AF0178
:105110009091B001C816D90620F40E94A72781E01B
:1051200001C080E0D092B001C092AF01811189C06E
:10513000111131C0CE14DF04A8F10E943D2DE09181
:105140009601F09197010580F681E02D0681178187
:10515000C80102960E94AF2BD8011E968C911E9713
:10516000813089F41C966D917C911D976E0D7F1D89
:105170009701A601C8010E947D27813021F4B70163
:10518000C8010E946C33D8015196ED91FC91529761
:10519000C80109955CC0E0919401F091950121E06E
:1051A0008081811120E00091F8021091F9020FB680
:1051B000F8940F92F801858D8F3F09F4158ED80170
:1051C0005E968C915E978F3F11F45E961C920F90C5
:1051D0000FBEF801828D81112AC060910E0270917C
:1051E0000F02645F7F4FC80141962E830E94D22B2D
:1051F00080910E0290910F0202960E94AF2B2E8199
:10520000213059F460910E0270910F026E5F7F4F52
:105210008AEB91E00E94D22B0AC08091B301909159
:10522000B4018E0D9F1D8C199D090E942E28C80166
:105230000E94332C0E943D2D811109C00E94772CC1
:1052400006C00E943D2D03C0898187FF0EC040E04B
:1052500050E0BE016F5F7F4F8091F8029091F9029C
:105260000E947A318111F0CF3BCF0C811D81D80192
:105270001A968D919C911B97892B21F0C80102965B
:105280000E94AF2B0E949C2BAC018091AF019091AA
:10529000B0014817590730F44E835F830E94A72757
:1052A0005F814E815093B0014093AF01E9818E2F11
:1052B000EE0F990BAA0BBB0B8A30910540F6FC014F
:1052C000EC5CFF4F0C94AF352A813B81F80164857B
:1052D0007585620F731FC8010E947D27813009F018
:1052E000B6CFD8015196ED91FC915297C80109951E
:1052F000F8018685813009F0AACF648575858A8199
:105300009B81680F791FC8010E946C33A0CF6A810E
:105310007B81D8011D967C936E931C97640F751F3B
:105320009A01C8010E947D2792CFC8010E94CE2E0B
:105330008ECFFC010FB6F8940F928091B30190913B
:10534000B401DB012D913C912F3FBFEF3B0701F1F1
:10535000B091B501A08141815281BA1719F084172B
:105360009507C0F4DC01A41BB50BA217B30790F49A
:10537000481B590B240F351FDB012D933C93809163
:10538000B50180838091B3019091B40192838183B0
:1053900080E001C081E00F900FBE08950F920FB61C
:1053A000F8940F921F9211242F923F924F925F9286
:1053B0006F927F928F929F92AF92BF92CF92DF9225
:1053C000EF92FF920F931F932F933F934F935F930F
:1053D0006F937F938F939F93AF93BF93CF93DF93FD
:1053E000EF93FF93A0910E02B0910F020DB60D92B4
:1053F0000EB60D9213BE8091F7028111F6C0809116
:10540000B3019091B40101969093B4018093B301DC
:105410002091B3013091B4012115310599F58091A6
:10542000B8019091B9014091B6015091B7015093E4
:10543000B9014093B8019093B7018093B601809170
:10544000B5018F5F8093B501E091B801F091B9018A
:105450008081811107C08FEF9FEF90939B01809314
:105460009A0110C0E091B801F091B9010580F68170
:10547000E02D0680F781E02D8281938190939B013E
:1054800080939A0180919A0190919B012817390786
:1054900010F480E09AC080E019E0E091B801F0914A
:1054A000B9019081911107C02FEF3FEF30939B011D
:1054B00020939A018AC0E091B801F091B90105806A
:1054C000F681E02D0680F781E02D4281538124177B
:1054D000350728F450939B0140939A0176C0AF01A1
:1054E0004E5F5F4FA285B38564817581E680F7804A
:1054F000EB01FD82EC82C681D7817B836A831196A2
:105500006D917C9112976417750721F41296DC93C4
:10551000CE931197138612869C9191509C93A489E7
:10552000B5891097F1F066857785E088F188EB0101
:10553000FD82EC82C089D1897B836A831196ED90CC
:10554000FC901297BF01645F7F4FE616F70621F4C7
:105550001296DC93CE931197158A148A9C919150E0
:105560009C93A68990910B029A1710F4A0930B02BA
:105570001A9FD0011124BD0169517E4F7B01DB01CF
:105580001196CD91DC911297D583C4836C817D8176
:10559000778366836C817D81DB0113965C934E93E8
:1055A00012975D834C83F386E286E70198819F5FC3
:1055B0009883A0910E02B0910F02468956969C9155
:1055C000491708F46ACF81E068CFE0910E02F091AC
:1055D0000F02E689D9E0ED9FF0011124E951FE4F59
:1055E0009081923040F081E006C0809198018F5FF9
:1055F0008093980180E090919901911103C08823D4
:1056000009F46FC08091F702882321F081E0809334
:10561000990167C010929901A0910E02B0910F02FA
:10562000E0910E02F0910F022D913C918789908DAF
:1056300082179307D8F080910E0290910F0280910B
:105640000E0290910F02259A2D9A2FEF67EA71E6CC
:10565000215060407040E1F700C000001D9AF5CF76
:1056600080910B02815080930B0201C099E0E09180
:105670000B029E9FF0011124E951FE4F8081882387
:1056800079F380910B0290E049E0489F9001499F97
:10569000300D1124F901E951FE4FA181B28112961A
:1056A0000D90BC91A02DB283A18326513E4FA2172D
:1056B000B30731F412962D913C91139732832183D5
:1056C00029E0289FF001299FF00D1124E951FE4F98
:1056D0000180F281E02D8681978190930F02809363
:1056E0000E02A0910E02B0910F02CD91CDBFDD91BF
:1056F000DEBFFF91EF91DF91CF91BF91AF919F916D
:105700008F917F916F915F914F913F912F911F9159
:105710000F91FF90EF90DF90CF90BF90AF909F9050
:105720008F907F906F905F904F903F902F901F9041
:105730000F900FBE0F9008950FB6F8940F928091BE
:10574000B3019091B4010F900FBE08958091F702BC
:105750008F5F8093F70208950E94CE291895CF930A
:10576000DF93FC01A085B1858281938124813581FD
:10577000EC013D832C83C481D5819B838A83119660
:105780008D919C9112978E179F0721F41296DC93AE
:10579000CE931197118610868C9181508C93DF9156
:1057A000CF910895CF93DF939C01FB01DC0111960B
:1057B000CD91DC911297D383C2838C819D81958397
:1057C00084838C819D81DC0113967C936E93129768
:1057D0007D836C8331872087F90180818F5F80838F
:1057E000DF91CF9108950F931F93CF93DF93DC0147
:1057F0001596ED91FC911697C681D7818E01045FB5
:105800001F4FC8010E94AF2B8091F702811114C075
:105810000A501109C8010E94AF2B9E8980910B028A
:10582000891710F490930B02B9E09B9FC0011124DB
:10583000B80189519E4F03C0B8018CEC91E00E94E1
:10584000D22BE0910E02F0910F029E898689891772
:1058500020F481E08093990101C080E0DF91CF9135
:105860001F910F910895FF920F931F93CF93DF9392
:10587000EC010FB6F8940F928C010F5E1F4FFF24BE
:10588000F3949E8D19166CF48989882351F0C80110
:105890000E94F32B8111F09299019E8D91509E8F61
:1058A000F0CF8FEF8E8F0F900FBE0FB6F8940F9240
:1058B0008E01085F1F4FFF24F3949D8D19166CF421
:1058C0008885882351F0C8010E94F32B8111F09242
:1058D00099019D8D91509D8FF0CF8FEF8D8F0F90FF
:1058E0000FBEDF91CF911F910F91FF9008950F92FE
:1058F0000FB6F8940F921F9211242F923F924F925D
:105900005F926F927F928F929F92AF92BF92CF924F
:10591000DF92EF92FF920F931F932F933F934F933A
:105920005F936F937F938F939F93AF93BF93CF9327
:10593000DF93EF93FF93A0910E02B0910F020DB68B
:105940000D920EB60D928091F702882321F081E02E
:105950008093990167C010929901A0910E02B091B5
:105960000F02E0910E02F0910F022D913C91878978
:10597000908D82179307D8F080910E0290910F02BC
:1059800080910E0290910F02259A2D9A2FEF87EAAF
:1059900091E6215080409040E1F700C000001D9A40
:1059A000F5CF80910B02815080930B0201C099E0EA
:1059B000E0910B029E9FF0011124E951FE4F80817E
:1059C000882379F380910B0290E049E0489F900191
:1059D000499F300D1124F901E951FE4FA181B28197
:1059E00012960D90BC91A02DB283A18326513E4FFB
:1059F000A217B30731F412962D913C91139732837D
:105A0000218329E0289FF001299FF00D1124E951FD
:105A1000FE4F0180F281E02D8681978190930F02E5
:105A200080930E02A0910E02B0910F02CD91CDBFD6
:105A3000DD91DEBFFF91EF91DF91CF91BF91AF91EB
:105A40009F918F917F916F915F914F913F912F9196
:105A50001F910F91FF90EF90DF90CF90BF90AF908C
:105A60009F908F907F906F905F904F903F902F907E
:105A70001F900F900FBE0F9008959F92AF92BF920C
:105A8000CF92DF92EF92FF920F931F93CF93DF930A
:105A90000FB6F8940F928091F70281508093F7022D
:105AA0008091F702882311F080E005C180911002F7
:105AB0008823D1F399E0F92EEE24E3948091CC0170
:105AC000882351F1E091D101F091D201C681D781B3
:105AD000CE010C960E94AF2B8E010E5F1F4FC801A6
