:100000000C9435000C945D000C945D000C945D0024
:100010000C945D000C945D000C945D000C945D00EC
:100020000C945D000C945D000C945D000C945D00DC
:100030000C945D000C945D000C945D000C945D00CC
:100040000C94A3020C945D000C9471020C944B026E
:100050000C945D000C945D000C945D000C945D00AC
:100060000C945D000C945D00AA0511241FBECFEF17
:10007000D8E0DEBFCDBF11E0A0E0B1E0E4E8F0E100
:1000800002C005900D92AA36B107D9F722E0AAE680
:10009000B1E001C01D92A135B207E1F710E0C5E360
:1000A000D0E004C02197FE010E94D705C433D107D8
:1000B000C9F70E94ED020C9440080C940000E4EB98
:1000C000F1E0A089B18982E08C93A485B5851C926A
:1000D000A685B78580E18C93108EA489B58986E0CA
:1000E0008C93A289B3898C9180618C93A289B38906
:1000F0008C9188608C93A289B3898C9180688C9351
:100100000288F389E02D80818F7D80830895CF92CE
:10011000DF92EF92FF920F931F93CF93DF936C01C7
:100120007A018B01C0E0D0E0CE15DF0589F0D8015F
:100130006D918D01D601ED91FC910190F081E02D42
:10014000C6010995892B11F47E0102C02196ECCFDE
:10015000C701DF91CF911F910F91FF90EF90DF903A
:10016000CF900895FC01918D828D981761F0828D5A
:10017000DF01A80FB11D5D968C91928D9F5F9F73DB
:10018000928F90E008958FEF9FEF0895FC01918D7D
:10019000828D981731F0828DE80FF11D858D90E0EA
:1001A00008958FEF9FEF0895FC01918D228D892F87
:1001B00090E0805C9F4F821B91098F73992708956F
:1001C00084EB91E00E94D40021E0892B09F420E027
:1001D000822F0895FC01848DDF01A80FB11DA35A61
:1001E000BF4F2C91848D90E001968F739927848F57
:1001F000A689B7892C93A089B1898C9180648C934E
:10020000938D848D981306C00288F389E02D808138
:100210008F7D80830895EF92FF920F931F93CF936A
:10022000DF93EC0181E0888F9B8D8C8D981305C046
:10023000E889F989808185FD24C0F62E0B8D10E0B8
:100240000F5F1F4F0F731127E02E8C8DE8120CC02B
:100250000FB607FCFACFE889F989808185FFF5CFD1
:10026000CE010E94EA00F1CF8B8DFE01E80FF11D57
:10027000E35AFF4FF0820B8FEA89FB89808180620D
:1002800007C0EE89FF896083E889F98980818064ED
:10029000808381E090E0DF91CF911F910F91FF90DB
:1002A000EF900895CF93DF93EC01888D8823C9F0F8
:1002B000EA89FB89808185FD05C0A889B9898C916F
:1002C00086FD0FC00FB607FCF5CF808185FFF2CF0A
:1002D000A889B9898C9185FFEDCFCE010E94EA00F3
:1002E000E7CFDF91CF91089580E090E0892B29F04E
:1002F0000E94E00081110C94000008953FB7F8942B
:1003000080916F0190917001A0917101B091720183
:1003100026B5A89B05C02F3F19F00196A11DB11D60
:100320003FBFBA2FA92F982F8827820F911DA11D9B
:10033000B11DBC01CD0142E0660F771F881F991FD8
:100340004A95D1F708958F929F92AF92BF92CF9224
:10035000DF92EF92FF926B017C010E947E014B01C4
:100360005C01C114D104E104F104F1F00E947E01AA
:10037000DC01CB0188199909AA09BB09883E934081
:10038000A105B10570F321E0C21AD108E108F10816
:1003900088EE880E83E0981EA11CB11CC114D10404
:1003A000E104F10419F7DDCFFF90EF90DF90CF90DB
:1003B000BF90AF909F908F9008952FB7F894609161
:1003C0006B0170916C0180916D0190916E012FBF56
:1003D00008950E94F5066115710579F0FB01019001
:1003E0000020E9F73197AF01461B570BDC01ED9177
:1003F000FC910280F381E02D099480E090E0089563
:100400004F925F926F927F92EF92FF920F931F93A2
:10041000CF93DF93CDB7DEB7A1970FB6F894DEBFC9
:100420000FBECDBF7C01FA01CB0119A2223008F426
:100430002AE08E010F5D1F4F422E512C612C712C32
:10044000BF01A30192010E941E08F901CA010150D7
:1004500011096A3014F4605D01C0695CD8016C93C5
:10046000232B242B252B61F7B801C7010E94EB0138
:10047000A1960FB6F894DEBF0FBECDBFDF91CF912E
:100480001F910F91FF90EF907F906F905F904F9032
:1004900008950C94EB011F920F920FB60F92112446
:1004A0002F933F934F935F936F937F938F939F937C
:1004B000AF93BF93EF93FF9384EB91E00E94EA0028
:1004C000FF91EF91BF91AF919F918F917F916F912C
:1004D0005F914F913F912F910F900FBE0F901F9002
:1004E00018951F920F920FB60F9211242F938F938E
:1004F0009F93EF93FF93E091C401F091C501808138
:10050000E091CA01F091CB0182FD12C090818091EF
:10051000CD018F5F8F732091CE01821751F0E09152
:10052000CD01F0E0EC54FE4F958F8093CD0101C0DA
:100530008081FF91EF919F918F912F910F900FBE2E
:100540000F901F9018951F920F920FB60F921124C3
:100550002F933F938F939F93AF93BF9380916B01A2
:1005600090916C01A0916D01B0916E0130916A0182
:1005700023E0230F2D3720F40196A11DB11D05C0E6
:1005800026E8230F0296A11DB11D20936A018093D6
:100590006B0190936C01A0936D01B0936E018091FB
:1005A0006F0190917001A0917101B091720101965B
:1005B000A11DB11D80936F0190937001A0937101F3
:1005C000B0937201BF91AF919F918F913F912F9105
:1005D0000F900FBE0F901F901895789484B582608D
:1005E00084BD84B5816084BD85B5826085BD85B5D7
:1005F000816085BD80916E00816080936E00109255
:1006000081008091810082608093810080918100CF
:100610008160809381008091800081608093800060
:100620008091B10084608093B1008091B0008160BE
:100630008093B00080917A00846080937A008091EA
:100640007A00826080937A0080917A008160809342
:100650007A0080917A00806880937A001092C100BD
:100660001092A8011092A9011092AA011092AB0158
:100670001092760110927701109278011092790110
:1006800060ED77E080E090E00E94A30184EB91E0D0
:100690009093A7018093A6010E945F000E94DD0154
:1006A000C0907601D0907701E0907801F0907901C8
:1006B000DC01CB018C199D09AE09BF09C297A105C8
:1006C000B10538F463E070E080E090E00E94A3019F
:1006D000E5CF0E94DD0160937601709377018093EE
:1006E00078019093790161E171E08091A601909188
:1006F000A7010E9449026AE070E080E090E00E9459
:10070000A30181E080937A010E945F0083E08093DF
:1007100000010E94DD01672B682B692B09F069C17C
:100720000E94DD01623071058105910508F061C10B
:100730003DC00E94DD016093760170937701809344
:1007400078019093790163E271E08091A601909124
:10075000A7010E9449026BE271E08091A60190918D
:10076000A7010E9449020E94DD01AB01BC012AE001
:100770008091A6019091A7010E9400026DE271E0B4
:100780008091A6019091A7010E94490265E070E066
:1007900080E090E00E94A3016AE070E080E090E0D9
:1007A0000E94A30180917A0181117DC18091000195
:1007B000B0E48B9FC001112480937C0080917A006B
:1007C000806480937A0080917A0086FDFCCF6091EE
:1007D00078008091790070E0782B709374016093B9
:1007E0007301072E000C880B990B0E9401072DEC5A
:1007F0003CEC4CE85AE30E9460072DEC3CEC4CECDE
:100800005EE30E94DD0527E73EEB4FE95CE30E94D3
:100810004A066B017C0166E471E084EB91E00E9482
:1008200049028090730190907401092C000CAA0871
:10083000BB08B7FE14C0E091B401F091B50101907E
:10084000F081E02D6DE284EB91E009954427552776
:10085000BA01481959096A097B092AE003C02AE04C
:10086000B501A40184EB91E00E94000260E571E013
:1008700084EB91E00E944902A7019601C701B601ED
:100880000E94F006882319F06CE571E01AC0460159
:100890005701E894B7F82FEF3FEF4FE75FE7C50147
:1008A000B4010E94F006811111C02FEF3FEF4FE716
:1008B0005FE7C501B4010E94FA0618163CF460E631
:1008C00071E084EB91E00E94EB0184C02FEF3FEFD9
:1008D0004FE75FE4C701B6010E94EB0618161CF44F
:1008E00064E671E0EECF2FEF3FEF4FE75FECC7011B
:1008F000B6010E94FA0687FDF3CF20E030E0A9019F
:10090000C701B6010E94FA0687FF0FC0E091B4014B
:10091000F091B5010190F081E02D6DE284EB91E062
:100920000995F7FAF094F7F8F0942AE037ED43EAE6
:100930005BE3C701B6010E94DE054B015C010E942A
:10094000BC066B017C010E94FF069B01AC01C50146
:10095000B4010E94DD054B015C012AE0B701A6014C
:1009600084EB91E00E94000268E671E084EB91E084
:100970000E94EB0120E030E040E251E4C501B40107
:100980000E9460074B015C010E94BC066B01E12CD8
:10099000F12C2AE0B701A60184EB91E00E9400024D
:1009A000C701B6010E94FF069B01AC01C501B4015D
:1009B0000E94DD0520E030E040E251E40E94600743
:1009C0000E94BC06AB0160E070E02AE084EB91E09D
:1009D0000E94000263E471E084EB91E00E94EB016D
:1009E00062E070E080E090E00E94A3010E94740148
:1009F00090CE0E94DD016093B0017093B1018093AD
:100A0000B2019093B301C090AC01D090AD01E090E1
:100A1000AE01F090AF016C157D058E059F0540F489
:100A20006093AC017093AD018093AE019093AF01E0
:100A3000C090AC01D090AD01E090AE01F090AF015C
:100A40009B01AC012C193D094E095F0969017A012E
:100A50003AEFC316D104E104F10408F4A7CE609381
:100A6000AC017093AD018093AE019093AF010E94F1
:100A7000DD01C0907601D0907701E0907801F09090
:100A80007901DC01CB018C199D09AE09BF09C29720
:100A9000A105B10508F04DCE63E070E080E090E084
:100AA0000E94A301E4CF8091A6019091A701DC01EF
:100AB000ED91FC910480F581E02D0995892B99F346
:100AC0008091A6019091A701DC01ED91FC91048039
:100AD000F581E02D0995181619060CF067CE809166
:100AE000A6019091A701DC01ED91FC910680F781B0
:100AF000E02D099599278336910551F086379105A8
:100B000009F454CE88359105D9F610927A01D8CFE0
:100B100066E371E08091A6019091A7010E944902CD
:100B20002AE041E050E060E070E08091A601909101
:100B3000A7010E9400026DE371E08091A6019091EF
:100B4000A7010E94490262E370E080E090E00E9409
:100B5000A3012CCEE4EBF1E01382128288EE93E045
:100B6000A0E0B0E084839583A683B78385E091E01D
:100B70009183808385EC90E09587848784EC90E076
:100B80009787868780EC90E0918B808B81EC90E05A
:100B9000938B828B82EC90E0958B848B86EC90E03B
:100BA000978B868B118E128E138E148E0895EE0FF6
:100BB000FF1F0590F491E02D09945058BB27AA27F8
:100BC0000E94F5050C94E4070E94D60738F00E94B5
:100BD000DD0720F039F49F3F19F426F40C94D30775
:100BE0000EF4E095E7FB0C94CD07E92F0E94F50782
:100BF00058F3BA17620773078407950720F079F452
:100C0000A6F50C9417080EF4E0950B2EBA2FA02D24
:100C10000B01B90190010C01CA01A0011124FF27A9
:100C2000591B99F0593F50F4503E68F11A16F040A4
:100C3000A22F232F342F4427585FF3CF46953795A3
:100C40002795A795F0405395C9F77EF41F16BA0B68
:100C5000620B730B840BBAF09150A1F0FF0FBB1F16
:100C6000661F771F881FC2F70EC0BA0F621F731F5F
:100C7000841F48F4879577956795B795F7959E3FBC
:100C800008F0B0CF9395880F08F09927EE0F97954D
:100C9000879508950E945E060C94E4070E94DD0784
:100CA00058F00E94D60740F029F45F3F29F00C94D9
:100CB000CD0751110C9418080C94D3070E94F50726
:100CC00068F39923B1F3552391F3951B550BBB277B
:100CD000AA2762177307840738F09F5F5F4F220FC0
:100CE000331F441FAA1FA9F335D00E2E3AF0E0E8B7
:100CF00032D091505040E695001CCAF72BD0FE2F01
:100D000029D0660F771F881FBB1F26173707480794
:100D1000AB07B0E809F0BB0B802DBF01FF2793584C
:100D20005F4F3AF09E3F510578F00C94CD070C943C
:100D300018085F3FE4F3983ED4F38695779567955E
:100D4000B795F7959F5FC9F7880F911D9695879581
:100D500097F90895E1E0660F771F881FBB1F6217A0
:100D600073078407BA0720F0621B730B840BBA0B5E
:100D7000EE1F88F7E09508950E94FD0788F09F57C1
:100D800098F0B92F9927B751B0F0E1F0660F771FAF
:100D9000881F991F1AF0BA95C9F714C0B13091F0A5
:100DA0000E941708B1E008950C941708672F782F58
:100DB0008827B85F39F0B93FCCF38695779567956A
:100DC000B395D9F73EF490958095709561957F4FD6
:100DD0008F4F9F4F08950E943C0708F48FEF0895AE
:100DE0000E943C07880B990B089581E090E0F894ED
:100DF0000C9440080E943C0708F481E00895E894B0
:100E000009C097FB3EF490958095709561957F4F52
:100E10008F4F9F4F9923A9F0F92F96E9BB27939500
:100E2000F695879577956795B795F111F8CFFAF410
:100E3000BB0F11F460FF1BC06F5F7F4F8F4F9F4F41
:100E400016C0882311F096E911C0772321F09EE89F
:100E5000872F762F05C0662371F096E8862F70E005
:100E600060E02AF09A95660F771F881FDAF7880FDF
:100E70009695879597F90895990F0008550FAA0B35
:100E8000E0E8FEEF16161706E807F907C0F012169D
:100E90001306E407F50798F0621B730B840B950BA0
:100EA00039F40A2661F0232B242B252B21F40895F5
:100EB0000A2609F4A140A6958FEF811D811D089592
:100EC0000E9473070C94E4070E94D60738F00E9432
:100ED000DD0720F0952311F00C94CD070C94D30777
:100EE00011240C9418080E94F50770F3959FC1F324
:100EF000950F50E0551F629FF001729FBB27F00DC8
:100F0000B11D639FAA27F00DB11DAA1F649F66271C
:100F1000B00DA11D661F829F2227B00DA11D621F6B
:100F2000739FB00DA11D621F839FA00D611D221F25
:100F3000749F3327A00D611D231F849F600D211D09
:100F4000822F762F6A2F11249F5750409AF0F1F08C
:100F500088234AF0EE0FFF1FBB1F661F771F881FF5
:100F600091505040A9F79E3F510580F00C94CD0759
:100F70000C9418085F3FE4F3983ED4F38695779578
:100F80006795B795F795E7959F5FC1F7FE2B880F9B
:100F9000911D9695879597F9089597F99F6780E831
:100FA00070E060E008959FEF80EC089500240A94BB
:100FB0001616170618060906089500240A94121634
:100FC0001306140605060895092E0394000C11F467
:100FD000882352F0BB0F40F4BF2B11F460FF04C014
:100FE0006F5F7F4F8F4F9F4F089557FD9058440F6D
:100FF000551F59F05F3F71F04795880F97FB991F78
:1010000061F09F3F79F08795089512161306140634
:10101000551FF2CF4695F1DF08C0161617061806C1
:10102000991FF1CF86957105610508940895E8949C
:10103000BB2766277727CB0197F90895A1E21A2EDF
:10104000AA1BBB1BFD010DC0AA1FBB1FEE1FFF1F6C
:10105000A217B307E407F50720F0A21BB30BE40BBC
:10106000F50B661F771F881F991F1A9469F7609503
:101070007095809590959B01AC01BD01CF010895BD
:04108000F894FFCF12
:1010840001000000000B018700D400B200C600522A
:1010940001564D4450565F317C315F564D44505695
:1010A4000D0A00564D4450455F31007C005F564D9B
:1010B4004450450D0A00564D4450435F005F564D61
:1010C4004450430D0A0073656E736F72203D200017
:1010D40009206F7574707574203D20006E616E0078
:0A10E400696E66006F7666002E004C
:00000001FF
