:100000000C94A7030C94CF030C94CF030C94CF0350
:100010000C94CF030C94CF030C94CF030C94CF0318
:100020000C94CF030C94CF030C949A250C94C71016
:100030000C94CF030C94CF030C94CF030C94CF03F8
:100040000C94CF030C94CF030C94CF030C94CF03E8
:100050000C94CF030C9409190C94CF030C949C15A9
:100060000C94CF030C94CF030C94CF030C94CF03C8
:100070000C94CF030C94CF030C94CF030C94CF03B8
:100080000C9404130C94CF030C94CF030C94CF0363
:100090000C94CF030C94CF030C94CF030C94CF0398
:1000A0000C94CF030C94CF030C94CF03FE130114D4
:1000B000F013F413FA132214221422140514091451
:1000C0000D141314171422141D14130180321180FF
:1000D00064260104B1020B14C0020800C10105C569
:1000E000024130C701C1EC011B3A8155642A04006A
:1000F00000007F2B040000009F3601C8B70100F20A
:100100000100E08F282422312B0E53A5421618122D
:100110001A140332E18F171B1D0E14112CA53D0973
:10012000272D252B3C3213800A2980FF4469650066
:10013000537461727400080B00020202010009048A
:100140000000010202000005240010010524010145
:10015000010424020605240600010705810310009E
:100160004009040100020A000000070502024000E5
:10017000000705830240000004030904417264750E
:10018000696E6F204C4C430041726475696E6F203C
:100190004573706C6F726100120100020000004034
:1001A00041233C8000010102030112010002EF0221
:1001B000014041233C8000010102030100000000D6
:1001C0002300260029002C002F000706050401004B
:1001D000080A0B0C0D0900000000240027002A006B
:1001E0002D00300000000000250028002B002E000C
:1001F000310004040404040304050202020204039F
:1002000002020202060606060606040402020204B0
:100210000404080201104080401020408040800803
:100220000204018040201002011080102040402074
:100230000000000200090F0000030401000C000090
:1002400000000000000000000000000000000000AE
:10025000000000003E5B4F5B3E3E6B4F6B3E1C3E22
:100260007C3E1C183C7E3C181C577D571C1C5E7F36
:100270005E1C00183C1800FFE7C3E7FF00182418B5
:1002800000FFE7DBE7FF30483A060E2629792926EA
:10029000407F050507407F05253F5A3CE73C5A7FD4
:1002A0003E1C1C08081C1C3E7F14227F22145F5F2A
:1002B000005F5F06097F017F006689956A60606064
:1002C000606094A2FFA29408047E040810207E209F
:1002D0001008082A1C08081C2A08081E10101010F4
:1002E0000C1E0C1E0C30383E3830060E3E0E06003A
:1002F0000000000000005F00000007000700147FFE
:10030000147F14242A7F2A12231308646236495664
:1003100020500008070300001C2241000041221C5D
:10032000002A1C7F1C2A08083E0808008070300044
:100330000808080808000060600020100804023E59
:100340005149453E00427F4000724949494621419A
:10035000494D331814127F1027454545393C4A4909
:100360004931412111090736494949364649492948
:100370001E00001400000040340000000814224158
:100380001414141414004122140802015909063EE1
:10039000415D594E7C1211127C7F494949363E41DC
:1003A0004141227F4141413E7F494949417F0909FD
:1003B00009013E414151737F0808087F00417F4198
:1003C000002040413F017F081422417F40404040CF
:1003D0007F021C027F7F0408107F3E4141413E7F27
:1003E000090909063E4151215E7F0919294626491E
:1003F00049493203017F01033F4040403F1F2040F5
:10040000201F3F4038403F631408146303047804FE
:10041000036159494D43007F4141410204081020C6
:10042000004141417F04020102044040404040003D
:100430000307080020545478407F28444438384447
:10044000444428384444287F385454541800087EC3
:10045000090218A4A49C787F0804047800447D4015
:10046000002040403D007F1028440000417F4000B4
:100470007C047804787C080404783844444438FCCC
:100480001824241818242418FC7C08040408485450
:1004900054542404043F44243C4040207C1C20400D
:1004A000201C3C4030403C44281028444C90909004
:1004B0007C4464544C44000836410000007700003E
:1004C000004136080002010204023C2623263C1E9D
:1004D000A1A161123A4040207A385454555921550F
:1004E0005579412154547841215554784020545530
:1004F00079400C1E5272123955555559395454547D
:100500005939555454580000457C410002457D42FC
:100510000001457C40F0292429F0F0282528F07CB2
:10052000545545002054547C547C0A097F49324973
:100530004949323248484832324A4848303A4141C3
:10054000217A3A42402078009DA0A07D394444445D
:10055000393D4040403D3C24FF2424487E494366C9
:100560002B2FFC2F2BFF0929F620C0887E090320A2
:10057000545479410000447D413048484A32384063
:1005800040227A007A0A0A727D0D19317D262929C6
:100590002F28262929292630484D402038080808C8
:1005A0000808080808382F10C8ACBA2F102834FAE9
:1005B00000007B000008142A142222142A1408AA1E
:1005C000005500AAAA55AA55AA000000FF00101065
:1005D00010FF00141414FF001010FF00FF1010F0A3
:1005E00010F0141414FC001414F700FF0000FF00B6
:1005F000FF1414F404FC141417101F10101F101F04
:100600001414141F00101010F0000000001F101030
:1006100010101F10101010F010000000FF1010102C
:10062000101010101010FF10000000FF140000FF49
:1006300000FF00001F10170000FC04F41414171032
:10064000171414F404F40000FF00F7141414141425
:100650001414F700F7141414171410101F101F149B
:100660001414F4141010F010F000001F101F0000FC
:10067000001F14000000FC140000F010F01010FF28
:1006800010FF141414FF141010101F00000000F0CD
:1006900010FFFFFFFFFFF0F0F0F0F0FFFFFF0000A2
:1006A000000000FFFF0F0F0F0F0F38444438447C49
:1006B0002A2A3E147E02020606027E027E0263554C
:1006C0004941633844443C04407E201E2006027E9B
:1006D000020299A5E7A5991C2A492A1C4C720172AD
:1006E0004C304A4D4D303048784830BC625A463D17
:1006F0003E494949007E0101017E2A2A2A2A2A44CC
:10070000445F444440514A444040444A5140000000
:10071000FF0103E080FF000008086B6B083612360B
:100720002436060F090F06000018180000001010EC
:10073000003040FF0101001F01011E00191D1712AA
:10074000003C3C3C3C0000000000DE27D227112486
:100750001FBECFEFDAE0DEBFCDBF12E0A0E0B1E018
:10076000E2EAFBE502C005900D92A831B107D9F786
:1007700023E0A8E1B2E001C01D92A139B207E1F780
:1007800013E0C6EAD3E004C02197FE010E947E2850
:10079000C53AD107C9F70E9449260C94C42D0C9480
:1007A0000000CF93DF9300D000D000D0CDB7DEB7EC
:1007B000109245031092440361E080913C030E9433
:1007C000D61461E080913B030E94D61480913B03D4
:1007D00090E0FC01EE50FE4FE491F0E0EE0FFF1FC1
:1007E000EC51FE4F25913491309338032093370319
:1007F000FC01EF5EFD4FE491E093420380913C03E6
:1008000090E0FC01EE50FE4FE491F0E0EE0FFF1F90
:10081000EC51FE4F2591349130933A0320933903E4
:10082000FC01EF5EFD4FE491E093430380913003C0
:10083000882309F439C01FB7F894809167028111A9
:1008400027C0E3E0F2E08491E2E2F2E09491E82F45
:10085000F0E0EE0FFF1FEA52FE4FA591B491EC912C
:10086000E92321F461E081E10E94A61461E081E1C5
:100870000E94D6148CB580618CBD8CB580648CBD13
:1008800061E08FE00E94D61461E080E10E94D614FE
:10089000809167028F5F809367021FBF80E580931E
:1008A00031031092320349C061E080913F030E94FE
:1008B000D61461E080913E030E94D61480913F03DC
:1008C00090E0FC01EE50FE4FE491F0E0EE0FFF1FD0
:1008D000EC51FE4FA591B491B0933603A09335032C
:1008E000FC01EF5EFD4F84918093410320913E0314
:1008F00030E0F901EE50FE4FE491F0E0EE0FFF1F03
:10090000EC51FE4F4591549150933403409333037F
:10091000F901EF5EFD4FE491E09340039C91E82FD5
:10092000E095E923EC93E0913303F0913403908157
:1009300080914003809589238083E0913703F09173
:100940003803908180914203809589238083809130
:100950003D03882321F161E00E94D61461E080917B
:100960003D030E94A61464EF71E080E090E00E94D5
:10097000621560E080913D030E94A61464EF71E06F
:1009800080E090E00E94621561E080913D030E944A
:10099000A61464EF71E080E090E00E946215EAEC3A
:1009A000F0E014918BECA82E80E0B82E11114EC00F
:1009B00066E382E193E00E94DD1D11E010932703BE
:1009C00068EA82E193E00E949F1D80EA90E09093A4
:1009D0001B0380931A0380E890E090931D0380939B
:1009E0001C03E0911203F09113030088F189E02DBC
:1009F00060E070E082E193E0099544EB64E188EC0B
:100A00000E9497221093260380912B03882309F4D8
:100A100057C0109228038091290390912A03909344
:100A20002303809322039093250380932403109241
:100A30001F0310921E0310922103109220036BE4F7
:100A400071E082E193E00E94CA133AC0F50164911B
:100A500082E193E00E94DD1D6501F2E0CF0ED11C22
:100A6000F5013196E4910E2F0078EF77BE2E7601D6
:100A7000AE2EAA948FEFA81651F0F701649182E18F
:100A800093E00E949F1DFFEFEF1AFF0AF2CFF601DD
:100A9000EB0DF11D5F01002389F07F01FFEFEF1ADD
:100AA000FF0AF501649170E06F3F710511F464EF86
:100AB00071E080E090E00E9462155701115076CFFE
:100AC00082E080932603609072027090730200911E
:100AD00070021091710280906C0290906D02A09053
:100AE0006E02B0906F02C0906802D0906902E090F0
:100AF0006A02F0906B024FEF6FEF8FEF0E94972228
:100B000010921F0310921E038EE190E09093210338
:100B100080932003A301072C000C660B770B82E166
:100B200093E00E94302184EF90E00E94B6198091FA
:100B30007202909173029A83898368167906A1F1F3
:100B400040E060E080E00E94972210921F03109224
:100B50001E03EEE1F0E0F0932103E0932003A301F4
:100B6000770C660B770B82E193E00E9430214FEF08
:100B70006FEF8FEF0E94972210921F0310921E03B7
:100B80008EE190E09093210380932003E091720224
:100B9000F0917302FA83E983AF01FF0F660B770BC5
:100BA00082E193E00E943021209070023090710227
:100BB0000215130509F462C040E060E080E00E9485
:100BC000972240E060E080E00E94E62210921F033E
:100BD00010921E0381E490E0909321038093200300
:100BE000A801110F660B770B82E193E00E94302180
:100BF00060911A0370911B0385E390E00E94A92283
:100C00002090700230907102A0911A03B0911B03E2
:100C10002101032C000C6608770891010E948428AA
:100C20002FEF33E040E050E00E94322D2B833C83D5
:100C30004D835E830B811C814FEF6FEF8FEF0E941E
:100C400097224FEF60E080E00E94E622012BB1F096
:100C50006B817C8185E390E00E94A92210921F03A2
:100C600010921E03E1E4F0E0F0932103E0932003EF
:100C7000B301A20182E193E00E94302140906C0216
:100C800050906D0260906E0270906F028414950413
:100C9000A604B70409F48BC040E060E080E00E9445
:100CA000972240E060E080E00E94E62210921F035D
:100CB00010921E038FE590E0909321038093200310
:100CC000B501A40182E193E00E94302160911A03F2
:100CD00070911B0388E590E00E94A92240906C026D
:100CE00050906D0260906E0270906F0260911A03D6
:100CF00070911B03072E000C880B990B0091680262
:100D00001091690220916A0230916B028090680212
:100D100090906902A0906A02B0906B0210161106C2
:100D20001206130644F0B094A09490948094811C11
:100D3000911CA11CB11CA30192010E945A28A5017B
:100D400094010E94322D49015A0189014FEF6FEF42
:100D50008FEF0E9497228091680290916902A09182
:100D60006A02B0916B0248E0181619061A061B06B3
:100D70001CF46FEF80E002C060E08FEF0E94E6227B
:100D8000012BA9F0B40188E590E00E94A9221092FD
:100D90001F0310921E03EFE5F0E0F0932103E093B0
:100DA0002003B301A20182E193E00E9430218090F0
:100DB000680290906902A0906A02B0906B02C81419
:100DC000D904EA04FB0441F47501640153014201B2
:100DD000810169807A80A7CE40E060E080E00E94D7
:100DE000972280E590E090931F0380931E03EFE528
:100DF000F0E0F0932103E0932003B701A60182E124
:100E000093E00E9430218090680290906902A09047
:100E10006A02B0906B024FEF6FEF8FEF0E94972244
:100E200080E590E090931F0380931E03EFE5F0E0D0
:100E3000F0932103E0932003B501A40182E193E044
:100E40000E943021C1CFCF93DF9300D0CDB7DEB762
:100E5000C12C3DE7D32EE12CF12C44E6442E512C3D
:100E6000612C712C55E0852E912CA12CB12C11E018
:100E700080ED93E00E94B61964E170E08091760203
:100E8000909177020E946221813009F070C040E0A9
:100E900050E06FED71E08CE493E00E946F258FEBE2
:100EA00092E00E94CC131816190674F58FEB92E0AD
:100EB0000E948510F82E682F8FEB92E00E94651338
:100EC000F9821A82E0905003F09051032FEFE21A5A
:100ED000F20AB7018CE493E00E9448258823F9F2D6
:100EE00020914C0330914D03809150039091510318
:100EF000BE016F5F7F4F820F931F0E949E2AF09268
:100F00005103E0925003CBCF809150039091510355
:100F1000892BF9F0E0914C03F0914D0380818823F7
:100F2000C1F060E671E08FEB92E00E94CA13E0919D
:100F3000BF02F091C0024091500350915103609163
:100F40004C0370914D030280F381E02D8FEB92E012
:100F5000099580914C0390914D03009729F00E94D0
:100F6000D22B6B017C0103C0C12CD12C7601809166
:100F70007602909177020E942C20C114D104E104E2
:100F8000F10409F475CFC0926802D0926902E09230
:100F90006A02F0926B02F7FE08C0F094E094D094DD
:100FA000C094C11CD11CE11CF11CC701B601A301F6
:100FB00092010E94322D2B30310514F02AE030E0EE
:100FC00080923F0290924002A0924102B09242026F
:100FD00040913F0250914002609141027091420263
:100FE000C901032E000CAA0BBB0B480F591F6A1F27
:100FF0007B1F4093430250934402609345027093D9
:101000004602409143025091440260914502709122
:101010004602480F591F6A1F7B1F40934702509397
:1010200048026093490270934A02409147025091EE
:1010300048026091490270914A02840F951FA61FD1
:10104000B71F80934B0290934C02A0934D02B09334
:101050004E0240914B0250914C0260914D027091B2
:101060004E02C901880F991F880F991F092E000C85
:10107000AA0BBB0B840F951FA61FB71F80934F02AF
:1010800090935002A0935102B093520280914F026C
:1010900090915002A0915102B0915202A701960185
:1010A000281B390B4A0B5B0B2093530230935402DD
:1010B000409355025093560280914B0290914C02FE
:1010C000A0914D02B0914E02A7019601281B390B49
:1010D0004A0B5B0B209357023093580240935902FE
:1010E00050935A028091470290914802A091490280
:1010F000B0914A02A7019601281B390B4A0B5B0BE2
:1011000020935B0230935C0240935D0250935E0239
:101110008091430290914402A0914502B091460211
:10112000A7019601281B390B4A0B5B0B20935F022A
:1011300030936002409361025093620280913F02BB
:1011400090914002A0914102B0914202C81AD90A7E
:10115000EA0AFB0AC0926302D0926402E09265023E
:10116000F0926602F89410933E027894C12CD12C30
:1011700076017ECE88EE91E00E94B619C0E0882408
:101180008A94982C540169E170E0809176029091E4
:1011900077020E946221813031F46EE671E08FEBBC
:1011A00092E00E94CA1340913C0250913D02052EEC
:1011B000000C660B770B8FEB92E00E9430211092AF
:1011C0003D0210923C0267E871E08FEB92E00E94D2
:1011D000CA134091720250917302052E000C660BE7
:1011E000770B8FEB92E00E94302161E971E08FEB89
:1011F00092E00E94CA1340913A0250913B02052EA0
:10120000000C660B770B8FEB92E00E94302110925E
:101210003B0210923A0267E871E08FEB92E00E9485
:10122000CA13C0903602D0903702E0903802F09096
:101230003902A7019601C701B6010E94BA29882385
:1012400019F06BEA71E01AC026013701E89477F8CB
:101250002FEF3FEF4FE75FE7C301B2010E94BA29CA
:10126000811111C02FEF3FEF4FE75FE7C301B201DC
:101270000E940E2C18163CF46FEA71E08FEB92E09E
:101280000E946C137EC02FEF3FEF4FE75FE4C70172
:10129000B6010E94B52918161CF463EB71E0EECF7D
:1012A0002FEF3FEF4FE75FECC701B6010E940E2C16
:1012B00087FDF3CF20E030E0A901C701B6010E940D
:1012C0000E2C87FF09C06DE28FEB92E00E94651340
:1012D000F7FAF094F7F8F0942AE037ED43EA5BE38D
:1012E000C701B6010E94A8282B013C010E94862953
:1012F0006B017C010E94132C9B01AC01C301B20164
:101300000E94A7282B013C012AE0B701A6018FEB20
:1013100092E00E94811367EB71E08FEB92E00E94F4
:101320006C1320E030E040E251E4C301B2010E94BE
:10133000742C2B013C010E9486296B01E12CF12CBD
:101340002AE0B701A6018FEB92E00E948113C7014A
:10135000B6010E94132C9B01AC01C301B2010E9493
:10136000A72820E030E040E251E40E94742C0E9463
:101370008629AB0160E070E02AE08FEB92E00E94EA
:10138000811369EB71E08FEB92E00E94CA134091E8
:1013900000015091010160910201709103012AE066
:1013A0008FEB92E00E94811362EC71E08FEB92E090
:1013B0000E94CA134091320250913302609134026C
:1013C000709135022AE08FEB92E00E9481136BEC62
:1013D00071E08FEB92E00E94CA1340916C02509131
:1013E0006D0260916E0270916F028FEB92E00E942D
:1013F000302164ED71E08FEB92E00E94CA134091BE
:101400002E0250912F0260913002709131028FEBC9
:1014100092E00E9430216DED71E08FEB92E00E942E
:101420006C13CA3010F4CF5F1DC0809200019092FF
:101430000101A0920201B0920301109232021092B7
:101440003302109234021092350260EE71E08FEB9D
:1014500092E00E946C136DED71E08FEB92E00E94C0
:101460006C13C0E080917602909177020E942C204C
:1014700080ED93E00E94B61986CE0E943D152B01A7
:101480003C010FB6F8940F92E0909502F09096020E
:101490000F900FBEDD24D3948091880281110E94A9
:1014A0009B1D0E94A0168091950290919602870143
:1014B0000D5F1F4F8E159F0520F40E151F0548F474
:1014C00004C00E151F0508F4B6C28017910708F472
:1014D000B2C20E940C19811102C00E94A6160E947D
:1014E0003D154B015C01DC01CB0184199509A6096E
:1014F000B709409100015091010160910201709182
:10150000030184179507A607B70740F480930001ED
:1015100090930101A0930201B09303014091320224
:101520005091330260913402709135024817590787
:101530006A077B0740F48093320290933302A093B2
:101540003402B093350280913E02882309F44BC0E7
:1015500010923E028091680290916902A0916A0205
:10156000B0916B02181619061A061B064CF48091EE
:10157000680290916902A0916A02B0916B020FC05B
:101580008091680290916902A0916A02B0916B0209
:10159000B095A095909581959F4FAF4FBF4F809389
:1015A0006C0290936D02A0936E02B0936F0260E0A4
:1015B00089E00E94A6148091680290916902A0912E
:1015C0006A02B0916B02B7FF02C060E001C061E047
:1015D0008AE00E94A61410922E0210922F021092FE
:1015E00030021092310280916C0290916D02A091B4
:1015F0006E02B0916F02181619061A061B060CF03F
:1016000005C240916C0250916D0260916E02709122
:101610006F0280913F0290914002A0914102B091EF
:101620004202481759076A077B0714F4C6E0D0E066
:1016300040916C0250916D0260916E0270916F0248
:1016400080913F0290914002A0914102B0914202EC
:10165000481759076A077B07BCF040916C0250910C
:101660006D0260916E0270916F02809143029091C1
:101670004402A0914502B0914602481759076A07F3
:101680007B0714F4C5E0D0E040916C0250916D02EC
:1016900060916E0270916F028091430290914402BA
:1016A000A0914502B0914602481759076A077B0787
:1016B000BCF040916C0250916D0260916E0270918D
:1016C0006F028091470290914802A0914902B09127
:1016D0004A02481759076A077B0714F4C4E0D0E0B0
:1016E00040916C0250916D0260916E0270916F0298
:1016F0008091470290914802A0914902B0914A021C
:10170000481759076A077B07BCF040916C0250915B
:101710006D0260916E0270916F0280914B02909108
:101720004C02A0914D02B0914E02481759076A072A
:101730007B0714F4C3E0D0E040916C0250916D023D
:1017400060916E0270916F0280914B0290914C02F9
:10175000A0914D02B0914E02481759076A077B07C6
:10176000BCF040916C0250916D0260916E027091DC
:101770006F0280914F0290915002A0915102B0915E
:101780005202481759076A077B0714F4C2E0D0E0F9
:1017900040916C0250916D0260916E0270916F02E7
:1017A00080914F0290915002A0915102B09152024B
:1017B000481759076A077B07BCF040916C025091AB
:1017C0006D0260916E0270916F0280915302909150
:1017D0005402A0915502B0915602481759076A0762
:1017E0007B0714F4C1E0D0E040916C0250916D028F
:1017F00060916E0270916F02809153029091540239
:10180000A0915502B0915602481759076A077B0705
:10181000BCF040916C0250916D0260916E0270912B
:101820006F028091570290915802A0915902B09195
:101830005A02481759076A077B0714F4C2E0D0E040
:1018400040916C0250916D0260916E0270916F0236
:101850008091570290915802A0915902B0915A027A
:10186000481759076A077B07BCF040916C025091FA
:101870006D0260916E0270916F0280915B02909197
:101880005C02A0915D02B0915E02481759076A0799
:101890007B0714F4C3E0D0E040916C0250916D02DC
:1018A00060916E0270916F0280915B0290915C0278
:1018B000A0915D02B0915E02481759076A077B0745
:1018C000BCF040916C0250916D0260916E0270917B
:1018D0006F0280915F0290916002A0916102B091CD
:1018E0006202481759076A077B0714F4C4E0D0E086
:1018F00040916C0250916D0260916E0270916F0286
:1019000080915F0290916002A0916102B0916202A9
:10191000481759076A077B07BCF040916C02509149
:101920006D0260916E0270916F02809163029091DE
:101930006402A0916502B0916602481759076A07D0
:101940007B0714F4C5E0D0E040916C0250916D0229
:1019500060916E0270916F028091630290916402B7
:10196000A0916502B0916602481759076A077B0784
:1019700014F0C6E0D0E060912E0270912F028091A9
:101980003002909131029E010D2E000C440B550B3C
:101990000E94322D672B682B692B29F561E085E0C9
:1019A0000E94A61461E085E00E94A61460E085E034
:1019B0000E94A6146D2D8DE00E94A61481E0D82609
:1019C00080916C0290916D02A0916E02B0916F02B5
:1019D0000197A109B10980936C0290936D02A093C5
:1019E0006E02B0936F0280912E0290912F02A0910F
:1019F0003002B09131020196A11DB11D80932E02DB
:101A000090932F02A0933002B093310280916C0228
:101A100090916D02A0916E02B0916F02892B8A2B7A
:101A20008B2B21F078012401350136CD61E089E06E
:101A30000E94A614F7CF8091BD029091BE0202963B
:101A40000E940717C8010E94301643CDCAE0D0E0BB
:101A500034E6832E912CA12CB12C45E0442E512C40
:101A6000612C712C83E10E941215BC01990F880B27
:101A7000990B0E94152C20E030E040EA5BE30E94C5
:101A8000742C2DEC3CEC4CEC5EE30E94A72827E77D
:101A90003EEB4FE95CE30E94142960933602709399
:101AA0003702809338029093390280913A029091E4
:101AB0003B02019690933B0280933A0281E00E94A0
:101AC000F422882399F08091680290916902A09194
:101AD0006A02B0916B020196A11DB11D809368024C
:101AE00090936902A0936A02B0936B0283E00E9414
:101AF000F422882399F08091680290916902A09164
:101B00006A02B0916B020197A109B1098093680242
:101B100090936902A0936A02B0936B026CE08FE02D
:101B200093E00E94E61592506CE01816190634F402
:101B30008FE093E00E94E615925008C08FE093E09A
:101B40000E94E615925091958195910945970CF167
:101B50006CE08FE093E00E94E615C0906802D090A0
:101B60006902E0906A02F0906B029250BE010E94FE
:101B70006A28CB01770FAA0BBB0BC81AD90AEA0A4D
:101B8000FB0AC0926802D0926902E0926A02F09267
:101B90006B0282E00E94F4228111FCC084E00E946A
:101BA000F4228111F7C08091680290916902A0919E
:101BB0006A02B0916B02181619061A061B060CF081
:101BC000EEC0C0906802D0906902E0906A02F09086
:101BD0006B02C701B601A50194010E94322D2B3082
:101BE00031054105510524F02AE030E040E050E0A5
:101BF00040923F0250924002609241027092420233
:101C000080913F0290914002A0914102B091420226
:101C1000820F931FA41FB51F809343029093440229
:101C2000A0934502B09346028091430290914402F2
:101C3000A0914502B0914602820F931FA41FB51FC9
:101C40008093470290934802A0934902B0934A02BE
:101C50008091470290914802A0914902B0914A02B6
:101C6000820F931FA41FB51F80934B0290934C02C9
:101C7000A0934D02B0934E0280914B0290914C0282
:101C8000A0914D02B0914E02BA01A90122E0440F89
:101C9000551F661F771F2A95D1F7840F951FA61F22
:101CA000B71F80934F0290935002A0935102B093BC
:101CB000520280914F0290915002A0915102B09136
:101CC0005202A7019601281B390B4A0B5B0B20938C
:101CD0005302309354024093550250935602809120
:101CE0004B0290914C02A0914D02B0914E02A7017F
:101CF0009601281B390B4A0B5B0B2093570230933C
:101D000058024093590250935A0280914702909191
:101D10004802A0914902B0914A02A7019601281BEE
:101D2000390B4A0B5B0B20935B0230935C024093B0
:101D30005D0250935E028091430290914402A09113
:101D40004502B0914602A7019601281B390B4A0BA8
:101D50005B0B20935F0230936002409361025093CB
:101D6000620280913F0290914002A0914102B091A5
:101D70004202C81AD90AEA0AFB0AC0926302D09248
:101D80006402E0926502F0926602F89481E080932A
:101D90003E02789484E190E00E94B61963CEC09030
:101DA0006802D0906902E0906A02F0906B02F094B1
:101DB000E094D094C094C11CD11CE11CF11C09CF4B
:101DC000CFEFD3E082E10E94121566E08FE093E04E
:101DD0000E94E6159C01A4EFB1E00E94B52DDC0144
:101DE000CB012AE0B595A795979587952A95D1F7C8
:101DF000BC01625371097093730260937202809107
:101E00003C0290913D02019690933D0280933C02EA
:101E100064E08FE093E00E94E6159E01281B390BD9
:101E200030937102209370028AE090E00E94B6190C
:101E3000C9CF409184025091850220918202309155
:101E4000830242175307B4F49091E8009570E1F3D0
:101E50009091E80092FD19C08093F1008091840276
:101E60009091850201968F739927892B19F48EEF33
:101E70008093E8008091840290918502019690936E
:101E800085028093840281E0089580E00895DF92C6
:101E9000EF92FF920F931F93CF93DF93D82E8A0177
:101EA0007B01E40EF51EEB01CE15DF0571F0D7FEC8
:101EB00003C0FE01849101C088810E94190F219600
:101EC0008111F2CF8FEF9FEF01C0C801DF91CF9159
:101ED0001F910F91FF90EF90DF900895615030F0C7
:101EE0002091F100FC0120830196F8CF289884E628
:101EF000809354030895CF92DF92EF92FF920F9355
:101F00001F93CF93DF936C017A018B01C0E0D0E087
:101F1000CE15DF0589F0D8016D918D01D601ED91C7
:101F2000FC910190F081E02DC6010995892B11F4F7
:101F30007E0102C02196ECCFC701DF91CF911F91A6
:101F40000F91FF90EF90DF90CF900895CF93DF93A4
:101F50001F92CDB7DEB76983DC01ED91FC91028061
:101F6000F381E02D41E050E0BE016F5F7F4F0995A6
:101F70000F90DF91CF91089583E08093E9008091E5
:101F8000F200882319F08AE38093E80008950F9304
:101F90001F93CF93DF931F92CDB7DEB782E0898383
:101FA00042E450E066E371E080E80E94470F0E943F
:101FB0003425DC0112960D911C9113970115110522
:101FC00069F0D801ED91FC910280F381E02DBE0112
:101FD0006F5F7F4FC801099597FF07C089810F90F8
:101FE000DF91CF911F910F910895F8010085118520
:101FF000E5CF8F929F92AF92BF92CF92DF92EF92F6
:10200000FF920F931F93CF93DF935C016B018A01C3
:1020100080910F01882309F45EC0809155038823C5
:1020200009F459C08091520380FF05C08091E000FF
:1020300082608093E000E8018AEFF82E93E0E92EB9
:102040002FE3822E3AE3932E209709F43DC08FB7F9
:10205000F894E092E9009091E80095FF06C0909115
:10206000F200282D291B922F01C090E08FBF911103
:102070000AC0FA94FF2079F161E070E080E090E01E
:102080000E946215E1CF292F30E0C217D3070CF46C
:102090009C2F8FB7F894E092E9002091E80025FF8B
:1020A00011C0292F30E0C21BD30BF601915020F054
:1020B00041914093F100FACFC20ED31E9091E800F7
:1020C00095FF13C08FBFC0CF5D9884E68093530304
:1020D0001016110644F081E090E0F50193838283AD
:1020E00080E090E005C0C80103C09092E800EACF0C
:1020F000DF91CF911F910F91FF90EF90DF90CF90E4
:10210000BF90AF909F908F900895CF93DF931F92D1
:10211000CDB7DEB7FC018485958597FD05C02FEF0F
:102120003FEF358724870BC0CE0101960E940A2518
:10213000019719F4898190E002C08FEF9FEF0F9013
:10214000DF91CF9108950F931F93CF93DF931F9249
:10215000CDB7DEB78C01FC018485958597FF0EC055
:10216000CE0101960E940A25019719F4298130E0D9
:1021700002C02FEF3FEFF80135872487F8018485EF
:1021800095850F90DF91CF911F910F9108951F9228
:102190000F920FB60F921124CF92DF92EF92FF921F
:1021A0000F931F932F933F934F935F936F937F935F
:1021B0008F939F93AF93BF93EF93FF93CF93DF934F
:1021C000CDB7DEB76C97DEBFCDBF1092E90080912E
:1021D000E80083FFFAC168E0CE0145960E946E0FC9
:1021E00082EF8093E8008D8987FF05C09091E80019
:1021F00090FFFCCF03C09EEF9093E800982F90765D
:1022000009F0C6C09E892F89188D91110CC08038A5
:1022100029F4809187028093F10002C01092F100AE
:102220001092F10047C1422F50E0512B913051F4F0
:10223000811140C14130510509F03CC180918702B4
:102240008D7F0BC0933061F4811134C14130510551
:1022500009F030C1809187028260809387022AC191
:10226000953041F48091E80080FFFCCF20682093F6
:10227000E30020C1963009F05FC0EB8CFC8C10921B
:10228000E9001092850210928402123091F51092AA
:102290008302109282020E94C70F99E0BE016F5F15
:1022A0007F4FDB01E92F1D92EA95E9F799831A83A5
:1022B00091E09E8390EA98879AEF99872091840213
:1022C00030918502275F3F4F3C832B838D83109293
:1022D000E9001092850210928402F0928302E0924B
:1022E000820249E050E080E00E94470F0E94C70F41
:1022F000E1C0F0928302E09282020E943425DC0168
:102300001296ED90FC901397E114F10409F4C0C00B
:10231000D701ED91FC910480F581E02DBE016B5E4B
:102320007F4FC7010995009719F00CF0C3C0C6C0D4
:10233000F701E084F184E8CF973009F4BFC098300A
:1023400021F481E08093F100B5C0993009F0B2C06A
:10235000837009F0B3C0EBE1F1E081E021E036E306
:102360009081992361F08093E9002093EB00919193
:102370009093EC003093ED008F5F873089F78EE704
:102380008093EA001092EA008F898093550392C0EF
:102390008B8D9C8D1092E900109285021092840220
:1023A0009093830280938202898D811156C08E8919
:1023B0009D89913A59F4813209F080C047E050E09C
:1023C00068E071E080E00E94470F74C0913209F02C
:1023D00075C0833289F4888D90E0982F88272F89E3
:1023E000822BA0E0B0E08093040190930501A093BC
:1023F0000601B09307015EC0803269F48091E80065
:1024000082FFFCCF67E088E091E00E946E0F8BEFC7
:102410008093E80006C0823209F04CC08F89809317
:102420000F0180918602882319F0EEEFFAE002C0D6
:10243000E0E0F8E08091080190910901A0910A0183
:10244000B0910B01803B9440A105B10509F088C013
:1024500080910F0180FFA0C083C00E943425DC0161
:1024600012960D911C9113970115110539F1D801A0
:10247000ED91FC910190F081E02DBE016B5E7F4FEC
:10248000C8010995811116C0F80100851185ECCFAE
:102490001130C1F0133091F48F89882309F455C0AD
:1024A0008230E9F440E86FE088E891E00E940C2671
:1024B000882321F08EEF8093E80087C081E280932B
:1024C000EB0083C08B8D9C8D089711F410938102D3
:1024D00080918102811136C068E971E038C0813095
:1024E00029F440E86BE08CE791E0E0CF833031F7EE
:1024F0000E943425DC011296ED90FC9013978E011A
:102500000F5F1F4F6801E114F10479F0D701ED91DD
:10251000FC910680F781E02DB801C7010995080FED
:10252000111DF701E084F184EECFD8011C92F60171
:1025300001900020E9F73197BF016C197D0940E057
:10254000C601B4CF6AEA71E002C068E771E06115C4
:10255000710509F4B3CFFB01449150E080E833CF1B
:102560000FB6F894A8958091600088618093600010
:10257000109260000FBEA895EE3F2AE0F20739F0F6
:102580008091FE0A9091FF0A9183808393CF1092ED
:10259000FF0A1092FE0A8ECFEE3F8AE0F80731F074
:1025A000808191819093FF0A8093FE0A87E797E7E5
:1025B000918380839BE088E10FB6F894A89580937F
:1025C00060000FBE9093600075CF6C960FB6F894C4
:1025D000DEBF0FBECDBFDF91CF91FF91EF91BF91D5
:1025E000AF919F918F917F916F915F914F913F91AB
:1025F0002F911F910F91FF90EF90DF90CF900F9050
:102600000FBE0F901F9018951F920F920FB60F924A
:1026100011242F933F938F939F93AF93BF93EF9387
:10262000FF9380917D0290917E02A0917F02B091F4
:102630008002E0917A02F0917B02892B8A2B8B2B0E
:1026400031F180917C0290818927808380917D0285
:1026500090917E02A0917F02B09180021816190617
:102660001A061B062CF580917D0290917E02A091A6
:102670007F02B09180020197A109B10980937D0288
:1026800090937E02A0937F02B093800211C080914C
:1026900071008D7F8093710090917C028081282F42
:1026A00030E0892F90E0809590958223932380835A
:1026B000FF91EF91BF91AF919F918F913F912F919A
:1026C0000F900FBE0F901F901895DC01ED91FC91BB
:1026D0000190F081E02D09946115710579F0FB01FD
:1026E00001900020E9F73197AF01461B570BDC0141
:1026F000ED91FC910280F381E02D099480E090E05F
:1027000008954F925F926F927F92EF92FF920F9394
:102710001F93CF93DF93CDB7DEB7A1970FB6F89491
:10272000DEBF0FBECDBF7C01FA01CB0119A2223062
:1027300008F42AE08E010F5D1F4F422E512C612CB0
:10274000712CBF01A30192010E94932DF901CA01CE
:10275000015011096A3014F4605D01C0695CD80150
:102760006C93232B242B252B61F7B801C7010E9402
:102770006C13A1960FB6F894DEBF0FBECDBFDF91EC
:10278000CF911F910F91FF90EF907F906F905F908E
:102790004F9008950C946C13FC018485958597FDEA
:1027A0000BC09FB7F89482E08093E9008091F2001B
:1027B0009FBF90E0019608959FB7F89482E08093C0
:1027C000E9008091F2009FBF90E0089590E0FC0145
:1027D0003197EF30F105B0F5EA5AFF4F0C947E289F
:1027E000809180008F7703C0809180008F7D8093DF
:1027F0008000089580918000877FF9CF84B58F771E
:1028000002C084B58F7D84BD0895809190008F773C
:1028100007C0809190008F7D03C080919000877FDA
:102820008093900008958091C0008F7703C08091BD
:10283000C0008F7D8093C00008958091C200877F83
:102840008093C20008950E94892A10928B02E09121
:10285000BD02F091BE020788F08DE02D808191814C
:10286000A281B381853A954AA54AB54AE9F48481A3
:102870009581A681B781853A954AA54AB54AA1F4C2
:1028800080859185A285B385853A954AA54AB54A42
:1028900059F484859585A685B785853A954AA54AD4
:1028A000B54A11F499E011C08091BD029091BE0229
:1028B0008091BD029091BE0283E090E00E94481D8D
:1028C0008091BC0281508093BC02E091BC029E9F2B
:1028D000F0011124E856FD4F8081811106C08091DE
:1028E000BC028111EDCF0E949B1D8091BC0290E043
:1028F00049E0489F9001499F300D1124F901E856A5
:10290000FD4FA181B28112960D90BC91A02DB28392
:10291000A18325563D4FA217B30731F412962D918E
:102920003C9113973283218329E0289FF001299F4E
:10293000F00D1124E856FD4F0180F281E02D8681D3
:1029400097819093BE028093BD0208951F93CF9309
:10295000DF93282F30E0F901E05DFD4F8491F9010C
:10296000EF5EFD4FD491F901EE50FE4FC491CC23A0
:10297000C9F0162F81110E94E613EC2FF0E0EE0F44
:10298000FF1FEC51FE4FA591B4918FB7F894111130
:1029900005C09C91ED2FE095E92302C0EC91ED2B51
:1029A000EC938FBFDF91CF911F910895CF93DF9369
:1029B00090E0FC01EF5EFD4F2491FC01EE50FE4FD4
:1029C0008491882361F190E0880F991FFC01EA52FD
:1029D000FE4FC591D491FC01EC51FE4FA591B491ED
:1029E000611109C09FB7F89488812095822388835C
:1029F000EC912E230BC0623061F49FB7F8943881BC
:102A0000822F809583238883EC912E2B2C939FBF5C
:102A100006C08FB7F894E8812E2B28838FBFDF91F3
:102A2000CF910895823108F08251E82FF0E0E6530B
:102A3000FE4FE49180917B00E3FB222720F930E0F8
:102A400095E0220F331F9A95E1F78F7D282B209375
:102A50007B00E770E064E0937C0080917A00806402
:102A600080937A0080917A0086FDFCCF8091780077
:102A70002091790090E0922B08953FB7F8948091CF
:102A8000910290919202A0919302B091940226B586
:102A9000A89B05C02F3F19F00196A11DB11D3FBF96
:102AA000BA2FA92F982F8827820F911DA11DB11D24
:102AB000BC01CD0142E0660F771F881F991F4A9520
:102AC000D1F708958F929F92AF92BF92CF92DF92EB
:102AD000EF92FF926B017C010E943D154B015C015E
:102AE000C114D104E104F104F1F00E943D15DC01B0
:102AF000CB0188199909AA09BB09883E9340A10511
:102B0000B10570F321E0C21AD108E108F10888EE9E
:102B1000880E83E0981EA11CB11CC114D104E104ED
:102B2000F10419F7DDCFFF90EF90DF90CF90BF90C9
:102B3000AF909F908F9008951F920F920FB60F92B3
:102B400011242F933F938F939F93AF93BF938091C3
:102B50008D0290918E02A0918F02B09190023091DF
:102B60008C0223E0230F2D3720F40196A11DB11D07
:102B700005C026E8230F0296A11DB11D20938C02EB
:102B800080938D0290938E02A0938F02B093900257
:102B90008091910290919202A0919302B09194023F
:102BA0000196A11DB11D8093910290939202A09372
:102BB0009302B0939402BF91AF919F918F913F91F7
:102BC0002F910F900FBE0F901F901895CF93DF930A
:102BD000C62F617082E10E94A614C1FB662760F9CE
:102BE00083E10E94A614C2FB662760F984E10E947B
:102BF000A614C3FB662760F985E10E94A614CA30BB
:102C000001F562E086E10E94D614E6E4F2E08491E8
:102C1000E7E2F2E0D491E8E0F2E0C491CC23B1F035
:102C200081110E94E613EC2FF0E0EE0FFF1FE45439
:102C3000FE4FA591B491EC91ED2341F0CFEFD3E09D
:102C400007C086E1DF91CF910C941215C0E0D0E06F
:102C500060E086E10E94A614CE01DF91CF91089535
:102C6000CF93DF93E091BD02F091BE029383828304
:102C700020919502309196028217930770F460912B
:102C8000BD027091BE0280915603909157036E5F12
:102C90007F4FDF91CF910C94DE1CEC016091BD025F
:102CA0007091BE0280915803909159036E5F7F4FDF
:102CB0000E94DE1C8091740290917502C817D9079A
:102CC00020F4D0937502C0937402DF91CF910895E0
:102CD000FC01892B11F40E949B1D61157105D9F32C
:102CE0000FB6F8940F924091950250919602309150
:102CF0009702208181819281321719F04817590774
:102D0000D8F4DB012D913C91DA01A81BB90BA21775
:102D1000B30790F4841B950B820F931FDB018D93F7
:102D20009C93809197028083809195029091960266
:102D30009283818380E001C081E00F900FBE0895EF
:102D4000809188028F5F8093880208950F920FB65A
:102D5000F8940F921F9211242F923F924F925F92FC
:102D60006F927F928F929F92AF92BF92CF92DF929B
:102D7000EF92FF920F931F932F933F934F935F9385
:102D80006F937F938F939F93AF93BF93CF93DF9373
:102D9000EF93FF93A091BD02B091BE020DB60D92CC
:102DA0000EB60D9280918802882321F081E08093F5
:102DB0008B0202C00E942514A091BD02B091BE02F8
:102DC000CD91CDBFDD91DEBFFF91EF91DF91CF912E
:102DD000BF91AF919F918F917F916F915F914F9133
:102DE0003F912F911F910F91FF90EF90DF90CF9027
:102DF000BF90AF909F908F907F906F905F904F901B
:102E00003F902F901F900F900FBE0F900895CF937B
:102E1000DF93FC01A085B185828193812481358176
:102E2000EC013D832C83C481D5819B838A831196D9
:102E30008D919C9112978E179F0721F41296DC9327
:102E4000CE931197118610868C9181508C93DF91CF
:102E5000CF9108950F931F93CF93DF93DC011596C5
:102E6000ED91FC911697C681D781209711F40E94AD
:102E70009B1D8E01045F1F4FC8010E9407178091A0
:102E80008802811114C00A501109C8010E94071755
:102E90009E898091BC02891710F49093BC02B9E01E
:102EA0009B9FC0011124B80188569D4F03C0B801F3
:102EB00083E693E00E94161DE091BD02F091BE02F0
:102EC0009E898689891720F481E080938B0201C056
:102ED00080E0DF91CF911F910F910895FF920F93A2
:102EE0001F93CF93DF93EC010FB6F8940F928C01F0
:102EF0000F5E1F4FFF24F3949E8D19166CF4898981
:102F0000882351F0C8010E942A178111F0928B0288
:102F10009E8D91509E8FF0CF8FEF8E8F0F900FBEB2
:102F20000FB6F8940F928E01085F1F4FFF24F394A1
:102F30009D8D19166CF48885882351F0C8010E9474
:102F40002A178111F0928B029D8D91509D8FF0CFA9
:102F50008FEF8D8F0F900FBEDF91CF911F910F914B
:102F6000FF900895CF93DF93EB01009711F40E9437
:102F70009B1D2091BD023091BE02B901645F7F4F5D
:102F80000E94DE1C8091BD029091BE0202960E94BA
:102F9000071780919502909196028C0F9D1FDF91EB
:102FA000CF910C943016CF92DF92EF92FF920F9355
:102FB0001F93CF93DF93809188028111B1C08091DC
:102FC00095029091960201969093960280939502B5
:102FD000E0909502F0909602E114F104B9F5E091C9
:102FE0005803F0915903808181110E949B1D8091AB
:102FF0005803909159032091560330915703309311
:10300000590320935803909357038093560380915C
:1030100097028F5F80939702E0915803F0915903D4
:103020008081811103C08FEF9FEF0CC0E0915803A6
:10303000F09159030580F681E02D0680F781E02D9F
:1030400082819381909375028093740280917402BF
:1030500090917502C0E0E816F90608F44FC0D9E077
:10306000E0915803F09159038081811103C08FEFE3
:103070009FEF11C0E0915803F09159030580F6814C
:10308000E02D06811781D80112968D919C9113979E
:10309000E816F90628F490937502809374022EC006
:1030A0006801B2E0CB0ED11CC6010E940717F801DF
:1030B00084899589892B21F0C8010C960E940717F5
:1030C000D80156969C918091BC02891710F4909378
:1030D000BC02D99FC0011124B60188569D4F0E94A1
:1030E000161DE091BD02F091BE02D80156969C914A
:1030F0008689981708F4B4CFC1E0B2CFE091BD0241
:10310000F091BE02E689B9E0EB9FF0011124E85688
:10311000FD4F8081823008F0C1E08091890206C0B5
:10312000809189028F5F80938902C0E080918B0239
:103130008111C1E08C2FDF91CF911F910F91FF90F2
:10314000EF90DF90CF9008950F920FB6F8940F9202
:103150001F9211242F923F924F925F926F927F9213
:103160008F929F92AF92BF92CF92DF92EF92FF9297
:103170000F931F932F933F934F935F936F937F937F
:103180008F939F93AF93BF93CF93DF93EF93FF936F
:10319000A091BD02B091BE020DB60D920EB60D9279
:1031A0000E94D317882351F080918802882321F050
:1031B00081E080938B0202C00E942514A091BD0281
:1031C000B091BE02CD91CDBFDD91DEBFFF91EF91F9
:1031D000DF91CF91BF91AF919F918F917F916F912F
:1031E0005F914F913F912F911F910F91FF90EF9021
:1031F000DF90CF90BF90AF909F908F907F906F9017
:103200005F904F903F902F901F900F900FBE0F90A8
:1032100008950E94A4181895EF92FF920F931F93A0
:10322000CF93DF9380918802811102C00E949B1D81
:103230000FB6F8940F928091880281508093880293
:1032400080918802882311F080E053C080916D0343
:103250008823D1F389E0F82EEE24E3948091630370
:10326000882351F1E0916803F0916903C681D78109
:10327000CE010C960E9407178E010E5F1F4FC801EA
:103280000E9407179E898091BC02891710F49093C1
:10329000BC02F99EC0011124B80188569D4F0E94BE
:1032A000161DE091BD02F091BE029E898689981795
:1032B000A8F2E0928B02D2CF80918902811109C0DD
:1032C00080918B02813009F0BFCF0E94A61681E069
:1032D00010C0C1E080918902882391F30E94D31726
:1032E0008111C0938B028091890281508093890261
:1032F000F1CF0F900FBEDF91CF911F910F91FF90F3
:10330000EF90089580918A02882349F10E94A016C7
:10331000C0915A030E940C19CC23A1F30FB6F89464
:103320000F92E0915F03F0916003C681D781CE01D7
:1033300002960E94071780916D03815080936D0360
:1033400080918A02815080938A020F900FBE8F89EC
:10335000988D0E94371DCE010E94371DD3CF8091DA
:103360009802823078F20E94A616CCCFCF93DF93DA
:10337000EC01892B19F40E94A6161BC080918802CB
:1033800081110E949B1D0E94A016209195023091F0
:103390009602C20FD31F8091BD029091BE02029689
:1033A0000E940717CE010E9430160E940C19882334
:1033B00011F3DF91CF910895EF92FF920F931F9336
:1033C000DC01ED91FC9111971A960D911C911B97C0
:1033D00018962D913C9119970684F785E02D7B0175
:1033E00040E050E060E070E009951F910F91FF9080
:1033F000EF900895FC01868D882339F06EBD0000A2
:103400000DB407FEFDCF8EB5089528E030E090E8BA
:10341000A1A1B2A186A5492F462319F04C91842B76
:1034200003C04C91809584238C93A3A1B4A14C91AB
:1034300087A5842B8C93A3A1B4A14C9187A58095DB
:1034400084238C9396952150310911F7089508959E
:103450008CBD9DBD08954C7F38E0439FC001112471
:1034600030E043E0359527954A95E1F7822B932B81
:10347000687F962B089508952F923F924F925F9206
:103480006F927F928F929F92AF92BF92CF92DF9274
:10349000EF92FF920F931F93CF93DF93CDB7DEB7D9
:1034A0002D970FB6F894DEBF0FBECDBFFC016A307A
:1034B00069F424898685978538E0239F800D911DC6
:1034C00011249787868715861486E4C06D3009F429
:1034D000E1C09D878C8754895983828993899D8314
:1034E0008C83A089B189BF83AE8386849784C4848A
:1034F000D58480859185C816D906BCF0EC85FD85FC
:103500004489242F30E084859585F6E04F9F800D17
:10351000911D1124AC85BD851D969C938E931C979F
:1035200056964C91411192C0B5C0EC85FD858285BF
:1035300093858816990614F7F981AF2EB12CC60130
:1035400026E0F29F800D911D112418161906B4F67D
:10355000C50123E0880F991F2A95E1F7880D991D71
:10356000181619065CF655E0659FB0011124160186
:103570001A82CB018C199D0999878887D4011896E6
:10358000BB87AA87BA81B53049F0E885F985E20D95
:10359000F31DE15BFD4F24912B8301C01B822401AD
:1035A00034013B8130FF13C0AC85BD85ED91FC91AA
:1035B000B981B13031F40480F581E02D2E813F8155
:1035C00019C00684F785E02DEE80FF801EC0EC81D7
:1035D000FD812E813F81E217F307F1F0AC85BD85B7
:1035E000ED91FC91B981B13059F40480F581E02D61
:1035F0002C813D81A301B1018C859D8509950CC06D
:103600000684F785E02DEC80FD8085019501A201FF
:10361000B6018C859D850995EB81E695EB83FFEFDF
:103620006F1A7F0A4A0C5B1C2A853B85621673065B
:1036300009F0B7CF3A813F5F3A835FEF251A350A29
:10364000CA0CDB1C363009F09DCF58CF4AEF42033D
:10365000B001439F700D1124AC85BD8518964D9126
:103660005C911997460F571F481759079CF483E040
:10367000220F331F8A95E1F71E968D919C911F971B
:10368000280F391F1F963C932E931E971D961C9250
:103690001E921C9781E090E02D960FB6F894DEBF45
:1036A0000FBECDBFDF91CF911F910F91FF90EF9093
:1036B000DF90CF90BF90AF909F908F907F906F9052
:1036C0005F904F903F902F900895EF92FF920F934D
:1036D0001F93DC01ED91FC9111971A960D911C91AD
:1036E0001B9718962D913C9119970684F785E02D2C
:1036F0007B0140E050E060E070E009951F910F9180
:10370000FF90EF9008956F927F928F929F92AF9269
:10371000BF92CF92DF92EF92FF920F931F93CF93BE
:10372000DF936C015A014801EB013B01620E731EED
:10373000C615D70574F4D601ED91FC910084F1858E
:10374000E02D87019401A501BE01C60109952196CE
:10375000EFCFDF91CF911F910F91FF90EF90DF900E
:10376000CF90BF90AF909F908F907F906F90089573
:10377000EF92FF920F931F93DC01ED91FC91260FC6
:10378000371F215031090680F781E02D78018A0129
:1037900009951F910F91FF90EF900895EF92FF927E
:1037A0000F931F937801DC01ED91FC91240F351FDD
:1037B0008901015011090680F781E02D9B010995CF
:1037C0001F910F91FF90EF9008956F927F928F92CB
:1037D0009F92AF92BF92CF92DF92EF92FF920F93A0
:1037E0001F93CF93DF93EC014B015A01690138011C
:1037F000E881F9810284F385E02D87010995E8814C
:10380000F981A501460D571D415051090284F385E8
:10381000E02D9601B401CE010995E881F98100847B
:10382000F185E02D9301A501B401CE010995E88150
:10383000F981C80CD91CB601615071090084F18569
:10384000E02D9301A501CE010995DF91CF911F9144
:103850000F91FF90EF90DF90CF90BF90AF909F902F
:103860008F907F906F9008952F923F924F925F922A
:103870006F927F928F929F92AF92BF92CF92DF9280
:10388000EF92FF920F931F93CF93DF9300D01F927D
:10389000CDB7DEB74C017B836A836A0159011701FA
:1038A0009801241B350B37FF03C031952195310951
:1038B000C5014A815B81841B950B97FF03C09195DD
:1038C0008195910951E059838217930714F0198269
:1038D0000BC09A2D8B2D5801092F182F9A818B819F
:1038E000DB82CA82C92ED82E8A819B81A816B9068E
:1038F0005CF49C2D8D2D6801092F182F9A818B81E6
:10390000BB82AA82A92EB82E2501AA81BB814A1AA0
:103910005B0A38016C187D0877FE03C071946194CE
:103920007108720157FE03C0BFEFEB1AFB0AF59452
:10393000E794C016D1061CF00FEF1FEF1FC001E087
:1039400010E01CC0D401ED91FC91B9810480F58197
:10395000E02D9101BB23C1F04A815B81B601C40116
:103960000995E618F708F7FE04C0C00ED11EE40C56
:10397000F51CEA81FB813196FB83EA834A815B81F6
:10398000A416B506FCF604C0A6016A817B81E7CFC8
:103990000F900F900F90DF91CF911F910F91FF909B
:1039A000EF90DF90CF90BF90AF909F908F907F90DF
:1039B0006F905F904F903F902F9008950F931F93BB
:1039C000CF93DF938C01FB01808191818F3F2FEF9B
:1039D000920721F4E801AF81B8850EC0D801139693
:1039E00012962D913C911397E901488159818417D2
:1039F000950710F0D901F4CF12968D919C911397F1
:103A000093838283EC01FD83EC83B583A4831396B7
:103A1000FC93EE93129711870087F80180818F5FE6
:103A20008083DF91CF911F910F910895CF93DF9302
:103A30009C01FB01DC011196CD91DC911297D3839F
:103A4000C2838C819D81958384838C819D81DC01DF
:103A500013967C936E9312977D836C8331872087B6
:103A6000F90180818F5F8083DF91CF910895CF939B
:103A7000DF93009751F0EC010E94A016CE010E9446
:103A80003A2BDF91CF910C940C19DF91CF910895CF
:103A90008C01F89461E08DE00E94D614C0E0D0E083
:103AA000C017D107E4F461E08DE00E94A61480E81D
:103AB00099EAA3E0B0E000000197A109B109D9F7A4
:103AC00060E08DE00E94A61480E899EAA3E0B0E0EF
:103AD00000000197A109B109D9F72196E1CF40E093
:103AE0005AE668E170E0000041505109610971092E
:103AF000D1F7D4CF0F931F93CF93DF9300D0CDB7DF
:103B0000DEB789839A830E94A01689819A810E94D8
:103B1000A52A8C010E940C190115110521F482E0DF
:103B200090E00E94481DC8010F900F90DF91CF9147
:103B30001F910F91089581E090E00E94481D0F931E
:103B40001F93CF93DF931F92CDB7DEB78C01DC01BB
:103B50005E968C915E97882341F05F968D919C9143
:103B6000909769830E94281A6981D8019796ED91F0
:103B7000FC9198979081D1968C91D197892B8083D5
:103B80009596ED91FC9196979081D0968C91809529
:103B900089238083C8010E94FA19D8019596ED9176
:103BA000FC9196979081D0968C91892B80830F9071
:103BB000DF91CF911F910F9108950F931F93CF9392
:103BC000DF931F92CDB7DEB78C01DC015E968C913E
:103BD0005E97882341F05F968D919C9190976983C1
:103BE0000E94281A6981D8019796ED91FC919897C7
:103BF0009081D1968C91D1978095892380839596D9
:103C0000ED91FC9196979081D0968C918095892327
:103C10008083C8010E94FA19D8019596ED91FC9114
:103C200096979081D0968C91892B80830F90DF910D
:103C3000CF911F910F910895611102C060E201C000
:103C400061E20C94DD1DEF92FF920F931F93CF93CF
:103C5000DF9300D0CDB7DEB77C01162F6AE229834F
:103C60004A830E94DD1D60E0C7010E949F1DF7018D
:103C700082A9612F680FC7010E949F1D60E0C701E4
:103C80000E949F1DF70182A92981622F680FC70139
:103C90000E949F1D6BE2C7010E94DD1D60E0C7010D
:103CA0000E949F1DF70183A94A81642F680FC701F5
:103CB0000E949F1D60E0C7010E949F1DF70183A91C
:103CC000602F680FC7010E949F1D6CE2C7010F9013
:103CD0000F90DF91CF911F910F91FF90EF900C9477
:103CE000DD1DAF92BF92CF92DF92EF92FF920F93C2
:103CF0001F93CF93DF93EC01590168012885398523
:103D0000621773070CF066C08A859B8548175907B0
:103D10000CF060C0FB01EA0DFB1D2E173F071CF4E1
:103D20005901A61AB70A9A012C0D3D1D8217930757
:103D30001CF46C01C41AD50A8D8D823091F4970160
:103D4000207E3770C701982F8827990F990F990FF8
:103D5000822B932BEF2CFF24E694E694E694E82A3A
:103D6000F92A0FEF040F0C0D2FEF260F2A0DCE01AD
:103D70000E94231E8E8D882321F08F8D98A10E9492
:103D8000281AEFA1F8A5908189A9892B8083EDA13C
:103D9000FEA1908188A98095892380831C141D042D
:103DA0009CF48501101611065CF46F2DCE010E9463
:103DB000FA196E2DCE010E94FA1901501109F2CFA5
:103DC00081E0C81AD108EACFEDA1FEA1908188A9AF
:103DD000892B8083DF91CF911F910F91FF90EF90FE
:103DE000DF90CF90BF90AF900895CF92DF92EF9287
:103DF000FF920F931F93CF93DF93EC01690178013A
:103E000088859985681779070CF054C02A853B8509
:103E1000421753070CF04EC09B012C0D3D1D82171D
:103E200093071CF46C01C61AD70A2FEF260F2C0D2E
:103E3000042FCE010E94231E8D8D823091F49701B4
:103E4000207E3770C701982F8827990F990F990FF7
:103E5000822B932BEF2CFF24E694E694E694E82A39
:103E6000F92A8E8D882321F08F8D98A10E94281A1F
:103E7000EFA1F8A5908189A9892B8083EDA1FEA1EE
:103E8000908188A9809589238083C114D10461F031
:103E90006F2DCE010E94FA196E2DCE010E94FA19E3
:103EA00081E0C81AD108F1CFEDA1FEA1908188A9C7
:103EB000892B8083DF91CF911F910F91FF90EF901D
:103EC000DF90CF900895CF92DF92EF92FF920F9301
:103ED0001F93CF93DF93EC01690178018885998561
:103EE000681779070CF055C08A859B8548175907D4
:103EF0000CF04FC09A012C0D3D1D821793071CF446
:103F00006C01C41AD50A0FEF040F0C0D262FCE0139
:103F10000E94231E8D8D823091F49701207E377090
:103F2000C701982F8827990F990F990F822B932BF0
:103F3000EF2CFF24E694E694E694E82AF92A0F2D64
:103F40008E8D882321F08F8D98A10E94281AEFA1D1
:103F5000F8A5908189A9892B8083EDA1FEA190818C
:103F600088A9809589238083C114D10461F0602FD2
:103F7000CE010E94FA196E2DCE010E94FA1981E03D
:103F8000C81AD108F1CFEDA1FEA1908188A9892B93
:103F90008083DF91CF911F910F91FF90EF90DF9081
:103FA000CF900895EF92FF920F93CF93DF93EC01A0
:103FB000790177FD4BC088859985681779070CF0E2
:103FC00045C057FD43C08A859B8548175907F4F5BE
:103FD00001E0040F21E0260FCE010E94231E8E8DEA
:103FE000882321F08F8D98A10E94281AEFA1F8A5AF
:103FF000908189A9892B8083EDA1FEA1908188A958
:104000008095892380838D8D823091F49701207E65
:104010003770C701982F8827990F990F990F822B16
:10402000932BEF2CFF24E694E694E694E82AF92AF1
:104030006F2DCE010E94FA196E2DCE010E94FA1941
:10404000EDA1FEA1908188A9892B8083DF91CF917A
:104050000F91FF90EF900895CF92DF92EF92FF9231
:104060000F931F93CF93DF9300D000D01F92CDB753
:10407000DEB78C011D821C82009711F40E949B1DEB
:10408000FC01848D8111FACF90E07801F8E0EF0E09
:10409000F11C0FB6F8940F92F801228D838D28172A
:1040A00008F07BC0448D411148C080819181892BEB
:1040B00009F05CC0F801E280F380E114F10411F42E
:1040C00080E037C08091BD029091BE02E816F906EB
:1040D000A9F6F70182A1882389F2815082A326895B
:1040E00091A1291769F38111EBCF6701F2E0CF0E9F
:1040F000D11CC6010E940717F70191A1968B492F89
:1041000050E024E030E0241B350B35872487809174
:10411000BC02891710F49093BC0229E0249FC001CF
:10412000259F900D1124B60188569D4F0E94161DA3
:1041300081E0F801138212821AC050E060E070E062
:10414000F801848195810E948E2AF801248D848152
:104150009581820F911D95838483228133818217FB
:10416000930720F0808191819583848380E0F8011A
:10417000928D9F5F928F9189992349F0C801419652
:104180000E942A17813029F40E94A61602C08111CC
:10419000FBCF0F900FBE81E055C02C813D81232BBA
:1041A00019F40F900FBE4DC0911109C08091970274
:1041B000898380919502909196029B838A830F90C8
:1041C0000FBE0E94A0160FB6F8940F92F801858DCD
:1041D0008F3F09F4158EF801868D8F3F09F4168EF6
:1041E0000F900FBEBE016C5F7F4FCE0101960E9403
:1041F0006816811121C00FB6F8940F92F801928DC4
:104200000F900FBE838D981311C06C817D81C70103
:104210000E94B217C8010E946E170E940C198823D1
:1042200011F091E036CF0E94A616FBCFC8010E9484
:104230006E170E940C19F5CFC8010E946E170E94DC
:104240000C1980E00F900F900F900F900F90DF915E
:10425000CF911F910F91FF90EF90DF90CF90089535
:10426000CF92DF92EF92FF920F931F93CF93DF9342
:1042700077FF1DC06A017B01EC016DE20E946513AE
:104280008C0144275527BA014C195D096E097F0935
:104290002AE0CE010E948113800F911FDF91CF9100
:1042A0001F910F91FF90EF90DF90CF9008952AE03B
:1042B000DF91CF911F910F91FF90EF90DF90CF9002
:1042C0000C9481136F927F929F92AF92BF92CF9284
:1042D000DF92EF92FF920F931F93CF93DF9300D063
:1042E00000D01F92CDB7DEB78C017D836C83009721
:1042F00011F40E949B1DFC01848D8111FACF80E096
:104300006801F1E1CF0ED11C99E0992E24E0A22E94
:10431000B12C0FB6F8940F92F801928D992309F4FD
:1043200046C0448D4423B9F050E086819781840FC4
:10433000951F97838683228133818217930720F00C
:104340008081918197838683F8016681778180E0FF
:1043500090E00E948E2AF801828D8150828F8081A8
:104360009181892BA1F48091BD029091BE02892B8D
:1043700039F0E091BD02F091BE0282A18F5F82A36D
:104380008091BD029091BE02F80193838283F8016F
:104390008085882341F0C80108960E942A17813041
:1043A00011F40E94A6160F900FBE81E0ADC02C81C3
:1043B0003D81232B19F40F900FBEA5C0811109C0B8
:1043C00080919702898380919502909196029B83B8
:1043D0008A830F900FBE0E94A0160FB6F8940F921A
:1043E000F801858D8F3F09F4158EF801868D8F3F7A
:1043F00009F4168E0F900FBEBE016C5F7F4FCE0189
:1044000001960E946816811179C00FB6F8940F9238
:10441000F801828D0F900FBE81116AC08081918159
:10442000892B09F054C00FB6F8940F92E280F38004
:10443000E114F10409F449C0F7018689E091BD0255
:10444000F091BE029689891708F03FC0F7012485D4
:10445000358537FD0BC0E091BD02F091BE02968913
:104460009501291B3109F70135872487989EC001E2
:10447000112488569D4FF701228533852817390767
:10448000E9F43701F2E06F0E711CC3010E940717B7
:10449000E091BD02F091BE022689F701268B809142
:1044A000BC02821710F42093BC02929EC00111241A
:1044B000B30188569D4F0E94161D07C0E091BD02B2
:1044C000F091BE028689F701868B0F900FBE6C813A
:1044D0007D81C6010E94B217C8010E946E170E941A
:1044E0000C19882311F081E014CF0E94A616FBCF8F
:1044F000C8010E946E170E940C19F5CFC8010E94D6
:104500006E170E940C1980E00F900F900F900F9083
:104510000F90DF91CF911F910F91FF90EF90DF905F
:10452000CF90BF90AF909F907F906F900895242F71
:10453000462F682F82E193E00E942B1AE2E1F3E01C
:1045400021E0218F908F878B918B808B938B828B37
:104550000895CF92DF92EF92FF920F931F93CF9324
:10456000DF93EC016B0180912E038823A1F0E09191
:104570001203F0911303E0902C03F0902D030684B6
:10458000F785E02D05E010E09B01AE0160E070E0F2
:1045900082E193E0099580912B03882371F0E090EC
:1045A0002903F0902A0305E010E09601AE0160E0D7
:1045B00070E082E193E00E94E51BDF91CF911F91B3
:1045C0000F91FF90EF90DF90CF900895242F462F0A
:1045D000682F82E193E00E942B1AE2E1F3E021E0F0
:1045E000248F938F828F08959FEF980F943008F453
:1045F000892F813159F020F48031E9F46CE012C048
:10460000823131F08331B9F46BE003C06BE00AC052
:104610006CE08FE093E00E94E61521E08C39914038
:10462000A0F412C08FE093E00E94E61521E08536E9
:10463000924058F009C0682F8FE093E00E94E61581
:1046400021E08130924008F420E0822F08950F93FA
:104650001F93CF93DF938C01C0E0D0E0F801EC0F03
:10466000FD1F6491662371F0E091BF02F091C002DA
:104670000190F081E02D8FEB92E00995892B11F0EC
:104680002196ECCF6DED71E08FEB92E00E946C1300
:104690008C0F9D1FDF91CF911F910F9108956F9205
:1046A0007F929F92AF92BF92CF92DF92EF92FF9252
:1046B0000F931F93CF93DF935C01962EC72EEA01D1
:1046C000D22E892B11F40E949B1D822F90E004971B
:1046D000D4F7CA010E947A1D3C01892B09F48BC1D1
:1046E00089E290E00E947A1D7C010097D9F0DC01FC
:1046F00058967C926E925797AE0165EA70E0C301BE
:104700000E94972A2197D7015796ED91FC915897CF
:10471000EC0FFD1FB701675E7F4FA92DBC2DCD01AA
:10472000089607C0C3010E94371D65C1A817B907C5
:1047300049F09D014D91EB014993BE01E9012881AA
:104740002111F4CFD70190961C928D2DB3E0BD15A9
:1047500008F483E0E7018E8B89A31AA21B861A86D0
:104760001D8A1C8AF986E88624E030E0A901481BEE
:1047700051095D874C87FB8AEA8A1BA21CA21DA2F5
:104780001EA218A61FA291E19083DF01119782E279
:104790008C93119723E32C931197AC921197BC92B1
:1047A00011971C92119720E82C9311971C92119746
:1047B00022E02C93119723E02C93119724E02C9363
:1047C000119725E02C93119726E02C93119727E061
:1047D0002C93119728E02C93119729E02C93119793
:1047E00020E12C9311979C93119792E19C93119740
:1047F00093E19C93119794E19C93119795E19C937D
:10480000119796E19C93119797E19C93119798E1EA
:104810009C93119799E19C93119790E29C93119727
:1048200091E29C9311978C93119783E28C9311974B
:104830001C9211971C92119786E28C93119787E234
:104840008C93119788E28C93119789E28C9311973E
:1048500080E38C93119781E38C93B697F983E88377
:104860000115110519F0F801F182E0820FB6F894F4
:104870000F9280916D038F5F80936D038091BD02D5
:104880009091BE02892B09F07DC0F092BE02E092A9
:10489000BD0280916D03813009F083C0E8E9F2E048
:1048A0004FEF5FEF9F012D5F3F4F328321838FEFEB
:1048B0009FEF548343833683258330872783108279
:1048C000399622E0EC3BF20769F726E833E03093B3
:1048D000850320938403909387038093860330930A
:1048E00089032093880330938B0320938A031092CB
:1048F00083032DE733E030937C0320937B03909375
:104900007E0380937D033093800320937F03309355
:1049100082032093810310927A0326E633E03093DA
:104920006503209364039093670380936603309339
:1049300069032093680330936B0320936A031092FA
:1049400063032DE533E030935C0320935B03909386
:104950005E0380935D033093600320935F03309385
:1049600062032093610310925A0383E893E09093CB
:104970005903809358038AE793E0909357038093F9
:1049800056030FC080916C0381110BC0E091BD02F2
:10499000F091BE028689D81620F0F092BE02E09215
:1049A000BD0280918C038F5F80938C03D701569654
:1049B0008C919091BC02981710F48093BC02B701BF
:1049C0006E5F7F4FB9E08B9FC001112488569D4FC9
:1049D0000E94161D0F900FBE80916C03882349F032
:1049E000E091BD02F091BE0286898D1510F40E94FF
:1049F000A61681E001C08FEFDF91CF911F910F913B
:104A0000FF90EF90DF90CF90BF90AF909F907F90FE
:104A10006F900895FC0180915503811103C08FEFC1
:104A20009FEF08959FB7F89482E08093E90020916A
:104A3000F20030E01216130614F421E030E02115E4
:104A4000310559F0289884E6809354038091F10051
:104A500080838091F200882319F09FBFC9010895D7
:104A60008BE68093E800F9CF8091720381110DC02D
:104A700082E080936E0384E080936F031092710351
:104A80001092700381E0809372038EE693E00895A4
:104A90000F931F93CF93DF93EC0188819981009747
:104AA00029F02A813B812617370788F48B016F5F35
:104AB0007F4F0E94BF29009761F0998388831B83F1
:104AC0000A832C813D81232B11F4FC01108281E0AB
:104AD00001C080E0DF91CF911F910F910895EF9277
:104AE000FF920F931F93CF93DF93EC017B018A0119
:104AF000BA010E9448252881398181110DC02115F4
:104B0000310519F0C9010E943A2B198218821D82C1
:104B10001C821B821A8206C01D830C83B701C90147
:104B20000E949E2ACE01DF91CF911F910F91FF909D
:104B3000EF9008951F920F920FB60F9211248F934A
:104B40009F938091E1009091E100937F9093E10029
:104B500083FF0FC01092E90091E09093EB00109258
:104B6000EC0092E39093ED001092550398E090933F
:104B7000F00082FF20C093E09093E9009091F20052
:104B8000992319F09AE39093E800909153039923A5
:104B900039F090915303915090935303992389F1E5
:104BA00090915403992339F090915403915090932C
:104BB0005403992341F184FF10C08091E2008E7E5E
:104BC00081608093E2008091E1008F7E8093E1001C
:104BD000809152038E7E806111C080FF16C080914B
:104BE000E2008E7E80618093E2008091E1008E7E03
:104BF0008093E100809152038E7E81608093520306
:104C000004C05D9ACDCF289AD6CF9F918F910F90F7
:104C10000FBE0F901F901895CF92DF92EF92FF92E8
:104C20000F931F93CF93DF931F92CDB7DEB7182F4B
:104C3000062FE42E862F880F8E5F99830E94190F0E
:104C400083E00E94190FF12EC12E9981D92E8C2D4F
:104C50008F19801798F4F601E7FE02C0849101C015
:104C600080810E94190F182F80E00E94190F812364
:104C7000FFEFCF1ADF0A8111EACF01C081E00F9068
:104C8000DF91CF911F910F91FF90EF90DF90CF9028
:104C90000895789484B5826084BD84B5816084BDB4
:104CA00085B5826085BD85B5816085BD80916E00CA
:104CB000816080936E0010928100809181008260FB
:104CC0008093810080918100816080938100809138
:104CD0008000816080938000809191008260809349
:104CE000910080919100816080939100809190006B
:104CF0008160809390008091C10084608093C100A6
:104D00008091C10082608093C1008091C100816068
:104D10008093C1008091C30081608093C300809123
:104D2000C00082608093C0008091C2008160809347
:104D3000C20080917A00846080937A0080917A002A
:104D4000826080937A0080917A00816080937A00FB
:104D500080917A00806880937A00109255031092B7
:104D60008702109252038091D70081608093D70010
:104D700080EA8093D80089B5806189BD89B5826059
:104D800089BD09B400FEFDCF61E070E080E090E0F5
:104D90000E9462158091D8008F7C80618093D8003A
:104DA0008091E000807F8093E0008091E1008E7E22
:104DB0008093E1008DE08093E200559A209AEEEF17
:104DC000FFE7859194918B3F9C4D19F481E080938E
:104DD00086020FEF1FEF1093CC020093CB0261E02D
:104DE0008DE00E94D61461E089E00E94D61461E053
:104DF00089E00E94A61461E08AE00E94D61461E076
:104E000085E00E94D6148091760290917702892BDA
:104E1000B9F58FE190E00E947A1DEC01892B39F100
:104E20001B821A82198218821D821C821F821E8296
:104E30001A8E81E08B8F1C8E8FEF8D8F8E8FCE011F
:104E40000B969A8789871C870B879E878D87988BFF
:104E50008F87188609969B8B8A8B1D8B0C8B9F8B5B
:104E60008E8B998F888F198ACE010E942C20D09327
:104E70007702C0937602209719F0CE010E942C2071
:104E800000E010E022E044E650E066EE71E080EEE3
:104E90009EE00E944F2322E044E650E069EE71E07C
:104EA00086E29DE00E944F2323E048EC50E06CEE48
:104EB00071E08DE39AE00E944F2321E04CE251E043
:104EC00063EF71E08AEB98E00E944F2321E04CE20F
:104ED00051E069EF71E081ED93E00E944F2321E002
:104EE00048EC50E06FEF71E083E297E00E944F23BF
:104EF00080E391E00E94272308E712E020E044E6E7
:104F000050E065E072E082E899E10E944F23813031
:104F100009F03FC0F8942FEF3FEF309375022093D4
:104F2000740280936C03109296021092950287BDD2
:104F300080916E00826080936E00A091BD02B0915E
:104F4000BE02CD91CDBFDD91DEBFFF91EF91DF912C
:104F5000CF91BF91AF919F918F917F916F915F9111
:104F60004F913F912F911F910F91FF90EF90DF9004
:104F7000CF90BF90AF909F908F907F906F905F90F9
:104F80004F903F902F901F900F900FBE0F9008955D
:104F900004C0811102C00E949B1D8CE291E00E941E
:104FA0002723FFCF80914603909147030E943A2B1D
:104FB00080914C0390914D030C943A2BCF93DF9347
:104FC000EFEBF2E01382128288EE93E0A0E0B0E013
:104FD00084839583A683B78385E291E09183808360
:104FE000CFEFDFEFD587C48761E082E10E94D6145E
:104FF00061E083E10E94D61461E084E10E94D6144E
:1050000061E085E10E94D61461E085E00E94D6143B
:1050100061E08AE00E94D61461E089E00E94D61423
:10502000E2E1F3E01382128220E830E0358324834A
:1050300040EA50E057834683158A15861486178602
:10504000168681E0848BD38BC28BD18BC08B868BF1
:1050500090E5978F10A297E091A712A683A7868F5D
:1050600015A614A685E391E091838083518740873C
:1050700033872287ECE4F3E01182108213821282DC
:105080001582148248E050E06AE072E0CF010E948D
:105090006F25E6E4F3E011821082138212821582FA
:1050A000148243E050E063E172E0CF01DF91CF91E1
:1050B0000C946F25DB018F939F930E94512DBF911C
:1050C000AF91A29F800D911DA39F900DB29F900D57
:1050D0001124089597FB072E16F4009407D077FD4E
:1050E00009D00E94932807FC05D03EF49095819545
:1050F0009F4F0895709561957F4F0895EE0FFF1FA4
:105100000590F491E02D09940E94B52D332312F4FB
:105110008A1B9B0B0C948E280E94B52DB7FF089517
:10512000821B930B0895AA1BBB1B51E107C0AA1F4A
:10513000BB1FA617B70710F0A61BB70B881F991F38
:105140005A95A9F780959095BC01CD0108955058C6
:10515000BB27AA270E94BF280C94F82C0E94EA2C97
:1051600038F00E94F12C20F039F49F3F19F426F416
:105170000C94E72C0EF4E095E7FB0C94E12CE92F5E
:105180000E94092D58F3BA17620773078407950721
:1051900020F079F4A6F50C942B2D0EF4E0950B2E4F
:1051A000BA2FA02D0B01B90190010C01CA01A00179
:1051B0001124FF27591B99F0593F50F4503E68F1D4
:1051C0001A16F040A22F232F342F4427585FF3CF15
:1051D000469537952795A795F0405395C9F77EF4E6
:1051E0001F16BA0B620B730B840BBAF09150A1F02F
:1051F000FF0FBB1F661F771F881FC2F70EC0BA0FB5
:10520000621F731F841F48F4879577956795B7953C
:10521000F7959E3F08F0B0CF9395880F08F0992737
:10522000EE0F9795879508950E9428290C94F82CE5
:105230000E94F12C58F00E94EA2C40F029F45F3FC4
:1052400029F00C94E12C51110C942C2D0C94E72C8A
:105250000E94092D68F39923B1F3552391F3951B0F
:10526000550BBB27AA2762177307840738F09F5F87
:105270005F4F220F331F441FAA1FA9F335D00E2EF4
:105280003AF0E0E832D091505040E695001CCAF761
:105290002BD0FE2F29D0660F771F881FBB1F261724
:1052A00037074807AB07B0E809F0BB0B802DBF01FB
:1052B000FF2793585F4F3AF09E3F510578F00C94CA
:1052C000E12C0C942C2D5F3FE4F3983ED4F38695AB
:1052D00077956795B795F7959F5FC9F7880F911DEB
:1052E0009695879597F90895E1E0660F771F881FD7
:1052F000BB1F621773078407BA0720F0621B730B8A
:10530000840BBA0BEE1F88F7E09508950E94112DCB
:1053100088F09F5798F0B92F9927B751B0F0E1F076
:10532000660F771F881F991F1AF0BA95C9F714C026
:10533000B13091F00E942B2DB1E008950C942B2DEB
:10534000672F782F8827B85F39F0B93FCCF386955F
:1053500077956795B395D9F73EF4909580957095BC
:1053600061957F4F8F4F9F4F08950E94502C08F4F6
:105370008FEF08950E94502C880B990B0895A0E0A0
:10538000B0E0E5ECF9E20C94602DEC01009721F41B
:10539000CB010E94A52AB8C0FC01E60FF71F9C01B3
:1053A00022503109E217F30708F4ACC0D9010D917E
:1053B0001C91119706171707B0F00530110508F476
:1053C0009FC0C80104978617970708F499C0025038
:1053D0001109061B170B019311936D937C93CF0159
:1053E0000E943A2B8DC05B01A01AB10A4C01800EBD
:1053F000911EA0918F03B091900340E050E0E12C0A
:10540000F12C109709F44AC0A815B905D1F56D9093
:105410007C901197630182E0C80ED11CCA14DB0492
:1054200080F1A3014A195B096A0182E0C80ED11C10
:105430001296BC9012971396AC91B5E0CB16D1049E
:1054400040F0B282A38351834083D9016D937C9352
:105450000AC00E5F1F4FC301800F911FF901918396
:105460008083EB2DFA2FE114F10431F0D70113966C
:10547000FC93EE93129744C0F0939003E0938F0354
:105480003FC08D919C9111974817590708F4AC01C2
:105490007D0112960D90BC91A02DB3CF80918D030C
:1054A00090918E0388159905E1F446175707C8F4C3
:1054B0008091100190911101009741F48DB79EB732
:1054C0004091140150911501841B950BE817F907C1
:1054D000C8F4F0938E03E0938D03F9017183608328
:1054E0000FC0CB010E94A52A7C01009759F0A801AA
:1054F000BE010E948E2ACE010E943A2BC70104C031
:10550000CE0102C080E090E0CDB7DEB7EEE00C94B3
:105510007C2D81E090E0F8940C94C42DFB01DC011B
:1055200002C001900D9241505040D8F70895DC011F
:1055300001C06D9341505040E0F70895FB01DC013C
:1055400001900D920020E1F70895CF93DF93823010
:10555000910510F482E090E0E0918F03F0919003C8
:1055600020E030E0C0E0D0E0309711F1408151817F
:1055700048175907C0F04817590761F48281938191
:10558000209719F09B838A832BC09093900380937C
:105590008F0326C02115310519F04217530718F45F
:1055A0009A01BE01DF01EF010280F381E02DDCCF23
:1055B0002115310509F1281B390B2430310590F4F0
:1055C00012968D919C9113976115710521F0FB0145
:1055D0009383828304C09093900380938F03FD0193
:1055E000329644C0FD01E20FF31F81939193225044
:1055F00031092D933C933AC020918D0330918E0355
:10560000232B41F4209112013091130130938E032A
:1056100020938D0320911001309111012115310546
:1056200041F42DB73EB74091140150911501241B50
:10563000350BE0918D03F0918E03E217F307A0F490
:105640002E1B3F0B2817390778F0AC014E5F5F4FD8
:105650002417350748F04E0F5F1F50938E03409379
:105660008D038193919302C0E0E0F0E0CF01DF91E0
:10567000CF9108950F931F93CF93DF93009709F471
:105680008CC0FC0132971382128200918F0310911B
:1056900090030115110581F420813181820F931F40
:1056A00020918D0330918E032817390779F5F093F7
:1056B0008E03E0938D0371C0D80140E050E0AE1737
:1056C000BF0750F412962D913C911397AD0121150F
:1056D000310509F1D901F3CF9D01DA01338322832A
:1056E00060817181860F971F8217930769F4EC011F
:1056F00028813981260F371F2E5F3F4F318320834A
:105700008A819B8193838283452B29F4F0939003B4
:10571000E0938F0342C01396FC93EE931297ED0132
:10572000499159919E01240F351FE217F30771F437
:1057300080819181840F951F029611969C938E9380
:105740008281938113969C938E931297E0E0F0E010
:10575000D80112968D919C911397009719F0F8013A
:105760008C01F6CF8D919C9198012E5F3F4F820F57
:10577000931F20918D0330918E032817390769F408
:10578000309729F41092900310928F0302C0138275
:10579000128210938E0300938D03DF91CF911F919E
:1057A0000F9108951F93FC0199278827BC01E89465
:1057B00011911032E9F3193010F01E30C8F31B328A
:1057C00051F01D3249F4689406C00E94F92B610F14
:1057D000711D811D911D119110531A30B0F33EF4CB
:1057E00090958095709561957F4F8F4F9F4F1F913A
:1057F0000895592F482F372F262F660F771F881FA0
:10580000991F660F771F881F991F620F731F841FD0
:10581000951F660F771F881F991F08950E94502CAF
:1058200008F481E00895E89409C097FB3EF4909550
:105830008095709561957F4F8F4F9F4F9923A9F069
:10584000F92F96E9BB279395F695879577956795F8
:10585000B795F111F8CFFAF4BB0F11F460FF1BC03C
:105860006F5F7F4F8F4F9F4F16C0882311F096E9CF
:1058700011C0772321F09EE8872F762F05C066237D
:1058800071F096E8862F70E060E02AF09A95660F36
:10589000771F881FDAF7880F9695879597F90895EF
:1058A000990F0008550FAA0BE0E8FEEF1616170631
:1058B000E807F907C0F012161306E407F50798F099
:1058C000621B730B840B950B39F40A2661F0232BB2
:1058D000242B252B21F408950A2609F4A140A6952E
:1058E0008FEF811D811D08950E94872C0C94F82C48
:1058F0000E94EA2C38F00E94F12C20F0952311F040
:105900000C94E12C0C94E72C11240C942C2D0E9467
:10591000092D70F3959FC1F3950F50E0551F629FBD
:10592000F001729FBB27F00DB11D639FAA27F00DF8
:10593000B11DAA1F649F6627B00DA11D661F829F1F
:105940002227B00DA11D621F739FB00DA11D621F04
:10595000839FA00D611D221F749F3327A00D611D21
:10596000231F849F600D211D822F762F6A2F112403
:105970009F5750409AF0F1F088234AF0EE0FFF1F36
:10598000BB1F661F771F881F91505040A9F79E3F8D
:10599000510580F00C94E12C0C942C2D5F3FE4F326
:1059A000983ED4F3869577956795B795F795E795E3
:1059B0009F5FC1F7FE2B880F911D9695879597F9EC
:1059C000089597F99F6780E870E060E008959FEF81
:1059D00080EC089500240A94161617061806090686
:1059E000089500240A941216130614060506089555
:1059F000092E0394000C11F4882352F0BB0F40F4DD
:105A0000BF2B11F460FF04C06F5F7F4F8F4F9F4F1C
:105A1000089557FD9058440F551F59F05F3F71F09E
:105A20004795880F97FB991F61F09F3F79F0879505
:105A30000895121613061406551FF2CF4695F1DF8E
:105A400008C0161617061806991FF1CF869571051E
:105A5000610508940895E894BB2766277727CB0152
:105A600097F90895052E97FB1EF400940E94492D86
:105A700057FD07D00E94932D07FC03D04EF40C94E1
:105A8000492D50954095309521953F4F4F4F5F4F91
:105A9000089590958095709561957F4F8F4F9F4F9A
:105AA00008950E94B52DA59F900DB49F900DA49FC1
:105AB000800D911D112408952F923F924F925F9275
:105AC0006F927F928F929F92AF92BF92CF92DF920E
:105AD000EF92FF920F931F93CF93DF93CDB7DEB773
