:100000000C94A0030C94C8030C94C8030C94C8036C
:100010000C94C8030C94C8030C94C8030C94C80334
:100020000C94C8030C94C8030C94DE140C94501563
:100030000C94C8030C94C8030C94C8030C94C80314
:100040000C94C8030C94C8030C94C8030C94C80304
:100050000C94C8030C94401B0C94C8030C94510FCF
:100060000C94C8030C94C8030C94C8030C94C803E4
:100070000C94C8030C94C8030C94C8030C94C803D4
:100080000C948D170C94C8030C94C8030C94C803EB
:100090000C94C8030C94C8030C94C8030C94C803B4
:1000A0000C94C8030C94C8030C94C803C70DCA0D64
:1000B000B90DBD0DC10DEB0DEB0DEB0DCE0DD20D40
:1000C000D60DDC0DE00DEB0DE60D13018032118035
:1000D00064260104B1020B14C0020800C10105C569
:1000E000024130C701C1EC011B3A8155642A04006A
:1000F00000007F2B040000009F3601C8B70100F20A
:100100000100E08F282422312B0E53A5421618122D
:100110001A140332E18F171B1D0E14112CA53D0973
:10012000272D252B3C3213800A2980FF0706050462
:100130000100080A0B0C0D09000000002400270034
:100140002A002D00300000000000250028002B00B0
:100150002E00310004040404040304050202020218
:100160000403020202020606060606060404020250
:100170000204040408020110408040102040804026
:1001800080080204018040201002011080102040ED
:1001900040200000000200090F0000030401000CD1
:1001A000000000000000000000000000000000004F
:1001B0000044696500537461727400080B00020208
:1001C00002010009040000010202000005240010E1
:1001D000010524010101042402060524060001078B
:1001E00005810310004009040100020A0000000715
:1001F00005020240000007058302400000040309D5
:100200000441726475696E6F204C4C430041726406
:1002100075696E6F204573706C6F7261001201001A
:10022000020000004041233C800001010203011252
:10023000010002EF02014041233C80000101020362
:100240000100000000003E5B4F5B3E3E6B4F6B3E8B
:100250001C3E7C3E1C183C7E3C181C577D571C1CC9
:100260005E7F5E1C00183C1800FFE7C3E7FF001824
:10027000241800FFE7DBE7FF30483A060E2629790D
:100280002926407F050507407F05253F5A3CE73C6E
:100290005A7F3E1C1C08081C1C3E7F14227F22141F
:1002A0005F5F005F5F06097F017F006689956A6076
:1002B0006060606094A2FFA29408047E040810208D
:1002C0007E201008082A1C08081C2A08081E101086
:1002D00010100C1E0C1E0C30383E3830060E3E0E30
:1002E00006000000000000005F000000070007009B
:1002F000147F147F14242A7F2A1223130864623681
:10030000495620500008070300001C22410000410C
:10031000221C002A1C7F1C2A08083E080800807046
:100320003000080808080800006060002010080479
:10033000023E5149453E00427F40007249494946CC
:100340002141494D331814127F1027454545393C4A
:100350004A49493141211109073649494936464937
:1003600049291E0000140000004034000000081459
:1003700022411414141414004122140802015909D2
:10038000063E415D594E7C1211127C7F4949493627
:100390003E414141227F4141413E7F494949417FA0
:1003A000090909013E414151737F0808087F004156
:1003B0007F41002040413F017F081422417F40409F
:1003C00040407F021C027F7F0408107F3E41414174
:1003D0003E7F090909063E4151215E7F09192946E0
:1003E000264949493203017F01033F4040403F1FF6
:1003F0002040201F3F4038403F631408146303042B
:100400007804036159494D43007F4141410204088A
:100410001020004141417F0402010204404040405D
:1004200040000307080020545478407F2844443893
:100430003844444428384444287F385454541800DD
:10044000087E090218A4A49C787F0804047800445C
:100450007D40002040403D007F1028440000417F47
:1004600040007C047804787C0804047838444444D0
:1004700038FC1824241818242418FC7C08040408C8
:10048000485454542404043F44243C4040207C1CE1
:100490002040201C3C4030403C44281028444C90D4
:1004A00090907C4464544C4400083641000000772E
:1004B0000000004136080002010204023C26232607
:1004C0003C1EA1A161123A4040207A38545455593B
:1004D0002155557941215454784121555478402073
:1004E000545579400C1E527212395555555939548C
:1004F00054545939555454580000457C4100024524
:100500007D420001457C40F0292429F0F02825286F
:10051000F07C545545002054547C547C0A097F4992
:1005200032494949323248484832324A4848303ADA
:100530004141217A3A42402078009DA0A07D394473
:100540004444393D4040403D3C24FF2424487E49FA
:1005500043662B2FFC2F2BFF0929F620C0887E092C
:100560000320545479410000447D413048484A32C8
:10057000384040227A007A0A0A727D0D19317D26B0
:1005800029292F28262929292630484D4020380896
:1005900008080808080808382F10C8ACBA2F102817
:1005A00034FA00007B000008142A142222142A14B2
:1005B00008AA005500AAAA55AA55AA000000FF00E3
:1005C000101010FF00141414FF001010FF00FF1093
:1005D00010F010F0141414FC001414F700FF0000C5
:1005E000FF00FF1414F404FC141417101F10101F44
:1005F000101F1414141F00101010F0000000001F32
:10060000101010101F10101010F010000000FF103C
:100610001010101010101010FF10000000FF140038
:1006200000FF00FF00001F10170000FC04F414146A
:100630001710171414F404F40000FF00F714141436
:1006400014141414F700F7141414171410101F10B6
:100650001F141414F4141010F010F000001F101FD9
:100660000000001F14000000FC140000F010F01047
:1006700010FF10FF141414FF141010101F000000BE
:1006800000F010FFFFFFFFFFF0F0F0F0F0FFFFFFC2
:100690000000000000FFFF0F0F0F0F0F3844443819
:1006A000447C2A2A3E147E02020606027E027E0254
:1006B00063554941633844443C04407E201E200673
:1006C000027E020299A5E7A5991C2A492A1C4C72B0
:1006D00001724C304A4D4D303048784830BC625A37
:1006E000463D3E494949007E0101017E2A2A2A2AC7
:1006F0002A44445F444440514A444040444A5140A3
:100700000000FF0103E080FF000008086B6B083663
:1007100012362436060F090F0600001818000000D4
:100720001010003040FF0101001F01011E00191DC3
:100730001712003C3C3C3C00000000005C25D82522
:1007400011241FBECFEFDAE0DEBFCDBF12E0A0E084
:10075000B1E0E0E3F6E502C005900D92A831B107E3
:10076000D9F723E0A8E1B2E001C01D92A139B20798
:10077000E1F713E0CFE9D3E004C02197FE010E9426
:10078000E425CE39D107C9F70E9496230C940B2B90
:100790000C9400001092800310927F0361E080911E
:1007A00077030E94FF0D61E0809176030E94FF0DA8
:1007B0008091760390E0FC01EC5AFE4FE491F0E06A
:1007C000EE0FFF1FEA5BFE4F2591349130937303C8
:1007D00020937203FC01ED58FE4FE491E0937D03FA
:1007E0008091770390E0FC01EC5AFE4FE491F0E039
:1007F000EE0FFF1FEA5BFE4F259134913093750396
:1008000020937403FC01ED58FE4FE491E0937E03C6
:1008100080916B03882309F439C0CFB7F894809195
:100820006702811127C0E5E6F1E08491E4E8F1E098
:100830009491E82FF0E0EE0FFF1FE85CFE4FA591CA
:10084000B491EC91E92321F461E081E10E949C0DD7
:1008500061E081E10E94FF0D8CB580618CBD8CB59B
:1008600080648CBD61E08FE00E94FF0D61E080E15B
:100870000E94FF0D809167028F5F80936702CFBF58
:1008800080E580936C0310926D0349C061E0809114
:100890007A030E94FF0D61E0809179030E94FF0DB1
:1008A00080917A0390E0FC01EC5AFE4FE491F0E075
:1008B000EE0FFF1FEA5BFE4FA591B491B093710359
:1008C000A0937003FC01ED58FE4F849180937C034C
:1008D0002091790330E0F901EC5AFE4FE491F0E009
:1008E000EE0FFF1FEA5BFE4F4591549150936F034B
:1008F00040936E03F901ED58FE4FE491E0937B03C2
:100900009C91E82FE095E923EC93E0916E03F09140
:100910006F03908180917B03809589238083E09190
:100920007203F0917303908180917D0380958923F8
:10093000808380917803882321F161E00E94FF0D7C
:1009400061E0809178030E949C0D64EF71E080E08B
:1009500090E00E948B0E60E0809178030E949C0DD5
:1009600064EF71E080E090E00E948B0E61E0809186
:1009700078030E949C0D64EF71E080E090E00E949B
:100980008B0EEAECF0E01491CBECD0E011114EC0EC
:1009900066E38DE493E00E940923C1E0C093620303
:1009A00068EA8DE493E00E94CB2280EA90E0909385
:1009B00056038093550380E890E09093580380930A
:1009C0005703E0914D03F0914E030088F189E02D2B
:1009D00060E070E08DE493E0099544EB64E188EC1D
:1009E0000E949512C093610380916603882309F4E5
:1009F00054C01092630380916403909165039093B7
:100A00005E0380935D039093600380935F03109275
:100A10005A031092590310925C0310925B036BE42B
:100A200071E08DE493E00E947B1837C0FE01649171
:100A30008DE493E00E9409236E01F2E0CF0ED11CF9
:100A4000FE013196C4910C2F0078CF777601DC2F10
:100A5000D15050F0F70164918DE493E00E94CB22D5
:100A6000FFEFEF1AFF0AF4CFC6018C0F911DEC01C6
:100A7000002389F07C019FEFE91AF90AFE016491D5
:100A800070E06F3F710511F464EF71E080E090E079
:100A90000E948B0EE701115079CF82E080936103B1
:100AA0000091720210917302A0907002B0907102D6
:100AB00080916C0290916D02A0916E02B0916F02D4
:100AC000EC014FEF6FEF8FEF0E94951210925A03D7
:100AD000109259038EE190E090935C0380935B0346
:100AE000B8018DE493E00E945A1E86E4282E312C32
:100AF00084EF90E00E94FE1CE0907202F09073027E
:100B00000E151F0561F140E060E080E00E94951243
:100B100010925A03109259038EE190E090935C0377
:100B200080935B03B8018DE493E00E945A1E4FEF5F
:100B30006FEF8FEF0E94951210925A031092590393
:100B4000EEE1F0E0F0935C03E0935B03E09072026F
:100B5000F0907302B7018DE493E00E945A1E009159
:100B6000700210917102A016B10609F448C040E06D
:100B700060E080E00E94951210925A03109259038F
:100B800030925C0320925B03B5018DE493E00E94F8
:100B90005A1E60915503709156034CE350E08CE36C
:100BA00090E00E94951F0091700210917102C09018
:100BB0005503D09056034FEF6FEF8FEF0E949512C1
:100BC0009801D6010E94EA252FEF33E040E050E083
:100BD0000E94842ACA01B9014CE350E08CE390E002
:100BE0000E94951F10925A031092590330925C0391
:100BF00020925B03B8018DE493E00E945A1E80911D
:100C00006C0290916D02A0916E02B0916F02AE01E4
:100C10000D2E000C660B770B481759076A077B07E8
:100C200019F45801870164CF40E060E080E00E9441
:100C3000951210925A03109259038FE590E0909309
:100C40005C0380935B03BE018DE493E00E945A1E17
:100C500060915503709156034AE550E08AE590E0B3
:100C60000E94951F80906C0290906D02A0906E0281
:100C7000B0906F02E401C0905503D09056034090AD
:100C800068025090690260906A0270906B024FEFA8
:100C90006FEF8FEF0E9495129401D6010E94EA2512
:100CA000A30192010E94842ACA01B9014AE550E0D9
:100CB0008AE590E00E94951F10925A031092590302
:100CC000EFE5F0E0F0935C03E0935B03B4018DE4A7
:100CD00093E00E945A1EA5CFCF93DF9300D0CDB7EB
:100CE000DEB7C12C3DE7D32EE12CF12C44E6442E97
:100CF000512C612C712C55E0852E912CA12CB12CFE
:100D000011E080ED93E00E94FE1C64E170E08091B0
:100D10007702909178020E94601E813009F070C0C5
:100D200040E050E06FED71E087E893E00E94B3147B
:100D30008AEF92E00E940A0D1816190674F58AEFE0
:100D400092E00E94240DF82E682F8AEF92E00E9414
:100D5000EE17F9821A82E0908B03F0908C032FEF4C
:100D6000E21AF20AB70187E893E00E948C14882304
:100D7000F9F2209187033091880380918B03909141
:100D80008C03BE016F5F7F4F820F931F0E94F0277D
:100D9000F0928C03E0928B03CBCF80918B039091E8
:100DA0008C03892BF9F0E0918703F091880380810F
:100DB0008823C1F060E671E08AEF92E00E947B1820
:100DC000E091FA02F091FB0240918B0350918C0369
:100DD00060918703709188030280F381E02D8AEF90
:100DE00092E009958091870390918803009729F0FC
:100DF0000E9424296B017C0103C0C12CD12C7601F7
:100E000080917702909178020E94241DC114D10430
:100E1000E104F10409F475CFC0926802D09269022E
:100E2000E0926A02F0926B02F7FE08C0F094E09440
:100E3000D094C094C11CD11CE11CF11CC701B601A7
:100E4000A30192010E94842A2B30310514F02AE07C
:100E500030E080923F0290924002A0924102B09214
:100E6000420240913F0250914002609141027091D4
:100E70004202C901032E000CAA0BBB0B480F591FDD
:100E80006A1F7B1F409343025093440260934502C4
:100E90007093460240914302509144026091450292
:100EA00070914602480F591F6A1F7B1F40934702EB
:100EB000509348026093490270934A02409147025E
:100EC000509148026091490270914A02840F951F27
:100ED000A61FB71F80934B0290934C02A0934D0224
:100EE000B0934E0240914B0250914C0260914D02E2
:100EF00070914E02C901880F991F880F991F092E02
:100F0000000CAA0BBB0B840F951FA61FB71F809365
:100F10004F0290935002A0935102B09352028091DD
:100F20004F0290915002A0915102B0915202A7013C
:100F30009601281B390B4A0B5B0B2093530230930D
:100F40005402409355025093560280914B02909167
:100F50004C02A0914D02B0914E02A7019601281BB0
:100F6000390B4A0B5B0B2093570230935802409386
:100F7000590250935A028091470290914802A091E1
:100F80004902B0914A02A7019601281B390B4A0B6E
:100F90005B0B20935B0230935C0240935D025093A5
:100FA0005E028091430290914402A0914502B0916B
:100FB0004602A7019601281B390B4A0B5B0B2093B5
:100FC0005F0230936002409361025093620280910D
:100FD0003F0290914002A0914102B0914202C81A92
:100FE000D90AEA0AFB0AC0926302D0926402E09234
:100FF0006502F0926602F89410933E027894C12C38
:10100000D12C76017ECE88EE91E00E94FE1CC0E0DD
:1010100088248A94982C540169E170E080917702C9
:10102000909178020E94601E813031F46EE671E08A
:101030008AEF92E00E947B1860913C0270913D0221
:101040008AEF92E00E945A1E10923D0210923C02DA
:1010500067E871E08AEF92E00E947B18609172026B
:10106000709173028AEF92E00E945A1E61E971E06A
:101070008AEF92E00E947B1860913A0270913B02E5
:101080008AEF92E00E945A1E10923B0210923A029E
:1010900067E871E08AEF92E00E947B18C090360208
:1010A000D0903702E0903802F0903902A701960103
:1010B000C701B6010E940C27882319F06BEA71E082
:1010C0001AC026013701E89477F82FEF3FEF4FE77A
:1010D0005FE7C301B2010E940C27811111C02FEFFD
:1010E0003FEF4FE75FE7C301B2010E946029181686
:1010F0003CF46FEA71E08AEF92E00E94F5177EC03F
:101100002FEF3FEF4FE75FE4C701B6010E940727CB
:1011100018161CF463EB71E0EECF2FEF3FEF4FE7B3
:101120005FECC701B6010E94602987FDF3CF20E084
:1011300030E0A901C701B6010E94602987FF09C0FC
:101140006DE28AEF92E00E94EE17F7FAF094F7F85A
:10115000F0942AE037ED43EA5BE3C701B6010E9451
:10116000FA252B013C010E94D8266B017C010E94CC
:1011700065299B01AC01C301B2010E94F9252B0135
:101180003C012AE0B701A6018AEF92E00E943218E2
:1011900067EB71E08AEF92E00E94F51720E030E003
:1011A00040E251E4C301B2010E94C6292B013C0177
:1011B0000E94D8266B01E12CF12C2AE0B701A60190
:1011C0008AEF92E00E943218C701B6010E94652999
:1011D0009B01AC01C301B2010E94F92520E030E07F
:1011E00040E251E40E94C6290E94D826AB0160E08B
:1011F00070E02AE08AEF92E00E94321869EB71E019
:101200008AEF92E00E947B18409100015091010109
:1012100060910201709103012AE08AEF92E00E943E
:10122000321862EC71E08AEF92E00E947B184091E4
:1012300032025091330260913402709135022AE0FB
:101240008AEF92E00E9432186BEC71E08AEF92E034
:101250000E947B1840916C0250916D0260916E0269
:1012600070916F028AEF92E00E94281E64ED71E097
:101270008AEF92E00E947B1840912E0250912F023B
:1012800060913002709131028AEF92E00E94281E34
:101290006DED71E08AEF92E00E94F517CA3010F40C
:1012A000CF5F1DC08092000190920101A0920201C7
:1012B000B092030110923202109233021092340263
:1012C0001092350260EE71E08AEF92E00E94F5170D
:1012D0006DED71E08AEF92E00E94F517C0E0809119
:1012E0007702909178020E94241D80ED93E00E9485
:1012F000FE1C92CE0E94660E2B013C010FB6F894A4
:101300000F92E090D002F090D1020F900FBEDD243A
:10131000D3948091750281110E94521C0E94F61A8A
:101320008091D0029091D10287010C5F1F4F8E15E2
:101330009F0520F40E151F0548F404C00E151F0567
:1013400008F4B6C28017910708F4B2C20E94561C76
:10135000811102C00E94431B0E94660E4B015C017A
:10136000DC01CB0184199509A609B7094091000158
:10137000509101016091020170910301841795075A
:10138000A607B70740F48093000190930101A09352
:101390000201B093030140913202509133026091F7
:1013A000340270913502481759076A077B0740F4E9
:1013B0008093320290933302A0933402B0933502AB
:1013C00080913E02882309F44BC010923E02809126
:1013D000680290916902A0916A02B0916B0218169E
:1013E00019061A061B064CF4809168029091690256
:1013F000A0916A02B0916B020FC080916802909137
:101400006902A0916A02B0916B02B095A095909587
:1014100081959F4FAF4FBF4F80936C0290936D02A9
:10142000A0936E02B0936F0260E088E00E949C0D72
:101430008091680290916902A0916A02B0916B025A
:10144000B7FF02C060E001C061E083E00E949C0D34
:1014500010922E0210922F0210923002109231023E
:1014600080916C0290916D02A0916E02B0916F021A
:10147000181619061A061B060CF005C240916C02DC
:1014800050916D0260916E0270916F0280913F02E7
:1014900090914002A0914102B09142024817590731
:1014A0006A077B0714F4C6E0D0E040916C025091CB
:1014B0006D0260916E0270916F0280913F02909177
:1014C0004002A0914102B0914202481759076A07B1
:1014D0007B07BCF040916C0250916D0260916E02EE
:1014E00070916F028091430290914402A091450255
:1014F000B0914602481759076A077B0714F4C5E004
:10150000D0E040916C0250916D0260916E0270913A
:101510006F028091430290914402A0914502B091E4
:101520004602481759076A077B07BCF040916C02D6
:1015300050916D0260916E0270916F02809147022E
:1015400090914802A0914902B0914A024817590768
:101550006A077B0714F4C4E0D0E040916C0250911C
:101560006D0260916E0270916F02809147029091BE
:101570004802A0914902B0914A02481759076A07E8
:101580007B07BCF040916C0250916D0260916E023D
:1015900070916F0280914B0290914C02A0914D028C
:1015A000B0914E02481759076A077B0714F4C3E04D
:1015B000D0E040916C0250916D0260916E0270918A
:1015C0006F0280914B0290914C02A0914D02B0911C
:1015D0004E02481759076A077B07BCF040916C021E
:1015E00050916D0260916E0270916F0280914F0276
:1015F00090915002A0915102B091520248175907A0
:101600006A077B0714F4C2E0D0E040916C0250916D
:101610006D0260916E0270916F0280914F02909105
:101620005002A0915102B0915202481759076A071F
:101630007B07BCF040916C0250916D0260916E028C
:1016400070916F028091530290915402A0915502C3
:10165000B0915602481759076A077B0714F4C1E096
:10166000D0E040916C0250916D0260916E027091D9
:101670006F028091530290915402A0915502B09153
:101680005602481759076A077B07BCF040916C0265
:1016900050916D0260916E0270916F0280915702BD
:1016A00090915802A0915902B0915A0248175907D7
:1016B0006A077B0714F4C2E0D0E040916C025091BD
:1016C0006D0260916E0270916F028091570290914D
:1016D0005802A0915902B0915A02481759076A0757
:1016E0007B07BCF040916C0250916D0260916E02DC
:1016F00070916F0280915B0290915C02A0915D02FB
:10170000B0915E02481759076A077B0714F4C3E0DB
:10171000D0E040916C0250916D0260916E02709128
:101720006F0280915B0290915C02A0915D02B0918A
:101730005E02481759076A077B07BCF040916C02AC
:1017400050916D0260916E0270916F0280915F0204
:1017500090916002A0916102B0916202481759070E
:101760006A077B0714F4C4E0D0E040916C0250910A
:101770006D0260916E0270916F0280915F02909194
:101780006002A0916102B0916202481759076A078E
:101790007B07BCF040916C0250916D0260916E022B
:1017A00070916F028091630290916402A091650232
:1017B000B0916602481759076A077B0714F4C5E021
:1017C000D0E040916C0250916D0260916E02709178
:1017D0006F028091630290916402A0916502B091C2
:1017E0006602481759076A077B0714F0C6E0D0E085
:1017F00060912E0270912F028091300290913102FF
:101800009E010D2E000C440B550B0E94842A672B61
:10181000682B692B29F561E086E00E949C0D61E050
:1018200086E00E949C0D60E086E00E949C0D6D2D7C
:101830008DE00E949C0D81E0D82680916C029091F1
:101840006D02A0916E02B0916F020197A109B109DA
:1018500080936C0290936D02A0936E02B0936F021E
:1018600080912E0290912F02A0913002B09131020E
:101870000196A11DB11D80932E0290932F02A0937B
:101880003002B093310280916C0290916D02A09170
:101890006E02B0916F02892B8A2B8B2B21F078017D
:1018A0002401350136CD61E088E00E949C0DF7CF20
:1018B0008091F8029091F90202960E94A41BC8013F
:1018C0000E941C1043CD83E10E943B0EBC01990F86
:1018D000880B990B0E94672920E030E040EA5BE327
:1018E0000E94C6292DEC3CEC4CEC5EE30E94F925ED
:1018F00027E73EEB4FE95CE30E94662660933602E1
:1019000070933702809338029093390280913A02A3
:1019100090913B02019690933B0280933A0284E1BE
:1019200090E00E94FE1CCFCFCFEFD3E082E10E9477
:101930003B0E60E082E10E949C0D61E083E10E9429
:101940009C0D61E084E10E949C0D60E085E10E94B5
:101950009C0D86E10E943B0E9C01A4EFB1E00E9429
:10196000FC2ADC01CB012AE0B595A79597958795D0
:101970002A95D1F7BC016253710970937302609389
:10198000720280913C0290913D02019690933D023B
:1019900080933C0260E082E10E949C0D60E083E164
:1019A0000E949C0D61E084E10E949C0D60E085E155
:1019B0000E949C0D86E10E943B0E9E01281B390B64
:1019C00030937102209370028AE090E00E94FE1C26
:1019D000ADCFCF93DF931F92CDB7DEB76983DC0124
:1019E000ED91FC910280F381E02D41E050E0BE01D9
:1019F0006F5F7F4F09950F90DF91CF91089583E03E
:101A00008093E9008091F200882319F08AE38093A3
:101A1000E8000895FC018485958597FD0BC09FB76C
:101A2000F89482E08093E9008091F2009FBF90E0FB
:101A3000019608959FB7F89482E08093E900809121
:101A4000F2009FBF90E00895CF93DF931F92CDB730
:101A5000DEB7FC018485958597FD05C02FEF3FEF2C
:101A6000358724870BC0CE0101960E94621401972E
:101A700019F4898190E002C08FEF9FEF0F90DF9102
:101A8000CF9108950F931F93CF93DF931F92CDB7FC
:101A9000DEB78C01FC018485958597FF0EC0CE01D1
:101AA00001960E946214019719F4298130E002C066
:101AB0002FEF3FEFF80135872487F801848595855E
:101AC0000F90DF91CF911F910F9108950E94DB2716
:101AD00080917902882349F10E94F61AC091900200
:101AE0000E94561CCC23A1F30FB6F8940F92E091FC
:101AF0009502F0919602C681D781CE0102960E948E
:101B0000A41B8091A30281508093A302809179024B
:101B10008150809379020F900FBE8F89988D0E941B
:101B2000CC1CCE010E94CC1CD3CF8091D30282303A
:101B300078F20E94431BCCCF362F90E0FC01EE568A
:101B4000FE4F4491FC01ED58FE4F2491FC01EC5AEC
:101B5000FE4F8491882309F451C04423E1F150E001
:101B6000FA013197EF30F105B0F5EA5AFF4F0C94C6
:101B7000E425909180009F7707C0909180009F7D21
:101B800003C090918000977F9093800024C094B50B
:101B90009F7702C094B59F7D94BD1DC09091900029
:101BA0009F7707C0909190009F7D03C09091900017
:101BB000977F909390000FC09091C0009F7703C0D3
:101BC0009091C0009F7D9093C00005C09091C2008D
:101BD000977F9093C200E82FF0E0EE0FFF1FEA5BC3
:101BE000FE4FA591B4918FB7F894EC91311103C0D9
:101BF00020952E2301C02E2B2C938FBF0895CF93B9
:101C0000DF9390E0FC01ED58FE4F2491FC01EC5A6B
:101C1000FE4F8491882361F190E0880F991FFC01A9
:101C2000E85CFE4FC591D491FC01EA5BFE4FA591A3
:101C3000B491611109C09FB7F894888120958223DF
:101C40008883EC912E230BC0623061F49FB7F89427
:101C50003881822F809583238883EC912E2B2C93BF
:101C60009FBF06C08FB7F894E8812E2B28838FBFC3
:101C7000DF91CF910895823108F08251E82FF0E092
:101C8000E45DFE4FE49180917B00E3FB222720F985
:101C900030E095E0220F331F9A95E1F78F7D282BD6
:101CA00020937B00E770E064E0937C0080917A00F1
:101CB000806480937A0080917A0086FDFCCF8091C9
:101CC00078002091790090E0922B08953FB7F89426
:101CD00080917F0290918002A0918102B091820256
:101CE00026B5A89B05C02F3F19F00196A11DB11D77
:101CF0003FBFBA2FA92F982F8827820F911DA11DB2
:101D0000B11DBC01CD0142E0660F771F881F991FEE
:101D10004A95D1F708958F929F92AF92BF92CF923A
:101D2000DF92EF92FF926B017C010E94660E4B01E5
:101D30005C01C114D104E104F104F1F00E94660ECB
:101D4000DC01CB0188199909AA09BB09883E934097
:101D5000A105B10570F321E0C21AD108E108F1082C
:101D600088EE880E83E0981EA11CB11CC114D1041A
:101D7000E104F10419F7DDCFFF90EF90DF90CF90F1
:101D8000BF90AF909F908F9008958F929F92AF9247
:101D9000BF92CF92DF92EF92FF920F931F93CF9358
:101DA000DF935C016B018A0180910F01882309F4A4
:101DB0005EC080918B02882309F459C0809189020A
:101DC00080FF05C08091E00082608093E000E80120
:101DD0008AEFF82E93E0E92E2FE3822E3AE3932E3A
:101DE000209709F43DC08FB7F894E092E9009091F4
:101DF000E80095FF06C09091F200282D291B922F34
:101E000001C090E08FBF91110AC0FA94FF2079F1D0
:101E100061E070E080E090E00E948B0EE1CF292F1E
:101E200030E0C217D3070CF49C2F8FB7F894E092E0
:101E3000E9002091E80025FF11C0292F30E0C21BE6
:101E4000D30BF601915020F041914093F100FACF6D
:101E5000C20ED31E9091E80095FF13C08FBFC0CF74
:101E60005D9884E680938A021016110644F081E0A2
:101E700090E0F5019383828380E090E005C0C80183
:101E800003C09092E800EACFDF91CF911F910F91AC
:101E9000FF90EF90DF90CF90BF90AF909F908F908A
:101EA00008951F920F920FB60F9211242F933F9314
:101EB0008F939F93AF93BF9380917B0290917C020D
:101EC000A0917D02B0917E0230917A0223E0230F2F
:101ED0002D3720F40196A11DB11D05C026E8230F62
:101EE0000296A11DB11D20937A0280937B029093EC
:101EF0007C02A0937D02B0937E0280917F0290913C
:101F00008002A0918102B09182020196A11DB11DB3
:101F100080937F0290938002A0938102B09382020B
:101F2000BF91AF919F918F913F912F910F900FBED5
:101F30000F901F90189510927602E091F802F091A0
:101F4000F9020788F08DE02D80819181A281B38113
:101F5000853A954AA54AB54AE9F484819581A681D6
:101F6000B781853A954AA54AB54AA1F480859185FD
:101F7000A285B385853A954AA54AB54A59F4848520
:101F80009585A685B785853A954AA54AB54A11F43F
:101F900099E011C08091F8029091F9028091F802C5
:101FA0009091F90283E090E00E94201C8091F7025A
:101FB00081508093F702E091F7029E9FF001112477
:101FC000ED52FD4F8081811106C08091F702811191
:101FD000EDCF0E94521C8091F70290E049E0489FAB
:101FE0009001499F300D1124F901ED52FD4FA1815F
:101FF000B28112960D90BC91A02DB283A1832A527A
:102000003D4FA217B30731F412962D913C911397CF
:102010003283218329E0289FF001299FF00D1124AC
:10202000ED52FD4F0180F281E02D868197819093E2
:10203000F9028093F8020895CF93DF93E091F802BC
:10204000F091F902938382832091D0023091D102E2
:102050008217930770F46091F8027091F9028091F1
:102060008C0290918D026E5F7F4FDF91CF910C9427
:10207000C71BEC016091F8027091F90280918E0209
:1020800090918F026E5F7F4F0E94C71B80918302E9
:1020900090918402C817D90720F4D0938402C0938A
:1020A0008302DF91CF910895FC01892B11F40E94E6
:1020B000521C61157105D9F30FB6F8940F92409137
:1020C000D0025091D1023091D2022081818192813F
:1020D000321719F048175907D8F4DB012D913C91BC
:1020E000DA01A81BB90BA217B30790F4841B950B58
:1020F000820F931FDB018D939C938091D20280838A
:102100008091D0029091D1029283818380E001C0BE
:1021100081E00F900FBE08950F931F93CF93DF932D
:10212000DC011596ED91FC911697C681D781209719
:1021300011F40E94521C8E01045F1F4FC8010E94BF
:10214000A41B80917502811114C00A501109C801A5
:102150000E94A41B9E898091F702891710F4909326
:10216000F702B9E09B9FC0011124B8018D529D4F29
:1021700003C0B80189E992E00E94FF1BE091F802D8
:10218000F091F9029E898689891720F481E0809375
:10219000760201C080E0DF91CF911F910F910895E9
:1021A000CF93DF93EB01009711F40E94521C209112
:1021B000F8023091F902B901645F7F4F0E94C71B9A
:1021C0008091F8029091F90202960E94A41B8091DE
:1021D000D0029091D1028C0F9D1FDF91CF910C9472
:1021E0001C10CF92DF92EF92FF920F931F93CF9329
:1021F000DF93809175028111B1C08091D0029091DE
:10220000D10201969093D1028093D002E090D00247
:10221000F090D102E114F104B9F5E0918E02F09151
:102220008F02808181110E94521C80918E029091B8
:102230008F0220918C0230918D0230938F02209377
:102240008E0290938D0280938C028091D2028F5FD8
:102250008093D202E0918E02F0918F0280818111F1
:1022600003C08FEF9FEF0CC0E0918E02F0918F02C0
:102270000580F681E02D0680F781E02D8281938133
:1022800090938402809383028091830290918402D0
:10229000C0E0E816F90608F44FC0D9E0E0918E02DC
:1022A000F0918F028081811103C08FEF9FEF11C0E9
:1022B000E0918E02F0918F020580F681E02D06817B
:1022C0001781D80112968D919C911397E816F90603
:1022D00028F490938402809383022EC06801B2E0B8
:1022E000CB0ED11CC6010E94A41BF80184899589DC
:1022F000892B21F0C8010C960E94A41BD801569688
:102300009C918091F702891710F49093F702D99F5E
:10231000C0011124B6018D529D4F0E94FF1BE09118
:10232000F802F091F902D80156969C918689981787
:1023300008F4B4CFC1E0B2CFE091F802F091F90215
:10234000E689B9E0EB9FF0011124ED52FD4F808149
:10235000823008F0C1E08091740206C0809174025E
:102360008F5F80937402C0E0809176028111C1E09A
:102370008C2FDF91CF911F910F91FF90EF90DF9005
:10238000CF9008958091B40281110DC082E08093B6
:10239000B00284E08093B1021092B3021092B202B4
:1023A00081E08093B40280EB92E008954091AE0208
:1023B0005091AF022091AC023091AD024217530709
:1023C000B4F49091E8009570E1F39091E80092FDEB
:1023D00019C08093F1008091AE029091AF020196F6
:1023E0008F739927892B19F48EEF8093E8008091E1
:1023F000AE029091AF0201969093AF028093AE022D
:1024000081E0089580E00895DF92EF92FF920F93AC
:102410001F93CF93DF93D82E8A017B01E40EF51E24
:10242000EB01CE15DF0571F0D7FE03C0FE018491EC
:1024300001C088810E94D61121968111F2CF8FEFC1
:102440009FEF01C0C801DF91CF911F910F91FF90C5
:10245000EF90DF9008950F931F93CF93DF931F9218
:10246000CDB7DEB782E0898342E450E06BEB71E0E8
:1024700080E80E9404120E94C211DC0112960D91A4
:102480001C9113970115110569F0D801ED91FC918C
:102490000280F381E02DBE016F5F7F4FC801099577
:1024A00097FF07C089810F90DF91CF911F910F9106
:1024B0000895F80100851185E5CF615030F0209135
:1024C000F100FC0120830196F8CF289884E68093E0
:1024D000BC020895CF92DF92EF92FF920F931F9369
:1024E000CF93DF936C017A018B01C0E0D0E0CE1571
:1024F000DF0589F0D8016D918D01D601ED91FC9138
:102500000190F081E02DC6010995892B11F47E011F
:1025100002C02196ECCFC701DF91CF911F910F919F
:10252000FF90EF90DF90CF900895242F462F682FD3
:102530008DE493E00E94E71FEDE4F3E021E0218FBA
:10254000908F878B918B808B938B828B08956F926A
:102550007F929F92AF92BF92CF92DF92EF92FF92C3
:102560000F931F93CF93DF935C01962EC72EEA0142
:10257000D22E892B11F40E94521C822F90E00497D6
:10258000D4F7CA010E94DD1C3C01892B09F48BC1E0
:1025900089E290E00E94DD1C7C010097D9F0DC010B
:1025A00058967C926E925797AE0165EA70E0C3012F
:1025B0000E94E9272197D7015796ED91FC915897F2
:1025C000EC0FFD1FB701675E7F4FA92DBC2DCD011C
:1025D000089607C0C3010E94CC1C65C1A817B907A3
:1025E00049F09D014D91EB014993BE01E90128811C
:1025F0002111F4CFD70190961C928D2DB3E0BD151B
:1026000008F483E0E7018E8B89A31AA21B861A8641
:102610001D8A1C8AF986E88624E030E0A901481B5F
:1026200051095D874C87FB8AEA8A1BA21CA21DA266
:102630001EA218A61FA291E19083DF01119782E2EA
:102640008C93119723E32C931197AC921197BC9222
:1026500011971C92119720E82C9311971C921197B7
:1026600022E02C93119723E02C93119724E02C93D4
:10267000119725E02C93119726E02C93119727E0D2
:102680002C93119728E02C93119729E02C93119704
:1026900020E12C9311979C93119792E19C931197B1
:1026A00093E19C93119794E19C93119795E19C93EE
:1026B000119796E19C93119797E19C93119798E15C
:1026C0009C93119799E19C93119790E29C93119799
:1026D00091E29C9311978C93119783E28C931197BD
:1026E0001C9211971C92119786E28C93119787E2A6
:1026F0008C93119788E28C93119789E28C931197B0
:1027000080E38C93119781E38C93B697F983E883E8
:102710000115110519F0F801F182E0820FB6F89465
:102720000F928091A3028F5F8093A3028091F802A1
:102730009091F902892B09F07DC0F092F902E092A4
:10274000F8028091A302813009F083C0E3EDF2E04A
:102750004FEF5FEF9F012D5F3F4F328321838FEF5C
:102760009FEF5483438336832583308727831082EA
:10277000399622E0E73FF20769F729EC32E030931F
:10278000C8022093C7029093CA028093C902309373
:10279000CC022093CB023093CE022093CD02109234
:1027A000C60220EC32E03093BF022093BE02909329
:1027B000C1028093C0023093C3022093C2023093BF
:1027C000C5022093C4021092BD022CE932E030937E
:1027D0009B0220939A0290939D0280939C023093D7
:1027E0009F0220939E023093A1022093A002109298
:1027F000990223E932E03093920220939102909360
:102800009402809393023093960220939502309322
:102810009802209397021092900286EC92E0909397
:102820008F0280938E028DEB92E090938D028093C5
:102830008C020FC08091A20281110BC0E091F802BE
:10284000F091F9028689D81620F0F092F902E09210
:10285000F8028091CF028F5F8093CF02D701569606
:102860008C919091F702981710F48093F702B701BA
:102870006E5F7F4FB9E08B9FC00111248D529D4F39
:102880000E94FF1B0F900FBE8091A202882349F087
:10289000E091F802F091F90286898D1510F40E94FA
:1028A000431B81E001C08FEFDF91CF911F910F910A
:1028B000FF90EF90DF90CF90BF90AF909F907F9070
:1028C0006F900895FC0180918B02811103C08FEFFE
:1028D0009FEF08959FB7F89482E08093E9002091DC
:1028E000F20030E01216130614F421E030E0211556
:1028F000310559F0289884E68093BC028091F1005C
:1029000080838091F200882319F09FBFC901089548
:102910008BE68093E800F9CF0F931F93CF93DF935B
:10292000EC0188819981009729F02A813B81261743
:10293000370788F48B016F5F7F4F0E941127009744
:1029400061F0998388831B830A832C813D81232B2B
:1029500011F4FC01108281E001C080E0DF91CF9191
:102960001F910F910895EF92FF920F931F93CF93B2
:10297000DF93EC017B018A01BA010E948C1428814B
:10298000398181110DC02115310519F0C9010E944D
:102990008C28198218821D821C821B821A8206C012
:1029A0001D830C83B701C9010E94F027CE01DF917E
:1029B000CF911F910F91FF90EF9008951F920F926A
:1029C0000FB60F9211248F939F938091E100909105
:1029D000E100937F9093E10083FF0FC01092E90024
:1029E00091E09093EB001092EC0092E39093ED0055
:1029F00010928B0298E09093F00082FF20C093E049
:102A00009093E9009091F200992319F09AE3909342
:102A1000E80090918A02992339F090918A029150AE
:102A200090938A02992389F19091BC02992339F0FD
:102A30009091BC0291509093BC02992341F184FF84
:102A400010C08091E2008E7E81608093E2008091D0
:102A5000E1008F7E8093E100809189028E7E80610B
:102A600011C080FF16C08091E2008E7E806180934D
:102A7000E2008091E1008E7E8093E10080918902E6
:102A80008E7E81608093890204C05D9ACDCF289AA2
:102A9000D6CF9F918F910F900FBE0F901F901895DA
:102AA0001F920F920FB60F921124CF92DF92EF92E6
:102AB000FF920F931F932F933F934F935F936F93C7
:102AC0007F938F939F93AF93BF93EF93FF93CF9396
:102AD000DF93CDB7DEB76C97DEBFCDBF1092E900B4
:102AE0008091E80083FFFAC168E0CE0145960E941C
:102AF0005D1282EF8093E8008D8987FF05C0909179
:102B0000E80090FFFCCF03C09EEF9093E800982F61
:102B1000907609F0C6C09E892F89188D91110CC03E
:102B2000803829F4809188028093F10002C01092CD
:102B3000F1001092F10047C1422F50E0512B91302B
:102B400051F4811140C14130510509F03CC18091DF
:102B500088028D7F0BC0933061F4811134C1413004
:102B6000510509F030C1809188028260809388020B
:102B70002AC1953041F48091E80080FFFCCF2068A5
:102B80002093E30020C1963009F05FC0EB8CFC8CF1
:102B90001092E9001092AF021092AE02123091F53D
:102BA0001092AD021092AC020E942B1299E0BE016D
:102BB0006F5F7F4FDB01E92F1D92EA95E9F799835B
:102BC0001A8391E09E8390EA98879AEF99872091E3
:102BD000AE023091AF02275F3F4F3C832B838D8342
:102BE0001092E9001092AF021092AE02F092AD0284
:102BF000E092AC0249E050E080E00E9404120E94A2
:102C00002B12E1C0F092AD02E092AC020E94C21120
:102C1000DC011296ED90FC901397E114F10409F495
:102C2000C0C0D701ED91FC910480F581E02DBE017B
:102C30006B5E7F4FC7010995009719F00CF0C3C078
:102C4000C6C0F701E084F184E8CF973009F4BFC033
:102C5000983021F481E08093F100B5C0993009F0FB
:102C6000B2C0837009F0B3C0EBE1F1E081E021E094
:102C700036E39081992361F08093E9002093EB0083
:102C800091919093EC003093ED008F5F873089F73E
:102C90008EE78093EA001092EA008F8980938B027E
:102CA00092C08B8D9C8D1092E9001092AF02109211
:102CB000AE029093AD028093AC02898D811156C013
:102CC0008E899D89913A59F4813209F080C047E09C
:102CD00050E068E071E080E00E94041274C091321C
:102CE00009F075C0833289F4888D90E0982F882789
:102CF0002F89822BA0E0B0E080930401909305011E
:102D0000A0930601B09307015EC0803269F4809100
:102D1000E80082FFFCCF67E088E091E00E945D124E
:102D20008BEF8093E80006C0823209F04CC08F8997
:102D300080930F0180918702882319F0EEEFFAE06B
:102D400002C0E0E0F8E08091080190910901A091B3
:102D50000A01B0910B01803B9440A105B10509F037
:102D600088C080910F0180FFA0C083C00E94C21163
:102D7000DC0112960D911C9113970115110539F183
:102D8000D801ED91FC910190F081E02DBE016B5EC8
:102D90007F4FC8010995811116C0F8010085118582
:102DA000ECCF1130C1F0133091F48F89882309F4EE
:102DB00055C08230E9F440E86FE08DE092E00E9477
:102DC0001F25882321F08EEF8093E80087C081E2E1
:102DD0008093EB0083C08B8D9C8D089711F410932A
:102DE000AB028091AB02811136C06DE172E038C058
:102DF000813029F440E86BE081E092E0E0CF83305D
:102E000031F70E94C211DC011296ED90FC901397ED
:102E10008E010F5F1F4F6801E114F10479F0D701B3
:102E2000ED91FC910680F781E02DB801C70109956D
:102E3000080F111DF701E084F184EECFD8011C9238
:102E4000F60101900020E9F73197BF016C197D0967
:102E500040E0C601B4CF6FE272E002C06DEF71E0F6
:102E60006115710509F4B3CFFB01449150E080E88E
:102E700033CF0FB6F894A895809160008861809355
:102E80006000109260000FBEA895EE3F2AE0F207A6
:102E900039F08091FE0A9091FF0A9183808393CF4D
:102EA0001092FF0A1092FE0A8ECFEE3F8AE0F807DA
:102EB00031F0808191819093FF0A8093FE0A87E729
:102EC00097E7918380839BE088E10FB6F894A895FB
:102ED000809360000FBE9093600075CF6C960FB624
:102EE000F894DEBF0FBECDBFDF91CF91FF91EF9180
:102EF000BF91AF919F918F917F916F915F914F9112
:102F00003F912F911F910F91FF90EF90DF90CF9005
:102F10000F900FBE0F901F9018951F920F920FB633
:102F20000F9211242F933F938F939F93AF93BF934F
:102F3000EF93FF938091A7029091A802A091A9021C
:102F4000B091AA02E091A402F091A502892B8A2BEC
:102F50008B2B31F18091A60290818927808380910B
:102F6000A7029091A802A091A902B091AA021816F6
:102F700019061A061B062CF58091A7029091A8024B
:102F8000A091A902B091AA020197A109B109809369
:102F9000A7029093A802A093A902B093AA0211C01D
:102FA000809171008D7F809371009091A602808145
:102FB000282F30E0892F90E08095909582239323ED
:102FC0008083FF91EF91BF91AF919F918F913F913E
:102FD0002F910F900FBE0F901F901895DC01ED916F
:102FE000FC910190F081E02D09946115710579F053
:102FF000FB0101900020E9F73197AF01461B570B09
:10300000DC01ED91FC910280F381E02D099480E0D8
:1030100090E008950F931F93CF93DF938C01C0E04E
:10302000D0E0F801EC0FFD1F6491662371F0E09190
:10303000FA02F091FB020190F081E02D8AEF92E01C
:103040000995892B11F02196ECCF6DED71E08AEF97
:1030500092E00E94F5178C0F9D1FDF91CF911F9179
:103060000F9108954F925F926F927F92EF92FF922D
:103070000F931F93CF93DF93CDB7DEB7A1970FB612
:10308000F894DEBF0FBECDBF7C01FA01CB0119A2BF
:10309000223008F42AE08E010F5D1F4F422E512C82
:1030A000612C712CBF01A30192010E94DA2AF9015F
:1030B000CA01015011096A3014F4605D01C0695CF5
:1030C000D8016C93232B242B252B61F7B801C70162
:1030D0000E94F517A1960FB6F894DEBF0FBECDBFC4
:1030E000DF91CF911F910F91FF90EF907F906F90A4
:1030F0005F904F9008950C94F517EF92FF920F9305
:103100001F93DC01ED91FC9111971A960D911C9182
:103110001B9718962D913C9119970684F785E02D01
:103120007B0140E050E060E070E009951F910F9155
:10313000FF90EF9008950F920FB6F8940F921F92A0
:1031400011242F923F924F925F926F927F928F92B3
:103150009F92AF92BF92CF92DF92EF92FF920F9326
:103160001F932F933F934F935F936F937F938F930F
:103170009F93AF93BF93CF93DF93EF93FF93A09170
:10318000F802B091F9020DB60D920EB60D920E94A2
:10319000F110882351F080917502882321F081E09D
:1031A0008093760202C00E949B0FA091F802B0911A
:1031B000F902CD91CDBFDD91DEBFFF91EF91DF919F
:1031C000CF91BF91AF919F918F917F916F915F91BF
:1031D0004F913F912F911F910F91FF90EF90DF90B2
:1031E000CF90BF90AF909F908F907F906F905F90A7
:1031F0004F903F902F901F900F900FBE0F9008950B
:10320000611102C060E201C061E20C940923AF9237
:10321000BF92CF92DF92EF92FF920F931F93CF93C3
:10322000DF93EC015901680128853985621773071E
:103230000CF075C08A859B85481759070CF06FC044
:10324000FB01EA0DFB1D2E173F071CF45901A61ABE
:10325000B70A9A012C0D3D1D821793071CF46C01CF
:10326000C41AD50A8D8D823091F49701207E377073
:10327000C701982F8827990F990F990F822B932BAD
:10328000EF2CFF24E694E694E694E82AF92A0FEF5F
:10329000040F0C0D2FEF260F2A0DCE010E9448239C
:1032A0008E8D882321F08F8D98A10E94C822EFA1D6
:1032B000F8A5908189A9892B8083EDA1FEA1908139
:1032C00088A98095892380831C141D049CF48501A2
:1032D000101611065CF46F2DCE010E949A226E2DFD
:1032E000CE010E949A2201501109F2CF81E0C81A42
:1032F000D108EACFEDA1FEA1908188A9892B808316
:103300008E8D882361F0DF91CF911F910F91FF90F7
:10331000EF90DF90CF90BF90AF900C94C722DF91D9
:10332000CF911F910F91FF90EF90DF90CF90BF90C2
:10333000AF900895CF92DF92EF92FF920F931F9379
:10334000CF93DF93EC01690178018885998568172F
:1033500079070CF061C02A853B85421753070CF0B2
:103360005BC09B012C0D3D1D821793071CF46C0163
:10337000C61AD70A2FEF260F2C0D042FCE010E945C
:1033800048238D8D823091F49701207E3770C701DC
:10339000982F8827990F990F990F822B932BEF2C39
:1033A000FF24E694E694E694E82AF92A8E8D882391
:1033B00021F08F8D98A10E94C822EFA1F8A59081DD
:1033C00089A9892B8083EDA1FEA1908188A9809590
:1033D00089238083C114D10461F06F2DCE010E9436
:1033E0009A226E2DCE010E949A2281E0C81AD1083D
:1033F000F1CFEDA1FEA1908188A9892B80838E8DCC
:10340000882351F0DF91CF911F910F91FF90EF90A2
:10341000DF90CF900C94C722DF91CF911F910F9135
:10342000FF90EF90DF90CF900895CF92DF92EF92D0
:10343000FF920F931F93CF93DF93EC016901780103
:1034400088859985681779070CF062C08A859B8505
:10345000481759070CF05CC09A012C0D3D1D8217CE
:1034600093071CF46C01C41AD50A0FEF040F0C0D5E
:10347000262FCE010E9448238D8D823091F4970132
:10348000207E3770C701982F8827990F990F990FC1
:10349000822B932BEF2CFF24E694E694E694E82A03
:1034A000F92A0F2D8E8D882321F08F8D98A10E94EF
:1034B000C822EFA1F8A5908189A9892B8083EDA16D
:1034C000FEA1908188A9809589238083C114D104AD
:1034D00061F0602FCE010E949A226E2DCE010E94D3
:1034E0009A2281E0C81AD108F1CFEDA1FEA1908106
:1034F00088A9892B80838E8D882351F0DF91CF910D
:103500001F910F91FF90EF90DF90CF900C94C72206
:10351000DF91CF911F910F91FF90EF90DF90CF90AF
:103520000895EF92FF920F93CF93DF93EC0179010F
:1035300077FD56C088859985681779070CF050C0CB
:1035400057FD4EC08A859B85481759070CF048C027
:1035500001E0040F21E0260FCE010E9448238E8D4A
:10356000882321F08F8D98A10E94C822EFA1F8A591
:10357000908189A9892B8083EDA1FEA1908188A9E2
:103580008095892380838D8D823091F49701207EF0
:103590003770C701982F8827990F990F990F822BA1
:1035A000932BEF2CFF24E694E694E694E82AF92A7C
:1035B0006F2DCE010E949A226E2DCE010E949A227A
:1035C000EDA1FEA1908188A9892B80838E8D88230F
:1035D00039F0DF91CF910F91FF90EF900C94C722BB
:1035E000DF91CF910F91FF90EF9008958091750238
:1035F0008F5F809375020895FF920F931F93CF936F
:10360000DF93EC010FB6F8940F928C010F5E1F4F01
:10361000FF24F3949E8D19166CF48989882351F048
:10362000C8010E948C108111F09276029E8D9150FB
:103630009E8FF0CF8FEF8E8F0F900FBE0FB6F89446
:103640000F928E01085F1F4FFF24F3949D8D191672
:103650006CF48885882351F0C8010E948C10811178
:10366000F09276029D8D91509D8FF0CF8FEF8D8FD0
:103670000F900FBEDF91CF911F910F91FF90089592
:103680000E949B1818950F920FB6F8940F921F92F4
:1036900011242F923F924F925F926F927F928F925E
:1036A0009F92AF92BF92CF92DF92EF92FF920F93D1
:1036B0001F932F933F934F935F936F937F938F93BA
:1036C0009F93AF93BF93CF93DF93EF93FF93A0911B
:1036D000F802B091F9020DB60D920EB60D928091DE
:1036E0007502882321F081E08093760202C00E9457
:1036F0009B0FA091F802B091F902CD91CDBFDD9161
:10370000DEBFFF91EF91DF91CF91BF91AF919F917C
:103710008F917F916F915F914F913F912F911F9169
:103720000F91FF90EF90DF90CF90BF90AF909F9060
:103730008F907F906F905F904F903F902F901F9051
:103740000F900FBE0F900895CF93DF93FC01A085DB
:10375000B1858281938124813581EC013D832C8365
:10376000C481D5819B838A8311968D919C911297F8
:103770008E179F0721F41296DC93CE931197118632
:1037800010868C9181508C93DF91CF9108950F9387
:103790001F93CF93DF938C01FB01808191818F3F39
:1037A0002FEF920721F4E801AF81B8850EC0D80150
:1037B000139612962D913C911397E90148815981F6
:1037C0008417950710F0D901F4CF12968D919C9132
:1037D000139793838283EC01FD83EC83B583A483E9
:1037E0001396FC93EE93129711870087F80180815E
:1037F0008F5F8083DF91CF911F910F910895CF93B9
:10380000DF939C01FB01DC011196CD91DC911297B5
:10381000D383C2838C819D81958384838C819D8198
:10382000DC0113967C936E9312977D836C833187B2
:103830002087F90180818F5F8083DF91CF91089588
:103840008C01F89461E08DE00E94FF0DC0E0D0E0B3
:10385000C017D107E4F461E08DE00E949C0D80E880
:1038600099EAA3E0B0E000000197A109B109D9F7F6
:1038700060E08DE00E949C0D80E899EAA3E0B0E052
:1038800000000197A109B109D9F72196E1CF40E0E5
:103890005AE668E170E00000415051096109710980
:1038A000D1F7D4CF81E090E00E94201CEF92FF92EC
:1038B0000F931F93CF93DF9380917502811102C004
:1038C0000E94521C0FB6F8940F928091750281509D
:1038D0008093750280917502882311F080E053C0B7
:1038E0008091A3028823D1F389E0F82EEE24E3949B
:1038F00080919902882351F1E0919E02F0919F02FC
:10390000C681D781CE010C960E94A41B8E010E5F4A
:103910001F4FC8010E94A41B9E898091F70289173E
:1039200010F49093F702F99EC0011124B8018D5252
:103930009D4F0E94FF1BE091F802F091F9029E89D1
:1039400086899817A8F2E0927602D2CF809174020D
:10395000811109C080917602813009F0BFCF0E94A9
:10396000431B81E010C0C1E080917402882391F371
:103970000E94F1108111C0937602809174028150EF
:1039800080937402F1CF0F900FBEDF91CF911F9102
:103990000F91FF90EF900895CF93DF93009751F030
:1039A000EC010E94F61ACE010E948C28DF91CF9183
:1039B0000C94561CDF91CF9108950F931F93CF93D2
:1039C000DF9300D0CDB7DEB789839A830E94F61AC1
:1039D00089819A810E94F7278C010E94561C01154B
:1039E000110521F482E090E00E94201CC8010F9094
:1039F0000F90DF91CF911F910F910895CF93DF9397
:103A0000EC01892B19F40E94431B1BC080917502A5
:103A100081110E94521C0E94F61A2091D00230910E
:103A2000D102C20FD31F8091F8029091F902029641
:103A30000E94A41BCE010E941C100E94561C8823C9
:103A400011F3DF91CF910895CF92DF92EF92FF9221
:103A50000F931F93CF93DF9300D000D01F92CDB769
:103A6000DEB78C011D821C82009711F40E94521C4B
:103A7000FC01848D8111FACF90E07801F8E0EF0E1F
:103A8000F11C0FB6F8940F92F801228D838D281740
:103A900008F07BC0448D411148C080819181892B01
:103AA00009F05CC0F801E280F380E114F10411F444
:103AB00080E037C08091F8029091F902E816F9068B
:103AC000A9F6F70182A1882389F2815082A3268971
:103AD00091A1291769F38111EBCF6701F2E0CF0EB5
:103AE000D11CC6010E94A41BF70191A1968B492FFE
:103AF00050E024E030E0241B350B3587248780918B
:103B0000F702891710F49093F70229E0249FC0016F
:103B1000259F900D1124B6018D529D4F0E94FF1BD1
:103B200081E0F801138212821AC050E060E070E078
:103B3000F801848195810E94E027F801248D848119
:103B40009581820F911D9583848322813381821711
:103B5000930720F0808191819583848380E0F80130
:103B6000928D9F5F928F9189992349F0C801419668
:103B70000E948C10813029F40E94431B02C08111E5
:103B8000FBCF0F900FBE81E055C02C813D81232BD0
:103B900019F40F900FBE4DC0911109C08091D2024F
:103BA00089838091D0029091D1029B838A830F9068
:103BB0000FBE0E94F61A0FB6F8940F92F801858D89
:103BC0008F3F09F4158EF801868D8F3F09F4168E0C
:103BD0000F900FBEBE016C5F7F4FCE0101960E9419
:103BE0005410811121C00FB6F8940F92F801928DF4
:103BF0000F900FBE838D981311C06C817D81C7011A
:103C00000E94D010C8010E94FC1A0E94561C8823F2
:103C100011F091E036CF0E94431BFBCFC8010E94F8
:103C2000FC1A0E94561CF5CFC8010E94FC1A0E9483
:103C3000561C80E00F900F900F900F900F90DF9127
:103C4000CF911F910F91FF90EF90DF90CF9008954B
:103C5000CF92DF92EF92FF920F931F93CF93DF9358
:103C600077FF1DC06A017B01EC016DE20E94EE1737
:103C70008C0144275527BA014C195D096E097F094B
:103C80002AE0CE010E943218800F911FDF91CF9160
:103C90001F910F91FF90EF90DF90CF9008952AE051
:103CA000DF91CF911F910F91FF90EF90DF90CF9018
:103CB0000C943218AB01770F660B770B0C94281E0F
:103CC0006F927F929F92AF92BF92CF92DF92EF92CC
:103CD000FF920F931F93CF93DF9300D000D01F92DA
:103CE000CDB7DEB78C017D836C83009711F40E9401
:103CF000521CFC01848D8111FACF80E06801F1E152
:103D0000CF0ED11C99E0992E24E0A22EB12C0FB633
:103D1000F8940F92F801928D992309F446C0448DCE
:103D20004423B9F050E086819781840F951F9783D3
:103D30008683228133818217930720F080819181CD
:103D400097838683F8016681778180E090E00E9406
:103D5000E027F801828D8150828F80819181892BAB
:103D6000A1F48091F8029091F902892B39F0E09149
:103D7000F802F091F90282A18F5F82A38091F8028C
:103D80009091F902F80193838283F801808588235A
:103D900041F0C80108960E948C10813011F40E94F5
:103DA000431B0F900FBE81E0ADC02C813D81232BC2
:103DB00019F40F900FBEA5C0811109C08091D202E5
:103DC00089838091D0029091D1029B838A830F9046
:103DD0000FBE0E94F61A0FB6F8940F92F801858D67
:103DE0008F3F09F4158EF801868D8F3F09F4168EEA
:103DF0000F900FBEBE016C5F7F4FCE0101960E94F7
:103E00005410811179C00FB6F8940F92F801828D89
:103E10000F900FBE81116AC080819181892B09F0BA
:103E200054C00FB6F8940F92E280F380E114F104CD
:103E300009F449C0F7018689E091F802F091F9028E
:103E40009689891708F03FC0F7012485358537FD2D
:103E50000BC0E091F802F091F90296899501291BB7
:103E60003109F70135872487989EC00111248D52AE
:103E70009D4FF7012285338528173907E9F437016B
:103E8000F2E06F0E711CC3010E94A41BE091F802C6
:103E9000F091F9022689F701268B8091F7028217AB
:103EA00010F42093F702929EC0011124B3018D52A9
:103EB0009D4F0E94FF1B07C0E091F802F091F902AC
:103EC0008689F701868B0F900FBE6C817D81C601BC
:103ED0000E94D010C8010E94FC1A0E94561C882320
:103EE00011F081E014CF0E94431BFBCFC8010E9458
:103EF000FC1A0E94561CF5CFC8010E94FC1A0E94B1
:103F0000561C80E00F900F900F900F900F90DF9154
:103F1000CF911F910F91FF90EF90DF90CF90BF90C6
:103F2000AF909F907F906F900895EF92FF920F93C4
:103F30001F9320916603222309F444C0DA01AC01E7
:103F4000009164031091650361157105B1F4E0916E
:103F50004D03F0914E038A179B073CF49D01281BEB
:103F6000390B0084F185E02D16C09C012A1B3B0B08
:103F70000084F185E02DAD010EC08A179B07C9F4BE
:103F8000E0914D03F0914E03161617063CF402849F
:103F9000F385E02D9B0160E070E007C02227332706
:103FA000261B370B0284F385E02D8DE493E0099501
:103FB00009C078018D019B0160E070E08DE493E021
:103FC0000E94F0211F910F91FF90EF9008954C7F78
:103FD00038E0439FC001112430E043E03595279538
:103FE0004A95E1F7822B932B687F962B08950895CD
:103FF0002F923F924F925F926F927F928F929F92F9
:10400000AF92BF92CF92DF92EF92FF920F931F93E6
:10401000CF93DF93CDB7DEB72D970FB6F894DEBF01
:104020000FBECDBFFC016A3069F42489868597856F
:1040300038E0239F800D911D112497878687158670
:104040001486E4C06D3009F4E1C09D878C875489E3
:104050005983828993899D838C83A089B189BF8389
:10406000AE8386849784C484D58480859185C81660
:10407000D906BCF0EC85FD854489242F30E0848589
:104080009585F6E04F9F800D911D1124AC85BD856F
:104090001D969C938E931C9756964C91411192C0FD
:1040A000B5C0EC85FD85828593858816990614F741
:1040B000F981AF2EB12CC60126E0F29F800D911D33
:1040C000112418161906B4F6C50123E0880F991FAC
:1040D0002A95E1F7880D991D181619065CF655E02A
:1040E000659FB001112416011A82CB018C199D091C
:1040F00099878887D4011896BB87AA87BA81B5307B
:1041000049F0E885F985E20DF31DEF5BFD4F249141
:104110002B8301C01B82240134013B8130FF13C07B
:10412000AC85BD85ED91FC91B981B13031F404804D
:10413000F581E02D2E813F8119C00684F785E02DA1
:10414000EE80FF801EC0EC81FD812E813F81E21751
:10415000F307F1F0AC85BD85ED91FC91B981B130EB
:1041600059F40480F581E02D2C813D81A301B1013A
:104170008C859D8509950CC00684F785E02DEC8023
:10418000FD8085019501A201B6018C859D8509956B
:10419000EB81E695EB83FFEF6F1A7F0A4A0C5B1CFD
:1041A0002A853B856216730609F0B7CF3A813F5FD7
:1041B0003A835FEF251A350ACA0CDB1C363009F04A
:1041C0009DCF58CF4AEF4203B001439F700D112499
:1041D000AC85BD8518964D915C911997460F571F78
:1041E000481759079CF483E0220F331F8A95E1F7A3
:1041F0001E968D919C911F97280F391F1F963C93F7
:104200002E931E971D961C921E921C9781E090E0A3
:104210002D960FB6F894DEBF0FBECDBFDF91CF91C4
:104220001F910F91FF90EF90DF90CF90BF90AF90D4
:104230009F908F907F906F905F904F903F902F90C6
:104240000895EF92FF920F931F93DC01ED91FC9183
:1042500011971A960D911C911B9718962D913C91D0
:1042600019970684F785E02D7B0140E050E060E07F
:1042700070E009951F910F91FF90EF9008956F9254
:104280007F928F929F92AF92BF92CF92DF92EF92E6
:10429000FF920F931F93CF93DF936C015A01480154
:1042A000EB013B01620E731EC615D70574F4D601EF
:1042B000ED91FC910084F185E02D87019401A50129
:1042C000BE01C60109952196EFCFDF91CF911F91D5
:1042D0000F91FF90EF90DF90CF90BF90AF909F90A5
:1042E0008F907F906F900895EF92FF920F931F939E
:1042F000DC01ED91FC91260F371F2150310906801A
:10430000F781E02D78018A0109951F910F91FF90A7
:10431000EF900895EF92FF920F931F937801DC01C5
:10432000ED91FC91240F351F890101501109068080
:10433000F781E02D9B0109951F910F91FF90EF9060
:1043400008956F927F928F929F92AF92BF92CF9279
:10435000DF92EF92FF920F931F93CF93DF93EC01C5
:104360004B015A0169013801E881F9810284F38522
:10437000E02D87010995E881F981A501460D571DBA
:10438000415051090284F385E02D9601B401CE011C
:104390000995E881F9810084F185E02D9301A5015B
:1043A000B401CE010995E881F981C80CD91CB60188
:1043B000615071090084F185E02D9301A501CE01C2
:1043C0000995DF91CF911F910F91FF90EF90DF90B2
:1043D000CF90BF90AF909F908F907F906F900895F7
:1043E0002F923F924F925F926F927F928F929F9205
:1043F000AF92BF92CF92DF92EF92FF920F931F93F3
:10440000CF93DF9300D01F92CDB7DEB74C017B83F3
:104410006A836A01590117019801241B350B37FF84
:1044200003C0319521953109C5014A815B81841B07
:10443000950B97FF03C091958195910951E05983A0
:104440008217930714F019820BC09A2D8B2D5801F7
:10445000092F182F9A818B81DB82CA82C92ED82E10
:104460008A819B81A816B9065CF49C2D8D2D68016C
:10447000092F182F9A818B81BB82AA82A92EB82E70
:104480002501AA81BB814A1A5B0A38016C187D0894
:1044900077FE03C0719461947108720157FE03C0E6
:1044A000BFEFEB1AFB0AF594E794C016D1061CF097
:1044B0000FEF1FEF1FC001E010E01CC0D401ED9111
:1044C000FC91B9810480F581E02D9101BB23C1F0FD
:1044D0004A815B81B601C4010995E618F708F7FE29
:1044E00004C0C00ED11EE40CF51CEA81FB8131969C
:1044F000FB83EA834A815B81A416B506FCF604C0FF
:10450000A6016A817B81E7CF0F900F900F90DF911A
:10451000CF911F910F91FF90EF90DF90CF90BF90C0
:10452000AF909F908F907F906F905F904F903F9053
:104530002F900895FC01868D882339F06EBD000010
:104540000DB407FEFDCF8EB5089528E030E090E869
:10455000A1A1B2A186A5492F462319F04C91842B25
:1045600003C04C91809584238C93A3A1B4A14C915A
:1045700087A5842B8C93A3A1B4A14C9187A580958A
:1045800084238C9396952150310911F7089508954D
:104590008CBD9DBD08950F931F93CF93DF931F9202
:1045A000CDB7DEB78C01DC015E968C915E978823D7
:1045B00041F05F968D919C91909769830E94C822EB
:1045C0006981D8019796ED91FC9198979081D19649
:1045D0008C91D197892B80839596ED91FC9196973C
:1045E0009081D0968C91809589238083C8010E9408
:1045F0009A22D8019596ED91FC9196979081D0964C
:104600008C91892B80830F90DF91CF911F910F9117
:1046100008950F931F93CF93DF931F92CDB7DEB70B
:104620008C01DC015E968C915E97882341F05F9649
:104630008D919C91909769830E94C8226981D801CD
:104640009796ED91FC9198979081D1968C91D19706
:104650008095892380839596ED91FC919697908122
:10466000D0968C91809589238083C8010E949A22DC
:10467000D8019596ED91FC9196979081D0968C916A
:10468000892B80830F90DF91CF911F910F91089517
:10469000EF92FF920F931F93CF93DF9300D0CDB78C
:1046A000DEB77C01162F6AE229834A830E94092320
:1046B00060E0C7010E94CB22F70182A9612F680F39
:1046C000C7010E94CB2260E0C7010E94CB22F70104
:1046D00082A92981622F680FC7010E94CB226BE259
:1046E000C7010E94092360E0C7010E94CB22F701A5
:1046F00083A94A81642F680FC7010E94CB2260E022
:10470000C7010E94CB22F70183A9602F680FC70160
:104710000E94CB226CE2C7010F900F90DF91CF91E6
:104720001F910F91FF90EF900C940923789484B51A
:10473000826084BD84B5816084BD85B5826085BD9D
:1047400085B5816085BD80916E00816080936E002B
:10475000109281008091810082608093810080911D
:1047600081008160809381008091800081608093CE
:1047700080008091910082608093910080919100EF
:10478000816080939100809190008160809390007F
:104790008091C10084608093C1008091C1008260DB
:1047A0008093C1008091C10081608093C10080919D
:1047B000C30081608093C3008091C00082608093B9
:1047C000C0008091C20081608093C20080917A0015
:1047D000846080937A0080917A00826080937A006E
:1047E00080917A00816080937A0080917A0080685D
:1047F00080937A0010928B021092880210928902A4
:104800008091D70081608093D70080EA8093D800A0
:1048100089B5806189BD89B5826089BD09B400FE12
:10482000FDCF61E070E080E090E00E948B0E80910F
:10483000D8008F7C80618093D8008091E000807FD9
:104840008093E0008091E1008E7E8093E1008DE016
:104850008093E200559A209AEEEFFFE785919491BC
:104860008B3F9C4D19F481E0809387020FEF1FEF7F
:10487000109307030093060361E08DE00E94FF0D93
:1048800061E088E00E94FF0D61E088E00E949C0DDD
:1048900061E083E00E94FF0D61E086E00E94FF0D71
:1048A0008091770290917802892BB9F58FE190E0A1
:1048B0000E94DD1CEC01892B39F11B821A821982BE
:1048C00018821D821C821F821E821A8E81E08B8FAD
:1048D0001C8E8FEF8D8F8E8FCE010B969A878987D6
:1048E0001C870B879E878D87988B8F8718860996E4
:1048F0009B8B8A8B1D8B0C8B9F8B8E8B998F888FBC
:10490000198ACE010E94241DD0937802C0937702A9
:10491000209719F0CE010E94241D00E010E022E053
:1049200044E650E066EE71E084E99CE00E94A71244
:1049300022E044E650E069EE71E083E69CE00E94EC
:10494000A71223E048EC50E06CEE71E08AE799E0B2
:104950000E94A71221E04CE251E063EF71E083E096
:1049600098E00E94A71221E04CE251E069EF71E06B
:104970008AEC93E00E94A71221E048EC50E06FEF30
:1049800071E08CE696E00E94A71285EB91E00E9410
:104990000A1805E812E020E044E650E065E072E025
:1049A00088E69DE00E94A712813009F03FC0F8948C
:1049B0002FEF3FEF30938402209383028093A20273
:1049C0001092D1021092D00287BD80916E00826059
:1049D00080936E00A091F802B091F902CD91CDBF05
:1049E000DD91DEBFFF91EF91DF91CF91BF91AF914C
:1049F0009F918F917F916F915F914F913F912F91F7
:104A00001F910F91FF90EF90DF90CF90BF90AF90EC
:104A10009F908F907F906F905F904F903F902F90DE
:104A20001F900F900FBE0F90089504C0811102C017
:104A30000E94521C81EB91E00E940A18FFCFCF9296
:104A4000DF92EF92FF920F931F93CF93DF931F920A
:104A5000CDB7DEB7182F062FE42E862F880F8E5F76
:104A600099830E94D61183E00E94D611F12EC12EA7
:104A70009981D92E8C2D8F19801798F4F601E7FEB5
:104A800002C0849101C080810E94D611182F80E05D
:104A90000E94D6118123FFEFCF1ADF0A8111EACFDE
:104AA00001C081E00F90DF91CF911F910F91FF9096
:104AB000EF90DF90CF900895CF93DF93EAEFF2E08D
:104AC0001382128288EE93E0A0E0B0E084839583A5
:104AD000A683B78385E291E091838083CFEFDFEFF8
:104AE000D587C48761E082E10E94FF0D61E083E128
:104AF0000E94FF0D61E084E10E94FF0D61E085E10D
:104B00000E94FF0D61E085E00E94FF0D61E08AE0F8
:104B10000E94FF0D61E089E00E94FF0DEDE4F3E0EB
:104B20001382128220E830E03583248340EA50E08B
:104B300057834683158A158614861786168681E064
:104B4000848BD38BC28BD18BC08B868B90E5978F58
:104B500010A297E091A712A683A7868F15A614A688
:104B600085E391E091838083518740873387228753
:104B7000E7E8F3E011821082138212821582148218
:104B800048E050E06AE072E0CF010E94B314E1E82F
:104B9000F3E011821082138212821582148243E0A4
:104BA00050E063E172E0CF01DF91CF910C94B31438
:104BB00080918103909182030E948C2880918703C9
:104BC000909188030C948C28EE0FFF1F0590F491B0
:104BD000E02D09940E94FC2A332312F48A1B9B0BBC
:104BE0000C94F4250E94FC2AB7FF0895821B930BB6
:104BF00008955058BB27AA270E9411260C944A2AD0
:104C00000E943C2A38F00E94432A20F039F49F3F4A
:104C100019F426F40C94392A0EF4E095E7FB0C9471
:104C2000332AE92F0E945B2A58F3BA1762077307E9
:104C30008407950720F079F4A6F50C947D2A0EF4EC
:104C4000E0950B2EBA2FA02D0B01B90190010C019C
:104C5000CA01A0011124FF27591B99F0593F50F4B4
:104C6000503E68F11A16F040A22F232F342F44270C
:104C7000585FF3CF469537952795A795F040539504
:104C8000C9F77EF41F16BA0B620B730B840BBAF0D4
:104C90009150A1F0FF0FBB1F661F771F881FC2F73F
:104CA0000EC0BA0F621F731F841F48F48795779553
:104CB0006795B795F7959E3F08F0B0CF9395880F0D
:104CC00008F09927EE0F9795879508950E947A2608
:104CD0000C944A2A0E94432A58F00E943C2A40F031
:104CE00029F45F3F29F00C94332A51110C947E2A49
:104CF0000C94392A0E945B2A68F39923B1F3552357
:104D000091F3951B550BBB27AA27621773078407DE
:104D100038F09F5F5F4F220F331F441FAA1FA9F374
:104D200035D00E2E3AF0E0E832D091505040E69562
:104D3000001CCAF72BD0FE2F29D0660F771F881FC3
:104D4000BB1F261737074807AB07B0E809F0BB0BB6
:104D5000802DBF01FF2793585F4F3AF09E3F5105CA
:104D600078F00C94332A0C947E2A5F3FE4F3983E4B
:104D7000D4F3869577956795B795F7959F5FC9F7B3
:104D8000880F911D9695879597F90895E1E0660F34
:104D9000771F881FBB1F621773078407BA0720F0AD
:104DA000621B730B840BBA0BEE1F88F7E095089516
:104DB0000E94632A88F09F5798F0B92F9927B7511E
:104DC000B0F0E1F0660F771F881F991F1AF0BA95AF
:104DD000C9F714C0B13091F00E947D2AB1E0089566
:104DE0000C947D2A672F782F8827B85F39F0B93F58
:104DF000CCF3869577956795B395D9F73EF4909562
:104E00008095709561957F4F8F4F9F4F08950E94B9
:104E1000A22908F48FEF08950E94A229880B990B0C
:104E20000895A0E0B0E0E7E1F7E20C94A72AEC01D6
:104E3000009721F4CB010E94F727B8C0FC01E60FD0
:104E4000F71F9C0122503109E217F30708F4ACC0A8
:104E5000D9010D911C91119706171707B0F0053075
:104E6000110508F49FC0C80104978617970708F436
:104E700099C002501109061B170B019311936D93F2
:104E80007C93CF010E948C288DC05B01A01AB10ACF
:104E90004C01800E911EA0918F03B091900340E0D1
:104EA00050E0E12CF12C109709F44AC0A815B9057F
:104EB000D1F56D907C901197630182E0C80ED11CF2
:104EC000CA14DB0480F1A3014A195B096A0182E07C
:104ED000C80ED11C1296BC9012971396AC91B5E0F7
:104EE000CB16D10440F0B282A38351834083D90111
:104EF0006D937C930AC00E5F1F4FC301800F911FFB
:104F0000F90191838083EB2DFA2FE114F10431F044
:104F1000D7011396FC93EE93129744C0F09390033D
:104F2000E0938F033FC08D919C91119748175907CB
:104F300008F4AC017D0112960D90BC91A02DB3CF69
:104F400080918D0390918E0388159905E1F44617A1
:104F50005707C8F48091100190911101009741F416
:104F60008DB79EB74091140150911501841B950B8C
:104F7000E817F907C8F4F0938E03E0938D03F90165
:104F8000718360830FC0CB010E94F7277C010097DB
:104F900059F0A801BE010E94E027CE010E948C2892
:104FA000C70104C0CE0102C080E090E0CDB7DEB7FB
:104FB000EEE00C94C32A81E090E0F8940C940B2B63
:104FC000FB01DC0102C001900D9241505040D8F726
:104FD0000895DC0101C06D9341505040E0F7089501
:104FE000FB01DC0101900D920020E1F70895CF93C1
:104FF000DF938230910510F482E090E0E0918F031E
:10500000F091900320E030E0C0E0D0E0309711F163
:105010004081518148175907C0F04817590761F47A
:1050200082819381209719F09B838A832BC0909370
:10503000900380938F0326C02115310519F0421784
:10504000530718F49A01BE01DF01EF010280F381DA
:10505000E02DDCCF2115310509F1281B390B243057
:10506000310590F412968D919C91139761157105FD
:1050700021F0FB019383828304C09093900380937B
:105080008F03FD01329644C0FD01E20FF31F8193AF
:105090009193225031092D933C933AC020918D0376
:1050A00030918E03232B41F4209112013091130192
:1050B00030938E0320938D032091100130911101C4
:1050C0002115310541F42DB73EB74091140150919F
:1050D0001501241B350BE0918D03F0918E03E2172F
:1050E000F307A0F42E1B3F0B2817390778F0AC010B
:1050F0004E5F5F4F2417350748F04E0F5F1F5093E8
:105100008E0340938D038193919302C0E0E0F0E021
:10511000CF01DF91CF9108950F931F93CF93DF932A
:10512000009709F48CC0FC0132971382128200911F
:105130008F03109190030115110581F420813181B5
:10514000820F931F20918D0330918E03281739070A
:1051500079F5F0938E03E0938D0371C0D80140E0A0
:1051600050E0AE17BF0750F412962D913C91139763
:10517000AD012115310509F1D901F3CF9D01DA0106
:105180003383228360817181860F971F8217930773
:1051900069F4EC0128813981260F371F2E5F3F4FBC
:1051A000318320838A819B8193838283452B29F4D9
:1051B000F0939003E0938F0342C01396FC93EE9319
:1051C0001297ED01499159919E01240F351FE21765
:1051D000F30771F480819181840F951F02961196D7
:1051E0009C938E938281938113969C938E931297B6
:1051F000E0E0F0E0D80112968D919C911397009712
:1052000019F0F8018C01F6CF8D919C9198012E5FD9
:105210003F4F820F931F20918D0330918E032817EB
:10522000390769F4309729F41092900310928F0394
:1052300002C01382128210938E0300938D03DF91BC
:10524000CF911F910F9108951F93FC0199278827F3
:10525000BC01E89411911032E9F3193010F01E30BE
:10526000C8F31B3251F01D3249F4689406C00E9405
:105270004B29610F711D811D911D119110531A3021
:10528000B0F33EF490958095709561957F4F8F4F68
:105290009F4F1F910895592F482F372F262F660FA4
:1052A000771F881F991F660F771F881F991F620F2E
:1052B000731F841F951F660F771F881F991F0895FE
:1052C0000E94A22908F481E00895E89409C097FBA0
:1052D0003EF490958095709561957F4F8F4F9F4FCD
:1052E0009923A9F0F92F96E9BB279395F695879511
:1052F00077956795B795F111F8CFFAF4BB0F11F4D4
:1053000060FF1BC06F5F7F4F8F4F9F4F16C088237A
:1053100011F096E911C0772321F09EE8872F762FB0
:1053200005C0662371F096E8862F70E060E02AF0F1
:105330009A95660F771F881FDAF7880F96958795DD
:1053400097F90895990F0008550FAA0BE0E8FEEFB2
:1053500016161706E807F907C0F012161306E40739
:10536000F50798F0621B730B840B950B39F40A2632
:1053700061F0232B242B252B21F408950A2609F410
:10538000A140A6958FEF811D811D08950E94D92906
:105390000C944A2A0E943C2A38F00E94432A20F0AA
:1053A000952311F00C94332A0C94392A11240C946F
:1053B0007E2A0E945B2A70F3959FC1F3950F50E0FF
:1053C000551F629FF001729FBB27F00DB11D639FB7
:1053D000AA27F00DB11DAA1F649F6627B00DA11D5D
:1053E000661F829F2227B00DA11D621F739FB00D03
:1053F000A11D621F839FA00D611D221F749F332773
:10540000A00D611D231F849F600D211D822F762F0B
:105410006A2F11249F5750409AF0F1F088234AF0E8
:10542000EE0FFF1FBB1F661F771F881F9150504054
:10543000A9F79E3F510580F00C94332A0C947E2AE4
:105440005F3FE4F3983ED4F3869577956795B795DB
:10545000F795E7959F5FC1F7FE2B880F911D9695F5
:10546000879597F9089597F99F6780E870E060E065
:1054700008959FEF80EC089500240A9416161706ED
:1054800018060906089500240A9412161306140635
:1054900005060895092E0394000C11F4882352F098
:1054A000BB0F40F4BF2B11F460FF04C06F5F7F4F50
:1054B0008F4F9F4F089557FD9058440F551F59F037
:1054C0005F3F71F04795880F97FB991F61F09F3FF1
:1054D00079F087950895121613061406551FF2CF1A
:1054E0004695F1DF08C0161617061806991FF1CF6A
:1054F00086957105610508940895E894BB27662791
:105500007727CB0197F90895052E97FB1EF4009499
:105510000E949B2A57FD07D00E94DA2A07FC03D07D
:105520004EF40C949B2A50954095309521953F4F11
:105530004F4F5F4F089590958095709561957F4F7F
:105540008F4F9F4F08952F923F924F925F926F928D
:105550007F928F929F92AF92BF92CF92DF92EF9203
:10556000FF920F931F93CF93DF93CDB7DEB7CA1B84
:10557000DB0B0FB6F894DEBF0FBECDBF09942A88AF
:10558000398848885F846E847D848C849B84AA8457
:10559000B984C884DF80EE80FD800C811B81AA81E4
:1055A000B981CE0FD11D0FB6F894DEBF0FBECDBFAF
:1055B000ED010895A1E21A2EAA1BBB1BFD010DC02F
:1055C000AA1FBB1FEE1FFF1FA217B307E407F507B3
:1055D00020F0A21BB30BE40BF50B661F771F881F8F
:1055E000991F1A9469F760957095809590959B0125
:1055F000AC01BD01CF010895A29FB001B39FC001CE
:10560000A39F700D811D1124911DB29F700D811DEE
:105610001124911D089513E0CFE9D3E004C0FE01E9
:105620000E94E4252196C03AD107C9F7F894FFCF2C
:10563000FFFFFFFFFFFFFFFF00E100000000000091
:105640000000910380000100000000C18081000083
:105650000000000000E90CC50E0A0D240D420DFFEC
:105660000C00000000F81F6A12911AF021151A9A16
:1056700019A12107197D180019E71F54656D702EB7
:1056800020696E2067726164692043203A0A200015
:105690006461746F206C6574746F203D20004E202F
:1056A00056616C756520666F7220413020726561AD
:1056B000642061743A2000092074656D70203D20DB
:1056C00000094E2056616C756520666F722041316D
:1056D00020726561642061743A20006E616E006919
:1056E0006E66006F7666002E0009746D696E203D4F
:1056F000200009746D6178203D20000953746570A5
:10570000203D2000097469636B203D20000D0A00D4
:10571000636C65617200543100543200544D6F74F3
:105720006F7200545365725400544469737000548E
:10573000536572520049444C45002020202020200F
:0857400020200054203F00006E
:00000001FF
