:100000000C943F000C9467000C9467000C946700FC
:100010000C9467000C9467000C945F250C946700A7
:100020000C9467000C9467000C9467000C946700B4
:100030000C9467000C9467000C9467000C946700A4
:100040000C9468220C9467000C9424200C94FE1FDE
:100050000C9467000C9467000C9467000C94670084
:100060000C9467000C946700002A002A002AC32918
:10007000232A312A002A002AC329232A4B2D11249E
:100080001FBECFEFD8E0DEBFCDBF11E0A0E0B1E0F2
:10009000EAEEF6E602C005900D92A038B107D9F756
:1000A00022E0A0E8B1E001C01D92AA3AB207E1F750
:1000B00010E0CFE3D0E004C02197FE010E94EF2FB3
:1000C000CE33D107C9F70E947A2C0C9473330C9469
:1000D0000000E091B201F091B30182E08083E091F1
:1000E000AE01F091AF0186E08083E091B001F09124
:1000F000B10192E890831092BA01E091B601F091BB
:10010000B7018083E091B401F091B50180818061F5
:100110008083E091B401F091B50180818860808393
:10012000E091B401F091B501808180688083E09115
:10013000B401F091B50180818F7D808383E080934D
:10014000000180919D0190919E01892B09F096C438
:1001500080919F018F5F80939F018FE190E00E94CB
:100160003132EC010FB6F8940F9280919F018150CB
:1001700080939F0180919F018111D3C180919C0246
:10018000882309F4CEC120915D0230915E0269E0BE
:1001900071E080915802882309F490C0D901169625
:1001A000ED91FC911797E488F588468557858089FD
:1001B0009189DA0115969C938E9314978089918981
:1001C000DC0113965C934E931297AF01445F5F4F2F
:1001D000D70111960D911C9112970417150721F460
:1001E00012969C938E931197158A148AD7018C913D
:1001F00081508C93AF014E5F5F4FE284F3840481A2
:10020000158186819781D80115969C938E931497BA
:1002100086819781DC0113961C930E931297D70168
:1002200011960D911C9112970417150721F412963F
:100230009C938E93119713861286D7018C918150CF
:100240008C93A689809197028A1710F4A093970245
:100250006A9FD00111248D010D581D4F7801D801DE
:1002600011968D919C91129795838483DC0114964D
:100270000D911C9115971783068314960D911C916F
:100280001597D80113965C934E931297DC0115963F
:100290005C934E931497F386E286D7018C918F5F1F
:1002A0008C93A0919A02B0919B02968956968C915C
:1002B000981708F46ECF709385016BCF80918401FD
:1002C000811108C080918501813009F02AC10E9406
:1002D000DE2627C199E0BB24B3944FEF5FEF8091F6
:1002E0008401882379F380919F01811107C12091B6
:1002F0003F02309140022F5F3F4F309340022093E6
:100300003F0220913F02309140022115310589F5CD
:100310006091440270914502E0914202F0914302E3
:10032000F0934502E09344027093430260934202CB
:10033000809141028F5F80934102E0914402F091ED
:1003400045028081811105C0509387014093860149
:1003500010C0E0914402F09145020580F681E02D45
:100360000680F781E02D628173817093870160932D
:100370008601609186017091870180E0261737071A
:1003800008F4ADC0E0914402F09145026081611132
:1003900005C05093870140938601A1C0E0914402BB
:1003A000F09145020580F681E02D0680F781E02D71
:1003B000628173812617370728F470938701609351
:1003C00086018DC0BF016E5F7F4FC284D384E480FD
:1003D000F58006811781D70115961C930E9314970B
:1003E00006811781D8011396FC92EE921297D601DE
:1003F0001196ED90FC901297E616F70621F41296EE
:100400001C930E93119713861286D6011C911150DE
:100410001C93848895888114910429F10685178599
:10042000E088F188D8011596FC92EE921497E08846
:10043000F188D70113961C930E931297D40111964D
:10044000CD90DC9012978F01045F1F4FC016D1062C
:1004500021F41296FC92EE921197158A148AD40117
:100460001C9111501C93A689B0919702BA1710F4F1
:10047000A09397029A9FD00111248D010D581D4F12
:100480006801D80111960D911C9112971583048370
:10049000D8011496ED90FC901597F782E682149699
:1004A000ED90FC901597D70113967C936E9312975D
:1004B000D80115967C936E931497D386C286D60185
:1004C0006C916F5F6C93A0919A02B0919B027689B8
:1004D00056966C91761708F455CF81E053CFE09192
:1004E0009A02F0919B02E6899E9FF0011124ED583B
:1004F000FD4F2081223040F081E006C080918401D0
:100500008F5F8093840180E020918501211101C0DB
:100510008111B09285018091840181508093840182
:10052000DECE0F900FBE209769F4259A2D9ABFEF6B
:10053000C0E7D2E0B150C040D040E1F700C00000B9
:100540001D9AF5CF1B821A82198218821D821C8285
:100550001F821E821A8E81E08B8F1C8E8FEF8D8FF3
:100560008E8FCE010B969A8789872FEF3FEF3C87BE
:100570002B879E878D87988B8F87188609969B8BF4
:100580008A8B3D8B2C8B9F8B8E8B998F888F198AB2
:100590000FB6F8940F929A8D8B8D981708F03DC185
:1005A00088819981892B09F075C0EA81FB81309798
:1005B00011F480E06CC082A1815082A3268991A1B0
:1005C0002917B9F38111F5CF9F012E5F3F4F628547
:1005D00073854481558186819781DA0115969C93B4
:1005E0008E93149786819781DC0113965C934E93CA
:1005F0001297DB0111964D915C91129742175307A8
:1006000021F412969C938E93119713861286DB0128
:100610008C9181508C9381A1868B682F70E044E08F
:1006200050E0461B570B55874487909197029817C7
:1006300010F48093970289E0869FD001879FB00DC8
:100640001124BD016D587D4FDB0111968D919C9158
:10065000129795838483DC0114964D915C911597D4
:100660005783468314964D915C911597DA01139642
:100670003C932E931297DC0115963C932E9314977E
:1006800073876287FB0180818F5F808381E01B829B
:100690001A8201C080E09A8D9F5F9A8F9989992371
:1006A00009F4B8C0EE89FF890680F781E02DCF01FB
:1006B0000C96648975894685578520893189DA01C8
:1006C00015963C932E93149720893189D90113965E
:1006D0005C934E931297DB0111964D915C911297AA
:1006E0004817590721F412963C932E931197158AB7
:1006F000148ADB012C9121502C9320919F01211110
:1007000058C09F012E5F3F4F62857385448155819C
:1007100086819781DA0115969C938E931497868132
:100720009781DC0113965C934E931297DB0111962F
:100730004D915C9112974217530721F412969C93A6
:100740008E93119713861286DB018C9181508C93C6
:10075000A689809197028A1710F4A093970209E066
:10076000A09FD0011124BD016D587D4FDB01119672
:100770008D919C91129795838483DC0114964D9101
:100780005C9115975783468314964D915C9115970C
:10079000DA0113963C932E931297DC0115963C9345
:1007A0002E93149773876287DB018C918F5F8C93F4
:1007B00024C04091590250915A0257874687DA0166
:1007C00014962D913C911597318B208B14962D9179
:1007D0003C911597D90113969C938E931297DA0149
:1007E00015969C938E93149788E592E0958B848B55
:1007F000809158028F5F80935802A0919A02B09125
:100800009B02968956968C91891738F481E08093E3
:10081000850101C081110E94DE260F900FBED0938A
:100820009E01C0939D010FB6F8940F929A8D8B8D07
:10083000981708F021C188819981892B09F075C02A
:10084000EA81FB81309711F480E06CC082A1815075
:1008500082A3268991A12917B9F38111F5CF9F01B0
:100860002E5F3F4F628573854481558186819781D4
:10087000DA0115969C938E93149786819781DC01FB
:1008800013965C934E931297DB0111964D915C91F8
:1008900012974217530721F412969C938E93119747
:1008A00013861286DB018C9181508C9381A1868BFB
:1008B000682F70E044E050E0461B570B5587448793
:1008C00090919702981710F48093970289E0869F81
:1008D000D001879FB00D1124BD016D587D4FDB0104
:1008E00011968D919C91129795838483DC011496C7
:1008F0004D915C9115975783468314964D915C9169
:100900001597DA0113963C932E931297DC011596F6
:100910003C932E93149773876287FB0180818F5FCE
:10092000808381E01B821A8201C080E09A8D9F5FE4
:100930009A8F9989992309F49CC0EE89FF890680D2
:10094000F781E02DCF010C96A489B58926853785DE
:1009500040895189E9015D834C83C089D1893B83FA
:100960002A8311962D913C9112972817390721F46B
:100970001296DC93CE931197158A148A2C912150EC
:100980002C9320919F01211148C0CF010296A2858E
:10099000B3852481358146815781E9015D834C838C
:1009A000C681D7813B832A8311962D913C91129762
:1009B0002817390721F41296DC93CE9311971386EA
:1009C00012862C9121502C93A689209197022A17E8
:1009D00010F4A0939702D9E0AD9FD0011124AD018E
:1009E0004D585D4FDA011196CD91DC911297D58368
:1009F000C4832C813D81378326832C813D81D9019D
:100A000013969C938E9312979D838C835387428772
:100A1000EA0188818F5F88831FC0A0915902B0913D
:100A20005A02B787A68714962D913C911597318B62
:100A3000208B1496CD91DC9115979B838A83159614
:100A40009C938E93149788E592E0958B848B80918C
:100A500058028F5F80935802A0919A02B0919B0236
:100A6000968956968C91891738F481E08093850198
:100A700001C081110E94DE260F900FBE80919F0160
:100A80008F5F80939F0180E890E00E943132EC01FB
:100A90000FB6F8940F9280919F01815080939F012F
:100AA00080919F018111D3C180919C02882309F418
:100AB000CEC120915D0230915E0269E071E08091CB
:100AC0005802882309F490C0D9011696ED91FC9143
:100AD0001797E488F5884685578580899189DA01DA
:100AE00015969C938E93149780899189DC011396B7
:100AF0005C934E931297AF01445F5F4FD7011196FD
:100B00000D911C9112970417150721F412969C93CE
:100B10008E931197158A148AD7018C9181508C93EA
:100B2000AF014E5F5F4FE284F384048115818681BB
:100B30009781D80115969C938E93149786819781FF
:100B4000DC0113961C930E931297D70111960D9109
:100B50001C9112970417150721F412969C938E93FB
:100B6000119713861286D7018C9181508C93A68998
:100B7000809197028A1710F4A09397026A9FD00180
:100B800011248D010D581D4F7801D80111968D91BA
:100B90009C91129795838483DC0114960D911C918E
:100BA00015971783068314960D911C911597D801FC
:100BB00013965C934E931297DC0115965C934E93BB
:100BC0001497F386E286D7018C918F5F8C93A09166
:100BD0009A02B0919B02968956968C91981708F4C8
:100BE0006ECF709385016BCF80918401811108C015
:100BF00080918501813009F02AC10E94DE2627C13B
:100C000099E0BB24B3944FEF5FEF80918401882378
:100C100079F380919F01811107C120913F023091AA
:100C200040022F5F3F4F3093400220933F022091BC
:100C30003F02309140022115310589F5609144024F
:100C400070914502E0914202F0914302F093450217
:100C5000E093440270934302609342028091410208
:100C60008F5F80934102E0914402F09145028081C0
:100C7000811105C0509387014093860110C0E09117
:100C80004402F09145020580F681E02D0680F7814F
:100C9000E02D62817381709387016093860160917A
:100CA00086017091870180E02617370708F4ADC0F0
:100CB000E0914402F09145026081611105C05093BA
:100CC000870140938601A1C0E0914402F091450262
:100CD0000580F681E02D0680F781E02D6281738129
:100CE0002617370728F470938701609386018DC01B
:100CF000BF016E5F7F4FC284D384E480F58006819C
:100D00001781D70115961C930E93149706811781AE
:100D1000D8011396FC92EE921297D6011196ED909F
:100D2000FC901297E616F70621F412961C930E9388
:100D3000119713861286D6011C9111501C9384883A
:100D400095888114910429F106851785E088F1883A
:100D5000D8011596FC92EE921497E088F188D7019D
:100D600013961C930E931297D4011196CD90DC909C
:100D700012978F01045F1F4FC016D10621F41296FF
:100D8000FC92EE921197158A148AD4011C9111508D
:100D90001C93A689B0919702BA1710F4A0939702FA
:100DA0009A9FD00111248D010D581D4F6801D80163
:100DB00011960D911C91129715830483D8011496F6
:100DC000ED90FC901597F782E6821496ED90FC90DA
:100DD0001597D70113967C936E931297D8011596A9
:100DE0007C936E931497D386C286D6016C916F5F05
:100DF0006C93A0919A02B0919B02768956966C9161
:100E0000761708F455CF81E053CFE0919A02F09124
:100E10009B02E6899E9FF0011124ED58FD4F208131
:100E2000223040F081E006C0809184018F5F809382
:100E3000840180E020918501211101C08111B092CF
:100E4000850180918401815080938401DECE0F90D2
:100E50000FBE209769F4259A2D9ABFEFC0E7D2E024
:100E6000B150C040D040E1F700C000001D9AF5CF5E
:100E700080919F018F5F80939F0189E290E00E94A3
:100E800031328C010FB6F8940F9280919F018150FE
:100E900080939F0180919F018111D4C180919C0218
:100EA000882309F4CFC120915D0230915E0269E090
:100EB00071E080915802882309F490C0D9011696F8
:100EC000ED91FC911797C488D58846855785808910
:100ED0009189DA0115969C938E9314978089918954
:100EE000DC0113965C934E931297AF01445F5F4F02
:100EF000D6011196ED90FC901297E416F50621F4B8
:100F000012969C938E931197158A148AD6018C9110
:100F100081508C93AF014E5F5F4FC284D384E480D5
:100F2000F58086819781D70115969C938E931497AF
:100F300086819781DC011396FC92EE921297D6017E
:100F40001196ED90FC901297E416F50621F4129696
:100F50009C938E93119713861286D6018C918150A3
:100F60008C93A689809197028A1710F4A093970218
:100F70006A9FD0011124CD018D589D4F6C01DC0179
:100F800011968D919C91129795838483DC01149620
:100F9000ED90FC901597F782E6821496ED90FC9008
:100FA0001597D70113965C934E931297DC01159613
:100FB0005C934E931497D386C286D6018C918F5F33
:100FC0008C93A0919A02B0919B02968956968C912F
:100FD000981708F46ECF709385016BCF80918401D0
:100FE000811108C080918501813009F02BC10E94D8
:100FF000DE2628C139E0A32E992493946FEF7FEF6A
:1010000080918401882371F380919F01811107C130
:1010100080913F029091400201969093400280930C
:101020003F0280913F0290914002009789F5209104
:101030004402309145024091420250914302509344
:101040004502409344023093430220934202209190
:1010500041022F5F20934102E0914402F09145024A
:101060002081211105C0709387016093860110C013
:10107000E0914402F09145020580F681E02D068062
:10108000F781E02D228133813093870120938601FF
:101090002091860130918701B12C8217930708F4C3
:1010A000AEC0E0914402F09145022081211105C0BB
:1010B0007093870160938601A2C0E0914402F09191
:1010C00045020580F681E02D0680F781E02D228122
:1010D00033818217930728F4309387012093860188
:1010E0008EC09F012E5F3F4FC284D384E480F58081
:1010F00046815781D70115965C934E93149746818C
:101100005781DA011396FC92EE921297D60111964E
:10111000ED90FC901297E216F30621F412965C9380
:101120004E93119713861286D6014C9141504C93E1
:10113000648875886114710429F146855785E088B3
:10114000F188DA011596FC92EE921497E088F18806
:10115000D70113965C934E931297D3011196CD90BD
:10116000DC901297AF01445F5F4FC416D50621F49F
:101170001296FC92EE921197158A148AD3014C9123
:1011800041504C93A689409197024A1710F4A093BE
:101190009702AA9ED0011124AD014D585D4F6A01FE
:1011A000DA0111964D915C91129755834483DA01CF
:1011B0001496ED90FC901597F782E6821496ED90C8
:1011C000FC901597D70113963C932E931297DA0152
:1011D00015963C932E931497D386C286D6012C91F4
:1011E0002F5F2C93A0919A02B0919B02368956965C
:1011F0002C91321708F455CFBB24B39452CFE09111
:101200009A02F0919B02E689AE9EF0011124ED58FE
:10121000FD4F8081823048F0BB24B39406C080919A
:1012200084018F5F80938401B12C809185018111AD
:1012300001C0B1109092850180918401815080930A
:101240008401DECE0F900FBE0115110569F4259AB9
:101250002D9ABFEFC0E7D2E0B150C040D040E1F7D7
:1012600000C000001D9AF5CFF801D08FC78B40E871
:1012700050E065EA70E0CE010E946C33D8015996C7
:10128000E7E2F1E098E09E0F81918D93882311F0C1
:101290009E13FACFD80190961C92909782E05696B2
:1012A0008C93569791968C93919792961C929297C5
:1012B0001B961C921E921A9755961C921E9254973A
:1012C00019961C930E93189722E030E01D963C93DC
:1012D0002E931C9753961C930E935297F80113A2CA
:1012E00014A215A216A210A617A2FE01E158FF4FE4
:1012F00021E12083319792E29083319733E3308369
:101300004DED5EE1319740833197508331971082E4
:10131000319730E83083319710823197808331974D
:1013200083E08083319784E08083319785E08083F8
:10133000319786E08083319787E08083319788E01A
:101340008083319789E08083319780E18083319772
:101350002083319782E18083319783E180833197C5
:1013600084E18083319785E18083319786E18083B2
:10137000319787E18083319788E18083319789E1D4
:101380008083319780E28083319781E28083319737
:101390009083319783E28083319710823197108256
:1013A000319786E28083319787E28083319788E2A4
:1013B0008083319789E28083319780E380833197FE
:1013C00081E38083C75ADF4FCD93DC930FB6F89447
:1013D0000F9280919C028F5F80939C0280919A0271
:1013E00090919B02892B09F091C010939B0200936E
:1013F0009A0280919C02813009F097C0E3E7F2E005
:101400004FEF5FEF9F012D5F3F4F328321838FEFBF
:101410009FEF54834383368325833087278310824D
:101420003996B2E0E739FB0769F72DE632E03093F1
:101430006C0220936B0290936E0280936D02309346
:10144000700220936F023093720220937102109207
:101450006A0224E632E030936302209362029093A2
:101460006502809364023093670220936602309392
:10147000690220936802109261022BE532E03093FA
:101480005A022093590290935C0280935B0230933E
:101490005E0220935D023093600220935F021092FF
:1014A000580222E532E0309351022093500290938B
:1014B000530280935202309355022093540230938A
:1014C00057022093560210924F0229E432E03093E3
:1014D00048022093470290934A0280934902309336
:1014E0004C0220934B0230934E0220934D021092F7
:1014F00046028AE692E0909345028093440281E698
:1015000092E090934302809342020FC0809199022F
:1015100081110BC0E0919A02F0919B028689833081
:1015200020F410939B0200939A02809198028F5F9F
:1015300080939802E801EE89809197028E1710F44B
:10154000E0939702C8010296D9E0ED9FF0011124C3
:10155000ED58FD4FA181B281E801BD83AC831496A3
:101560002D913C9115973F832E831496CD91DC915C
:1015700015979B838A8315969C938E931497D80115
:101580001B96FC93EE931A9780818F5F80830F9058
:101590000FBE80919902882349F0E0919A02F09160
:1015A0009B028689823010F40E94DE2680919F0182
:1015B0008F5F80939F0180E890E00E943132EC01C0
:1015C0000FB6F8940F9280919F01815080939F01F4
:1015D00080919F018111D3C180919C02882309F4DD
:1015E000CEC120915D0230915E0269E071E0809190
:1015F0005802882309F490C0D9011696ED91FC9108
:101600001797E488F5884685578580899189DA019E
:1016100015969C938E93149780899189DC0113967B
:101620005C934E931297AF01445F5F4FD7011196C1
:101630000D911C9112970417150721F412969C9393
:101640008E931197158A148AD7018C9181508C93AF
:10165000AF014E5F5F4FE284F38404811581868180
:101660009781D80115969C938E93149786819781C4
:10167000DC0113961C930E931297D70111960D91CE
:101680001C9112970417150721F412969C938E93C0
:10169000119713861286D7018C9181508C93A6895D
:1016A000809197028A1710F4A09397026A9FD00145
:1016B00011248D010D581D4F7801D80111968D917F
:1016C0009C91129795838483DC0114960D911C9153
:1016D00015971783068314960D911C911597D801C1
:1016E00013965C934E931297DC0115965C934E9380
:1016F0001497F386E286D7018C918F5F8C93A0912B
:101700009A02B0919B02968956968C91981708F48C
:101710006ECF709385016BCF80918401811108C0D9
:1017200080918501813009F02AC10E94DE2627C1FF
:1017300099E0BB24B3944FEF5FEF8091840188233D
:1017400079F380919F01811107C120913F0230916F
:1017500040022F5F3F4F3093400220933F02209181
:101760003F02309140022115310589F56091440214
:1017700070914502E0914202F0914302F0934502DC
:10178000E0934402709343026093420280914102CD
:101790008F5F80934102E0914402F0914502808185
:1017A000811105C0509387014093860110C0E091DC
:1017B0004402F09145020580F681E02D0680F78114
:1017C000E02D62817381709387016093860160913F
:1017D00086017091870180E02617370708F4ADC0B5
:1017E000E0914402F09145026081611105C050937F
:1017F000870140938601A1C0E0914402F091450227
:101800000580F681E02D0680F781E02D62817381ED
:101810002617370728F470938701609386018DC0DF
:10182000BF016E5F7F4FC284D384E480F580068160
:101830001781D70115961C930E9314970681178173
:10184000D8011396FC92EE921297D6011196ED9064
:10185000FC901297E616F70621F412961C930E934D
:10186000119713861286D6011C9111501C938488FF
:1018700095888114910429F106851785E088F188FF
:10188000D8011596FC92EE921497E088F188D70162
:1018900013961C930E931297D4011196CD90DC9061
:1018A00012978F01045F1F4FC016D10621F41296C4
:1018B000FC92EE921197158A148AD4011C91115052
:1018C0001C93A689B0919702BA1710F4A0939702BF
:1018D0009A9FD00111248D010D581D4F6801D80128
:1018E00011960D911C91129715830483D8011496BB
:1018F000ED90FC901597F782E6821496ED90FC909F
:101900001597D70113967C936E931297D80115966D
:101910007C936E931497D386C286D6016C916F5FC9
:101920006C93A0919A02B0919B02768956966C9125
:10193000761708F455CF81E053CFE0919A02F091E9
:101940009B02E6899E9FF0011124ED58FD4F2081F6
:10195000223040F081E006C0809184018F5F809347
:10196000840180E020918501211101C08111B09294
:10197000850180918401815080938401DECE0F9097
:101980000FBE209769F4259A2D9ABFEFC0E7D2E0E9
:10199000B150C040D040E1F700C000001D9AF5CF23
:1019A00080919F018F5F80939F0189E290E00E9468
:1019B00031328C010FB6F8940F9280919F018150C3
:1019C00080939F0180919F018111D4C180919C02DD
:1019D000882309F4CFC120915D0230915E0269E055
:1019E00071E080915802882309F490C0D9011696BD
:1019F000ED91FC911797C488D588468557858089D5
:101A00009189DA0115969C938E9314978089918918
:101A1000DC0113965C934E931297AF01445F5F4FC6
:101A2000D6011196ED90FC901297E416F50621F47C
:101A300012969C938E931197158A148AD6018C91D5
:101A400081508C93AF014E5F5F4FC284D384E4809A
:101A5000F58086819781D70115969C938E93149774
:101A600086819781DC011396FC92EE921297D60143
:101A70001196ED90FC901297E416F50621F412965B
:101A80009C938E93119713861286D6018C91815068
:101A90008C93A689809197028A1710F4A0939702DD
:101AA0006A9FD0011124CD018D589D4F6C01DC013E
:101AB00011968D919C91129795838483DC011496E5
:101AC000ED90FC901597F782E6821496ED90FC90CD
:101AD0001597D70113965C934E931297DC011596D8
:101AE0005C934E931497D386C286D6018C918F5FF8
:101AF0008C93A0919A02B0919B02968956968C91F4
:101B0000981708F46ECF709385016BCF8091840194
:101B1000811108C080918501813009F02BC10E949C
:101B2000DE2628C129E0A22E992493946FEF7FEF3F
:101B300080918401882371F380919F01811107C1F5
:101B400080913F02909140020196909340028093D1
:101B50003F0280913F0290914002009789F52091C9
:101B60004402309145024091420250914302509309
:101B70004502409344023093430220934202209155
:101B800041022F5F20934102E0914402F09145020F
:101B90002081211105C0709387016093860110C0D8
:101BA000E0914402F09145020580F681E02D068027
:101BB000F781E02D228133813093870120938601C4
:101BC0002091860130918701B12C8217930708F488
:101BD000AEC0E0914402F09145022081211105C080
:101BE0007093870160938601A2C0E0914402F09156
:101BF00045020580F681E02D0680F781E02D2281E7
:101C000033818217930728F430938701209386014C
:101C10008EC09F012E5F3F4FC284D384E480F58045
:101C200046815781D70115965C934E931497468150
:101C30005781DA011396FC92EE921297D601119613
:101C4000ED90FC901297E216F30621F412965C9345
:101C50004E93119713861286D6014C9141504C93A6
:101C6000648875886114710429F146855785E08878
:101C7000F188DA011596FC92EE921497E088F188CB
:101C8000D70113965C934E931297D3011196CD9082
:101C9000DC901297AF01445F5F4FC416D50621F464
:101CA0001296FC92EE921197158A148AD3014C91E8
:101CB00041504C93A689409197024A1710F4A09383
:101CC0009702AA9ED0011124AD014D585D4F6A01C3
:101CD000DA0111964D915C91129755834483DA0194
:101CE0001496ED90FC901597F782E6821496ED908D
:101CF000FC901597D70113963C932E931297DA0117
:101D000015963C932E931497D386C286D6012C91B8
:101D10002F5F2C93A0919A02B0919B023689569620
:101D20002C91321708F455CFBB24B39452CFE091D5
:101D30009A02F0919B02E689AE9EF0011124ED58C3
:101D4000FD4F8081823048F0BB24B39406C080915F
:101D500084018F5F80938401B12C80918501811172
:101D600001C0B110909285018091840181508093CF
:101D70008401DECE0F900FBE0115110569F4259A7E
:101D80002D9ABFEFC0E7D2E0B150C040D040E1F79C
:101D900000C000001D9AF5CFF801D08FC78B40E836
:101DA00050E065EA70E0CE010E946C33D80159968C
:101DB000E4E2F1E098E09E0F81918D93882311F089
:101DC0009E13FACFD80190961C92909781E0569678
:101DD0008C93569791968C93919792961C9292978A
:101DE0001B961C921E921A9755961C921E925497FF
:101DF00019961C930E93189783E090E01D969C9380
:101E00008E931C9753961C930E935297F80113A22E
:101E100014A215A216A210A617A2FE01E158FF4FA8
:101E200091E19083319782E28083319723E320838D
:101E30002DE53EE131972083319730833197108231
:101E4000319720E8208331971082319722E0208358
:101E5000319723E02083319724E02083319725E0D8
:101E60002083319726E02083319727E02083319724
:101E700028E02083319729E02083319720E12083D7
:101E800031979083319792E19083319793E19083DA
:101E9000319794E19083319795E19083319796E162
:101EA0009083319797E19083319798E190833197B0
:101EB00099E19083319790E29083319791E29083FA
:101EC00031978083319783E28083319710823197F5
:101ED0001082319786E28083319787E28083319741
:101EE00088E28083319789E28083319780E3808321
:101EF000319781E38083C75ADF4FCD93DC930FB6D0
:101F0000F8940F9280919C028F5F80939C02809145
:101F10009A0290919B02892B09F091C010939B0229
:101F200000939A0280919C02813009F097C0E3E708
:101F3000F2E04FEF5FEF9F012D5F3F4F3283218330
:101F40008FEF9FEF54834383368325833087278326
:101F500010823996B2E0E739FB0769F72DE632E0E7
:101F600030936C0220936B0290936E0280936D020B
:101F70003093700220936F023093720220937102AB
:101F800010926A0224E632E03093630220936202E8
:101F900090936502809364023093670220936602F7
:101FA0003093690220936802109261022BE532E0BF
:101FB00030935A022093590290935C0280935B0203
:101FC00030935E0220935D023093600220935F02A3
:101FD0001092580222E532E03093510220935002D1
:101FE00090935302809352023093550220935402EF
:101FF000309357022093560210924F0229E432E0A8
:10200000309348022093470290934A0280934902FA
:1020100030934C0220934B0230934E0220934D029A
:10202000109246028AE692E0909345028093440221
:1020300081E692E090934302809342020FC0809128
:10204000990281110BC0E0919A02F0919B0286895E
:10205000823020F410939B0200939A0280919802A0
:102060008F5F80939802E801EE89809197028E1726
:1020700010F4E0939702C8010296D9E0ED9FF001B9
:102080001124ED58FD4FA181B281E801BD83AC83DD
:1020900014962D913C9115973F832E831496CD91E4
:1020A000DC9115979B838A8315969C938E93149746
:1020B000D8011B96FC93EE931A9780818F5F8083E3
:1020C0000F900FBE80919902882349F0E0919A0207
:1020D000F0919B028689811102C00E94DE268091C8
:1020E0009F018F5F80939F0180E890E00E943132D2
:1020F000EC010FB6F8940F9280919F01815080936C
:102100009F0180919F018111D3C180919C028823FE
:1021100009F4CEC120915D0230915E0269E071E068
:1021200080915802882309F490C0D9011696ED9148
:10213000FC911797E488F5884685578580899189B1
:10214000DA0115969C938E93149780899189DC010E
:1021500013965C934E931297AF01445F5F4FD70184
:1021600011960D911C9112970417150721F41296E0
:102170009C938E931197158A148AD7018C91815064
:102180008C93AF014E5F5F4FE284F384048115812D
:1021900086819781D80115969C938E93149786819A
:1021A0009781DC0113961C930E931297D701119619
:1021B0000D911C9112970417150721F412969C9308
:1021C0008E93119713861286D7018C9181508C9330
:1021D000A689809197028A1710F4A09397026A9FAC
:1021E000D00111248D010D581D4F7801D801119691
:1021F0008D919C91129795838483DC0114960D91A7
:102200001C9115971783068314960D911C911597B1
:10221000D80113965C934E931297DC0115965C934C
:102220004E931497F386E286D7018C918F5F8C933F
:10223000A0919A02B0919B02968956968C9198171C
:1022400008F46ECF709385016BCF8091840181116A
:1022500008C080918501813009F02AC10E94DE26E4
:1022600027C199E0BB24B3944FEF5FEF80918401C5
:10227000882379F380919F01811107C120913F024A
:10228000309140022F5F3F4F3093400220933F0236
:1022900020913F02309140022115310589F560916E
:1022A000440270914502E0914202F0914302F093A2
:1022B0004502E0934402709343026093420280918E
:1022C00041028F5F80934102E0914402F091450208
:1022D0008081811105C0509387014093860110C011
:1022E000E0914402F09145020580F681E02D0680E0
:1022F000F781E02D6281738170938701609386017D
:10230000609186017091870180E02617370708F4F5
:10231000ADC0E0914402F09145026081611105C0B9
:102320005093870140938601A1C0E0914402F0914F
:1023300045020580F681E02D0680F781E02D62815F
:1023400073812617370728F47093870160938601FD
:102350008DC0BF016E5F7F4FC284D384E480F5805F
:1023600006811781D70115961C930E931497068149
:102370001781D8011396FC92EE921297D60111960E
:10238000ED90FC901297E616F70621F412961C9336
:102390000E93119713861286D6011C9111501C932F
:1023A000848895888114910429F106851785E08831
:1023B000F188D8011596FC92EE921497E088F18886
:1023C000D70113961C930E931297D4011196CD90BA
:1023D000DC9012978F01045F1F4FC016D10621F4C5
:1023E0001296FC92EE921197158A148AD4011C91D0
:1023F00011501C93A689B0919702BA1710F4A093BC
:1024000097029A9FD00111248D010D581D4F68012C
:10241000D80111960D911C91129715830483D80150
:102420001496ED90FC901597F782E6821496ED9045
:10243000FC901597D70113967C936E931297D80151
:1024400015967C936E931497D386C286D6016C91B1
:102450006F5F6C93A0919A02B0919B027689569619
:102460006C91761708F455CF81E053CFE0919A0232
:10247000F0919B02E6899E9FF0011124ED58FD4FDB
:102480002081223040F081E006C0809184018F5F7E
:102490008093840180E020918501211101C0811188
:1024A000B092850180918401815080938401DECEB9
:1024B0000F900FBE209769F4259A2D9ABFEFC0E7C1
:1024C000D2E0B150C040D040E1F700C000001D9AFA
:1024D000F5CF80919F018F5F80939F0189E290E00B
:1024E0000E9431328C010FB6F8940F9280919F01B7
:1024F000815080939F0180919F018111D4C180916F
:102500009C02882309F4CFC120915D0230915E02C4
:1025100069E071E080915802882309F490C0D901E4
:102520001696ED91FC911797C488D58846855785F6
:1025300080899189DA0115969C938E9314978089EE
:102540009189DC0113965C934E931297AF01445F1F
:102550005F4FD6011196ED90FC901297E416F506A8
:1025600021F412969C938E931197158A148AD601A2
:102570008C9181508C93AF014E5F5F4FC284D384A6
:10258000E480F58086819781D70115969C938E9380
:10259000149786819781DC011396FC92EE92129734
:1025A000D6011196ED90FC901297E416F50621F4F1
:1025B00012969C938E93119713861286D6018C9156
:1025C00081508C93A689809197028A1710F4A0936A
:1025D00097026A9FD0011124CD018D589D4F6C0147
:1025E000DC0111968D919C91129795838483DC0177
:1025F0001496ED90FC901597F782E6821496ED9074
:10260000FC901597D70113965C934E931297DC01BB
:1026100015965C934E931497D386C286D6018C91FF
:102620008F5F8C93A0919A02B0919B0296895696E7
:102630008C91981708F46ECF709385016BCF8091C1
:102640008401811108C080918501813009F02BC17E
:102650000E94DE2628C199E0A92E992493946FEF59
:102660007FEF80918401882371F380919F01811114
:1026700007C180913F0290914002019690934002E1
:1026800080933F0280913F0290914002009789F52C
:102690002091440230914502409142025091430200
:1026A00050934502409344023093430220934202E8
:1026B000209141022F5F20934102E0914402F0916A
:1026C00045022081211105C0709387016093860126
:1026D00010C0E0914402F09145020580F681E02DA2
:1026E0000680F781E02D228133813093870120938A
:1026F00086012091860130918701B12C82179307C2
:1027000008F4AEC0E0914402F0914502208121110D
:1027100005C07093870160938601A2C0E0914402D6
:10272000F09145020580F681E02D0680F781E02DCD
:10273000228133818217930728F4309387012093F5
:1027400086018EC09F012E5F3F4FC284D384E480F8
:10275000F58046815781D70115965C934E93149767
:1027600046815781DA011396FC92EE921297D601B8
:102770001196ED90FC901297E216F30621F4129652
:102780005C934E93119713861286D6014C9141505B
:102790004C93648875886114710429F146855785C6
:1027A000E088F188DA011596FC92EE921497E088A1
:1027B000F188D70113965C934E931297D30111962B
:1027C000CD90DC901297AF01445F5F4FC416D506E1
:1027D00021F41296FC92EE921197158A148AD30175
:1027E0004C9141504C93A689409197024A1710F49E
:1027F000A0939702AA9ED0011124AD014D585D4FC0
:102800006A01DA0111964D915C91129755834483C8
:10281000DA011496ED90FC901597F782E6821496F3
:10282000ED90FC901597D70113963C932E93129739
:10283000DA0115963C932E931497D386C286D6015F
:102840002C912F5F2C93A0919A02B0919B02368914
:1028500056962C91321708F455CFBB24B39452CF1F
:10286000E0919A02F0919B02E689AE9EF00111245C
:10287000ED58FD4F8081823048F0BB24B39406C0F0
:10288000809184018F5F80938401B12C80918501B8
:10289000811101C0B1109092850180918401815015
:1028A00080938401DECE0F900FBE0115110569F4EF
:1028B000259A2D9ABFEFC0E7D2E0B150C040D0407A
:1028C000E1F700C000001D9AF5CFF801D08FC78B4B
:1028D00040E850E065EA70E0CE010E946C33D80118
:1028E0005996EFE1F1E098E09E0F81918D93882356
:1028F00011F09E13FACFD80190961C92909756969D
:102900001C92569791961C92919792961C92929730
:102910001B961C921E921A9755961C921E925497C3
:1029200019961C930E93189784E090E01D969C9343
:102930008E931C9753961C930E935297F80113A2F3
:1029400014A215A216A210A617A2FE01E158FF4F6D
:1029500091E19083319782E28083319723E3208352
:1029600027E33FE1319720833197308331971082FD
:10297000319720E8208331971082319722E020831D
:10298000319723E02083319724E02083319725E09D
:102990002083319726E02083319727E020833197E9
:1029A00028E02083319729E02083319720E120839C
:1029B00031979083319792E19083319793E190839F
:1029C000319794E19083319795E19083319796E127
:1029D0009083319797E19083319798E19083319775
:1029E00099E19083319790E29083319791E29083BF
:1029F00031978083319783E28083319710823197BA
:102A00001082319786E28083319787E28083319705
:102A100088E28083319789E28083319780E38083E5
:102A2000319781E38083C75ADF4FCD93DC930FB694
:102A3000F8940F9280919C028F5F80939C0280910A
:102A40009A0290919B02892B09F091C010939B02EE
:102A500000939A0280919C02813009F097C0E3E7CD
:102A6000F2E04FEF5FEF9F012D5F3F4F32832183F5
:102A70008FEF9FEF548343833683258330872783EB
:102A800010823996B2E0E739FB0769F72DE632E0AC
:102A900030936C0220936B0290936E0280936D02D0
:102AA0003093700220936F02309372022093710270
:102AB00010926A0224E632E03093630220936202AD
:102AC00090936502809364023093670220936602BC
:102AD0003093690220936802109261022BE532E084
:102AE00030935A022093590290935C0280935B02C8
:102AF00030935E0220935D023093600220935F0268
:102B00001092580222E532E0309351022093500295
:102B100090935302809352023093550220935402B3
:102B2000309357022093560210924F0229E432E06C
:102B3000309348022093470290934A0280934902BF
:102B400030934C0220934B0230934E0220934D025F
:102B5000109246028AE692E09093450280934402E6
:102B600081E692E090934302809342020FC08091ED
:102B7000990281110BC0E0919A02F0919B02868923
:102B8000811104C010939B0200939A0280919802D5
:102B90008F5F80939802E801EE89809197028E17EB
:102BA00010F4E0939702C8010296D9E0ED9FF0017E
:102BB0001124ED58FD4FA181B281E801BD83AC83A2
:102BC00014962D913C9115973F832E831496CD91A9
:102BD000DC9115979B838A8315969C938E9314970B
:102BE000D8011B96FC93EE931A9780818F5F8083A8
:102BF0000F900FBE80919902882321F080919A0254
:102C000090919B020FB6F8940F928091A001909141
:102C1000A101892B09F070C284E991E0909393019E
:102C2000809392012FEF3FEF309395012093940111
:102C300090939701809396019093990180939801C6
:102C4000109291018BE891E090938A018093890121
:102C500030938C0120938B0190938E0180938D0192
:102C60009093900180938F011092880181E991E007
:102C7000909383018093820188E891E09093810191
:102C80008093800180919F018F5F80939F0182E5F7
:102C900090E00E943132EC010FB6F8940F928091CF
:102CA0009F01815080939F0180919F018111D3C129
:102CB00080919C02882309F4CEC120915D0230915D
:102CC0005E0269E071E080915802882309F490C0A7
:102CD000D9011696ED91FC911797E488F588468501
:102CE000578580899189DA0115969C938E93149764
:102CF00080899189DC0113965C934E931297AF0102
:102D0000445F5F4FD70111960D911C9112970417E4
:102D1000150721F412969C938E931197158A148AA5
:102D2000D7018C9181508C93AF014E5F5F4FE2844D
:102D3000F3840481158186819781D80115969C932F
:102D40008E93149786819781DC0113961C930E93C2
:102D50001297D70111960D911C9112970417150720
:102D600021F412969C938E93119713861286D701A5
:102D70008C9181508C93A689809197028A1710F4C8
:102D8000A09397026A9FD00111248D010D581D4F09
:102D90007801D80111968D919C9112979583848327
:102DA000DC0114960D911C911597178306831496D8
:102DB0000D911C911597D80113965C934E93129721
:102DC000DC0115965C934E931497F386E286D70147
:102DD0008C918F5F8C93A0919A02B0919B029689FF
:102DE00056968C91981708F46ECF709385016BCF2F
:102DF00080918401811108C080918501813009F0A2
:102E00002AC10E94DE2627C199E0BB24B3944FEF6C
:102E10005FEF80918401882379F380919F01811174
:102E200007C120913F02309140022F5F3F4F309306
:102E3000400220933F0220913F0230914002211531
:102E4000310589F56091440270914502E09142029A
:102E5000F0914302F0934502E093440270934302E1
:102E600060934202809141028F5F80934102E09122
:102E70004402F09145028081811105C05093870181
:102E80004093860110C0E0914402F0914502058014
:102E9000F681E02D0680F781E02D628173817093C9
:102EA000870160938601609186017091870180E0BF
:102EB0002617370708F4ADC0E0914402F0914502AF
:102EC0006081611105C05093870140938601A1C0C4
:102ED000E0914402F09145020580F681E02D0680E4
:102EE000F781E02D628173812617370728F47093EC
:102EF0008701609386018DC0BF016E5F7F4FC284E2
:102F0000D384E480F58006811781D70115961C9340
:102F10000E93149706811781D8011396FC92EE92B6
:102F20001297D6011196ED90FC901297E616F706CF
:102F300021F412961C930E93119713861286D601D4
:102F40001C9111501C93848895888114910429F157
:102F500006851785E088F188D8011596FC92EE92D7
:102F60001497E088F188D70113961C930E9312975B
:102F7000D4011196CD90DC9012978F01045F1F4F02
:102F8000C016D10621F41296FC92EE921197158A82
:102F9000148AD4011C9111501C93A689B0919702F8
:102FA000BA1710F4A09397029A9FD00111248D01B3
:102FB0000D581D4F6801D80111960D911C91129763
:102FC00015830483D8011496ED90FC901597F78231
:102FD000E6821496ED90FC901597D70113967C939A
:102FE0006E931297D80115967C936E931497D3869F
:102FF000C286D6016C916F5F6C93A0919A02B091DA
:103000009B02768956966C91761708F455CF81E02D
:1030100053CFE0919A02F0919B02E6899E9FF001C6
:103020001124ED58FD4F2081223040F081E006C090
:10303000809184018F5F8093840180E020918501DD
:10304000211101C08111B0928501809184018150CC
:1030500080938401DECE0F900FBE209769F4259AED
:103060002D9ABFEFC0E7D2E0B150C040D040E1F7A9
:1030700000C000001D9AF5CFCE014F96998388833A
:103080008AE08B8F85E08C8F0FB6F8940F922881A1
:1030900039819B8D4C8D949FC0011124B901680F1B
:1030A000791F7B836A831A8E3D832C83841B91094D
:1030B000820F931F9F838E838FEF8D8F8E8FCE0114
:1030C0000B969A8789872FEF3FEF3C872B879E8748
:1030D0008D87988B8F87188609969B8B8A8B3D8B63
:1030E0002C8B9F8B8E8B998F888F198A0F900FBE98
:1030F000D093A101C093A0010F900FBE8091A001B9
:103100009091A101892B09F4CBC580919F018F5F1C
:1031100080939F0185E590E00E943132EC010FB66B
:10312000F8940F9280919F01815080939F0180912C
:103130009F018111D3C180919C02882309F4CEC1E3
:1031400020915D0230915E0269E071E08091580249
:10315000882309F490C0D9011696ED91FC91179738
:10316000E488F5884685578580899189DA01159626
:103170009C938E93149780899189DC0113965C93BC
:103180004E931297AF01445F5F4FD70111960D9197
:103190001C9112970417150721F412969C938E9395
:1031A0001197158A148AD7018C9181508C93AF01A5
:1031B0004E5F5F4FE284F38404811581868197819D
:1031C000D80115969C938E93149786819781DC0184
:1031D00013961C930E931297D70111960D911C9183
:1031E00012970417150721F412969C938E9311974A
:1031F00013861286D7018C9181508C93A689809179
:1032000097028A1710F4A09397026A9FD0011124A5
:103210008D010D581D4F7801D80111968D919C910B
:10322000129795838483DC0114960D911C91159758
:103230001783068314960D911C911597D801139648
:103240005C934E931297DC0115965C934E93149702
:10325000F386E286D7018C918F5F8C93A0919A02BE
:10326000B0919B02968956968C91981708F46ECF70
:10327000709385016BCF80918401811108C080918A
:103280008501813009F02AC10E94DE2627C199E01C
:10329000BB24B3944FEF5FEF80918401882379F3CF
:1032A00080919F01811107C120913F02309140021E
:1032B0002F5F3F4F3093400220933F0220913F0207
:1032C000309140022115310589F5609144027091D9
:1032D0004502E0914202F0914302F0934502E093EF
:1032E00044027093430260934202809141028F5FD7
:1032F00080934102E0914402F09145028081811166
:1033000005C0509387014093860110C0E0914402AC
:10331000F09145020580F681E02D0680F781E02DD1
:103320006281738170938701609386016091860149
:103330007091870180E02617370708F4ADC0E0914F
:103340004402F09145026081611105C050938701EC
:1033500040938601A1C0E0914402F09145020580AE
:10336000F681E02D0680F781E02D628173812617BA
:10337000370728F470938701609386018DC0BF01E1
:103380006E5F7F4FC284D384E480F580068117810D
:10339000D70115961C930E93149706811781D801B7
:1033A0001396FC92EE921297D6011196ED90FC9036
:1033B0001297E616F70621F412961C930E931197B6
:1033C00013861286D6011C9111501C93848895880F
:1033D0008114910429F106851785E088F188D801C8
:1033E0001596FC92EE921497E088F188D701139617
:1033F0001C930E931297D4011196CD90DC901297E6
:103400008F01045F1F4FC016D10621F41296FC9263
:10341000EE921197158A148AD4011C9111501C93B5
:10342000A689B0919702BA1710F4A09397029A9FB9
:10343000D00111248D010D581D4F6801D80111963E
:103440000D911C91129715830483D8011496ED9069
:10345000FC901597F782E6821496ED90FC901597F4
:10346000D70113967C936E931297D80115967C938F
:103470006E931497D386C286D6016C916F5F6C935E
:10348000A0919A02B0919B02768956966C9176171C
:1034900008F455CF81E053CFE0919A02F0919B025E
:1034A000E6899E9FF0011124ED58FD4F20812230C6
:1034B00040F081E006C0809184018F5F8093840199
:1034C00080E020918501211101C08111B092850118
:1034D00080918401815080938401DECE0F900FBED5
:1034E000209769F4259A2D9ABFEFC0E7D2E0B1503A
:1034F000C040D040E1F700C000001D9AF5CF809198
:103500009F018F5F80939F0189E290E00E9431329A
:103510008C010FB6F8940F9280919F018150809397
:103520009F0180919F018111D4C180919C028823C9
:1035300009F4CFC120915D0230915E0269E071E033
:1035400080915802882309F490C0D9011696ED9114
:10355000FC911797C488D5884685578580899189BD
:10356000DA0115969C938E93149780899189DC01DA
:1035700013965C934E931297AF01445F5F4FD60151
:103580001196ED90FC901297E416F50621F4129630
:103590009C938E931197158A148AD6018C91815031
:1035A0008C93AF014E5F5F4FC284D384E480F5807B
:1035B00086819781D70115969C938E931497868167
:1035C0009781DC011396FC92EE921297D601119628
:1035D000ED90FC901297E416F50621F412969C9358
:1035E0008E93119713861286D6018C9181508C93FD
:1035F000A689809197028A1710F4A09397026A9F78
:10360000D0011124CD018D589D4F6C01DC01119624
:103610008D919C91129795838483DC011496ED9093
:10362000FC901597F782E6821496ED90FC90159722
:10363000D70113965C934E931297DC0115965C9319
:103640004E931497D386C286D6018C918F5F8C934C
:10365000A0919A02B0919B02968956968C919817E8
:1036600008F46ECF709385016BCF80918401811136
:1036700008C080918501813009F02BC10E94DE26AF
:1036800028C189E0A82E992493946FEF7FEF809151
:103690008401882371F380919F01811107C180917A
:1036A0003F029091400201969093400280933F0226
:1036B00080913F0290914002009789F52091440249
:1036C000309145024091420250914302509345028D
:1036D00040934402309343022093420220914102DE
:1036E0002F5F20934102E0914402F0914502208136
:1036F000211105C0709387016093860110C0E0918D
:103700004402F09145020580F681E02D0680F781A4
:10371000E02D22813381309387012093860120910F
:10372000860130918701B12C8217930708F4AEC04F
:10373000E0914402F09145022081211105C070936F
:10374000870160938601A2C0E0914402F091450296
:103750000580F681E02D0680F781E02D22813381FE
:103760008217930728F430938701209386018EC037
:103770009F012E5F3F4FC284D384E480F580468151
:103780005781D70115965C934E93149746815781C4
:10379000DA011396FC92EE921297D6011196ED90F3
:1037A000FC901297E216F30621F412965C934E9366
:1037B000119713861286D6014C9141504C93648820
:1037C00075886114710429F146855785E088F18870
:1037D000DA011596FC92EE921497E088F188D701F1
:1037E00013965C934E931297D3011196CD90DC9073
:1037F0001297AF01445F5F4FC416D50621F41296AD
:10380000FC92EE921197158A148AD3014C91415083
:103810004C93A689409197024A1710F4A0939702FF
:10382000AA9ED0011124AD014D585D4F6A01DA0105
:1038300011964D915C91129755834483DA01149649
:10384000ED90FC901597F782E6821496ED90FC902F
:103850001597D70113963C932E931297DA0115967C
:103860003C932E931497D386C286D6012C912F5F5A
:103870002C93A0919A02B0919B02368956962C9176
:10388000321708F455CFBB24B39452CFE0919A027B
:10389000F0919B02E689AE9EF0011124ED58FD4F98
:1038A0008081823048F0BB24B39406C080918401AB
:1038B0008F5F80938401B12C80918501811101C0BB
:1038C000B110909285018091840181508093840190
:1038D000DECE0F900FBE0115110569F4259A2D9AC1
:1038E000BFEFC0E7D2E0B150C040D040E1F700C028
:1038F00000001D9AF5CFF801D08FC78B45E550E049
:1039000065EA70E0CE010E946C33D8015996E7E178
:10391000F1E098E09E0F81918D93882311F09E1322
:10392000FACFD80190961C92909783E056968C938C
:10393000569791968C93919792961C9292971B967C
:103940001C921E921A9755961C921E925497199685
:103950001C930E93189721E030E01D963C932E9314
:103960001C9753961C930E935297F80113A214A21E
:1039700015A216A210A617A2FE01EC5AFF4F21E1D4
:103980002083319792E29083319733E3308342E092
:1039900059E23197408331975083319710823197A4
:1039A00030E8308331971082319732E0308331979D
:1039B0008083319784E08083319785E080833197DD
:1039C00086E08083319787E08083319788E0808329
:1039D000319789E08083319780E18083319720831C
:1039E000319782E18083319783E18083319784E14D
:1039F000808385E18FAF86E18EAF87E18DAF88E16F
:103A00008CAF89E18BAF80E28AAF81E289AF98AF5A
:103A100083E28FAB1EAA1DAA86E28CAB87E28BAB3A
:103A200088E28AAB89E289AB80E388AB81E38FA728
:103A3000AE96CD93DC930FB6F8940F9280919C02D2
:103A40008F5F80939C0280919A0290919B02892BB8
:103A500009F091C010939B0200939A0280919C02FE
:103A6000813009F097C0E3E7F2E04FEF5FEF9F018D
:103A70002D5F3F4F328321838FEF9FEF548343832A
:103A8000368325833087278310823996B2E0E73961
:103A9000FB0769F72DE632E030936C0220936B024E
:103AA00090936E0280936D023093700220936F02A8
:103AB000309372022093710210926A0224E632E07F
:103AC00030936302209362029093650280936402B4
:103AD0003093670220936602309369022093680254
:103AE000109261022BE532E030935A022093590282
:103AF00090935C0280935B0230935E0220935D02A0
:103B00003093600220935F021092580222E532E067
:103B100030935102209350029093530280935202AB
:103B2000309355022093540230935702209356024B
:103B300010924F0229E432E030934802209347026A
:103B400090934A028093490230934C0220934B0297
:103B500030934E0220934D02109246028AE692E084
:103B6000909345028093440281E692E09093430251
:103B7000809342020FC08091990281110BC0E091A5
:103B80009A02F0919B028689883020F410939B0260
:103B900000939A02809198028F5F80939802E801C7
:103BA000EE89809197028E1710F4E0939702C80176
:103BB0000296D9E0ED9FF0011124ED58FD4FA1814F
:103BC000B281E801BD83AC8314962D913C91159789
:103BD0003F832E831496CD91DC9115979B838A8326
:103BE00015969C938E931497D8011B96FC93EE9395
:103BF0001A9780818F5F80830F900FBE809199020A
:103C0000882349F0E0919A02F0919B0286898730DF
:103C100010F40E94DE26F8948FEF9FEF90938701B7
:103C20008093860181E08093990210924002109265
:103C30003F02A89520EC88E190E00FB6F894A89593
:103C4000809360000FBE20936000A0919A02B09113
:103C50009B02CD91CDBFDD91DEBFFF91EF91DF9152
:103C6000CF91BF91AF919F918F917F916F915F9114
:103C70004F913F912F911F910F91FF90EF90DF9007
:103C8000CF90BF90AF909F908F907F906F905F90FC
:103C90004F903F902F901F900F900FBE0F90089560
:103CA000259A2D9ABFEFC0E7D2E0B150C040D04076
:103CB000E1F700C000001D9AF5CF8FE00E94262298
:103CC000EC018FB7F89480909D0290909E02A09096
:103CD0009F02B090A0028FBF0E9443222B013C01A3
:103CE00088ECC82ED12CE12CF12C0E944322DC015F
:103CF000CB0184199509A609B709883E9340A1050F
:103D0000B10558F021E0C21AD108E108F10888EEA7
:103D1000480E83E0581E611C711CC114D104E104DB
:103D2000F10419F74AE050E060E070E080919D01F5
:103D300090919E010E94202B8130A1F58AE291E0B2
:103D40000E945620C501B4010E94792181E491E0CE
:103D50000E9456206E01DD0FEE08FF08C701B60174
:103D60000E9479218DE491E00E945620C701B6019E
:103D70000E940A312DEC3CEC4CE85AE30E94BF3122
:103D80002DEC3CEC4CEC5EE30E94F52F27E73EEB7C
:103D90004FE95CE30E9467300E94A92082EA91E02B
:103DA0000E94042280919D0190919E010E942E2FDD
:103DB0008AE090E00E94D02880CF8FB7F89480905E
:103DC0009D0290909E02A0909F02B090A0028FBF93
:103DD0008EE00E9426226C0142E050E060E070E03C
:103DE00080919D0190919E010E94202B8130A1F530
:103DF00087E591E00E945620C501B4010E94792117
:103E000081E491E00E9456200D2C000CEE08FF0882
:103E1000C701B6010E9479218DE491E00E945620ED
:103E2000C701B6010E940A312DEC3CEC4CE85AE384
:103E30000E94BF312DEC3CEC4CEC5EE30E94F52F70
:103E400027E73EEB4FE95CE30E9467300E94A92020
:103E500082EA91E00E94042280919D0190919E014E
:103E60000E942E2F81E090E00E94D028A6CFC0E0D3
:103E7000D0E080919A01882351F10E945925109138
:103E80004F020E94A4271123A1F30FB6F8940F92BA
:103E9000E0915402F091550206811781C801029603
:103EA0000E94622580919C02815080939C028091A7
:103EB0009A01815080939A010F900FBEF801878973
:103EC000908D0E94F128C8010E94F128D2CF8091E4
:103ED0007302823010F00E94DE26209751F280910A
:103EE000BB012091BC0190E0805C9F4F821B910937
:103EF0008F739927892B09F4BCCF0E940000B9CF9A
:103F0000CF92DF92EF92FF920F931F93CF93DF93A5
:103F10006C017A018B01C0E0D0E0CE15DF0589F09D
:103F2000D8016D918D01D601ED91FC910190F08148
:103F3000E02DC6010995892B11F47E0102C021965E
:103F4000ECCFC701DF91CF911F910F91FF90EF90C0
:103F5000DF90CF90089582EA91E00E94CD2121E088
:103F6000892B09F420E0822F08950E945E33EF929E
:103F7000FF920F931F93CF93DF93EC0181E0888F23
:103F80009B8D8C8D981305C0E889F989808185FD0A
:103F900024C0F62E0B8D10E00F5F1F4F0F731127FB
:103FA000E02E8C8DE8120CC00FB607FCFACFE88922
:103FB000F989808185FFF5CFCE010E94E321F1CF01
:103FC0008B8DFE01E80FF11DE35AFF4FF0820B8F3E
:103FD000EA89FB898081806207C0EE89FF8960835E
:103FE000E889F98980818064808381E090E0DF91B5
:103FF000CF911F910F91FF90EF9008951F920F9214
:104000000FB60F9211242F933F934F935F936F93AB
:104010007F938F939F93AF93BF93EF93FF9382EA26
:1040200091E00E94E321FF91EF91BF91AF919F91A9
:104030008F917F916F915F914F913F912F910F9051
:104040000FBE0F901F9018951F920F920FB60F92F0
:1040500011242F938F939F93EF93FF93E091B201DD
:10406000F091B3018081E091B801F091B90182FD36
:1040700012C090818091BB018F5F8F732091BC0132
:10408000821751F0E091BB01F0E0EE55FE4F958FA5
:104090008093BB0101C08081FF91EF919F918F912F
:1040A0002F910F900FBE0F901F901895009769F0F9
:1040B000FC0101900020E9F73197AF01481B590B33
:1040C000BC0182EA91E00C94801F80E090E00895AA
:1040D0008F929F92AF92BF920F931F93CF93DF93D4
:1040E000CDB7DEB7A1970FB6F894DEBF0FBECDBF38
:1040F00019A2423008F44AE08E010F5D1F4F842E52
:10410000912CA12CB12CA50194010E94CD2FE62F5A
:10411000B901CA0101501109EA3014F4E05D01C08F
:10412000E95CD801EC93232B242B252B61F7C801E4
:104130000E945620A1960FB6F894DEBF0FBECDBFE9
:10414000DF91CF911F910F91BF90AF909F908F9073
:1041500008954F925F926F927F928F929F92AF924B
:10416000BF92CF92DF92EF92FF926B017C019B0195
:10417000AC010E942C32882319F08EE691E01AC01F
:1041800046015701E894B7F82FEF3FEF4FE75FE79D
:10419000C501B4010E942C32811110C02FEF3FEFF6
:1041A0004FE75FE7C501B4010E946230181634F48E
:1041B00082E791E00E9456207C0188C02FEF3FEFFC
:1041C0004FE75FE4C701B6010E94BA3118161CF42C
:1041D00086E791E0EFCF2FEF3FEF4FE75FECC701AE
:1041E000B6010E94623087FDF3CF20E030E0A901E4
:1041F000C701B6010E94623087FF11C0E091A201A1
:10420000F091A3010190F081E02D6DE282EA91E04E
:1042100009955C01F7FAF094F7F8F09402C0A12C2C
:10422000B12C2AE037ED43EA5BE3C701B6010E94F7
:10423000F62F2B013C010E94D9306B017C010E94BA
:1042400008319B01AC01C301B2010E94F52F2B0183
:104250003C014AE0C701B6010E9468207C01EA0CDB
:10426000FB1C8AE791E00E945620E80EF91E20E030
:1042700030E040E251E4C301B2010E94BF312B01A2
:104280003C010E94D9304B01A12CB12C4AE0C50160
:10429000B4010E946820E80EF91EC501B4010E9415
:1042A00008319B01AC01C301B2010E94F52F20E04F
:1042B00030E040E251E40E94BF310E94D93080E0FA
:1042C00090E04AE00E946820E80EF91E8CE791E039
:1042D0000E9456208E0D9F1DFF90EF90DF90CF9093
:1042E000BF90AF909F908F907F906F905F904F9016
:1042F0000895CF92DF92EF92FF92CF93DF9397FFD3
:1043000021C06B017C01E091A201F091A301019019
:10431000F081E02D6DE282EA91E00995EC016627DB
:104320007727CB016C197D098E099F094AE00E940D
:1043300068208C0F9D1FDF91CF91FF90EF90DF9051
:10434000CF9008954AE0DF91CF91FF90EF90DF90FA
:10435000CF900C946820FC01918D828D981761F0AC
:10436000828DDF01A80FB11D5D968C91928D9F5FAC
:104370009F73928F90E008958FEF9FEF0895FC0157
:10438000918D828D981731F0828DE80FF11D858D0A
:1043900090E008958FEF9FEF0895FC01918D228D9D
:1043A000892F90E0805C9F4F821B91098F73992722
:1043B000089580E090E0892B29F00E94AB1F8111C5
:1043C0000C9400000895FC01848DDF01A80FB11D3D
:1043D000A35ABF4F2C91848D90E001968F7399273B
:1043E000848FA689B7892C93A089B1898C91806428
:1043F0008C93938D848D981306C00288F389E02DE9
:1044000080818F7D80830895CF93DF93EC01888D29
:104410008823C9F0EA89FB89808185FD05C0A889C8
:10442000B9898C9186FD0FC00FB607FCF5CF80814E
:1044300085FFF2CFA889B9898C9185FFEDCFCE0198
:104440000E94E321E7CFDF91CF9108958E3008F0ED
:104450008E5087702091000190E4299F90011124D3
:10446000822B80937C0080917A00806480937A0014
:1044700080917A0086FDFCCF8091780020917900B0
:1044800090E0922B08953FB7F8948091A20290910A
:10449000A302A091A402B091A50226B5A89B05C0D5
:1044A0002F3F19F00196A11DB11D3FBFBA2FA92FB3
:1044B000982F8827820F911DA11DB11DBC01CD0130
:1044C00042E0660F771F881F991F4A95D1F708951C
:1044D0001F920F920FB60F9211242F933F938F9339
:1044E0009F93AF93BF9380919D0290919E02A09164
:1044F0009F02B091A0023091A10223E0230F2D373B
:1045000020F40196A11DB11D05C026E8230F0296D7
:10451000A11DB11D2093A10280939D0290939E0244
:10452000A0939F02B093A0028091A2029091A30257
:10453000A091A402B091A5020196A11DB11D809386
:10454000A2029093A302A093A402B093A502BF91EC
:10455000AF919F918F913F912F910F900FBE0F9030
:104560001F9018950FB6F8940F9280913F0290918A
:1045700040020F900FBE08950F931F93CF93DF93C8
:104580008C01FB01808191818F3F2FEF920721F4F5
:10459000E801AF81B8850EC0D801139612962D910F
:1045A0003C911397E901488159818417950710F0D0
:1045B000D901F4CF12968D919C91139793838283A6
:1045C000EC01FD83EC83B583A4831396FC93EE93F7
:1045D000129711870087F80180818F5F8083DF91B8
:1045E000CF911F910F910895FC017383628391878E
:1045F00080874617570778F0421B530B84859585B3
:1046000048175907C8F4BF016E5F7F4F8091800142
:10461000909181010DC04217530718F46217730778
:1046200058F4BF016E5F7F4F8091820190918301AA
:104630000E94BC2280E0089581E00895CF93DF932B
:10464000E0919A02F0919B029383828320913F0232
:10465000309140028217930770F460919A02709132
:104660009B0280914202909143026E5F7F4FDF91E7
:10467000CF910C94BC22EC0160919A0270919B0244
:1046800080914402909145026E5F7F4F0E94BC2250
:104690008091860190918701C817D90720F4D093A3
:1046A0008701C0938601DF91CF9108950F920FB6D5
:1046B000F8940F921F9211242F923F924F925F9283
:1046C0006F927F928F929F92AF92BF92CF92DF9222
:1046D000EF92FF920F931F932F933F934F935F930C
:1046E0006F937F938F939F93AF93BF93CF93DF93FA
:1046F000EF93FF93A0919A02B0919B020DB60D9299
:104700000EB60D9213BE80919F018111F6C080916B
:104710003F029091400201969093400280933F02A5
:1047200020913F02309140022115310599F5809189
:1047300044029091450240914202509143025093AD
:104740004502409344029093430280934202809139
:1047500041028F5F80934102E0914402F091450253
:104760008081811107C08FEF9FEF90938701809325
:10477000860110C0E0914402F09145020580F68167
:10478000E02D0680F781E02D82819381909387014F
:1047900080938601809186019091870128173907BF
:1047A00010F480E09AC080E019E0E0914402F091BA
:1047B00045029081911107C02FEF3FEF30938701A1
:1047C000209386018AC0E0914402F0914502058061
:1047D000F681E02D0680F781E02D42815381241778
:1047E000350728F4509387014093860176C0AF01C6
:1047F0004E5F5F4FA285B38564817581E680F78047
:10480000EB01FD82EC82C681D7817B836A8311969E
:104810006D917C9112976417750721F41296DC93C1
:10482000CE931197138612869C9191509C93A489E4
:10483000B5891097F1F066857785E088F188EB01FE
:10484000FD82EC82C089D1897B836A831196ED90C9
:10485000FC901297BF01645F7F4FE616F70621F4C4
:104860001296DC93CE931197158A148A9C919150DD
:104870009C93A689909197029A1710F4A09397029F
:104880001A9FD0011124BD016D587D4F7B01DB01C2
:104890001196CD91DC911297D583C4836C817D8173
:1048A000778366836C817D81DB0113965C934E93E5
:1048B00012975D834C83F386E286E70198819F5FC0
:1048C0009883A0919A02B0919B02468956969C913A
:1048D000491708F46ACF81E068CFE0919A02F0911D
:1048E0009B02E689D9E0ED9FF0011124ED58FD4FC0
:1048F0009081923040F081E006C0809184018F5F0A
:104900008093840180E090918501911103C08823F8
:1049100009F46FC080919F01882321F081E080938A
:10492000850167C010928501A0919A02B0919B0207
:10493000E0919A02F0919B022D913C918789908D94
:1049400082179307D8F080919A0290919B028091F0
:104950009A0290919B02259A2D9A2FEF67EA71E6B1
:10496000215060407040E1F700C000001D9AF5CF73
:104970008091970281508093970201C099E0E09165
:1049800097029E9FF0011124ED58FD4F80818823EE
:1049900079F38091970290E049E0489F9001499F08
:1049A000300D1124F901ED58FD4FA181B28112960D
:1049B0000D90BC91A02DB283A1832A583D4FA21720
:1049C000B30731F412962D913C91139732832183D2
:1049D00029E0289FF001299FF00D1124ED58FD4F8B
:1049E0000180F281E02D8681978190939B028093D4
:1049F0009A02A0919A02B0919B02CD91CDBFDD9118
:104A0000DEBFFF91EF91DF91CF91BF91AF919F9169
:104A10008F917F916F915F914F913F912F911F9156
:104A20000F91FF90EF90DF90CF90BF90AF909F904D
:104A30008F907F906F905F904F903F902F901F903E
:104A40000F900FBE0F900895FC010FB6F8940F92CF
:104A500080913F0290914002DB012D913C912F3FCC
:104A6000BFEF3B0701F1B0914102A081418152812A
:104A7000BA1719F084179507C0F4DC01A41BB50B15
:104A8000A217B30790F4481B590B240F351FDB0105
:104A90002D933C9380914102808380913F029091BD
:104AA00040029283818380E001C081E00F900FBEBD
:104AB000089580919F018F5F80939F0108950E94C8
:104AC00056231895CF93DF93FC01A085B185828191
:104AD000938124813581EC013D832C83C481D58170
:104AE0009B838A8311968D919C9112978E179F07B5
:104AF00021F41296DC93CE931197118610868C9137
:104B000081508C93DF91CF910895EF92FF920F9394
:104B10001F93CF93DF93E0918201F0918301808115
:104B2000882369F10580F681E02D00811181C6811D
:104B3000D7817E0182E0E80EF11CC7010E94622548
:104B4000E989FA89CE0109958E85813021F72C8576
:104B50003D85200F311F0217130760F43B832A8322
:104B6000D987C887B70180918201909183010E9403
:104B7000BC22D1CFB801CE010E94512CCCCF809164
:104B80008001909181019093830180938201F09341
:104B90008101E0938001DF91CF911F910F91FF90F0
:104BA000EF900895CF93DF939C01FB01DC011196F8
:104BB000CD91DC911297D383C2838C819D819583A3
:104BC00084838C819D81DC0113967C936E93129774
:104BD0007D836C8331872087F90180818F5F80839B
:104BE000DF91CF9108950F931F93CF93DF93FC0133
:104BF000892B11F480E02CC082A1815082A32689E8
:104C000091A12917B9F38111F5CFEF018F010E5F43
:104C10001F4FC8010E94622599A19E8B492F50E029
:104C200024E030E0241B350B3D872C8780919702D0
:104C3000891710F49093970229E0249FC001259FC3
:104C4000900D1124B8018D589D4F0E94D22581E00E
:104C5000DF91CF911F910F9108950F931F93CF93E1
:104C6000DF93DC011596ED91FC911697C681D781F3
:104C70008E01045F1F4FC8010E94622580919F0131
:104C8000811114C00A501109C8010E9462259E8931
:104C900080919702891710F490939702B9E09B9F37
:104CA000C0011124B8018D589D4F03C0B80188E59B
:104CB00092E00E94D225E0919A02F0919B029E8997
:104CC0008689891720F481E08093850101C080E006
:104CD000DF91CF911F910F910895FF920F931F9332
:104CE000CF93DF93EC010FB6F8940F928C010F5E17
:104CF0001F4FFF24F3949E8D19166CF48989882325
:104D000051F0C8010E942D268111F09285019E8DDF
:104D100091509E8FF0CF8FEF8E8F0F900FBE0FB6FA
:104D2000F8940F928E01085F1F4FFF24F3949D8D1E
:104D300019166CF48885882351F0C8010E942D262D
:104D40008111F09285019D8D91509D8FF0CF8FEF55
:104D50008D8F0F900FBEDF91CF911F910F91FF901C
:104D60000895CF93DF93EB0120919A0230919B023B
:104D7000B901645F7F4F0E94BC2280919A0290919A
:104D80009B0202960E946225CF3F8FEFD80761F405
:104D900060919A0270919B026E5F7F4F86E492E071
:104DA000DF91CF910C94D22580913F0290914002E7
:104DB0008C0F9D1FDF91CF910C941E230F920FB685
:104DC000F8940F921F9211242F923F924F925F926C
:104DD0006F927F928F929F92AF92BF92CF92DF920B
:104DE000EF92FF920F931F932F933F934F935F93F5
:104DF0006F937F938F939F93AF93BF93CF93DF93E3
:104E0000EF93FF93A0919A02B0919B020DB60D9281
:104E10000EB60D9280919F01882321F081E080934E
:104E2000850167C010928501A0919A02B0919B0202
:104E3000E0919A02F0919B022D913C918789908D8F
:104E400082179307D8F080919A0290919B028091EB
:104E50009A0290919B02259A2D9A2FEF87EA91E66C
:104E6000215080409040E1F700C000001D9AF5CF2E
:104E70008091970281508093970201C099E0E09160
:104E800097029E9FF0011124ED58FD4F80818823E9
:104E900079F38091970290E049E0489F9001499F03
:104EA000300D1124F901ED58FD4FA181B281129608
:104EB0000D90BC91A02DB283A1832A583D4FA2171B
:104EC000B30731F412962D913C91139732832183CD
:104ED00029E0289FF001299FF00D1124ED58FD4F86
:104EE0000180F281E02D8681978190939B028093CF
:104EF0009A02A0919A02B0919B02CD91CDBFDD9113
:104F0000DEBFFF91EF91DF91CF91BF91AF919F9164
:104F10008F917F916F915F914F913F912F911F9151
:104F20000F91FF90EF90DF90CF90BF90AF909F9048
:104F30008F907F906F905F904F903F902F901F9039
:104F40000F900FBE0F9008959F92AF92BF92CF9295
:104F5000DF92EF92FF920F931F93CF93DF930FB6E1
:104F6000F8940F9280919F01815080939F018091CE
:104F70009F01882311F080E005C180919C02882365
:104F8000D1F399E0F92EEE24E3948091580288231E
:104F900051F1E0915D02F0915E02C681D781CE01B0
:104FA0000C960E9462258E010E5F1F4FC8010E9461
:104FB00062259E8980919702891710F49093970239
:104FC000F99EC0011124B8018D589D4F0E94D22531
:104FD000E0919A02F0919B029E8986899817A8F227
:104FE000E0928501D2CF80918401811109C0809126
:104FF0008501813009F0BFCF0E94DE2681E0C2C06A
:1050000009E099249394EE24EA94FE2C8091840183
:10501000882369F380919F018111A1C080913F0293
:105020009091400201969093400280933F02C0907D
:105030003F02D0904002C114D10489F5809144020E
:1050400090914502209142023091430230934502F3
:105050002093440290934302809342028091410244
:105060008F5F80934102E0914402F091450280817C
:10507000811105C0F0928701E092860110C0E09195
:105080004402F09145020580F681E02D0680F7810B
:10509000E02D828193819093870180938601809196
:1050A00086019091870110E0C816D90608F448C01F
:1050B000E0914402F09145028081811105C0F09297
:1050C0008701E09286013CC0E0914402F0914502E4
:1050D0000580F681E02DC681D7818A819B81C81623
:1050E000D90628F4909387018093860129C05E0138
:1050F00082E0A80EB11CC5010E9462258C899D89A1
:10510000892B21F0CE010C960E9462258E89909108
:105110009702981710F480939702089FC0011124FA
:10512000B5018D589D4F0E94D225E0919A02F091D1
:105130009B029E898689981708F4BACF11E0B8CFF0
:10514000E0919A02F0919B02E6890E9FF0011124F2
:10515000ED58FD4F8081823040F011E006C0809113
:1051600084018F5F8093840110E08091850181111B
:1051700001C011119092850180918401815080932A
:10518000840144CF0F900FBEDF91CF911F910F91FB
:10519000FF90EF90DF90CF90BF90AF909F900895D9
:1051A000CF93DF93EC01892B19F40E94DE2616C001
:1051B0000E94592520913F0230914002C20FD31F17
:1051C00080919A0290919B0202960E946225CE01E4
:1051D0000E941E230E94A427882339F3DF91CF91D8
:1051E0000895CF93DF93009751F0EC010E94592569
:1051F000CE010E94C632DF91CF910C94A427DF919B
:10520000CF910895CF93DF93CDB7DEB727970FB631
:10521000F894DEBF0FBECDBFE0918201F091830113
:1052200011E08081882339F010E00580F681E02DBF
:10523000E080F18002C0E12CF12C0E9459250E94EF
:10524000B2226C0180919B0190919C01C816D906F5
:1052500020F40E94852581E001C080E0D0929C016D
:10526000C0929B01811189C0111131C0CE14DF049D
:10527000A8F10E94A427E0918201F09183010580AA
:10528000F681E02D06811781C80102960E946225F1
:10529000D8011E968C911E97813089F41C966D91D1
:1052A0007C911D976E0D7F1D9701A601C8010E947C
:1052B000F422813021F4B701C8010E94512CD80199
:1052C0005196ED91FC915297C80109955CC0E0910F
:1052D0008001F091810121E08081811120E0009125
:1052E000A0011091A1010FB6F8940F92F801858DDD
:1052F0008F3F09F4158ED8015E968C915E978F3F93
:1053000011F45E961C920F900FBEF801828D8111F0
:105310002AC060919A0270919B02645F7F4FC8011E
:1053200041962E830E94D22580919A0290919B02F1
:1053300002960E9462252E81213059F460919A02D2
:1053400070919B026E5F7F4F86E492E00E94D225AF
:105350000AC080913F02909140028E0D9F1D8C19D2
:105360009D090E941E23C8010E946D260E94A42749
:10537000811109C00E94DE2606C00E94A42703C036
:10538000898187FF0EC040E050E0BE016F5F7F4F14
:105390008091A0019091A1010E94202B8111F0CF5A
:1053A0003BCF0C811D81D8011A968D919C911B9742
:1053B000892B21F0C80102960E9462250E94B22228
:1053C000AC0180919B0190919C014817590730F4E2
:1053D0004E835F830E9485255F814E8150939C019F
:1053E00040939B01E9818E2FEE0F990BAA0BBB0B0B
:1053F0008A30910540F6FC01EC5CFF4F0C94EF2FD6
:105400002A813B81F80164857585620F731FC8018D
:105410000E94F422813009F0B6CFD8015196ED9167
:10542000FC915297C8010995F8018685813009F0F1
:10543000AACF648575858A819B81680F791FC80111
:105440000E94512CA0CF6A817B81D8011D967C934C
:105450006E931C97640F751F9A01C8010E94F42275
:1054600092CFC8010E94F1288ECF0F931F93CF9344
:10547000DF9300D0CDB7DEB789839A830E94592588
:1054800089819A810E9431328C010E94A4270115E2
:10549000110569F4259A2D9A2FEF80E792E02150AB
:1054A00080409040E1F700C000001D9AF5CFC80190
:1054B0000F900F90DF91CF911F910F910895CF9290
:1054C000DF92EF92FF920F931F93CF93DF9300D061
:1054D00000D01F92CDB7DEB78C017B011D821C82EC
:1054E00090E0680188E0C80ED11C0FB6F8940F92C6
:1054F000F801228D838D281708F03FC0448D41119B
:105500000DC080819181892B09F5F80182819381F9
:105510000E94F325F8011382128219C050E0B701EE
:10552000F801848195810E946333F801248D848180
:105530009581820F911D9583848322813381821707
:10554000930720F0808191819583848380E0F80126
:10555000928D9F5F928F9189992349F0C80141965E
:105560000E942D26813029F40E94DE2602C081117E
:10557000FBCF0F900FBE81E055C02C813D81232BC6
:1055800019F40F900FBE4DC0911109C080914102D6
:10559000898380913F02909140029B838A830F9080
:1055A0000FBE0E9459250FB6F8940F92F801858D11
:1055B0008F3F09F4158EF801868D8F3F09F4168E02
:1055C0000F900FBEBE016C5F7F4FCE0101960E940F
:1055D0002425811121C00FB6F8940F92F801928D05
:1055E000838D0F900FBE981311C06C817D81C60111
:1055F0000E94B126C8010E946D260E94A42788231C
:1056000011F091E072CF0E94DE26FBCFC8010E940C
:105610006D260E94A427F5CFC8010E946D260E9426
:10562000A42780E00F900F900F900F900F90DF91C4
:10563000CF911F910F91FF90EF90DF90CF90089541
:105640005F926F927F928F929F92AF92BF92CF9212
:10565000DF92EF92FF920F931F93CF93DF9300D0CF
:1056600000D01F92CDB7DEB78C016B015D834C83F8
:1056700080E0580191E1A90EB11C99E0592E24E077
:10568000822E912C0FB6F8940F92F801928D9923E7
:1056900009F445C0448D4423B1F050E086819781E0
:1056A000840F951F97838683228133818217930706
:1056B00020F08081918197838683F80166817781CC
:1056C000C6010E946333F801828D8150828F8081F0
:1056D0009181892BA1F480919A0290919B02892B50
:1056E00039F0E0919A02F0919B0282A18F5F82A330
:1056F00080919A0290919B02F80193838283F80132
:105700008085882341F0C80108960E942D268130AB
:1057100011F40E94DE260F900FBE81E0ADC02C81F7
:105720003D81232B19F40F900FBEA5C0811109C034
:1057300080914102898380913F02909140029B8336
:105740008A830F900FBE0E9459250FB6F8940F92CE
:10575000F801858D8F3F09F4158EF801868D8F3FF6
:1057600009F4168E0F900FBEBE016C5F7F4FCE0105
:1057700001960E942425811179C00FB6F8940F92EA
:10578000F801828D0F900FBE81116AC080819181D6
:10579000892B09F054C00FB6F8940F92E280F38081
:1057A000E114F10409F449C0F7018689E0919A02F5
:1057B000F0919B029689891708F03FC0F701248574
:1057C000358537FD0BC0E0919A02F0919B029689D6
:1057D0009401291B3109F70135872487589EC001A0
:1057E00011248D589D4FF7012285338528173907DD
:1057F000E9F43701F2E06F0E711CC3010E946225CB
:10580000E0919A02F0919B029689F701968B809124
:105810009702891710F490939702599EC0011124A2
:10582000B3018D589D4F0E94D22507C0E0919A0286
:10583000F0919B028689F701868B0F900FBE6C81D9
:105840007D81C5010E94B126C8010E946D260E947B
:10585000A427882311F081E015CF0E94DE26FBCF1C
:10586000C8010E946D260E94A427F5CFC8010E949E
:105870006D260E94A42780E00F900F900F900F904C
:105880000F90DF91CF911F910F91FF90EF90DF90DC
:10589000CF90BF90AF909F908F907F906F905F90D0
:1058A0000895CF93DF9300D000D01F92CDB7DEB71D
:1058B0009C018091A0019091A101009761F0198253
:1058C0007B836A833D832C8320919902222329F0D4
:1058D00020919F0102C080E005C0BE016F5F7F4F35
:1058E0000E945F2A0F900F900F900F900F90DF9102
:1058F000CF910895789484B5826084BD84B5816029
:1059000084BD85B5826085BD85B5816085BD80918A
:105910006E00816080936E00109281008091810002
:1059200082608093810080918100816080938100FA
:10593000809180008160809380008091B1008460BC
:105940008093B1008091B00081608093B00080911D
:105950007A00846080937A0080917A0082608093DC
:105960007A0080917A00816080937A0080917A0039
:10597000806880937A001092C1000E946900E091D3
:10598000B201F091B30182E08083E091AE01F09129
:10599000AF0186E08083E091B001F091B10192E81F
:1059A00090831092BA01E091B601F091B701808323
:1059B000E091B401F091B501808180618083E09134
:1059C000B401F091B501808188608083E091B401D9
:1059D000F091B501808180688083E091B401F091FD
:1059E000B50180818F7D808383E080930001809169
:1059F0009D0190919E01892BC9F58FE190E00E9455
:105A0000352AEC01892B49F11B821A8219821882EE
:105A10001D821C821F821E821A8E81E08B8F1C8E3B
:105A20008FEF8D8F8E8FCE010B969A8789872FEF00
:105A30003FEF3C872B879E878D87988B8F871886B3
:105A400009969B8B8A8B3D8B2C8B9F8B8E8B998F92
:105A5000888F198ACE010E942E2FD0939E01C09369
:105A60009D01209719F0CE010E942E2F22E040E8E0
:105A700050E067E271E08DED9EE10E94782D21E01B
:105A800040E850E064E271E08DE59EE10E94782DEF
:105A90000E94D921FDCFE2EAF1E01382128288EE62
:105AA00093E0A0E0B0E084839583A683B7838BE086
:105AB00091E09183808385EC90E09587848784ECE6
:105AC00090E09787868780EC90E0918B808B81ECCB
:105AD00090E0938B828B82EC90E0958B848B86ECAC
