:100000000C94A7030C94CF030C94CF030C94CF0350
:100010000C94CF030C94CF030C94CF030C94CF0318
:100020000C94CF030C94CF030C9470150C94E21530
:100030000C94CF030C94CF030C94CF030C94CF03F8
:100040000C94CF030C94CF030C94CF030C94CF03E8
:100050000C94CF030C94CE1E0C94CF030C94BB1ABB
:100060000C94CF030C94CF030C94CF030C94CF03C8
:100070000C94CF030C94CF030C94CF030C94CF03B8
:100080000C941F180C94CF030C94CF030C94CF0343
:100090000C94CF030C94CF030C94CF030C94CF0398
:1000A0000C94CF030C94CF030C94CF03241927197D
:1000B00016191A1920194819481948192B192F19F6
:1000C000331939193D194819431913018032118028
:1000D00064260104B1020B14C0020800C10105C569
:1000E000024130C701C1EC011B3A8155642A04006A
:1000F00000007F2B040000009F3601C8B70100F20A
:100100000100E08F282422312B0E53A5421618122D
:100110001A140332E18F171B1D0E14112CA53D0973
:10012000272D252B3C3213800A2980FF4469650066
:10013000537461727400080B00020202010009048A
:100140000000010202000005240010010524010145
:10015000010424020605240600010705810310009E
:100160004009040100020A000000070502024000E5
:10017000000705830240000004030904417264750E
:10018000696E6F204C4C430041726475696E6F203C
:100190004573706C6F726100120100020000004034
:1001A00041233C8000010102030112010002EF0221
:1001B000014041233C8000010102030100000000D6
:1001C0002300260029002C002F000706050401004B
:1001D000080A0B0C0D0900000000240027002A006B
:1001E0002D00300000000000250028002B002E000C
:1001F000310004040404040304050202020204039F
:1002000002020202060606060606040402020204B0
:100210000404080201104080401020408040800803
:100220000204018040201002011080102040402074
:100230000000000200090F0000030401000C000090
:1002400000000000000000000000000000000000AE
:10025000000000003E5B4F5B3E3E6B4F6B3E1C3E22
:100260007C3E1C183C7E3C181C577D571C1C5E7F36
:100270005E1C00183C1800FFE7C3E7FF00182418B5
:1002800000FFE7DBE7FF30483A060E2629792926EA
:10029000407F050507407F05253F5A3CE73C5A7FD4
:1002A0003E1C1C08081C1C3E7F14227F22145F5F2A
:1002B000005F5F06097F017F006689956A60606064
:1002C000606094A2FFA29408047E040810207E209F
:1002D0001008082A1C08081C2A08081E10101010F4
:1002E0000C1E0C1E0C30383E3830060E3E0E06003A
:1002F0000000000000005F00000007000700147FFE
:10030000147F14242A7F2A12231308646236495664
:1003100020500008070300001C2241000041221C5D
:10032000002A1C7F1C2A08083E0808008070300044
:100330000808080808000060600020100804023E59
:100340005149453E00427F4000724949494621419A
:10035000494D331814127F1027454545393C4A4909
:100360004931412111090736494949364649492948
:100370001E00001400000040340000000814224158
:100380001414141414004122140802015909063EE1
:10039000415D594E7C1211127C7F494949363E41DC
:1003A0004141227F4141413E7F494949417F0909FD
:1003B00009013E414151737F0808087F00417F4198
:1003C000002040413F017F081422417F40404040CF
:1003D0007F021C027F7F0408107F3E4141413E7F27
:1003E000090909063E4151215E7F0919294626491E
:1003F00049493203017F01033F4040403F1F2040F5
:10040000201F3F4038403F631408146303047804FE
:10041000036159494D43007F4141410204081020C6
:10042000004141417F04020102044040404040003D
:100430000307080020545478407F28444438384447
:10044000444428384444287F385454541800087EC3
:10045000090218A4A49C787F0804047800447D4015
:10046000002040403D007F1028440000417F4000B4
:100470007C047804787C080404783844444438FCCC
:100480001824241818242418FC7C08040408485450
:1004900054542404043F44243C4040207C1C20400D
:1004A000201C3C4030403C44281028444C90909004
:1004B0007C4464544C44000836410000007700003E
:1004C000004136080002010204023C2623263C1E9D
:1004D000A1A161123A4040207A385454555921550F
:1004E0005579412154547841215554784020545530
:1004F00079400C1E5272123955555559395454547D
:100500005939555454580000457C410002457D42FC
:100510000001457C40F0292429F0F0282528F07CB2
:10052000545545002054547C547C0A097F49324973
:100530004949323248484832324A4848303A4141C3
:10054000217A3A42402078009DA0A07D394444445D
:10055000393D4040403D3C24FF2424487E494366C9
:100560002B2FFC2F2BFF0929F620C0887E090320A2
:10057000545479410000447D413048484A32384063
:1005800040227A007A0A0A727D0D19317D262929C6
:100590002F28262929292630484D402038080808C8
:1005A0000808080808382F10C8ACBA2F102834FAE9
:1005B00000007B000008142A142222142A1408AA1E
:1005C000005500AAAA55AA55AA000000FF00101065
:1005D00010FF00141414FF001010FF00FF1010F0A3
:1005E00010F0141414FC001414F700FF0000FF00B6
:1005F000FF1414F404FC141417101F10101F101F04
:100600001414141F00101010F0000000001F101030
:1006100010101F10101010F010000000FF1010102C
:10062000101010101010FF10000000FF140000FF49
:1006300000FF00001F10170000FC04F41414171032
:10064000171414F404F40000FF00F7141414141425
:100650001414F700F7141414171410101F101F149B
:100660001414F4141010F010F000001F101F0000FC
:10067000001F14000000FC140000F010F01010FF28
:1006800010FF141414FF141010101F00000000F0CD
:1006900010FFFFFFFFFFF0F0F0F0F0FFFFFF0000A2
:1006A000000000FFFF0F0F0F0F0F38444438447C49
:1006B0002A2A3E147E02020606027E027E0263554C
:1006C0004941633844443C04407E201E2006027E9B
:1006D000020299A5E7A5991C2A492A1C4C720172AD
:1006E0004C304A4D4D303048784830BC625A463D17
:1006F0003E494949007E0101017E2A2A2A2A2A44CC
:10070000445F444440514A444040444A5140000000
:10071000FF0103E080FF000008086B6B083612360B
:100720002436060F090F06000018180000001010EC
:10073000003040FF0101001F01011E00191D1712AA
:10074000003C3C3C3C00000000009425D6271124CE
:100750001FBECFEFDAE0DEBFCDBF12E0A0E0B1E018
:10076000ECE7FAE502C005900D92A831B107D9F780
:1007700023E0A8E1B2E001C01D92A139B207E1F780
:1007800013E0C6EAD3E004C02197FE010E94F627D9
:10079000C53AD107C9F70E944D260C94312D0C940F
:1007A0000000CF93DF9300D000D0CDB7DEB710921A
:1007B0003E0310923D0361E0809135030E94F519DC
:1007C00061E0809134030E94F5198091340390E038
:1007D000FC01EE50FE4FE491F0E0EE0FFF1FEC51F4
:1007E000FE4F259134913093310320933003FC0167
:1007F000EF5EFD4FE491E0933B038091350390E081
:10080000FC01EE50FE4FE491F0E0EE0FFF1FEC51C3
:10081000FE4F259134913093330320933203FC0132
:10082000EF5EFD4FE491E0933C0380912903882320
:1008300009F439C01FB7F89480916702811127C06D
:10084000E3E0F2E08491E2E2F2E09491E82FF0E05C
:10085000EE0FFF1FEA52FE4FA591B491EC91E923F0
:1008600021F461E081E10E94C51961E081E10E940B
:10087000F5198CB580618CBD8CB580648CBD61E050
:100880008FE00E94F51961E080E10E94F5198091E6
:1008900067028F5F809367021FBF80E580932A0302
:1008A00010922B0349C061E0809138030E94F51932
:1008B00061E0809137030E94F5198091380390E040
:1008C000FC01EE50FE4FE491F0E0EE0FFF1FEC5103
:1008D000FE4FA591B491B0932F03A0932E03FC017A
:1008E000EF5EFD4F849180933A032091370330E00F
:1008F000F901EE50FE4FE491F0E0EE0FFF1FEC51D6
:10090000FE4F4591549150932D0340932C03F901D0
:10091000EF5EFD4FE491E09339039C91E82FE09561
:10092000E923EC93E0912C03F0912D0390818091C9
:100930003903809589238083E0913003F09131035E
:10094000908180913B038095892380838091360339
:10095000882321F161E00E94F51961E0809136035E
:100960000E94C51964EF71E080E090E00E94811A56
:1009700060E0809136030E94C51964EF71E080E069
:1009800090E00E94811A61E0809136030E94C519AF
:1009900064EF71E080E090E00E94811AEAECF0E000
:1009A00014918BECA82E80E0B82E11114EC066E396
:1009B0008BE093E00E94452311E01093200368EA46
:1009C0008BE093E00E94072380EA90E09093140369
:1009D0008093130380E890E09093160380931503AF
:1009E000E0910B03F0910C030088F189E02D60E0A9
:1009F00070E08BE093E0099544EB64E188EC0E94A1
:100A0000381110931F0380912403882309F457C0E1
:100A100010922103809122039091230390931C0351
:100A200080931B0390931E0380931D031092180361
:100A30001092170310921A03109219036BE471E0DD
:100A40008BE093E00E94E5183AC0F50164918BE0D9
:100A500093E00E9445236501F2E0CF0ED11CF50121
:100A60003196E4910E2F0078EF77BE2E7601AE2EF0
:100A7000AA942FEFA21651F0F70164918BE093E056
:100A80000E940723FFEFEF1AFF0AF2CFC6018B0D7A
:100A9000911D5C01002389F07C019FEFE91AF90A9E
:100AA000F501649170E06F3F710511F464EF71E03E
:100AB00080E090E00E94811A5701115076CF82E0C9
:100AC00080931F03A0907202B0907302C0907002D6
:100AD000D090710200916C0210916D0220916E0213
:100AE00030916F021A8309838091680290916902A4
:100AF000A0916A02B0916B021C014FEF6FEF8FEF74
:100B00000E94381110921803109217038EE190E0A2
:100B100090931A0380931903B5018BE093E00E9430
:100B2000FD0F0FE510E084EF90E00E94AD1FE09014
:100B30007202F0907302AE14BF0461F140E060E015
:100B400080E00E94381110921803109217032EE1D2
:100B500030E030931A0320931903B5018BE093E042
:100B60000E94FD0F4FEF6FEF8FEF0E943811109230
:100B70001803109217038EE190E090931A0380936C
:100B80001903E0907202F0907302B7018BE093E0DA
:100B90000E94FD0FE0917002F0917102FC83EB83E3
:100BA000CE16DF0609F450C040E060E080E00E940D
:100BB0003811109218031092170321E430E030939B
:100BC0001A0320931903B6018BE093E00E94FD0FF6
:100BD000609113037091140347E350E087E390E0C2
:100BE0000E944A1180917002909171029C838B83C4
:100BF000C0901303D09014034FEF6FEF8FEF0E945C
:100C000038112B813C81D6010E94FC272FEF33E065
:100C100040E050E00E94AA2CCA01B90147E350E02D
:100C200087E390E00E944A11109218031092170374
:100C3000E1E4F0E0F0931A03E09319036B817C8107
:100C40008BE093E00E94FD0F80916C0290916D0209
:100C5000A0916E02B0916F0229813A81A901330FF0
:100C6000660B770B481759076A077B0709F46AC0B8
:100C700040E060E080E00E9438111092180310926A
:100C8000170310931A030093190369817A818BE08B
:100C900093E00E94FD0F60911303709114034AE5E5
:100CA00050E08AE590E00E944A1180906C0290909A
:100CB0006D02A0906E02B0906F029A828982C090FD
:100CC0001303D09014038091680290916902A0915F
:100CD0006A02B0916B024090680250906902609085
:100CE0006A0270906B02181619061A061B0644F069
:100CF0007094609450944094411C511C611C711C70
:100D00004FEF6FEF8FEF0E9438119401D6010E94D0
:100D1000FC27A30192010E94AA2CCA01B9014AE54D
:100D200050E08AE590E00E944A1110921803109258
:100D3000170310931A0300931903B4018BE093E097
:100D40000E94FD0F8091680290916902A0916A0251
:100D5000B0916B02A101032C000C660B770B4817B6
:100D600059076A077B0721F4CB80DC805701DBCE73
:100D700040E060E080E00E94381184E690E09093CB
:100D800018038093170310931A0300931903B101FA
:100D90008BE093E00E94FD0F8090680290906902C2
:100DA000A0906A02B0906B0214014FEF6FEF8FEFCB
:100DB0000E943811E4E6F0E0F0931803E093170383
:100DC00010931A0300931903B4018BE093E00E947F
:100DD000FD0FCACFCF93DF9300D0CDB7DEB7C12CC4
:100DE0003DE7D32EE12CF12C44E6442E512C612C0E
:100DF000712C55E0852E912CA12CB12C11E080EDA9
:100E000093E00E94AD1F64E170E080916C039091CB
:100E10006D030E940310813009F070C040E050E083
:100E20006FED71E085E493E00E94E41388EB92E0BB
:100E30000E94F2181816190674F588EB92E00E94C9
:100E40008119F82E682F88EB92E00E948018F982B1
:100E50001A82E0904903F0904A032FEFE21AF20A57
:100E6000B70185E493E00E94BD138823F9F2209135
:100E70004503309146038091490390914A03BE0196
:100E80006F5F7F4F820F931F0E94162AF0924A03D2
:100E9000E0924903CBCF8091490390914A03892B7B
:100EA000F9F0E0914503F091460380818823C1F079
:100EB00060E671E088EB92E00E94E518E091B802EC
:100EC000F091B9024091490350914A036091450362
:100ED000709146030280F381E02D88EB92E0099542
:100EE0008091450390914603009729F00E944A2B78
:100EF0006B017C0103C0C12CD12C760180916C0365
:100F000090916D030E94C70EC114D104E104F10455
:100F100009F475CFC0926802D0926902E0926A0229
:100F2000F0926B02F7FE08C0F094E094D094C09465
:100F3000C11CD11CE11CF11CC701B601A301920127
:100F40000E94AA2C2B30310514F02AE030E0809268
:100F50003F0290924002A0924102B0924202409120
:100F60003F02509140026091410270914202C901DA
:100F7000032E000CAA0BBB0B480F591F6A1F7B1FC7
:100F8000409343025093440260934502709346029B
:100F90004091430250914402609145027091460293
:100FA000480F591F6A1F7B1F409347025093480206
:100FB0006093490270934A0240914702509148025F
:100FC0006091490270914A02840F951FA61FB71FB6
:100FD00080934B0290934C02A0934D02B0934E022B
:100FE00040914B0250914C0260914D0270914E0223
:100FF000C901880F991F880F991F092E000CAA0B91
:10100000BB0B840F951FA61FB71F80934F029093B1
:101010005002A0935102B093520280914F029091DE
:101020005002A0915102B0915202A7019601281BD3
:10103000390B4A0B5B0B20935302309354024093BD
:1010400055025093560280914B0290914C02A09110
:101050004D02B0914E02A7019601281B390B4A0B95
:101060005B0B2093570230935802409359025093E0
:101070005A028091470290914802A0914902B09192
:101080004A02A7019601281B390B4A0B5B0B2093E0
:101090005B0230935C0240935D0250935E0280914C
:1010A000430290914402A0914502B0914602A701EB
:1010B0009601281B390B4A0B5B0B20935F02309380
:1010C0006002409361025093620280913F029091CE
:1010D0004002A0914102B0914202C81AD90AEA0A1C
:1010E000FB0AC0926302D0926402E0926502F09221
:1010F0006602F89410933E027894C12CD12C7601AC
:101100007ECE88EE91E00E94AD1FC0E088248A94D4
:10111000982C540169E170E080916C0390916D030B
:101120000E940310813031F46EE671E088EB92E0AA
:101130000E94E51860913C0270913D0288EB92E0BC
:101140000E94FD0F10923D0210923C0267E871E090
:1011500088EB92E00E94E518609172027091730230
:1011600088EB92E00E94FD0F61E971E088EB92E06C
:101170000E94E51860913A0270913B0288EB92E080
:101180000E94FD0F10923B0210923A0267E871E054
:1011900088EB92E00E94E518C0903602D0903702AA
:1011A000E0903802F0903902A7019601C701B6011C
:1011B0000E943229882319F06BEA71E01AC02601D7
:1011C0003701E89477F82FEF3FEF4FE75FE7C30170
:1011D000B2010E943229811111C02FEF3FEF4FE77A
:1011E0005FE7C301B2010E94862B18163CF46FEA38
:1011F00071E088EB92E00E9487187EC02FEF3FEFEE
:101200004FE75FE4C701B6010E942D2918161CF4B0
:1012100063EB71E0EECF2FEF3FEF4FE75FECC701DD
:10122000B6010E94862B87FDF3CF20E030E0A901B4
:10123000C701B6010E94862B87FF09C06DE288EBCB
:1012400092E00E948018F7FAF094F7F8F0942AE000
:1012500037ED43EA5BE3C701B6010E9420282B016A
:101260003C010E94FE286B017C010E948B2B9B019C
:10127000AC01C301B2010E941F282B013C012AE0EE
:10128000B701A60188EB92E00E949C1867EB71E021
:1012900088EB92E00E94871820E030E040E251E4C1
:1012A000C301B2010E94EC2B2B013C010E94FE28DD
:1012B0006B01E12CF12C2AE0B701A60188EB92E04A
:1012C0000E949C18C701B6010E948B2B9B01AC01A8
:1012D000C301B2010E941F2820E030E040E251E447
:1012E0000E94EC2B0E94FE28AB0160E070E02AE037
:1012F00088EB92E00E949C1869EB71E088EB92E029
:101300000E94E51840910001509101016091020195
:10131000709103012AE088EB92E00E949C1862EC35
:1013200071E088EB92E00E94E51840913202509102
:10133000330260913402709135022AE088EB92E02A
:101340000E949C186BEC71E088EB92E00E94E5181B
:1013500040916C0250916D0260916E0270916F022B
:1013600088EB92E00E94CB0F64ED71E088EB92E095
:101370000E94E51840912E0250912F026091300298
:101380007091310288EB92E00E94CB0F6DED71E01D
:1013900088EB92E00E948718CA3010F4CF5F1DC01E
:1013A0008092000190920101A0920201B09203018B
:1013B00010923202109233021092340210923502CF
:1013C00060EE71E088EB92E00E9487186DED71E0AD
:1013D00088EB92E00E948718C0E080916C039091A6
:1013E0006D030E94C70E80ED93E00E94AD1F92CE68
:1013F0000E945C1A2B013C010FB6F8940F92E0900A
:101400008E02F0908F020F900FBEDD24D394809156
:10141000800381110E94D11B0E94871B80918E0244
:1014200090918F0287010C5F1F4F8E159F0520F44E
:101430000E151F0548F404C00E151F0508F4B6C2AA
:101440008017910708F4B2C20E94D11E811102C018
:101450000E94561C0E945C1A4B015C01DC01CB010E
:1014600084199509A609B70940910001509101011D
:10147000609102017091030184179507A607B707D1
:1014800040F48093000190930101A0930201B09376
:101490000301409132025091330260913402709105
:1014A0003502481759076A077B0740F480933202D8
:1014B00090933302A0933402B093350280913E02A0
:1014C000882309F44BC010923E02809168029091EB
:1014D0006902A0916A02B0916B02181619061A06E9
:1014E0001B064CF48091680290916902A0916A02F7
:1014F000B0916B020FC08091680290916902A09137
:101500006A02B0916B02B095A095909581959F4F1E
:10151000AF4FBF4F80936C0290936D02A0936E0209
:10152000B0936F0260E088E00E94C5198091680264
:1015300090916902A0916A02B0916B02B7FF02C05C
:1015400060E001C061E083E00E94C51910922E02A4
:1015500010922F02109230021092310280916C0290
:1015600090916D02A0916E02B0916F02181619064B
:101570001A061B060CF005C240916C0250916D02D8
:1015800060916E0270916F0280913F0290914002D3
:10159000A0914102B0914202481759076A077B07A0
:1015A00014F4C6E0D0E040916C0250916D0260915D
:1015B0006E0270916F0280913F0290914002A09163
:1015C0004102B0914202481759076A077B07BCF0F5
:1015D00040916C0250916D0260916E0270916F02A9
:1015E0008091430290914402A0914502B09146023D
:1015F000481759076A077B0714F4C5E0D0E040910B
:101600006C0250916D0260916E0270916F02809138
:10161000430290914402A0914502B09146024817BE
:1016200059076A077B07BCF040916C0250916D022C
:1016300060916E0270916F02809147029091480212
:10164000A0914902B0914A02481759076A077B07DF
:1016500014F4C4E0D0E040916C0250916D026091AE
:101660006E0270916F028091470290914802A091A2
:101670004902B0914A02481759076A077B07BCF034
:1016800040916C0250916D0260916E0270916F02F8
:1016900080914B0290914C02A0914D02B0914E026C
:1016A000481759076A077B0714F4C3E0D0E040915C
:1016B0006C0250916D0260916E0270916F02809188
:1016C0004B0290914C02A0914D02B0914E024817EE
:1016D00059076A077B07BCF040916C0250916D027C
:1016E00060916E0270916F0280914F029091500252
:1016F000A0915102B0915202481759076A077B071F
:1017000014F4C2E0D0E040916C0250916D026091FF
:101710006E0270916F0280914F0290915002A091E1
:101720005102B0915202481759076A077B07BCF073
:1017300040916C0250916D0260916E0270916F0247
:101740008091530290915402A0915502B09156029B
:10175000481759076A077B0714F4C1E0D0E04091AD
:101760006C0250916D0260916E0270916F028091D7
:10177000530290915402A0915502B091560248171D
:1017800059076A077B07BCF040916C0250916D02CB
:1017900060916E0270916F02809157029091580291
:1017A000A0915902B0915A02481759076A077B075E
:1017B00014F4C2E0D0E040916C0250916D0260914F
:1017C0006E0270916F028091570290915802A09121
:1017D0005902B0915A02481759076A077B07BCF0B3
:1017E00040916C0250916D0260916E0270916F0297
:1017F00080915B0290915C02A0915D02B0915E02CB
:10180000481759076A077B0714F4C3E0D0E04091FA
:101810006C0250916D0260916E0270916F02809126
:101820005B0290915C02A0915D02B0915E0248174C
:1018300059076A077B07BCF040916C0250916D021A
:1018400060916E0270916F0280915F0290916002D0
:10185000A0916102B0916202481759076A077B079D
:1018600014F4C4E0D0E040916C0250916D0260919C
:101870006E0270916F0280915F0290916002A09160
:101880006102B0916202481759076A077B07BCF0F2
:1018900040916C0250916D0260916E0270916F02E6
:1018A0008091630290916402A0916502B0916602FA
:1018B000481759076A077B0714F4C5E0D0E0409148
:1018C0006C0250916D0260916E0270916F02809176
:1018D000630290916402A0916502B091660248177C
:1018E00059076A077B0714F0C6E0D0E060912E022A
:1018F00070912F0280913002909131029E010D2E45
:10190000000C440B550B0E94AA2C672B682B692BEB
:1019100029F561E086E00E94C51961E086E00E9439
:10192000C51960E086E00E94C5196D2D8DE00E940A
:10193000C51981E0D82680916C0290916D02A0912A
:101940006E02B0916F020197A109B10980936C02F8
:1019500090936D02A0936E02B0936F0280912E025D
:1019600090912F02A0913002B09131020196A11DF9
:10197000B11D80932E0290932F02A0933002B0935A
:10198000310280916C0290916D02A0916E02B09133
:101990006F02892B8A2B8B2B21F0780124013501D2
:1019A00036CD61E088E00E94C519F7CF8091B6027C
:1019B0009091B70202960E948D1BC8010E944F1B96
:1019C00043CDC4E6D0E055E0C52ED12CE12CF12C5E
:1019D00083E10E94311ABC01990F880B990B0E9478
:1019E0008D2B20E030E040EA5BE30E94EC2B2DECF5
:1019F0003CEC4CEC5EE30E941F2827E73EEB4FE9EE
:101A00005CE30E948C2860933602709337028093C7
:101A100038029093390280913A0290913B020196EC
:101A200090933B0280933A0281E00E94940E8823B7
:101A300099F08091680290916902A0916A02B09138
:101A40006B020196A11DB11D8093680290936902FB
:101A5000A0936A02B0936B0283E00E94940E8823E5
:101A600099F08091680290916902A0916A02B09108
:101A70006B020197A109B1098093680290936902F2
:101A8000A0936A02B0936B0282E00E94940E8111CF
:101A900000C184E00E94940E8111FBC08091680215
:101AA00090916902A0916A02B0916B021816190612
:101AB0001A061B060CF0F2C0809168029091690230
:101AC000A0916A02B0916B029C01C901BE010E9403
:101AD000E2276B30710514F06AE070E0C0923F02BB
:101AE000D0924002E0924102F092420280903F0286
:101AF00090904002A0904102B0904202CB01072E8C
:101B0000000CAA0BBB0B880E991EAA1EBB1E80924E
:101B1000430290924402A0924502B0924602809005
:101B2000430290904402A0904502B0904602880E75
:101B3000991EAA1EBB1E8092470290924802A09254
:101B40004902B0924A028090470290904802A090C9
:101B50004902B0904A02880D991DAA1DBB1D8093B1
:101B60004B0290934C02A0934D02B0934E02809092
:101B70004B0290904C02A0904D02B0904E02CB01CF
:101B8000880F991F880F991F092E000CAA0BBB0BF9
:101B9000880D991DAA1DBB1D80934F029093500282
:101BA000A0935102B0935202C901330FAA0BBB0B91
:101BB00040914F0250915002609151027091520237
:101BC0008C019D01041B150B260B370B0093530250
:101BD00010935402209355023093560240914B02C9
:101BE00050914C0260914D0270914E028C019D010A
:101BF000041B150B260B370B00935702109358024A
:101C00002093590230935A02409147025091480262
:101C10006091490270914A028C019D01041B150BD1
:101C2000260B370B00935B0210935C0220935D023E
:101C300030935E024091430250914402609145020C
:101C4000709146028C019D01041B150B260B370B6E
:101C500000935F021093600220936102309362024E
:101C600040913F02509140026091410270914202C6
:101C7000841B950BA60BB70B8093630290936402B1
:101C8000A0936502B0936602F89481E080933E02CF
:101C9000789484E190E00E94AD1F9ACE8091680212
:101CA00090916902A0916A02B0916B0222273327BA
:101CB000281B390B0ACFCFEFD3E082E10E94311A03
:101CC00066E088E093E00E94051B9C01A4EFB1E070
:101CD0000E94222DDC01CB012AE0B595A7959795AE
:101CE00087952A95D1F7BC016253710970937302ED
:101CF0006093720280913C0290913D020196909314
:101D00003D0280933C0264E088E093E00E94051B62
:101D10009E01281B390B30937102209370028AE0D8
:101D200090E00E94AD1FC9CF9FEF980F943008F448
:101D3000892F813159F020F48031E9F46CE012C030
:101D4000823131F08331B9F46BE003C06BE00AC03B
:101D50006CE088E093E00E94051B21E08C39914003
:101D6000A0F412C088E093E00E94051B21E08536B4
:101D7000924058F009C0682F88E093E00E94051B4C
:101D800021E08130924008F420E0822F0895CF9224
:101D9000DF92EF92FF920F931F93CF93DF9300D0C8
:101DA00000D01F92CDB7DEB78C011D821C82009738
:101DB00011F40E94D11BFC01848D8111FACF90E0B7
:101DC0007801F8E0EF0EF11C0FB6F8940F92F801CD
:101DD000228D838D281708F07BC0448D411148C0A7
:101DE00080819181892B09F05CC0F801E280F38049
:101DF000E114F10411F480E037C08091B6029091B3
:101E0000B702E816F906A9F6F70182A1882389F23C
:101E1000815082A3268991A1291769F38111EBCF03
:101E20006701F2E0CF0ED11CC6010E948D1BF701A5
:101E300091A1968B492F50E024E030E0241B350B14
:101E4000358724878091B502891710F49093B502E5
:101E500029E0249FC001259F900D1124B6018F56C3
:101E60009D4F0E94B01B81E0F801138212821AC0BC
:101E700050E060E070E0F801848195810E94062ABC
:101E8000F801248D84819581820F911D958384832F
:101E9000228133818217930720F08081918195837D
:101EA000848380E0F801928D9F5F928F91899923BE
:101EB00049F0C80141960E94EF1C813029F40E942C
:101EC000561C02C08111FBCF0F900FBE81E055C0A0
:101ED0002C813D81232B19F40F900FBE4DC0911121
:101EE00009C080919002898380918E0290918F0227
:101EF0009B838A830F900FBE0E94871B0FB6F894B6
:101F00000F92F801858D8F3F09F4158EF801868DAB
:101F10008F3F09F4168E0F900FBEBE016C5F7F4F8E
:101F2000CE0101960E94B71C811121C00FB6F89412
:101F30000F92F801928D0F900FBE838D981311C0F0
:101F40006C817D81C7010E94771DC8010E94331DED
:101F50000E94D11E882311F091E036CF0E94561CBA
:101F6000FBCFC8010E94331D0E94D11EF5CFC801CE
:101F70000E94331D0E94D11E80E00F900F900F90A1
:101F80000F900F90DF91CF911F910F91FF90EF90E5
:101F9000DF90CF900895CF92DF92EF92FF920F9350
:101FA0001F93CF93DF9377FF1DC06A017B01EC0184
:101FB0006DE20E9480188C0144275527BA014C1904
:101FC0005D096E097F092AE0CE010E949C18800FEE
:101FD000911FDF91CF911F910F91FF90EF90DF90B4
:101FE000CF9008952AE0DF91CF911F910F91FF903C
:101FF000EF90DF90CF900C949C18AB01770F660B9D
:10200000770B0C94CB0F6F927F929F92AF92BF92FF
:10201000CF92DF92EF92FF920F931F93CF93DF93B4
:1020200000D000D01F92CDB7DEB78C017D836C83CA
:10203000009711F40E94D11BFC01848D8111FACF0D
:1020400080E06801F1E1CF0ED11C99E0992E24E0E7
:10205000A22EB12C0FB6F8940F92F801928D99230D
:1020600009F446C0448D4423B9F050E0868197813D
:10207000840F951F9783868322813381821793076C
:1020800020F08081918197838683F8016681778132
:1020900080E090E00E94062AF801828D8150828FB4
:1020A00080819181892BA1F48091B6029091B70231
:1020B000892B39F0E091B602F091B70282A18F5FCF
:1020C00082A38091B6029091B702F8019383828334
:1020D000F8018085882341F0C80108960E94EF1C12
:1020E000813011F40E94561C0F900FBE81E0ADC0EC
:1020F0002C813D81232B19F40F900FBEA5C08111B7
:1021000009C080919002898380918E0290918F0204
:102110009B838A830F900FBE0E94871B0FB6F89493
:102120000F92F801858D8F3F09F4158EF801868D89
:102130008F3F09F4168E0F900FBEBE016C5F7F4F6C
:10214000CE0101960E94B71C811179C00FB6F89498
:102150000F92F801828D0F900FBE81116AC08081AD
:102160009181892B09F054C00FB6F8940F92E28048
:10217000F380E114F10409F449C0F7018689E09184
:10218000B602F091B7029689891708F03FC0F701AF
:102190002485358537FD0BC0E091B602F091B7027A
:1021A00096899501291B3109F70135872487989E67
:1021B000C00111248F569D4FF701228533852817C2
:1021C0003907E9F43701F2E06F0E711CC3010E9478
:1021D0008D1BE091B602F091B7022689F701268B9C
:1021E0008091B502821710F42093B502929EC0012F
:1021F0001124B3018F569D4F0E94B01B07C0E09180
:10220000B602F091B7028689F701868B0F900FBE58
:102210006C817D81C6010E94771DC8010E94331D1B
:102220000E94D11E882311F081E014CF0E94561C19
:10223000FBCFC8010E94331D0E94D11EF5CFC801FB
:102240000E94331D0E94D11E80E00F900F900F90CE
:102250000F900F90DF91CF911F910F91FF90EF9012
:10226000DF90CF90BF90AF909F907F906F90089538
:10227000242F462F682F8BE093E00E942220EBE072
:10228000F3E021E0218F908F878B918B808B938B54
:10229000828B0895EF92FF920F931F932091240356
:1022A000222309F444C0DA01AC0100912203109109
:1022B000230361157105B1F4E0910B03F0910C0358
:1022C0008A179B073CF49D01281B390B0084F1857C
:1022D000E02D16C09C012A1B3B0B0084F185E02DEC
:1022E000AD010EC08A179B07C9F4E0910B03F09172
:1022F0000C03161617063CF40284F385E02D9B01AF
:1023000060E070E007C022273327261B370B0284CA
:10231000F385E02D8BE093E0099509C078018D01EC
:102320009B0160E070E08BE093E00E942B221F9104
:102330000F91FF90EF9008950F931F93CF93DF932A
:102340008C01C0E0D0E0F801EC0FFD1F6491662322
:1023500071F0E091B802F091B9020190F081E02DA6
:1023600088EB92E00995892B11F02196ECCF6DED69
:1023700071E088EB92E00E9487188C0F9D1FDF911F
:10238000CF911F910F9108956F927F929F92AF927C
:10239000BF92CF92DF92EF92FF920F931F93CF9352
:1023A000DF935C01962EC72EEA01D22E892B11F401
:1023B0000E94D11B822F90E00497D4F7CA010E949B
:1023C0008C1F3C01892B09F48BC189E290E00E94AB
:1023D0008C1F7C010097D9F0DC0158967C926E929C
:1023E0005797AE0165EA70E0C3010E940F2A21975A
:1023F000D7015796ED91FC915897EC0FFD1FB7014F
:10240000675E7F4FA92DBC2DCD01089607C0C30183
:102410000E94471F65C1A817B90749F09D014D915A
:10242000EB014993BE01E90128812111F4CFD701C5
:1024300090961C928D2DB3E0BD1508F483E0E70162
:102440008E8B89A31AA21B861A861D8A1C8AF9867E
:10245000E88624E030E0A901481B51095D874C87DC
:10246000FB8AEA8A1BA21CA21DA21EA218A61FA2FA
:1024700091E19083DF01119782E28C93119723E31E
:102480002C931197AC921197BC9211971C921197B3
:1024900020E82C9311971C92119722E02C9311970E
:1024A00023E02C93119724E02C93119725E02C9393
:1024B000119726E02C93119727E02C93119728E091
:1024C0002C93119729E02C93119720E12C931197CD
:1024D0009C93119792E19C93119793E19C93119790
:1024E00094E19C93119795E19C93119796E19C93AD
:1024F000119797E19C93119798E19C93119799E11B
:102500009C93119790E29C93119791E29C93119761
:102510008C93119783E28C9311971C9211971C92C4
:10252000119786E28C93119787E28C93119788E23A
:102530008C93119789E28C93119780E38C93119778
:1025400081E38C93B697F983E8830115110519F09F
:10255000F801F182E0820FB6F8940F9280918D021B
:102560008F5F80938D028091B6029091B702892B84
:1025700009F07DC0F092B702E092B60280918D0220
:10258000813009F083C0E1E9F2E04FEF5FEF9F0196
:102590002D5F3F4F328321838FEF9FEF548343831F
:1025A00036832583308727831082399622E0E53BE6
:1025B000F20769F723E633E0309362032093610367
:1025C00090936403809363033093660320936503C1
:1025D0003093680320936703109260032AE533E089
:1025E000309359032093580390935B0380935A03CD
:1025F00030935D0320935C0330935F0320935E036D
:102600001092570326E832E030938502209384022B
:1026100090938702809386023093890220938802E8
:1026200030938B0220938A02109283022DE732E0CE
:1026300030937C0220937B0290937E0280937D02F4
:102640003093800220937F02309382022093810294
:1026500010927A0280E693E0909379028093780258
:1026600087E593E090937702809376020FC0809184
:102670008C0281110BC0E091B602F091B7028689FD
:10268000D81620F0F092B702E092B602809169036A
:102690008F5F80936903D70156968C919091B50214
:1026A000981710F48093B502B7016E5F7F4FB9E0C1
:1026B0008B9FC00111248F569D4F0E94B01B0F901D
:1026C0000FBE80918C02882349F0E091B602F09110
:1026D000B70286898D1510F40E94561C81E001C056
:1026E0008FEFDF91CF911F910F91FF90EF90DF90CF
:1026F000CF90BF90AF909F907F906F900895FC0116
:1027000080917502811103C08FEF9FEF08959FB7ED
:10271000F89482E08093E9002091F20030E01216F4
:10272000130614F421E030E02115310559F0289802
:1027300084E6809374028091F10080838091F2009E
:10274000882319F09FBFC90108958BE68093E800A4
:10275000F9CF80914F0381110DC082E080934B032C
:1027600084E080934C0310924E0310924D0381E05D
:1027700080934F038BE493E008950F931F93CF93BF
:10278000DF93EC0188819981009729F02A813B81B0
:102790002617370788F48B016F5F7F4F0E94372918
:1027A000009761F0998388831B830A832C813D8184
:1027B000232B11F4FC01108281E001C080E0DF9145
:1027C000CF911F910F910895EF92FF920F931F9356
:1027D000CF93DF93EC017B018A01BA010E94BD1304
:1027E0002881398181110DC02115310519F0C901E8
:1027F0000E94B22A198218821D821C821B821A82B0
:1028000006C01D830C83B701C9010E94162ACE01A0
:10281000DF91CF911F910F91FF90EF90089540911C
:102820007A0350917B03209178033091790342170A
:102830005307B4F49091E8009570E1F39091E800AB
:1028400092FD19C08093F10080917A0390917B03EF
:1028500001968F739927892B19F48EEF8093E800E6
:1028600080917A0390917B03019690937B038093F0
:102870007A0381E0089580E00895DF92EF92FF925D
:102880000F931F93CF93DF93D82E8A017B01E40E21
:10289000F51EEB01CE15DF0571F0D7FE03C0FE017A
:1028A000849101C088810E940F1421968111F2CF7A
:1028B0008FEF9FEF01C0C801DF91CF911F910F9162
:1028C000FF90EF90DF900895615030F02091F1007B
:1028D000FC0120830196F8CF289884E68093740247
:1028E0000895CF92DF92EF92FF920F931F93CF93B1
:1028F000DF936C017A018B01C0E0D0E0CE15DF05DB
:1029000089F0D8016D918D01D601ED91FC91019076
:10291000F081E02DC6010995892B11F47E0102C0DA
:102920002196ECCFC701DF91CF911F910F91FF90BE
:10293000EF90DF90CF900895CF93DF931F92CDB7A4
:10294000DEB76983DC01ED91FC910280F381E02D1B
:1029500041E050E0BE016F5F7F4F09950F90DF911E
:10296000CF9108950F931F93CF93DF931F92CDB70D
:10297000DEB782E0898342E450E066E371E080E8FC
:102980000E943D140E94A913DC0112960D911C9126
:1029900013970115110569F0D801ED91FC910280A2
:1029A000F381E02DBE016F5F7F4FC801099597FF4E
:1029B00007C089810F90DF91CF911F910F910895EA
:1029C000F80100851185E5CF8F929F92AF92BF925B
:1029D000CF92DF92EF92FF920F931F93CF93DF93EB
:1029E0005C016B018A0180910F01882309F45EC0AC
:1029F00080917502882309F459C080917E0380FF7D
:102A000005C08091E00082608093E000E8018AEFD9
:102A1000F82E93E0E92E2FE3822E3AE3932E2097AF
:102A200009F43DC08FB7F894E092E9009091E80076
:102A300095FF06C09091F200282D291B922F01C00E
:102A400090E08FBF91110AC0FA94FF2079F161E004
:102A500070E080E090E00E94811AE1CF292F30E001
:102A6000C217D3070CF49C2F8FB7F894E092E900BB
:102A70002091E80025FF11C0292F30E0C21BD30BA5
:102A8000F601915020F041914093F100FACFC20E2F
:102A9000D31E9091E80095FF13C08FBFC0CF5D9803
:102AA00084E680937F031016110644F081E090E0E5
:102AB000F5019383828380E090E005C0C80103C0E4
:102AC0009092E800EACFDF91CF911F910F91FF9094
:102AD000EF90DF90CF90BF90AF909F908F90089530
:102AE0001F920F920FB60F9211248F939F93809194
:102AF000E1009091E100937F9093E10083FF0FC08C
:102B00001092E90091E09093EB001092EC0092E3B8
:102B10009093ED001092750298E09093F00082FF80
:102B200020C093E09093E9009091F200992319F06E
:102B30009AE39093E80090917F03992339F0909164
:102B40007F03915090937F03992389F190917402B0
:102B5000992339F0909174029150909374029923C3
:102B600041F184FF10C08091E2008E7E81608093ED
:102B7000E2008091E1008F7E8093E10080917E03EE
:102B80008E7E806111C080FF16C08091E2008E7E33
:102B900080618093E2008091E1008E7E8093E1006D
:102BA00080917E038E7E816080937E0304C05D9A57
:102BB000CDCF289AD6CF9F918F910F900FBE0F90B7
:102BC0001F9018951F920F920FB60F921124CF925B
:102BD000DF92EF92FF920F931F932F933F934F93A8
:102BE0005F936F937F938F939F93AF93BF93EF9375
:102BF000FF93CF93DF93CDB7DEB76C97DEBFCDBF2A
:102C00001092E9008091E80083FFFAC168E0CE01EC
:102C100045960E94641482EF8093E8008D8987FFB7
:102C200005C09091E80090FFFCCF03C09EEF909309
:102C3000E800982F907609F0C6C09E892F89188DDC
:102C400091110CC0803829F480917D038093F100AC
:102C500002C01092F1001092F10047C1422F50E0E3
:102C6000512B913051F4811140C14130510509F08F
:102C70003CC180917D038D7F0BC0933061F4811145
:102C800034C14130510509F030C180917D0382602B
:102C900080937D032AC1953041F48091E80080FF44
:102CA000FCCF20682093E30020C1963009F05FC07C
:102CB000EB8CFC8C1092E90010927B0310927A034B
:102CC000123091F510927903109278030E94B21499
:102CD00099E0BE016F5F7F4FDB01E92F1D92EA95FE
:102CE000E9F799831A8391E09E8390EA98879AEF97
:102CF000998720917A0330917B03275F3F4F3C8374
:102D00002B838D831092E90010927B0310927A033B
:102D1000F0927903E092780349E050E080E00E946D
:102D20003D140E94B214E1C0F0927903E09278035E
:102D30000E94A913DC011296ED90FC901397E11408
:102D4000F10409F4C0C0D701ED91FC910480F58134
:102D5000E02DBE016B5E7F4FC7010995009719F00A
:102D60000CF0C3C0C6C0F701E084F184E8CF97300F
:102D700009F4BFC0983021F481E08093F100B5C020
:102D8000993009F0B2C0837009F0B3C0E5E4F1E016
:102D900081E021E036E39081992361F08093E9009E
:102DA0002093EB0091919093EC003093ED008F5FB6
:102DB000873089F78EE78093EA001092EA008F89C6
:102DC0008093750292C08B8D9C8D1092E9001092B9
:102DD0007B0310927A039093790380937803898D13
:102DE000811156C08E899D89913A59F4813209F03A
:102DF00080C047E050E068E071E080E00E943D1450
:102E000074C0913209F075C0833289F4888D90E0E6
:102E1000982F88272F89822BA0E0B0E080930401AF
:102E200090930501A0930601B09307015EC0803224
:102E300069F48091E80082FFFCCF67E088E091E0D0
:102E40000E9464148BEF8093E80006C0823209F080
:102E50004CC08F8980930F0180917C03882319F0E7
:102E6000EEEFFAE002C0E0E0F8E080910801909116
:102E70000901A0910A01B0910B01803B9440A1058A
:102E8000B10509F088C080910F0180FFA0C083C008
:102E90000E94A913DC0112960D911C911397011544
:102EA000110539F1D801ED91FC910190F081E02DEF
:102EB000BE016B5E7F4FC8010995811116C0F801F4
:102EC00000851185ECCF1130C1F0133091F48F895A
:102ED000882309F455C08230E9F440E86FE088E8BF
:102EE00091E00E941026882321F08EEF8093E80065
:102EF00087C081E28093EB0083C08B8D9C8D089707
:102F000011F41093770380917703811136C068E93B
:102F100071E038C0813029F440E86BE08CE791E043
:102F2000E0CF833031F70E94A913DC011296ED90B7
:102F3000FC9013978E010F5F1F4F6801E114F1049D
:102F400079F0D701ED91FC910680F781E02DB80171
:102F5000C7010995080F111DF701E084F184EECF38
:102F6000D8011C92F60101900020E9F73197BF01CA
:102F70006C197D0940E0C601B4CF6AEA71E002C075
:102F800068E771E06115710509F4B3CFFB01449165
:102F900050E080E833CF0FB6F894A8958091600098
:102FA000886180936000109260000FBEA895EE3F8C
:102FB0002AE0F20739F08091FE0A9091FF0A91838E
:102FC000808393CF1092FF0A1092FE0A8ECFEE3FBD
:102FD0008AE0F80731F0808191819093FF0A809315
:102FE000FE0A87E797E7918380839BE088E10FB62D
:102FF000F894A895809360000FBE9093600075CF01
:103000006C960FB6F894DEBF0FBECDBFDF91CF91A7
:10301000FF91EF91BF91AF919F918F917F916F91B0
:103020005F914F913F912F911F910F91FF90EF90E2
:10303000DF90CF900F900FBE0F901F9018951F92AA
:103040000F920FB60F9211242F933F938F939F935C
:10305000AF93BF93EF93FF938091730390917403A9
:10306000A0917503B0917603E0917003F091710324
:10307000892B8A2B8B2B31F18091720390818927C8
:1030800080838091730390917403A0917503B09134
:103090007603181619061A061B062CF58091730381
:1030A00090917403A0917503B09176030197A109E3
:1030B000B1098093730390937403A0937503B09345
:1030C000760311C0809171008D7F80937100909183
:1030D00072038081282F30E0892F90E080959095B1
:1030E000822393238083FF91EF91BF91AF919F91B2
:1030F0008F913F912F910F900FBE0F901F901895B9
:10310000DC01ED91FC910190F081E02D09946115B5
:10311000710579F0FB0101900020E9F73197AF01CB
:10312000461B570BDC01ED91FC910280F381E02DF1
:10313000099480E090E008954F925F926F927F92A1
:10314000EF92FF920F931F93CF93DF93CDB7DEB72C
:10315000A1970FB6F894DEBF0FBECDBF7C01FA0178
:10316000CB0119A2223008F42AE08E010F5D1F4F17
:10317000422E512C612C712CBF01A30192010E949F
:10318000002DF901CA01015011096A3014F4605D83
:1031900001C0695CD8016C93232B242B252B61F78C
:1031A000B801C7010E948718A1960FB6F894DEBF38
:1031B0000FBECDBFDF91CF911F910F91FF90EF9088
:1031C0007F906F905F904F9008950C94871883E0E4
:1031D0008093E9008091F200882319F08AE38093BC
:1031E000E8000895FC018485958597FD0BC09FB785
:1031F000F89482E08093E9008091F2009FBF90E014
:10320000019608959FB7F89482E08093E900809139
:10321000F2009FBF90E0089590E0FC013197EF30FD
:10322000F105B0F5EA5AFF4F0C94F6278091800023
:103230008F7703C0809180008F7D809380000895F8
:1032400080918000877FF9CF84B58F7702C084B5E5
:103250008F7D84BD0895809190008F7707C0809105
:1032600090008F7D03C080919000877F80939000B5
:1032700008958091C0008F7703C08091C0008F7D3A
:103280008093C00008958091C200877F8093C20020
:1032900008950F931F93CF93DF938C01FB018081DF
:1032A00091818F3F2FEF920721F4E801AF81B8851C
:1032B0000EC0D801139612962D913C911397E901F7
:1032C000488159818417950710F0D901F4CF1296DF
:1032D0008D919C91139793838283EC01FD83EC8302
:1032E000B583A4831396FC93EE93129711870087FE
:1032F000F80180818F5F8083DF91CF911F910F91C3
:103300000895CF93DF931F92CDB7DEB7FC0184857C
:10331000958597FD05C02FEF3FEF358724870BC0BC
:10332000CE0101960E947F13019719F4898190E0E4
:1033300002C08FEF9FEF0F90DF91CF9108950F9311
:103340001F93CF93DF931F92CDB7DEB78C01FC01A3
:103350008485958597FF0EC0CE0101960E947F134C
:10336000019719F4298130E002C02FEF3FEFF801F7
:1033700035872487F801848595850F90DF91CF915B
:103380001F910F9108950E94012A1F93CF93DF93FD
:10339000282F30E0F901E05DFD4F8491F901EF5EE7
:1033A000FD4FD491F901EE50FE4FC491CC23C9F0EA
:1033B000162F81110E940C19EC2FF0E0EE0FFF1F69
:1033C000EC51FE4FA591B4918FB7F894111105C03F
:1033D0009C91ED2FE095E92302C0EC91ED2BEC934D
:1033E0008FBFDF91CF911F910895CF93DF9390E02E
:1033F000FC01EF5EFD4F2491FC01EE50FE4F8491E5
:10340000882361F190E0880F991FFC01EA52FE4F7A
:10341000C591D491FC01EC51FE4FA591B49161117D
:1034200009C09FB7F8948881209582238883EC9106
:103430002E230BC0623061F49FB7F8943881822F3D
:10344000809583238883EC912E2B2C939FBF06C0FD
:103450008FB7F894E8812E2B28838FBFDF91CF910F
:103460000895823108F08251E82FF0E0E653FE4FD4
:10347000E49180917B00E3FB222720F930E095E086
:10348000220F331F9A95E1F78F7D282B20937B0025
:10349000E770E064E0937C0080917A008064809320
:1034A0007A0080917A0086FDFCCF8091780020918F
:1034B000790090E0922B08953FB7F89480918903AA
:1034C00090918A03A0918B03B0918C0326B5A89BA1
:1034D00005C02F3F19F00196A11DB11D3FBFBA2FA6
:1034E000A92F982F8827820F911DA11DB11DBC0106
:1034F000CD0142E0660F771F881F991F4A95D1F7CB
:1035000008958F929F92AF92BF92CF92DF92EF92E7
:10351000FF926B017C010E945C1A4B015C01C1149B
:10352000D104E104F104F1F00E945C1ADC01CB014A
:1035300088199909AA09BB09883E9340A105B105DC
:1035400070F321E0C21AD108E108F10888EE880E74
:1035500083E0981EA11CB11CC114D104E104F10444
:1035600019F7DDCFFF90EF90DF90CF90BF90AF9035
:103570009F908F9008951F920F920FB60F92112473
:103580002F933F938F939F93AF93BF938091850326
:1035900090918603A0918703B091880330918403B2
:1035A00023E0230F2D3720F40196A11DB11D05C086
:1035B00026E8230F0296A11DB11D2093840380935A
:1035C000850390938603A0938703B093880380912B
:1035D000890390918A03A0918B03B0918C0301968B
:1035E000A11DB11D8093890390938A03A0938B033F
:1035F000B0938C03BF91AF919F918F913F912F9189
:103600000F900FBE0F901F901895CF93DF93C62F8A
:10361000617082E10E94C519C1FB662760F983E1F0
:103620000E94C519C2FB662760F984E10E94C51992
:10363000C3FB662760F985E10E94C519CA3001F510
:1036400062E086E10E94F519E6E4F2E08491E7E2A7
:10365000F2E0D491E8E0F2E0C491CC23B1F0811122
:103660000E940C19EC2FF0E0EE0FFF1FE454FE4F08
:10367000A591B491EC91ED2341F0CFEFD3E007C0D9
:1036800086E1DF91CF910C94311AC0E0D0E060E088
:1036900086E10E94C519CE01DF91CF910895CF93A5
:1036A000DF93E091B602F091B70293838283209179
:1036B0008E0230918F028217930770F46091B602E8
:1036C0007091B70280917602909177026E5F7F4F82
:1036D000DF91CF910C944919EC016091B602709181
:1036E000B70280917802909179026E5F7F4F0E94BD
:1036F000491980916A0390916B03C817D90720F488
:10370000D0936B03C0936A03DF91CF9108958091AA
:1037100080038F5F809380030895CF93DF93FC0134
:10372000A085B1858281938124813581EC013D831F
:103730002C83C481D5819B838A8311968D919C9122
:1037400012978E179F0721F41296DC93CE93119750
:10375000118610868C9181508C93DF91CF910895C2
:10376000CF93DF939C01FB01DC011196CD91DC919D
:103770001297D383C2838C819D81958384838C81AE
:103780009D81DC0113967C936E9312977D836C83ED
:1037900031872087F90180818F5F8083DF91CF910E
:1037A000089581E090E00E94D52210928303E09179
:1037B000B602F091B7020788F08DE02D80819181EB
:1037C000A281B381853A954AA54AB54AE9F4848134
:1037D0009581A681B781853A954AA54AB54AA1F453
:1037E00080859185A285B385853A954AA54AB54AD3
:1037F00059F484859585A685B785853A954AA54A65
:10380000B54A11F499E011C08091B6029091B702C7
:103810008091B6029091B70283E090E00E94D52299
:103820008091B50281508093B502E091B5029E9FD0
:10383000F0011124EF56FD4F8081811106C0809167
:10384000B5028111EDCF0E94D11B8091B50290E0AD
:1038500049E0489F9001499F300D1124F901EF562E
:10386000FD4FA181B28112960D90BC91A02DB28323
:10387000A1832C563D4FA217B30731F412962D9118
:103880003C9113973283218329E0289FF001299FDF
:10389000F00D1124EF56FD4F0180F281E02D86815D
:1038A00097819093B7028093B60208950F920FB656
:1038B000F8940F921F9211242F923F924F925F9291
:1038C0006F927F928F929F92AF92BF92CF92DF9230
:1038D000EF92FF920F931F932F933F934F935F931A
:1038E0006F937F938F939F93AF93BF93CF93DF9308
:1038F000EF93FF93A091B602B091B7020DB60D926F
:103900000EB60D9280918003882321F081E0809390
:10391000830302C00E94D51BA091B602B091B702EA
:10392000CD91CDBFDD91DEBFFF91EF91DF91CF91C2
:10393000BF91AF919F918F917F916F915F914F91C7
:103940003F912F911F910F91FF90EF90DF90CF90BB
:10395000BF90AF909F908F907F906F905F904F90AF
:103960003F902F901F900F900FBE0F900895FC0175
:10397000892B11F40E94D11B61157105D9F30FB683
:10398000F8940F9240918E0250918F0230919002E4
:10399000208181819281321719F048175907D8F494
:1039A000DB012D913C91DA01A81BB90BA217B307DB
:1039B00090F4841B950B820F931FDB018D939C93D6
:1039C00080919002808380918E0290918F029283E9
:1039D000818380E001C081E00F900FBE08950F93B6
:1039E0001F93CF93DF93DC011596ED91FC91169711
:1039F000C681D781209711F40E94D11B8E01045FEC
:103A00001F4FC8010E948D1B80918003811114C03B
:103A10000A501109C8010E948D1B9E898091B50230
:103A2000891710F49093B502B9E09B9FC00111244F
:103A3000B8018F569D4F03C0B80183E892E00E9401
:103A4000B01BE091B602F091B7029E898689891772
:103A500020F481E08093830301C080E0DF91CF9167
:103A60001F910F910895FF920F931F93CF93DF93B0
:103A7000EC010FB6F8940F928C010F5E1F4FFF24DC
:103A8000F3949E8D19166CF48989882351F0C8012E
:103A90000E94EF1C8111F09283039E8D91509E8FA6
:103AA000F0CF8FEF8E8F0F900FBE0FB6F8940F925E
:103AB0008E01085F1F4FFF24F3949D8D19166CF43F
:103AC0008885882351F0C8010E94EF1C8111F09273
:103AD00083039D8D91509D8FF0CF8FEF8D8F0F9031
:103AE0000FBEDF91CF911F910F91FF900895CF935B
:103AF000DF93EB01009711F40E94D11B2091B602D5
:103B00003091B702B901645F7F4F0E9449198091DB
:103B1000B6029091B70202960E948D1B80918E0290
:103B200090918F028C0F9D1FDF91CF910C944F1BB2
:103B3000CF92DF92EF92FF920F931F93CF93DF9379
:103B4000809180038111B1C080918E0290918F028B
:103B5000019690938F0280938E02E0908E02F090F7
:103B60008F02E114F104B9F5E0917802F091790245
:103B7000808181110E94D11B8091780290917902FD
:103B80002091760230917702309379022093780267
:103B90009093770280937602809190028F5F80935A
:103BA0009002E0917802F09179028081811103C046
:103BB0008FEF9FEF0CC0E0917802F09179020580C1
:103BC000F681E02D0680F781E02D8281938190932C
:103BD0006B0380936A0380916A0390916B03C0E04A
:103BE000E816F90608F44FC0D9E0E0917802F091A8
:103BF00079028081811103C08FEF9FEF11C0E091A6
:103C00007802F09179020580F681E02D0681178116
:103C1000D80112968D919C911397E816F90628F415
:103C200090936B0380936A032EC06801B2E0CB0EC1
:103C3000D11CC6010E948D1BF80184899589892BAE
:103C400021F0C8010C960E948D1BD80156969C91BC
:103C50008091B502891710F49093B502D99FC001E5
:103C60001124B6018F569D4F0E94B01BE091B60201
:103C7000F091B702D80156969C918689981708F45E
:103C8000B4CFC1E0B2CFE091B602F091B702E689BD
:103C9000B9E0EB9FF0011124EF56FD4F8081823097
:103CA00008F0C1E08091810306C0809181038F5F9D
:103CB00080938103C0E0809183038111C1E08C2F48
:103CC000DF91CF911F910F91FF90EF90DF90CF90F8
:103CD00008950F920FB6F8940F921F9211242F920D
:103CE0003F924F925F926F927F928F929F92AF928C
:103CF000BF92CF92DF92EF92FF920F931F932F9379
:103D00003F934F935F936F937F938F939F93AF9363
:103D1000BF93CF93DF93EF93FF93A091B602B0913F
:103D2000B7020DB60D920EB60D920E94981D882313
:103D300051F080918003882321F081E080938303F8
:103D400002C00E94D51BA091B602B091B702CD91DE
:103D5000CDBFDD91DEBFFF91EF91DF91CF91BF919C
:103D6000AF919F918F917F916F915F914F913F9113
:103D70002F911F910F91FF90EF90DF90CF90BF9008
:103D8000AF909F908F907F906F905F904F903F90FB
:103D90002F901F900F900FBE0F9008950E94691EE4
:103DA0001895EF92FF920F931F93CF93DF9380911B
:103DB0008003811102C00E94D11B0FB6F8940F92AC
:103DC00080918003815080938003809180038823B9
:103DD00011F080E053C080918D028823D1F389E0F7
:103DE000F82EEE24E39480918302882351F1E09130
:103DF0008802F0918902C681D781CE010C960E947B
:103E00008D1B8E010E5F1F4FC8010E948D1B9E8966
:103E10008091B502891710F49093B502F99EC00104
:103E20001124B8018F569D4F0E94B01BE091B6023D
:103E3000F091B7029E8986899817A8F2E0928303D1
:103E4000D2CF80918103811109C080918303813099
:103E500009F0BFCF0E94561C81E010C0C1E08091E4
:103E60008103882391F30E94981D8111C0938303DD
:103E700080918103815080938103F1CF0F900FBE19
:103E8000DF91CF911F910F91FF90EF900895CF9305
:103E9000DF93009751F0EC010E94871BCE010E9436
:103EA000B22ADF91CF910C94D11EDF91CF9108956A
:103EB00080918203882349F10E94871BC0917A0276
:103EC0000E94D11ECC23A1F30FB6F8940F92E0917B
:103ED0007F02F0918002C681D781CE0102960E94B6
:103EE0008D1B80918D02815080938D028091820381
:103EF0008150809382030F900FBE8F89988D0E940E
:103F0000471FCE010E94471FD3CF8091910282307C
:103F100078F20E94561CCCCF0F931F93CF93DF9360
:103F200000D0CDB7DEB789839A830E94871B898131
:103F30009A810E941D2A8C010E94D11E0115110533
:103F400021F482E090E00E94D522C8010F900F90EA
:103F5000DF91CF911F910F910895CF93DF93EC01E3
:103F6000892B19F40E94561C1BC08091800381117B
:103F70000E94D11B0E94871B20918E0230918F02DC
:103F8000C20FD31F8091B6029091B70202960E9491
:103F90008D1BCE010E944F1B0E94D11E882311F35E
:103FA000DF91CF910895EF92FF920F931F93DC0161
:103FB000ED91FC9111971A960D911C911B971896F3
:103FC0002D913C9119970684F785E02D7B0140E007
:103FD00050E060E070E009951F910F91FF90EF9025
:103FE0000895FC01868D882339F06EBD00000DB464
:103FF00007FEFDCF8EB5089528E030E090E8A1A13E
:10400000B2A186A5492F462319F04C91842B03C0F9
:104010004C91809584238C93A3A1B4A14C9187A546
:10402000842B8C93A3A1B4A14C9187A58095842364
:104030008C9396952150310911F7089508958CBD00
:104040009DBD08954C7F38E0439FC001112430E0AE
:1040500043E0359527954A95E1F7822B932B687FAE
:10406000962B089508952F923F924F925F926F92F0
:104070007F928F929F92AF92BF92CF92DF92EF92F8
:10408000FF920F931F93CF93DF93CDB7DEB72D979A
:104090000FB6F894DEBF0FBECDBFFC016A3069F4E5
:1040A00024898685978538E0239F800D911D1124F2
:1040B0009787868715861486E4C06D3009F4E1C0C1
:1040C0009D878C8754895983828993899D838C83AA
:1040D000A089B189BF83AE8386849784C484D58444
:1040E00080859185C816D906BCF0EC85FD8544898C
:1040F000242F30E084859585F6E04F9F800D911D3B
:104100001124AC85BD851D969C938E931C97569665
:104110004C91411192C0B5C0EC85FD858285938597
:104120008816990614F7F981AF2EB12CC60126E046
:10413000F29F800D911D112418161906B4F6C501C1
:1041400023E0880F991F2A95E1F7880D991D18160D
:1041500019065CF655E0659FB001112416011A821C
:10416000CB018C199D0999878887D4011896BB8744
:10417000AA87BA81B53049F0E885F985E20DF31DCB
:10418000E15BFD4F24912B8301C01B82240134018C
:104190003B8130FF13C0AC85BD85ED91FC91B981A9
:1041A000B13031F40480F581E02D2E813F8119C0BA
:1041B0000684F785E02DEE80FF801EC0EC81FD8136
:1041C0002E813F81E217F307F1F0AC85BD85ED91BB
:1041D000FC91B981B13059F40480F581E02D2C8136
:1041E0003D81A301B1018C859D8509950CC0068494
:1041F000F785E02DEC80FD8085019501A201B601D7
:104200008C859D850995EB81E695EB83FFEF6F1A11
:104210007F0A4A0C5B1C2A853B856216730609F0EF
:10422000B7CF3A813F5F3A835FEF251A350ACA0C50
:10423000DB1C363009F09DCF58CF4AEF4203B00166
:10424000439F700D1124AC85BD8518964D915C91EE
:104250001997460F571F481759079CF483E0220F00
:10426000331F8A95E1F71E968D919C911F97280F19
:10427000391F1F963C932E931E971D961C921E92DB
:104280001C9781E090E02D960FB6F894DEBF0FBE2C
:10429000CDBFDF91CF911F910F91FF90EF90DF90F5
:1042A000CF90BF90AF909F908F907F906F905F90D6
:1042B0004F903F902F900895EF92FF920F931F938E
:1042C000DC01ED91FC9111971A960D911C911B97B1
:1042D00018962D913C9119970684F785E02D7B0166
:1042E00040E050E060E070E009951F910F91FF9071
:1042F000EF9008956F927F928F929F92AF92BF92AC
:10430000CF92DF92EF92FF920F931F93CF93DF93A1
:104310006C015A014801EB013B01620E731EC61588
:10432000D70574F4D601ED91FC910084F185E02D60
:1043300087019401A501BE01C60109952196EFCF21
:10434000DF91CF911F910F91FF90EF90DF90CF9071
:10435000BF90AF909F908F907F906F900895EF9255
:10436000FF920F931F93DC01ED91FC91260F371FF5
:10437000215031090680F781E02D78018A010995E5
:104380001F910F91FF90EF900895EF92FF920F937E
:104390001F937801DC01ED91FC91240F351F8901F9
:1043A000015011090680F781E02D9B0109951F91AD
:1043B0000F91FF90EF9008956F927F928F929F924E
:1043C000AF92BF92CF92DF92EF92FF920F931F9323
:1043D000CF93DF93EC014B015A0169013801E88169
:1043E000F9810284F385E02D87010995E881F9813F
:1043F000A501460D571D415051090284F385E02D5A
:104400009601B401CE010995E881F9810084F18516
:10441000E02D9301A501B401CE010995E881F98150
:10442000C80CD91CB601615071090084F185E02DDA
:104430009301A501CE010995DF91CF911F910F91B5
:10444000FF90EF90DF90CF90BF90AF909F908F90B4
:104450007F906F9008952F923F924F925F926F924C
:104460007F928F929F92AF92BF92CF92DF92EF9204
:10447000FF920F931F93CF93DF9300D01F92CDB77E
:10448000DEB74C017B836A836A01590117019801E9
:10449000241B350B37FF03C0319521953109C50128
:1044A0004A815B81841B950B97FF03C09195819591
:1044B000910951E059838217930714F019820BC0B8
:1044C0009A2D8B2D5801092F182F9A818B81DB8211
:1044D000CA82C92ED82E8A819B81A816B9065CF49F
:1044E0009C2D8D2D6801092F182F9A818B81BB82FD
:1044F000AA82A92EB82E2501AA81BB814A1A5B0A7D
:1045000038016C187D0877FE03C0719461947108BE
:10451000720157FE03C0BFEFEB1AFB0AF594E79454
:10452000C016D1061CF00FEF1FEF1FC001E010E016
:104530001CC0D401ED91FC91B9810480F581E02D7E
:104540009101BB23C1F04A815B81B601C401099589
:10455000E618F708F7FE04C0C00ED11EE40CF51CE7
:10456000EA81FB813196FB83EA834A815B81A41651
:10457000B506FCF604C0A6016A817B81E7CF0F90E7
:104580000F900F90DF91CF911F910F91FF90EF90BF
:10459000DF90CF90BF90AF909F908F907F906F9063
:1045A0005F904F903F902F9008958C01F89461E0B8
:1045B0008DE00E94F519C0E0D0E0C017D107E4F407
:1045C00061E08DE00E94C51980E899EAA3E0B0E0BF
:1045D00000000197A109B109D9F760E08DE00E94C0
:1045E000C51980E899EAA3E0B0E000000197A109AD
:1045F000B109D9F72196E1CF40E05AE668E170E0D1
:1046000000004150510961097109D1F7D4CF0F93CE
:104610001F93CF93DF931F92CDB7DEB78C01DC01E0
:104620005E968C915E97882341F05F968D919C9168
:10463000909769830E941F206981D8019796ED9118
:10464000FC9198979081D1968C91D197892B8083FA
:104650009596ED91FC9196979081D0968C9180954E
:1046600089238083C8010E94F11FD8019596ED919E
:10467000FC9196979081D0968C91892B80830F9096
:10468000DF91CF911F910F9108950F931F93CF93B7
:10469000DF931F92CDB7DEB78C01DC015E968C9163
:1046A0005E97882341F05F968D919C9190976983E6
:1046B0000E941F206981D8019796ED91FC919897EF
:1046C0009081D1968C91D1978095892380839596FE
:1046D000ED91FC9196979081D0968C91809589234D
:1046E0008083C8010E94F11FD8019596ED91FC913D
:1046F00096979081D0968C91892B80830F90DF9133
:10470000CF911F910F910895611102C060E201C025
:1047100061E20C944523EF92FF920F931F93CF9386
:10472000DF9300D0CDB7DEB77C01162F6AE2298374
:104730004A830E94452360E0C7010E940723F701D6
:1047400082A9612F680FC7010E94072360E0C7019B
:104750000E940723F70182A92981622F680FC701F0
:104760000E9407236BE2C7010E94452360E0C70156
:104770000E940723F70183A94A81642F680FC701AC
:104780000E94072360E0C7010E940723F70183A965
:10479000602F680FC7010E9407236CE2C7010F90CA
:1047A0000F90DF91CF911F910F91FF90EF900C949C
:1047B0004523AF92BF92CF92DF92EF92FF920F9379
:1047C0001F93CF93DF93EC01590168012885398548
:1047D000621773070CF066C08A859B8548175907D6
:1047E0000CF060C0FB01EA0DFB1D2E173F071CF407
:1047F0005901A61AB70A9A012C0D3D1D821793077D
:104800001CF46C01C41AD50A8D8D823091F4970185
:10481000207E3770C701982F8827990F990F990F1D
:10482000822B932BEF2CFF24E694E694E694E82A5F
:10483000F92A0FEF040F0C0D2FEF260F2A0DCE01D2
:104840000E948B238E8D882321F08F8D98A10E944A
:104850001F20EFA1F8A5908189A9892B8083EDA164
:10486000FEA1908188A98095892380831C141D0452
:104870009CF48501101611065CF46F2DCE010E9488
:10488000F11F6E2DCE010E94F11F01501109F2CFD0
:1048900081E0C81AD108EACFEDA1FEA1908188A9D4
:1048A000892B8083DF91CF911F910F91FF90EF9023
:1048B000DF90CF90BF90AF900895CF92DF92EF92AC
:1048C000FF920F931F93CF93DF93EC01690178015F
:1048D00088859985681779070CF054C02A853B852F
:1048E000421753070CF04EC09B012C0D3D1D821743
:1048F00093071CF46C01C61AD70A2FEF260F2C0D54
:10490000042FCE010E948B238D8D823091F497016C
:10491000207E3770C701982F8827990F990F990F1C
:10492000822B932BEF2CFF24E694E694E694E82A5E
:10493000F92A8E8D882321F08F8D98A10E941F2047
:10494000EFA1F8A5908189A9892B8083EDA1FEA113
:10495000908188A9809589238083C114D10461F056
:104960006F2DCE010E94F11F6E2DCE010E94F11F0E
:1049700081E0C81AD108F1CFEDA1FEA1908188A9EC
:10498000892B8083DF91CF911F910F91FF90EF9042
:10499000DF90CF900895CF92DF92EF92FF920F9326
:1049A0001F93CF93DF93EC01690178018885998586
:1049B000681779070CF055C08A859B8548175907F9
:1049C0000CF04FC09A012C0D3D1D821793071CF46B
:1049D0006C01C41AD50A0FEF040F0C0D262FCE015F
:1049E0000E948B238D8D823091F49701207E377049
:1049F000C701982F8827990F990F990F822B932B16
:104A0000EF2CFF24E694E694E694E82AF92A0F2D89
:104A10008E8D882321F08F8D98A10E941F20EFA1F9
:104A2000F8A5908189A9892B8083EDA1FEA19081B1
:104A300088A9809589238083C114D10461F0602FF7
:104A4000CE010E94F11F6E2DCE010E94F11F81E068
:104A5000C81AD108F1CFEDA1FEA1908188A9892BB8
:104A60008083DF91CF911F910F91FF90EF90DF90A6
:104A7000CF900895EF92FF920F93CF93DF93EC01C5
:104A8000790177FD4BC088859985681779070CF007
:104A900045C057FD43C08A859B8548175907F4F5E3
:104AA00001E0040F21E0260FCE010E948B238E8DA2
:104AB000882321F08F8D98A10E941F20EFA1F8A5D7
:104AC000908189A9892B8083EDA1FEA1908188A97D
:104AD0008095892380838D8D823091F49701207E8B
:104AE0003770C701982F8827990F990F990F822B3C
:104AF000932BEF2CFF24E694E694E694E82AF92A17
:104B00006F2DCE010E94F11F6E2DCE010E94F11F6C
:104B1000EDA1FEA1908188A9892B8083DF91CF919F
:104B20000F91FF90EF900895CF93DF93E8EBF2E0C1
:104B30001382128288EE93E0A0E0B0E08483958334
:104B4000A683B7838EE191E091838083CFEFDFEF7F
:104B5000D587C48761E082E10E94F51961E083E1B5
:104B60000E94F51961E084E10E94F51961E085E198
:104B70000E94F51961E085E00E94F51961E08AE084
:104B80000E94F51961E089E00E94F519EBE0F3E07D
:104B90001382128220E830E03583248340EA50E01B
:104BA00057834683158A158614861786168681E0F4
:104BB000848BD38BC28BD18BC08B868B90E5978FE8
:104BC00010A297E091A712A683A7868F15A614A618
:104BD0008EE291E0918380835187408733872287DB
:104BE000E5E4F3E0118210821382128215821482AE
:104BF00048E050E066EE71E0CF010E94E413EFE37D
:104C0000F3E011821082138212821582148243E033
:104C100050E06FEE71E0CF01DF91CF910C94E4137F
:104C2000CF92DF92EF92FF920F931F93CF93DF9378
:104C30001F92CDB7DEB7182F062FE42E862F880FD0
:104C40008E5F99830E940F1483E00E940F14F12E4F
:104C5000C12E9981D92E8C2D8F19801798F4F601C9
:104C6000E7FE02C0849101C080810E940F14182FBA
:104C700080E00E940F148123FFEFCF1ADF0A811119
:104C8000EACF01C081E00F90DF91CF911F910F918A
:104C9000FF90EF90DF90CF900895789484B5826074
:104CA00084BD84B5816084BD85B5826085BD85B5D0
:104CB000816085BD80916E00816080936E0010924E
:104CC00081008091810082608093810080918100C9
:104CD000816080938100809180008160809380005A
:104CE0008091910082608093910080919100816019
:104CF00080939100809190008160809390008091DA
:104D0000C10084608093C1008091C1008260809363
:104D1000C1008091C10081608093C1008091C30077
:104D200081608093C3008091C00082608093C00046
:104D30008091C20081608093C20080917A0084607B
:104D400080937A0080917A00826080937A008091CB
:104D50007A00816080937A0080917A0080688093E5
:104D60007A001092750210927D0310927E0380915A
:104D7000D70081608093D70080EA8093D80089B5FE
:104D8000806189BD89B5826089BD09B400FEFDCF0F
:104D900061E070E080E090E00E94811A8091D8008C
:104DA0008F7C80618093D8008091E000807F809329
:104DB000E0008091E1008E7E8093E1008DE08093A1
:104DC000E200559A209AEEEFFFE7859194918B3F90
:104DD0009C4D19F481E080937C030FEF1FEF10933B
:104DE000C5020093C40261E08DE00E94F51961E004
:104DF00088E00E94F51961E088E00E94C51961E031
:104E000083E00E94F51961E086E00E94F519809127
:104E10006C0390916D03892BB9F58FE190E00E94AE
:104E20008C1FEC01892B39F11B821A82198218829E
:104E30001D821C821F821E821A8E81E08B8F1C8E27
:104E40008FEF8D8F8E8FCE010B969A8789871C8767
:104E50000B879E878D87988B8F87188609969B8BEB
:104E60008A8B1D8B0C8B9F8B8E8B998F888F198AC9
:104E7000CE010E94C70ED0936D03C0936C032097A0
:104E800019F0CE010E94C70E00E010E022E044E6D7
:104E900050E063EF71E08BE59EE00E94C41122E0D8
:104EA00044E650E066EF71E081EE9CE00E94C411A0
:104EB00023E048EC50E069EF71E088EF99E00E9450
:104EC000C41121E04CE251E060E072E081E898E03A
:104ED0000E94C41121E04CE251E066E072E081EDF5
:104EE00093E00E94C41121E048EC50E06CE072E0D5
:104EF0008AEE96E00E94C41180E391E00E949C112A
:104F00000EE613E020E044E650E062E172E088E55E
:104F10009FE10E94C411813009F03FC0F8942FEF47
:104F20003FEF30936B0320936A0380938C021092BF
:104F30008F0210928E0287BD80916E0082608093F6
:104F40006E00A091B602B091B702CD91CDBFDD91B8
:104F5000DEBFFF91EF91DF91CF91BF91AF919F9114
:104F60008F917F916F915F914F913F912F911F9101
:104F70000F91FF90EF90DF90CF90BF90AF909F90F8
:104F80008F907F906F905F904F903F902F901F90E9
:104F90000F900FBE0F90089504C0811102C00E94AF
:104FA000D11B8CE291E00E949C11FFCF80913F03C6
:104FB000909140030E94B22A80914503909146034C
:104FC0000C94B22A97FB072E16F4009407D077FDB5
:104FD00009D00E940B2807FC05D03EF490958195DE
:104FE0009F4F0895709561957F4F0895EE0FFF1FB5
:104FF0000590F491E02D09940E94222D332312F4A0
:105000008A1B9B0B0C9406280E94222DB7FF089543
:10501000821B930B0895AA1BBB1B51E107C0AA1F5B
:10502000BB1FA617B70710F0A61BB70B881F991F49
:105030005A95A9F780959095BC01CD0108955058D7
:10504000BB27AA270E9437280C94702C0E94622C40
:1050500038F00E94692C20F039F49F3F19F426F4AF
:105060000C945F2C0EF4E095E7FB0C94592CE92F7F
:105070000E94812C58F3BA176207730784079507BB
:1050800020F079F4A6F50C94A32C0EF4E0950B2EE9
:10509000BA2FA02D0B01B90190010C01CA01A0018A
:1050A0001124FF27591B99F0593F50F4503E68F1E5
:1050B0001A16F040A22F232F342F4427585FF3CF26
:1050C000469537952795A795F0405395C9F77EF4F7
:1050D0001F16BA0B620B730B840BBAF09150A1F040
:1050E000FF0FBB1F661F771F881FC2F70EC0BA0FC6
:1050F000621F731F841F48F4879577956795B7954E
:10510000F7959E3F08F0B0CF9395880F08F0992748
:10511000EE0F9795879508950E94A0280C94702C07
:105120000E94692C58F00E94622C40F029F45F3FE5
:1051300029F00C94592C51110C94A42C0C945F2C34
:105140000E94812C68F39923B1F3552391F3951BA9
:10515000550BBB27AA2762177307840738F09F5F98
:105160005F4F220F331F441FAA1FA9F335D00E2E05
:105170003AF0E0E832D091505040E695001CCAF772
:105180002BD0FE2F29D0660F771F881FBB1F261735
:1051900037074807AB07B0E809F0BB0B802DBF010C
:1051A000FF2793585F4F3AF09E3F510578F00C94DB
:1051B000592C0C94A42C5F3FE4F3983ED4F38695CD
:1051C00077956795B795F7959F5FC9F7880F911DFC
:1051D0009695879597F90895E1E0660F771F881FE8
:1051E000BB1F621773078407BA0720F0621B730B9B
:1051F000840BBA0BEE1F88F7E09508950E94892C66
:1052000088F09F5798F0B92F9927B751B0F0E1F087
:10521000660F771F881F991F1AF0BA95C9F714C037
:10522000B13091F00E94A32CB1E008950C94A32C0E
:10523000672F782F8827B85F39F0B93FCCF3869570
:1052400077956795B395D9F73EF4909580957095CD
:1052500061957F4F8F4F9F4F08950E94C82B08F490
:105260008FEF08950E94C82B880B990B0895A0E03A
:10527000B0E0EDE3F9E20C94CD2CEC01009721F4C1
:10528000CB010E941D2AB8C0FC01E60FF71F9C014C
:1052900022503109E217F30708F4ACC0D9010D918F
:1052A0001C91119706171707B0F00530110508F487
:1052B0009FC0C80104978617970708F499C0025049
:1052C0001109061B170B019311936D937C93CF016A
:1052D0000E94B22A8DC05B01A01AB10A4C01800E57
:1052E000911EA0918F03B091900340E050E0E12C1B
:1052F000F12C109709F44AC0A815B905D1F56D90A5
:105300007C901197630182E0C80ED11CCA14DB04A3
:1053100080F1A3014A195B096A0182E0C80ED11C21
:105320001296BC9012971396AC91B5E0CB16D104AF
:1053300040F0B282A38351834083D9016D937C9363
:105340000AC00E5F1F4FC301800F911FF9019183A7
:105350008083EB2DFA2FE114F10431F0D70113967D
:10536000FC93EE93129744C0F0939003E0938F0365
:105370003FC08D919C9111974817590708F4AC01D3
:105380007D0112960D90BC91A02DB3CF80918D031D
:1053900090918E0388159905E1F446175707C8F4D4
:1053A0008091100190911101009741F48DB79EB743
:1053B0004091140150911501841B950BE817F907D2
:1053C000C8F4F0938E03E0938D03F9017183608339
:1053D0000FC0CB010E941D2A7C01009759F0A80143
:1053E000BE010E94062ACE010E94B22AC70104C053
:1053F000CE0102C080E090E0CDB7DEB7EEE00C94C5
:10540000E92C81E090E0F8940C94312DFB01DC0153
:1054100002C001900D9241505040D8F70895DC0130
:1054200001C06D9341505040E0F70895FB01DC014D
:1054300001900D920020E1F70895CF93DF93823021
:10544000910510F482E090E0E0918F03F0919003D9
:1054500020E030E0C0E0D0E0309711F14081518190
:1054600048175907C0F04817590761F482819381A2
:10547000209719F09B838A832BC09093900380938D
:105480008F0326C02115310519F04217530718F470
:105490009A01BE01DF01EF010280F381E02DDCCF34
:1054A0002115310509F1281B390B2430310590F401
:1054B00012968D919C9113976115710521F0FB0156
:1054C0009383828304C09093900380938F03FD01A4
:1054D000329644C0FD01E20FF31F81939193225055
:1054E00031092D933C933AC020918D0330918E0366
:1054F000232B41F4209112013091130130938E033C
:1055000020938D0320911001309111012115310557
:1055100041F42DB73EB74091140150911501241B61
:10552000350BE0918D03F0918E03E217F307A0F4A1
:105530002E1B3F0B2817390778F0AC014E5F5F4FE9
:105540002417350748F04E0F5F1F50938E0340938A
:105550008D038193919302C0E0E0F0E0CF01DF91F1
:10556000CF9108950F931F93CF93DF93009709F482
:105570008CC0FC0132971382128200918F0310912C
:1055800090030115110581F420813181820F931F51
:1055900020918D0330918E032817390779F5F09308
:1055A0008E03E0938D0371C0D80140E050E0AE1748
:1055B000BF0750F412962D913C911397AD01211520
:1055C000310509F1D901F3CF9D01DA01338322833B
:1055D00060817181860F971F8217930769F4EC0130
:1055E00028813981260F371F2E5F3F4F318320835B
:1055F0008A819B8193838283452B29F4F0939003C6
:10560000E0938F0342C01396FC93EE931297ED0143
:10561000499159919E01240F351FE217F30771F448
:1056200080819181840F951F029611969C938E9391
:105630008281938113969C938E931297E0E0F0E021
:10564000D80112968D919C911397009719F0F8014B
:105650008C01F6CF8D919C9198012E5F3F4F820F68
:10566000931F20918D0330918E032817390769F419
:10567000309729F41092900310928F0302C0138286
:10568000128210938E0300938D03DF91CF911F91AF
:105690000F9108951F93FC0199278827BC01E89476
:1056A00011911032E9F3193010F01E30C8F31B329B
:1056B00051F01D3249F4689406C00E94712B610FAD
:1056C000711D811D911D119110531A30B0F33EF4DC
:1056D00090958095709561957F4F8F4F9F4F1F914B
:1056E0000895592F482F372F262F660F771F881FB1
:1056F000991F660F771F881F991F620F731F841FE2
:10570000951F660F771F881F991F08950E94C82B49
:1057100008F481E00895E89409C097FB3EF4909561
:105720008095709561957F4F8F4F9F4F9923A9F07A
:10573000F92F96E9BB279395F69587957795679509
:10574000B795F111F8CFFAF4BB0F11F460FF1BC04D
:105750006F5F7F4F8F4F9F4F16C0882311F096E9E0
:1057600011C0772321F09EE8872F762F05C066238E
:1057700071F096E8862F70E060E02AF09A95660F47
:10578000771F881FDAF7880F9695879597F9089500
:10579000990F0008550FAA0BE0E8FEEF1616170642
:1057A000E807F907C0F012161306E407F50798F0AA
:1057B000621B730B840B950B39F40A2661F0232BC3
:1057C000242B252B21F408950A2609F4A140A6953F
:1057D0008FEF811D811D08950E94FF2B0C94702C6A
:1057E0000E94622C38F00E94692C20F0952311F061
:1057F0000C94592C0C945F2C11240C94A42C0E9412
:10580000812C70F3959FC1F3950F50E0551F629F57
:10581000F001729FBB27F00DB11D639FAA27F00D09
:10582000B11DAA1F649F6627B00DA11D661F829F30
:105830002227B00DA11D621F739FB00DA11D621F15
:10584000839FA00D611D221F749F3327A00D611D32
:10585000231F849F600D211D822F762F6A2F112414
:105860009F5750409AF0F1F088234AF0EE0FFF1F47
:10587000BB1F661F771F881F91505040A9F79E3F9E
:10588000510580F00C94592C0C94A42C5F3FE4F348
:10589000983ED4F3869577956795B795F795E795F4
:1058A0009F5FC1F7FE2B880F911D9695879597F9FD
:1058B000089597F99F6780E870E060E008959FEF92
:1058C00080EC089500240A94161617061806090697
:1058D000089500240A941216130614060506089566
:1058E000092E0394000C11F4882352F0BB0F40F4EE
:1058F000BF2B11F460FF04C06F5F7F4F8F4F9F4F2E
:10590000089557FD9058440F551F59F05F3F71F0AF
:105910004795880F97FB991F61F09F3F79F0879516
:105920000895121613061406551FF2CF4695F1DF9F
:1059300008C0161617061806991FF1CF869571052F
:10594000610508940895E894BB2766277727CB0163
:1059500097F90895052E97FB1EF400940E94C12C20
:1059600057FD07D00E94002D07FC03D04EF40C9485
:10597000C12C50954095309521953F4F4F4F5F4F2B
:10598000089590958095709561957F4F8F4F9F4FAB
:1059900008952F923F924F925F926F927F928F92D3
:1059A0009F92AF92BF92CF92DF92EF92FF920F93AE
:1059B0001F93CF93DF93CDB7DEB7CA1BDB0B0FB6B8
:1059C000F894DEBF0FBECDBF09942A883988488875
:1059D0005F846E847D848C849B84AA84B984C8840B
:1059E000DF80EE80FD800C811B81AA81B981CE0F02
:1059F000D11D0FB6F894DEBF0FBECDBFED010895E7
:105A0000A1E21A2EAA1BBB1BFD010DC0AA1FBB1FC2
:105A1000EE1FFF1FA217B307E407F50720F0A21B34
:105A2000B30BE40BF50B661F771F881F991F1A94A1
:105A300069F760957095809590959B01AC01BD01CB
:105A4000CF010895A29FB001B39FC001A39F700D25
:105A5000811D1124911DB29F700D811D1124911D76
:105A6000089513E0C6EAD3E004C0FE010E94F627C1
:0C5A70002196C73AD107C9F7F894FFCF80
:105A7C00FFFFFFFFFFFFFFFF00E100000000000041
:105A8C0000009103800001000000000000009C1445
:105A9C00E414F21881199F19E71800000000332054
:105AAC0071143A252B22CB245D24DC21D923D31F5E
:105ABC008423222000C1808100000054656D702E6B
:105ACC0020696E2067726164692043203A0A2000C5
