:100000000C9463000C948B000C948B000C948B006C
:100010000C948B000C948B000C948B000C948B0034
:100020000C948B000C948B000C948B000C948B0024
:100030000C948B000C948B000C9474070C948B0024
:100040000C9472020C948B000C94FE010C94D80159
:100050000C948B000C948B000C948B000C948B00F4
:100060000C948B000C948B0044696500537461728E
:10007000740000000000240027002A000000000097
:10008000250028002B0004040404040404040202D4
:100090000202020203030303030301020408102007
:1000A0004080010204081020010204081020000012
:1000B0000008000201000003040700000000000027
:1000C0000000C312BD1211241FBECFEFD8E0DEBF67
:1000D000CDBF11E0A0E0B1E0E8E7F0E302C0059099
:1000E0000D92A03CB107D9F722E0A0ECB1E001C02D
:1000F0001D92AA3FB207E1F710E0C2E6D0E004C0CB
:100100002197FE010E946713C136D107C9F70E94EB
:1001100078110C942F180C940000CF92DF92EF927C
:10012000FF920F931F93CF93DF936C017A018B01A2
:10013000C0E0D0E0CE15DF0589F0D8016D918D01CA
:10014000D601ED91FC910190F081E02DC601099559
:10015000892B11F47E0102C02196ECCFC701DF91FB
:10016000CF911F910F91FF90EF90DF90CF90089566
:10017000FC01918D828D981761F0828DDF01A80FAF
:10018000B11D5D968C91928D9F5F9F73928F90E0D1
:1001900008958FEF9FEF0895FC01918D828D981740
:1001A00031F0828DE80FF11D858D90E008958FEF7D
:1001B0009FEF0895FC01918D228D892F90E0805C46
:1001C0009F4F821B91098F739927089580E492E0D5
:1001D0000E94DA0021E0892B09F420E0822F0895A3
:1001E000FC01848DDF01A80FB11DA35ABF4F2C91D4
:1001F000848D90E001968F739927848FA689B789A3
:100200002C93A089B1898C9180648C93938D848D7B
:10021000981306C00288F389E02D80818F7D80834A
:100220000895EF92FF920F931F93CF93DF93EC010A
:1002300081E0888F9B8D8C8D981305C0E889F989A2
:10024000808185FD24C0F62E0B8D10E00F5F1F4FBF
:100250000F731127E02E8C8DE8120CC00FB607FC2F
:10026000FACFE889F989808185FFF5CFCE010E9418
:10027000F000F1CF8B8DFE01E80FF11DE35AFF4F27
:10028000F0820B8FEA89FB898081806207C0EE894A
:10029000FF896083E889F98980818064808381E0B7
:1002A00090E0DF91CF911F910F91FF90EF90089513
:1002B000CF93DF93EC01888D8823C9F0EA89FB890D
:1002C000808185FD05C0A889B9898C9186FD0FC004
:1002D0000FB607FCF5CF808185FFF2CFA889B989D9
:1002E0008C9185FFEDCFCE010E94F000E7CFDF912A
:1002F000CF91089580E090E0892B29F00E94E600DC
:1003000081110C94000008950E944F150F931F93C4
:10031000CF93DF93EC0188819981009729F02A819E
:100320003B812617370788F48B016F5F7F4F0E9450
:100330008514009761F0998388831B830A832C813D
:100340003D81232B11F4FC01108281E001C080E08B
:10035000DF91CF911F910F910895EF92FF920F932C
:100360001F93CF93DF93EC017B018A01BA010E94B6
:1003700086012881398181110DC02115310519F0BF
:10038000C9010E940016198218821D821C821B82DC
:100390001A8206C01D830C83B701C9010E9464152F
:1003A000CE01DF91CF911F910F91FF90EF900895B3
:1003B0001F920F920FB60F9211242F933F934F93DA
:1003C0005F936F937F938F939F93AF93BF93EF93BD
:1003D000FF9380E492E00E94F000FF91EF91BF91C3
:1003E000AF919F918F917F916F915F914F913F91CD
:1003F0002F910F900FBE0F901F9018951F920F9284
:100400000FB60F9211242F938F939F93EF93FF9327
:10041000E0915002F09151028081E0915602F091FA
:10042000570282FD12C09081809159028F5F8F73B5
:1004300020915A02821751F0E0915902F0E0E05CFD
:10044000FD4F958F8093590201C08081FF91EF91FC
:100450009F918F912F910F900FBE0F901F90189525
:100460008E3008F08E5087702091000190E4299F13
:1004700090011124822B80937C0080917A0080640B
:1004800080937A0080917A0086FDFCCF809178007D
:100490002091790090E0922B08953FB7F8948091D5
:1004A000CB019091CC01A091CD01B091CE0126B5A8
:1004B000A89B05C02F3F19F00196A11DB11D3FBF9C
:1004C000BA2FA92F982F8827820F911DA11DB11D2A
:1004D000BC01CD0142E0660F771F881F991F4A9526
:1004E000D1F708951F920F920FB60F9211242F93F8
:1004F0003F938F939F93AF93BF938091C701909148
:10050000C801A091C901B091CA013091C60123E090
:10051000230F2D3720F40196A11DB11D05C026E83B
:10052000230F0296A11DB11D2093C6018093C70120
:100530009093C801A093C901B093CA018091CB01E7
:100540009091CC01A091CD01B091CE010196A11D59
:10055000B11D8093CB019093CC01A093CD01B093BA
:10056000CE01BF91AF919F918F913F912F910F90AD
:100570000FBE0F901F9018951092C101E0913D029F
:10058000F0913E020788F08DE02D80819181A2815B
:10059000B381853A954AA54AB54AE9F484819581A3
:1005A000A681B781853A954AA54AB54AA1F48085C6
:1005B0009185A285B385853A954AA54AB54A59F4ED
:1005C00084859585A685B785853A954AA54AB54A15
:1005D00011F499E011C080913D0290913E0280910A
:1005E0003D0290913E0283E090E00E946508809178
:1005F0003B02815080933B02E0913B029E9FF001C1
:100600001124E95EFD4F8081811106C080913B027B
:100610008111EDCF0E94B40880913B0290E049E047
:10062000489F9001499F300D1124F901E95EFD4F6B
:10063000A181B28112960D90BC91A02DB283A183AD
:10064000265E3D4FA217B30731F412962D913C91CF
:1006500013973283218329E0289FF001299FF00D11
:100660001124E95EFD4F0180F281E02D86819781A2
:1006700090933E0280933D020895CF93DF93E091E3
:100680003D02F0913E02938382832091FE013091DE
:10069000FF018217930770F460913D0270913E0252
:1006A00080910102909102026E5F7F4FDF91CF91A6
:1006B0000C94FB07EC0160913D0270913E02809129
:1006C0000302909104026E5F7F4F0E94FB078091AE
:1006D000CF019091D001C817D90720F4D093D00151
:1006E000C093CF01DF91CF910895FC01892B11F4C4
:1006F0000E94B40861157105D9F30FB6F8940F92F2
:100700004091FE015091FF013091000220818181D2
:100710009281321719F048175907D8F4DB012D914F
:100720003C91DA01A81BB90BA217B30790F4841B04
:10073000950B820F931FDB018D939C938091000298
:1007400080838091FE019091FF019283818380E0FC
:1007500001C081E00F900FBE08950F931F93CF93B8
:10076000DF93DC011596ED91FC911697C681D78138
:10077000209711F40E94B4088E01045F1F4FC80136
:100780000E94D8078091C001811114C00A5011093C
:10079000C8010E94D8079E8980913B02891710F4F6
:1007A00090933B02B9E09B9FC0011124B801895E80
:1007B0009D4F03C0B8018EE092E00E943308E091A3
:1007C0003D02F0913E029E898689891720F481E0DE
:1007D0008093C10101C080E0DF91CF911F910F9103
:1007E0000895CF93DF93EB01009711F40E94B408B2
:1007F00020913D0230913E02B901645F7F4F0E941B
:10080000FB0780913D0290913E0202960E94D8071C
:100810008091FE019091FF018C0F9D1FDF91CF9180
:100820000C943D03CF92DF92EF92FF920F931F93B0
:10083000CF93DF938091C0018111B1C08091FE01FF
:100840009091FF0101969093FF018093FE01E0904B
:10085000FE01F090FF01E114F104B9F5E09103020B
:10086000F0910402808181110E94B40880910302FA
:10087000909104022091010230910202309304020F
:100880002093030290930202809301028091000260
:100890008F5F80930002E0910302F0910402808157
:1008A000811103C08FEF9FEF0CC0E0910302F09124
:1008B00004020580F681E02D0680F781E02D82811B
:1008C00093819093D0018093CF018091CF0190913B
:1008D000D001C0E0E816F90608F44FC0D9E0E09175
:1008E0000302F09104028081811103C08FEF9FEF1A
:1008F00011C0E0910302F09104020580F681E02D21
:1009000006811781D80112968D919C911397E81654
:10091000F90628F49093D0018093CF012EC068018E
:10092000B2E0CB0ED11CC6010E94D807F801848921
:100930009589892B21F0C8010C960E94D807D8010F
:1009400056969C9180913B02891710F490933B023C
:10095000D99FC0011124B601895E9D4F0E943308C2
:10096000E0913D02F0913E02D80156969C91868915
:10097000981708F4B4CFC1E0B2CFE0913D02F091F6
:100980003E02E689B9E0EB9FF0011124E95EFD4FDC
:100990008081823008F0C1E08091C40106C080915E
:1009A000C4018F5F8093C401C0E08091C1018111B7
:1009B000C1E08C2FDF91CF911F910F91FF90EF90AD
:1009C000DF90CF900895EF92FF920F931F93CF93F4
:1009D000DF938091C001811102C00E94B4080FB65C
:1009E000F8940F928091C00181508093C001809152
:1009F000C001882311F080E053C080913F0288231A
:100A0000D1F389E0F82EEE24E39480910E0288233E
:100A100051F1E0911302F0911402C681D781CE0109
:100A20000C960E94D8078E010E5F1F4FC8010E94CE
:100A3000D8079E8980913B02891710F490933B025E
:100A4000F99EC0011124B801895E9D4F0E943308B0
:100A5000E0913D02F0913E029E8986899817A8F2A6
:100A6000E092C101D2CF8091C401811109C080916F
:100A7000C101813009F0BFCF0E94770781E010C02B
:100A8000C1E08091C401882391F30E941204811176
:100A9000C093C1018091C40181508093C401F1CF02
:100AA0000F900FBEDF91CF911F910F91FF90EF90AC
:100AB00008956F927F929F92AF92BF92CF92DF92F2
:100AC000EF92FF920F931F93CF93DF9300D000D04C
:100AD0001F92CDB7DEB78C018AE090E09D838C83B6
:100AE0000115110511F40E94B408F801848D8111DB
:100AF000FACF80E06801F1E1CF0ED11C99E0992E88
:100B000024E0A22EB12C0FB6F8940F92F801928D2A
:100B1000992309F446C0448D4423B9F050E08681FE
:100B20009781840F951F9783868322813381821753
:100B3000930720F08081918197838683F8016681F5
:100B4000778180E090E00E945415F801828D8150F9
:100B5000828F80819181892BA1F480913D029091B7
:100B60003E02892B39F0E0913D02F0913E0282A1D4
:100B70008F5F82A380913D0290913E02F8019383A2
:100B80008283F8018085882341F0C80108960E947D
:100B9000AD03813011F40E9477070F900FBE81E002
:100BA000ADC02C813D81232B19F40F900FBEA5C041
:100BB000811109C08091000289838091FE0190918A
:100BC000FF019B838A830F900FBE0E942A070FB6F6
:100BD000F8940F92F801858D8F3F09F4158EF80176
:100BE000868D8F3F09F4168E0F900FBEBE016C5F8D
:100BF0007F4FCE0101960E947503811179C00FB617
:100C0000F8940F92F801828D0F900FBE81116AC087
:100C100080819181892B09F054C00FB6F8940F920E
:100C2000E280F380E114F10409F449C0F7018689F8
:100C3000E0913D02F0913E029689891708F03FC08D
:100C4000F7012485358537FD0BC0E0913D02F09119
:100C50003E0296899501291B3109F70135872487C2
:100C6000989EC0011124895E9D4FF701228533852E
:100C700028173907E9F43701F2E06F0E711CC30140
:100C80000E94D807E0913D02F0913E022689F701CB
:100C9000268B80913B02821710F420933B02929E98
:100CA000C0011124B301895E9D4F0E94330807C023
:100CB000E0913D02F0913E028689F701868B0F900C
:100CC0000FBE6C817D81C6010E94F103C8010E94A4
:100CD00030070E94E304882311F081E014CF0E94C2
:100CE0007707FBCFC8010E9430070E94E304F5CFCD
:100CF000C8010E9430070E94E30480E00F900F902B
:100D00000F900F900F90DF91CF911F910F91FF9057
:100D1000EF90DF90CF90BF90AF909F907F906F90BB
:100D200008958091C501882349F10E942A07C09146
:100D300005020E94E304CC23A1F30FB6F8940F92AE
:100D4000E0910A02F0910B02C681D781CE01029692
:100D50000E94D80780913F02815080933F0280918A
:100D6000C50181508093C5010F900FBE8F89988D6A
:100D70000E945408CE010E945408D3CF80911702DC
:100D8000823078F20E947707CCCF0F920FB6F8949A
:100D90000F921F9211242F923F924F925F926F9267
:100DA0007F928F929F92AF92BF92CF92DF92EF92FB
:100DB000FF920F931F932F933F934F935F936F93E4
:100DC0007F938F939F93AF93BF93CF93DF93EF93D3
:100DD000FF93A0913D02B0913E020DB60D920EB66A
:100DE0000D920E941204882351F08091C001882343
:100DF00021F081E08093C10102C00E94BC02A09159
:100E00003D02B0913E02CD91CDBFDD91DEBFFF919D
:100E1000EF91DF91CF91BF91AF919F918F917F9192
:100E20006F915F914F913F912F911F910F91FF9083
:100E3000EF90DF90CF90BF90AF909F908F907F907A
:100E40006F905F904F903F902F901F900F900FBE2C
:100E50000F9008958091C0018F5F8093C001089525
:100E6000FF920F931F93CF93DF93EC010FB6F8948B
:100E70000F928C010F5E1F4FFF24F3949E8D191665
:100E80006CF48989882351F0C8010E94AD03811157
:100E9000F092C1019E8D91509E8FF0CF8FEF8E8F7B
:100EA0000F900FBE0FB6F8940F928E01085F1F4F80
:100EB000FF24F3949D8D19166CF48885882351F0D6
:100EC000C8010E94AD038111F092C1019D8D915026
:100ED0009D8FF0CF8FEF8D8F0F900FBEDF91CF9151
:100EE0001F910F91FF9008950E94C50618950F92CB
:100EF0000FB6F8940F921F9211242F923F924F92A7
:100F00005F926F927F928F929F92AF92BF92CF9299
:100F1000DF92EF92FF920F931F932F933F934F9384
:100F20005F936F937F938F939F93AF93BF93CF9371
:100F3000DF93EF93FF93A0913D02B0913E020DB677
:100F40000D920EB60D928091C001882321F081E0B0
:100F50008093C10102C00E94BC02A0913D02B091E9
:100F60003E02CD91CDBFDD91DEBFFF91EF91DF91CC
:100F7000CF91BF91AF919F918F917F916F915F9131
:100F80004F913F912F911F910F91FF90EF90DF9024
:100F9000CF90BF90AF909F908F907F906F905F9019
:100FA0004F903F902F901F900F900FBE0F9008957D
:100FB000CF93DF93FC01A085B18582819381248149
:100FC0003581EC013D832C83C481D5819B838A8349
:100FD00011968D919C9112978E179F0721F412966E
:100FE000DC93CE931197118610868C9181508C934F
:100FF000DF91CF9108950F931F93CF93DF938C01CF
:10100000FB01808191818F3F2FEF920721F4E8014E
:10101000AF81B8850EC0D801139612962D913C91E0
:101020001397E901488159818417950710F0D90178
:10103000F4CF12968D919C91139793838283EC0148
:10104000FD83EC83B583A4831396FC93EE931297F0
:1010500011870087F80180818F5F8083DF91CF91B6
:101060001F910F910895CF93DF939C01FB01DC0149
:101070001196CD91DC911297D383C2838C819D818F
:10108000958384838C819D81DC0113967C936E9380
:1010900012977D836C8331872087F90180818F5F70
:1010A0008083DF91CF910895CF93DF93009751F024
:1010B000EC010E942A07CE010E940016DF91CF9119
:1010C0000C94E304DF91CF9108958C01F8940E9471
:1010D000140DC0E0D0E0C017D107D4F481E00E9425
:1010E000CC0C80E899EAA3E0B0E000000197A109E8
:1010F000B109D9F780E00E94CC0C80E899EAA3E01E
:10110000B0E000000197A109B109D9F72196E3CF1A
:1011100040E05AE668E170E0000041505109610981
:101120007109D1F7D6CF0F931F93CF93DF9300D0E0
:10113000CDB7DEB789839A830E942A0789819A8175
:101140000E946B158C010E94E3040115110521F426
:1011500082E090E00E946508C8010F900F90DF9137
:10116000CF911F910F91089581E090E00E94650852
:10117000CF93DF93EC01892B19F40E9477071BC0F2
:101180008091C00181110E94B4080E942A07209119
:10119000FE013091FF01C20FD31F80913D0290915B
:1011A0003E0202960E94D807CE010E943D030E9493
:1011B000E304882311F3DF91CF910895CF93DF9358
:1011C00000D0CDB7DEB7E12C8DE7F82E02E310E0BA
:1011D000DD24D39480ED93E00E94B8088091C20191
:1011E0009091C3010E945905813009F064C040E02C
:1011F00050E061EA71E08DED92E00E94AD0180E483
:1012000092E00E94DA00181619065CF580E492E07C
:101210000E94B800F82E0E946810F9821A82E090AD
:10122000E102F090E2028FEFE81AF80AB7018DEDC3
:1012300092E00E948601882311F32091DD02309113
:10124000DE028091E1029091E202BE016F5F7F4F6A
:10125000820F931F0E946415F092E202E092E10275
:10126000CECF8091E1029091E202892BB9F0E0911A
:10127000DD02F091DE028081882381F089E391E034
:101280000E9473104091E1025091E2026091DD02F0
:101290007091DE0280E492E00E948D008091DD0278
:1012A0009091DE02009719F00E94981603C060E04A
:1012B00070E0CB017B018091C2019091C3010E943B
:1012C000230FE114F10409F485CFF092FD01E092BF
:1012D000FC01C701B8010E94FE127093E9016093FE
:1012E000E8018091E8019091E901860F971F9093A2
:1012F000EB018093EA018091EA019091EB01860F66
:10130000971F9093ED018093EC018091EC019091F7
:10131000ED01860F971F9093EF018093EE0180916E
:10132000EE019091EF01680F791F7093F1016093C6
:10133000F0018091FC019091FD012091F00130912C
:10134000F101821B930B9093F3018093F201809142
:10135000FC019091FD012091EE013091EF01821B83
:10136000930B9093F5018093F4018091FC0190918F
:10137000FD012091EC013091ED01821B930B9093C4
:10138000F7018093F6018091FC019091FD0120917D
:10139000EA013091EB01821B930B9093F90180934A
:1013A000F8018091FC019091FD012091E8013091BC
:1013B000E901821B930B9093FB018093FA01D09279
:1013C000E701E12CF12C06CFC0E088248A94982C08
:1013D00054018091C2019091C3010E94590581304E
:1013E00021F487E491E00E9473108091E5019091CF
:1013F000E6010E944A111092E6011092E50180E692
:1014000091E00E9473106091E1017091E20180917E
:10141000E3019091E40142E00E9475108AE691E0B8
:101420000E9473108091DF019091E0010E944A11A7
:101430001092E0011092DF0180E691E00E947310AB
:101440006091DB017091DC018091DD019091DE0102
:1014500042E00E94751084E891E00E947310609150
:1014600001017091020180910301909104014AE011
:101470000E9427108DE891E00E9473106091D701BF
:101480007091D8018091D9019091DA014AE00E94CF
:10149000271086E991E00E947310C090D501D0908A
:1014A000D6010D2C000CEE08FF08F7FE0CC08DE2F3
:1014B0000E94681066277727CB016C197D098E0979
:1014C0009F094AE003C04AE0C701B6010E94271005
:1014D0008FE991E00E94300DCA3010F4CF5F19C03F
:1014E0008092010190920201A0920301B092040146
:1014F0001092D7011092D8011092D9011092DA01FE
:1015000082EA91E00E94300D8FE991E00E94300D57
:10151000C0E080E492E00E9458018091C201909165
:10152000C3010E94230F80ED93E00E94B80851CFC1
:101530008FE00E943002BC01990F880B990B0E942A
:10154000DB162DEC3CEC4CE85AE30E943A172DECEC
:101550003CEC4CEC5EE30E946D1327E73EEB4FE959
:101560005CE30E94DA136093DB017093DC018093EB
:10157000DD019093DE018091DF019091E001019601
:101580009093E0018093DF0184E190E00E94B8082D
:10159000CFCF8EE00E943002BC01990F880B990BCF
:1015A0000E94DB162DEC3CEC4CE85AE30E943A1703
:1015B0002DEC3CEC4CEC5EE30E946D1327E73EEB18
:1015C0004FE95CE30E94DA136093E1017093E2015A
:1015D0008093E3019093E4018091E5019091E6010D
:1015E00001969093E6018093E5018AE090E00E94E5
:1015F000B808CFCFCF93DF9300D01F92CDB7DEB71F
:101600000E944D022B013C010FB6F8940F922090DE
:10161000FE013090FF010F900FBE81E08983809121
:10162000C00181110E94B4080E942A078091FE0126
:101630009091FF0181010E5F1F4F8215930520F4E9
:101640000215130548F404C00215130508F499C1E6
:101650008017910708F495C10E94E304811102C02C
:101660000E9477070E944D024B015C01DC01CB0117
:1016700084199509A609B709409101015091020109
:10168000609103017091040184179507A607B707BD
:1016900040F48093010190930201A0930301B09361
:1016A00004014091D7015091D8016091D901709106
:1016B000DA01481759076A077B0740F48093D7017E
:1016C0009093D801A093D901B093DA018091E701FA
:1016D000882301F11092E7018091FC019091FD01B6
:1016E000181619062CF48091FC019091FD0107C099
:1016F0008091FC019091FD019195819591099093C4
:10170000D6018093D5018091FC019091FD01C12CFF
:10171000D12C76018091D5019091D6011816190629
:1017200024F01801240135017ACF2091D5013091A0
:10173000D6018091E8019091E9012817390724F436
:10174000EAE0F0E0FB83EA832091D5013091D601F5
:101750008091E8019091E901281739077CF02091E8
:10176000D5013091D6018091EA019091EB012817C3
:10177000390724F488E090E09B838A832091D50187
:101780003091D6018091EA019091EB012817390739
:101790007CF02091D5013091D6018091EC0190919F
:1017A000ED012817390724F4E6E0F0E0FB83EA8333
:1017B0002091D5013091D6018091EC019091ED01FD
:1017C000281739077CF02091D5013091D6018091FE
:1017D000EE019091EF012817390724F484E090E09E
:1017E0009B838A832091D5013091D6018091EE01AF
:1017F0009091EF01281739077CF02091D5013091A5
:10180000D6018091F0019091F1012817390724F455
:10181000E2E0F0E0FB83EA832091D5013091D6012C
:101820008091F0019091F101281739077CF0209107
:10183000D5013091D6018091F2019091F3012817E2
:10184000390724F481E090E09B838A832091D501BD
:101850003091D6018091F2019091F3012817390758
:101860007CF02091D5013091D6018091F4019091C6
:10187000F5012817390724F4E2E0F0E0FB83EA835E
:101880002091D5013091D6018091F4019091F5011C
:10189000281739077CF02091D5013091D60180912D
:1018A000F6019091F7012817390724F484E090E0BD
:1018B0009B838A832091D5013091D6018091F601D6
:1018C0009091F701281739077CF02091D5013091CC
:1018D000D6018091F8019091F9012817390724F475
:1018E000E6E0F0E0FB83EA832091D5013091D60158
:1018F0008091F8019091F901281739077CF0209127
:10190000D5013091D6018091FA019091FB01281701
:10191000390724F488E090E09B838A832091D501E5
:101920003091D6018091FA019091FB012817390777
:1019300024F0EAE0F0E0FB83EA83C701B601EA8124
:10194000FB819F01FF0F440B550B0E943413672B43
:10195000682B692B81F489810E94CC0CF98181E08C
:10196000F827F9838091D5019091D6010197909342
:10197000D6018093D5019FEFC91AD90AE90AF90A5D
:10198000D0CE80913D0290913E0202960E94D807EF
:10199000C8010E943D0360CEEBEBF0E02491E7EA42
:1019A000F0E09491E3E9F0E0E491EE2309F43BC028
:1019B000222339F1233091F038F42130A9F022307C
:1019C00001F524B52F7D12C0273091F02830A1F009
:1019D0002430B9F4209180002F7D03C02091800035
:1019E0002F77209380000DC024B52F7724BD09C028
:1019F0002091B0002F7703C02091B0002F7D20935D
:101A0000B000F0E0EE0FFF1FE458FF4FA591B49136
:101A10002FB7F894EC91811103C090959E2301C0DB
:101A20009E2B9C932FBF0895E7EAF0E02491E3E911
:101A3000F0E08491882399F090E0880F991FFC01D1
:101A4000EE58FF4FA591B491FC01E458FF4F8591EA
:101A500094918FB7F894EC91E22BEC938FBF08959B
:101A6000009769F0FC0101900020E9F73197AF0180
:101A7000481B590BBC0180E492E00C948D0080E07F
:101A800090E008950F931F93CF93DF938C01C0E0F4
:101A9000D0E0F801EC0FFD1F6491662371F0E09136
:101AA0004002F09141020190F081E02D80E492E04B
:101AB0000995892B11F02196ECCF8FE991E00E94D6
:101AC000300D8C0F9D1FDF91CF911F910F910895C5
:101AD0006F927F929F92AF92BF92CF92DF92EF92DE
:101AE000FF920F931F93CF93DF935C01962EC72E27
:101AF000EA01D22E892B11F40E94B408822F90E0C3
:101B00000497D4F7CA010E9493083C01892B09F479
:101B10008BC189E290E00E9493087C010097D9F084
:101B2000DC0158967C926E925797AE0165EA70E0A0
:101B3000C3010E945D152197D7015796ED91FC9145
:101B40005897EC0FFD1FB701675E7F4FA92DBC2D85
:101B5000CD01089607C0C3010E94540865C1A817AB
:101B6000B90749F09D014D91EB014993BE01E9018F
:101B700028812111F4CFD70190961C928D2DB3E0CE
:101B8000BD1508F483E0E7018E8B89A31AA21B869A
:101B90001A861D8A1C8AF986E88624E030E0A901AD
:101BA000481B51095D874C87FB8AEA8A1BA21CA24D
:101BB0001DA21EA218A61FA291E19083DF0111971A
:101BC00082E28C93119723E32C931197AC92119797
:101BD000BC9211971C92119720E82C9311971C929C
:101BE000119722E02C93119723E02C93119724E076
:101BF0002C93119725E02C93119726E02C931197A5
:101C000027E02C93119728E02C93119729E02C932F
:101C1000119720E12C9311979C93119792E19C933B
:101C2000119793E19C93119794E19C93119795E1FF
:101C30009C93119796E19C93119797E19C93119730
:101C400098E19C93119799E19C93119790E29C9352
:101C5000119791E29C9311978C93119783E28C9347
:101C600011971C9211971C92119786E28C931197F1
:101C700087E28C93119788E28C93119789E28C9379
:101C8000119780E38C93119781E38C93B697F98336
:101C9000E8830115110519F0F801F182E0820FB611
:101CA000F8940F9280913F028F5F80933F02809162
:101CB0003D0290913E02892B09F07DC0F0923E02D8
:101CC000E0923D0280913F02813009F083C0E7E15C
:101CD000F2E04FEF5FEF9F012D5F3F4F3283218393
:101CE0008FEF9FEF54834383368325833087278389
:101CF0001082399622E0EB33F20769F72FEE32E0DB
:101D00003093EE022093ED029093F0028093EF0265
:101D10003093F2022093F1023093F4022093F30205
:101D20001092EC0226EE32E03093E5022093E402BA
:101D30009093E7028093E6023093E9022093E80251
:101D40003093EB022093EA021092E30221E132E0A9
:101D50003093100220930F0290931202809311028D
:101D6000309314022093130230931602209315022D
:101D700010920E0228E032E0309307022093060210
:101D8000909309028093080230930B0220930A0279
:101D900030930D0220930C02109205028CEE92E01B
:101DA000909304028093030283EE92E090930202E8
:101DB000809301020FC080913C0281110BC0E09121
:101DC0003D02F0913E028689D81620F0F0923E0244
:101DD000E0923D028091F5028F5F8093F502D7017A
:101DE00056968C9190913B02981710F480933B0289
:101DF000B7016E5F7F4FB9E08B9FC0011124895EF0
:101E00009D4F0E9433080F900FBE80913C028823A3
:101E100049F0E0913D02F0913E0286898D1510F463
:101E20000E94770781E001C08FEFDF91CF911F9172
:101E30000F91FF90EF90DF90CF90BF90AF909F9069
:101E40007F906F900895CF92DF92EF92FF920F9361
:101E50001F93CF93DF9300D000D01F92CDB7DEB792
:101E60008C011D821C82009711F40E94B408FC01B1
:101E7000848D8111FACF90E07801F8E0EF0EF11C2B
:101E80000FB6F8940F92F801228D838D281708F071
:101E90007BC0448D411148C080819181892B09F01C
:101EA0005CC0F801E280F380E114F10411F480E0F9
:101EB00037C080913D0290913E02E816F906A9F6DE
:101EC000F70182A1882389F2815082A3268991A1FA
:101ED000291769F38111EBCF6701F2E0CF0ED11C16
:101EE000C6010E94D807F70191A1968B492F50E0B7
:101EF00024E030E0241B350B3587248780913B029A
:101F0000891710F490933B0229E0249FC001259F7C
:101F1000900D1124B601895E9D4F0E94330881E027
:101F2000F801138212821AC050E060E070E0F801FC
:101F3000848195810E945415F801248D84819581B6
:101F4000820F911D958384832281338182179307A9
:101F500020F0808191819583848380E0F801928DC7
:101F60009F5F928F9189992349F0C80141960E9401
:101F7000AD03813029F40E94770702C08111FBCFA5
:101F80000F900FBE81E055C02C813D81232B19F4A9
:101F90000F900FBE4DC0911109C08091000289833E
:101FA0008091FE019091FF019B838A830F900FBE69
:101FB0000E942A070FB6F8940F92F801858D8F3F83
:101FC00009F4158EF801868D8F3F09F4168E0F9057
:101FD0000FBEBE016C5F7F4FCE0101960E9475035C
:101FE000811121C00FB6F8940F92F801928D0F90D5
:101FF0000FBE838D981311C06C817D81C7010E9433
:10200000F103C8010E9430070E94E304882311F005
:1020100091E036CF0E947707FBCFC8010E943007BE
:102020000E94E304F5CFC8010E9430070E94E30438
:1020300080E00F900F900F900F900F90DF91CF9155
:102040001F910F91FF90EF90DF90CF9008958F92A6
:102050009F92AF92BF920F931F93CF93DF93CDB711
:10206000DEB7A1970FB6F894DEBF0FBECDBF19A2A1
:10207000423008F44AE08E010F5D1F4F842E912CF0
:10208000A12CB12CA50194010E941213E62FB901D5
:10209000CA0101501109EA3014F4E05D01C0E95CA5
:1020A000D801EC93232B242B252B61F7C8010E9428
:1020B000300DA1960FB6F894DEBF0FBECDBFDF91F5
:1020C000CF911F910F91BF90AF909F908F900895E7
:1020D000E0914002F09141020190F081E02D682FE3
:1020E00080E492E009940C94300D4F925F926F92CD
:1020F0007F928F929F92AF92BF92CF92DF92EF9298
:10210000FF926B017C01B42E9B01AC010E948014F4
:10211000882319F081EB91E027C026013701E8946C
:1021200077F82FEF3FEF4FE75FE7C301B2010E945F
:10213000801481110DC02FEF3FEF4FE75FE7C30120
:10214000B2010E94D41618161CF485EB91E00CC065
:102150002FEF3FEF4FE75FE4C701B6010E947B140A
:10216000181684F489EB91E0FF90EF90DF90CF9008
:10217000BF90AF909F908F907F906F905F904F90A7
:102180000C94300D2FEF3FEF4FE75FECC701B60126
:102190000E94D41687FDE6CF20E030E0A901C701F8
:1021A000B6010E94D41687FF09C08DE20E94681014
:1021B0004C01F7FAF094F7F8F09402C0812C912CBE
:1021C000A12C60E070E080E09FE3AB1441F020E0E0
:1021D00030E040E251E40E94DA13A394F6CF9B0171
:1021E000AC01C701B6010E946E132B013C010E9495
:1021F0004C146B017C010E94D9169B01AC01C301F8
:10220000B2010E946D132B013C014AE0C701B601E7
:102210000E9427107C01E80CF91CBB2031F08DEBEB
:1022200091E00E94300DE80EF91EDB2CDD2021F13B
:1022300020E030E040E251E4C301B2010E943A17CD
:102240002B013C010E944C144B01A12CB12C4AE003
:10225000C501B4010E942710E80EF91EC501B401A2
:102260000E94D9169B01AC01C301B2010E946D13FB
:102270002B013C01DA94DACFC701FF90EF90DF9099
:10228000CF90BF90AF909F908F907F906F905F9016
:102290004F900895CF92DF92EF92FF92CF93DF930A
:1022A0006C01990FEE08FF08F7FE17C08DE20E943F
:1022B0006810EC0166277727CB016C197D098E0920
:1022C0009F094AE00E9427108C0F9D1FDF91CF913C
:1022D000FF90EF90DF90CF9008954AE0C701B601DC
:1022E000DF91CF91FF90EF90DF90CF900C9427106B
:1022F000789484B5826084BD84B5816084BD85B5E1
:10230000826085BD85B5816085BD80916E008160EC
:1023100080936E0010928100809181008260809392
:102320008100809181008160809381008091800094
:102330008160809380008091B10084608093B100BF
:102340008091B00081608093B00080917A008460B9
:1023500080937A0080917A00826080937A008091E5
:102360007A00816080937A0080917A0080688093FF
:102370007A001092C100E0915002F091510282E087
:102380008083E0914C02F0914D021082E0914E0268
:10239000F0914F0280E1808310925802E091540244
:1023A000F091550286E08083E0915202F091530251
:1023B000808180618083E0915202F091530280819C
:1023C00088608083E0915202F0915302808180689E
:1023D0008083E0915202F091530280818F7D80834F
:1023E00083E0809300010E94140D8091C2019091BE
:1023F000C301892BC9F58FE190E00E949308EC019D
:10240000892B49F11B821A82198218821D821C8233
:102410001F821E821A8E81E08B8F1C8E8FEF8D8F14
:102420008E8FCE010B969A8789872FEF3FEF3C87DF
:102430002B879E878D87988B8F87188609969B8B15
:102440008A8B3D8B2C8B9F8B8E8B998F888F198AD3
:10245000CE010E94230FD093C301C093C2012097E5
:1024600019F0CE010E94230F00E010E022E044E6C4
:1024700050E06BE171E089EC9AE00E94680D22E087
:1024800044E650E06EE171E088E99AE00E94680D50
:1024900022E048EC50E061E271E08AEF9AE00E94AD
:1024A000680D21E048EC50E068E271E084EE99E0CC
:1024B0000E94680D21E04CE251E06EE271E08EED89
:1024C00098E00E94680D8CE690E00E94420D01EDBC
:1024D00011E020E044E650E064E371E081E996E039
:1024E0000E94680D813009F03FC0F8942FEF3FEF54
:1024F0003093D0012093CF0180933C021092FF01D2
:102500001092FE0187BD80916E00826080936E0004
:10251000A0913D02B0913E02CD91CDBFDD91DEBFD5
:10252000FF91EF91DF91CF91BF91AF919F918F91EB
:102530007F916F915F914F913F912F911F910F91DB
:10254000FF90EF90DF90CF90BF90AF909F908F90D3
:102550007F906F905F904F903F902F901F900F90C3
:102560000FBE0F90089504C0811102C00E94B408EC
:1025700088E690E00E94420DFFCF8091DD029091AD
:10258000DE020C940016E0E4F2E01382128288EE80
:1025900093E0A0E0B0E084839583A683B7838FE0C7
:1025A00091E09183808385EC90E09587848784EC2B
:1025B00090E09787868780EC90E0918B808B81EC10
:1025C00090E0938B828B82EC90E0958B848B86ECF1
:1025D00090E0978B868B118E128E138E148EEDEDFC
:1025E000F2E011821082138212821582148248E076
:1025F00050E068EA71E0CF010C94AD0197FB072E23
:1026000016F4009407D077FD09D00E94531307FCFD
:1026100005D03EF4909581959F4F089570956195F2
:102620007F4F0895A1E21A2EAA1BBB1BFD010DC00E
:10263000AA1FBB1FEE1FFF1FA217B307E407F50772
:1026400020F0A21BB30BE40BF50B661F771F881F4E
:10265000991F1A9469F760957095809590959B01E4
:10266000AC01BD01CF010895052E97FB1EF4009427
:102670000E944B1357FD07D00E94121307FC03D092
:102680004EF40C944B1350954095309521953F4F47
:102690004F4F5F4F089590958095709561957F4F4E
:1026A0008F4F9F4F0895AA1BBB1B51E107C0AA1F64
:1026B000BB1FA617B70710F0A61BB70B881F991FE3
:1026C0005A95A9F780959095BC01CD010895EE0F1C
:1026D000FF1F0590F491E02D09945058BB27AA27BD
:1026E0000E9485130C94BE170E94B01738F00E9408
:1026F000B71720F039F49F3F19F426F40C94AD1766
:102700000EF4E095E7FB0C94A717E92F0E94CF1772
:1027100058F3BA17620773078407950720F079F416
:10272000A6F50C94F1170EF4E0950B2EBA2FA02D00
:102730000B01B90190010C01CA01A0011124FF276E
:10274000591B99F0593F50F4503E68F11A16F04069
:10275000A22F232F342F4427585FF3CF4695379568
:102760002795A795F0405395C9F77EF41F16BA0B2D
:10277000620B730B840BBAF09150A1F0FF0FBB1FDB
:10278000661F771F881FC2F70EC0BA0F621F731F24
:10279000841F48F4879577956795B795F7959E3F81
:1027A00008F0B0CF9395880F08F09927EE0F979512
:1027B000879508950E94EE130C94BE170E94B717D8
:1027C00058F00E94B01740F029F45F3F29F00C94B4
:1027D000A71751110C94F2170C94AD170E94CF1744
:1027E00068F39923B1F3552391F3951B550BBB2740
:1027F000AA2762177307840738F09F5F5F4F220F85
:10280000331F441FAA1FA9F335D00E2E3AF0E0E87B
:1028100032D091505040E695001CCAF72BD0FE2FC5
:1028200029D0660F771F881FBB1F26173707480759
:10283000AB07B0E809F0BB0B802DBF01FF27935811
:102840005F4F3AF09E3F510578F00C94A7170C9417
:10285000F2175F3FE4F3983ED4F38695779567953A
:10286000B795F7959F5FC9F7880F911D9695879546
:1028700097F90895E1E0660F771F881FBB1F621765
:1028800073078407BA0720F0621B730B840BBA0B23
:10289000EE1F88F7E09508950E94D71788F09F579C
:1028A00098F0B92F9927B751B0F0E1F0660F771F74
:1028B000881F991F1AF0BA95C9F714C0B13091F06A
:1028C0000E94F117B1E008950C94F117672F782F4B
:1028D0008827B85F39F0B93FCCF38695779567952F
:1028E000B395D9F73EF490958095709561957F4F9B
:1028F0008F4F9F4F08950E94161708F48FEF089589
:102900000E941617880B990B0895A0E0B0E0EBE841
:10291000F4E10C94FC17EC01009721F4CB010E9428
:102920006B15B8C0FC01E60FF71F9C01225031095E
:10293000E217F30708F4ACC0D9010D911C9111976F
:1029400006171707B0F00530110508F49FC0C8013D
:1029500004978617970708F499C002501109061BBF
:10296000170B019311936D937C93CF010E94001676
:102970008DC05B01A01AB10A4C01800E911EA0917E
:10298000F802B091F90240E050E0E12CF12C1097F0
:1029900009F44AC0A815B905D1F56D907C9011973E
:1029A000630182E0C80ED11CCA14DB0480F1A301CC
:1029B0004A195B096A0182E0C80ED11C1296BC90CC
:1029C00012971396AC91B5E0CB16D10440F0B282C9
:1029D000A38351834083D9016D937C930AC00E5F1A
:1029E0001F4FC301800F911FF90191838083EB2D4D
:1029F000FA2FE114F10431F0D7011396FC93EE9312
:102A0000129744C0F093F902E093F8023FC08D9111
:102A10009C9111974817590708F4AC017D01129653
:102A20000D90BC91A02DB3CF8091F6029091F7024A
:102A300088159905E1F446175707C8F480910501F8
:102A400090910601009741F48DB79EB7409109011E
:102A500050910A01841B950BE817F907C8F4F0930D
:102A6000F702E093F602F901718360830FC0CB0196
:102A70000E946B157C01009759F0A801BE010E94CD
:102A80005415CE010E940016C70104C0CE0102C039
:102A900080E090E0CDB7DEB7EEE00C94181881E04E
:102AA00090E0F8940C942F18FB01DC0102C0019017
:102AB0000D9241505040D8F70895DC0101C06D934C
:102AC00041505040E0F70895FB01DC0101900D9268
:102AD0000020E1F70895CF93DF938230910510F441
:102AE00082E090E0E091F802F091F90220E030E01D
:102AF000C0E0D0E0309711F140815181481759076B
:102B0000C0F04817590761F482819381209719F02A
:102B10009B838A832BC09093F9028093F80226C08E
:102B20002115310519F04217530718F49A01BE0117
:102B3000DF01EF010280F381E02DDCCF21153105AB
:102B400009F1281B390B2430310590F412968D9130
:102B50009C9113976115710521F0FB01938382838A
:102B600004C09093F9028093F802FD01329644C0AC
:102B7000FD01E20FF31F81939193225031092D93B0
:102B80003C933AC02091F6023091F702232B41F496
:102B900020910701309108013093F7022093F6024B
:102BA00020910501309106012115310541F42DB721
:102BB0003EB74091090150910A01241B350BE09169
:102BC000F602F091F702E217F307A0F42E1B3F0B79
:102BD0002817390778F0AC014E5F5F4F241735078F
:102BE00048F04E0F5F1F5093F7024093F602819317
:102BF000919302C0E0E0F0E0CF01DF91CF91089522
:102C00000F931F93CF93DF93009709F48CC0FC01BF
:102C10003297138212820091F8021091F902011585
:102C2000110581F420813181820F931F2091F602DA
:102C30003091F7022817390779F5F093F702E093FE
:102C4000F60271C0D80140E050E0AE17BF0750F463
:102C500012962D913C911397AD012115310509F183
:102C6000D901F3CF9D01DA01338322836081718121
:102C7000860F971F8217930769F4EC012881398129
:102C8000260F371F2E5F3F4F318320838A819B8120
:102C900093838283452B29F4F093F902E093F802A1
:102CA00042C01396FC93EE931297ED01499159910E
:102CB0009E01240F351FE217F30771F48081918183
:102CC000840F951F029611969C938E938281938117
:102CD00013969C938E931297E0E0F0E0D801129641
:102CE0008D919C911397009719F0F8018C01F6CF04
:102CF0008D919C9198012E5F3F4F820F931F2091E1
:102D0000F6023091F7022817390769F4309729F451
:102D10001092F9021092F80202C0138212821093EC
:102D2000F7020093F602DF91CF911F910F91089562
:102D30001F93FC0199278827BC01E8941191103258
:102D4000E9F3193010F01E30C8F31B3251F01D3278
:102D500049F4689406C00E94BF16610F711D811D61
:102D6000911D119110531A30B0F33EF49095809557
:102D7000709561957F4F8F4F9F4F1F910895592FE9
:102D8000482F372F262F660F771F881F991F660F32
:102D9000771F881F991F620F731F841F951F660F6F
:102DA000771F881F991F08950E94161708F481E065
:102DB0000895E89409C097FB3EF49095809570952E
:102DC00061957F4F8F4F9F4F9923A9F0F92F96E977
:102DD000BB279395F695879577956795B795F111EC
:102DE000F8CFFAF4BB0F11F460FF1BC06F5F7F4F89
:102DF0008F4F9F4F16C0882311F096E911C077239B
:102E000021F09EE8872F762F05C0662371F096E8A3
:102E1000862F70E060E02AF09A95660F771F881F72
:102E2000DAF7880F9695879597F90895990F000816
:102E3000550FAA0BE0E8FEEF16161706E807F9078C
:102E4000C0F012161306E407F50798F0621B730B27
:102E5000840B950B39F40A2661F0232B242B252BA8
:102E600021F408950A2609F4A140A6958FEF811D4B
:102E7000811D08950E944D170C94BE170E94B01733
:102E800038F00E94B71720F0952311F00C94A71783
:102E90000C94AD1711240C94F2170E94CF1770F305
:102EA000959FC1F3950F50E0551F629FF001729FEF
:102EB000BB27F00DB11D639FAA27F00DB11DAA1FFE
:102EC000649F6627B00DA11D661F829F2227B00D4B
:102ED000A11D621F739FB00DA11D621F839FA00DD6
:102EE000611D221F749F3327A00D611D231F849F26
:102EF000600D211D822F762F6A2F11249F5750407D
:102F00009AF0F1F088234AF0EE0FFF1FBB1F661FF7
:102F1000771F881F91505040A9F79E3F510580F0C0
:102F20000C94A7170C94F2175F3FE4F3983ED4F388
:102F3000869577956795B795F795E7959F5FC1F764
:102F4000FE2B880F911D9695879597F9089597F90F
:102F50009F6780E870E060E008959FEF80EC08953F
:102F600000240A9416161706180609060895002468
:102F70000A9412161306140605060895092E0394E2
:102F8000000C11F4882352F0BB0F40F4BF2B11F456
:102F900060FF04C06F5F7F4F8F4F9F4F089557FDB5
:102FA0009058440F551F59F05F3F71F04795880FB7
:102FB00097FB991F61F09F3F79F08795089512164E
:102FC00013061406551FF2CF4695F1DF08C01616FA
:102FD00017061806991FF1CF8695710561050894AB
:102FE0000895E894BB2766277727CB0197F90895C2
:102FF0002F923F924F925F926F927F928F929F9209
:10300000AF92BF92CF92DF92EF92FF920F931F93F6
:10301000CF93DF93CDB7DEB7CA1BDB0B0FB6F894A7
:10302000DEBF0FBECDBF09942A88398848885F84E7
:103030006E847D848C849B84AA84B984C884DF8058
:10304000EE80FD800C811B81AA81B981CE0FD11D3C
:103050000FB6F894DEBF0FBECDBFED01089510E0AE
:10306000C2E6D0E004C0FE010E9467132196C33679
:08307000D107C9F7F894FFCF66
:1030780001FFFFFFFF0000FA0280000000000011BE
:10308800018D00DA00B800CC0058015431005432E8
:1030980000544D6F746F720054536572540054534A
:1030A8006572520049444C45006461746F206C6538
:1030B80074746F203D20004E2056616C7565206643
:1030C8006F7220413020726561642061743A20007B
:1030D800092074656D70203D2000094E2056616CF2
:1030E800756520666F7220413120726561642061C8
:1030F800743A200009746D696E203D200009746DD2
:103108006178203D20000953746570203D20000D32
:103118000A00636C65617200202020202020202096
:10312800006E616E00696E66006F7666002E0000A4
:00000001FF
