:100000000C94A0030C94C8030C94C8030C94C8036C
:100010000C94C8030C94C8030C94C8030C94C80334
:100020000C94C8030C94C8030C94421A0C94B41A90
:100030000C94C8030C94C8030C94C8030C94C80314
:100040000C94C8030C94C8030C94C8030C94C80304
:100050000C94C8030C9499160C94C8030C94D012F9
:100060000C94C8030C94C8030C94C8030C94C803E4
:100070000C94C8030C94C8030C94C8030C94C803D4
:100080000C94621E0C94C8030C94C8030C94C8030F
:100090000C94C8030C94C8030C94C8030C94C803B4
:1000A0000C94C8030C94C8030C94C803551F581F24
:1000B000471F4B1F4F1F791F791F791F5C1F601F40
:1000C000641F6A1F6E1F791F741F13018032118015
:1000D00064260104B1020B14C0020800C10105C569
:1000E000024130C701C1EC011B3A8155642A04006A
:1000F00000007F2B040000009F3601C8B70100F20A
:100100000100E08F282422312B0E53A5421618122D
:100110001A140332E18F171B1D0E14112CA53D0973
:10012000272D252B3C3213800A2980FF0000000078
:10013000003E5B4F5B3E3E6B4F6B3E1C3E7C3E1C6D
:10014000183C7E3C181C577D571C1C5E7F5E1C00B3
:10015000183C1800FFE7C3E7FF0018241800FFE76A
:10016000DBE7FF30483A060E2629792926407F052D
:100170000507407F05253F5A3CE73C5A7F3E1C1C43
:1001800008081C1C3E7F14227F22145F5F005F5F03
:1001900006097F017F006689956A606060606094EF
:1001A000A2FFA29408047E040810207E20100808F4
:1001B0002A1C08081C2A08081E101010100C1E0CFF
:1001C0001E0C30383E3830060E3E0E060000000091
:1001D0000000005F00000007000700147F147F1478
:1001E000242A7F2A122313086462364956205000BD
:1001F00008070300001C2241000041221C002A1CA9
:100200007F1C2A08083E0808008070300008080893
:100210000808000060600020100804023E514945B3
:100220003E00427F400072494949462141494D33D1
:100230001814127F1027454545393C4A4949314138
:10024000211109073649494936464949291E000006
:10025000140000004034000000081422411414145B
:100260001414004122140802015909063E415D5947
:100270004E7C1211127C7F494949363E4141412250
:100280007F4141413E7F494949417F090909013E7A
:10029000414151737F0808087F00417F41002040A1
:1002A000413F017F081422417F404040407F021CB3
:1002B000027F7F0408107F3E4141413E7F090909CA
:1002C000063E4151215E7F09192946264949493296
:1002D00003017F01033F4040403F1F2040201F3F5C
:1002E0004038403F631408146303047804036159E1
:1002F000494D43007F414141020408102000414123
:10030000417F0402010204404040404000030708CE
:100310000020545478407F284444383844444428CA
:10032000384444287F385454541800087E09021871
:10033000A4A49C787F0804047800447D40002040F9
:10034000403D007F1028440000417F40007C04783D
:1003500004787C080404783844444438FC18242485
:100360001818242418FC7C08040408485454542405
:1003700004043F44243C4040207C1C2040201C3C82
:100380004030403C44281028444C9090907C446479
:10039000544C44000836410000007700000041360C
:1003A000080002010204023C2623263C1EA1A16192
:1003B000123A4040207A38545455592155557941C4
:1003C0002154547841215554784020545579400C9B
:1003D0001E5272123955555559395454545939557C
:1003E0005454580000457C410002457D42000145BF
:1003F0007C40F0292429F0F0282528F07C5455452C
:10040000002054547C547C0A097F493249494932BE
:100410003248484832324A4848303A4141217A3AD3
:1004200042402078009DA0A07D39444444393D409D
:1004300040403D3C24FF2424487E4943662B2FFC4A
:100440002F2BFF0929F620C0887E090320545479F8
:10045000410000447D413048484A32384040227AC9
:10046000007A0A0A727D0D19317D2629292F282646
:100470002929292630484D4020380808080808084E
:100480000808382F10C8ACBA2F102834FA00007BA7
:10049000000008142A142222142A1408AA00550065
:1004A000AAAA55AA55AA000000FF00101010FF00CC
:1004B000141414FF001010FF00FF1010F010F014BF
:1004C0001414FC001414F700FF0000FF00FF1414C4
:1004D000F404FC141417101F10101F101F14141410
:1004E0001F00101010F0000000001F101010101F4F
:1004F00010101010F010000000FF1010101010105D
:10050000101010FF10000000FF140000FF00FF009B
:10051000001F10170000FC04F41414171017141413
:10052000F404F40000FF00F714141414141414F766
:1005300000F7141414171410101F101F141414F4BF
:10054000141010F010F000001F101F0000001F1406
:10055000000000FC140000F010F01010FF10FF1459
:100560001414FF141010101F00000000F010FFFF03
:10057000FFFFFFF0F0F0F0F0FFFFFF0000000000D1
:10058000FFFF0F0F0F0F0F38444438447C2A2A3ED8
:10059000147E02020606027E027E02635549416312
:1005A0003844443C04407E201E2006027E0202990C
:1005B000A5E7A5991C2A492A1C4C7201724C304AA5
:1005C0004D4D303048784830BC625A463D3E49492E
:1005D00049007E0101017E2A2A2A2A2A44445F44D6
:1005E0004440514A444040444A51400000FF010306
:1005F000E080FF000008086B6B08361236243606D0
:100600000F090F06000018180000001010003040FD
:10061000FF0101001F01011E00191D1712003C3CC3
:100620003C3C0000000000070605040100080A0B1E
:100630000C0D09080B000202020100090400000170
:100640000202000005240010010524010101042418
:100650000206052406000107058103100040090475
:100660000100020A00000007050202400000070521
:1006700083024000000403090441726475696E6FCF
:10068000204C4C430041726475696E6F2045737055
:100690006C6F726100120100020000004041233CB7
:1006A0008000010102030112010002EF020140413A
:1006B000233C800001010203010000000024002708
:1006C000002A002D00300000000000250028002B2B
:1006D000002E003100040404040403040502020295
:1006E00002040302020202060606060606040402CB
:1006F00002020404040802011040804010204080DF
:100700004080080204018040201002011080102067
:100710004040200000000200090F00000304010017
:100720000C000000000000000000000000000000BD
:100730000000446965005374617274004C246E2299
:1007400011241FBECFEFDAE0DEBFCDBF12E0A0E084
:10075000B1E0EAEDF3E502C005900D92AE30B107CD
:10076000D9F723E0AEE0B2E001C01D92A538B20790
:10077000E1F713E0CFE9D3E004C02197FE010E9426
:100780000925CE39D107C9F70E94B7220C94E02978
:100790000C9400004C7F38E0439FC001112430E0EE
:1007A00043E0359527954A95E1F7822B932B687F97
:1007B000962B089508952F923F924F925F926F92D9
:1007C0007F928F929F92AF92BF92CF92DF92EF92E1
:1007D000FF920F931F93CF93DF93CDB7DEB72D9783
:1007E0000FB6F894DEBF0FBECDBFFC016A3069F4CE
:1007F00024898685978538E0239F800D911D1124DB
:100800009787868715861486E4C06D3009F4E1C0A9
:100810009D878C8754895983828993899D838C8392
:10082000A089B189BF83AE8386849784C484D5842C
:1008300080859185C816D906BCF0EC85FD85448974
:10084000242F30E084859585F6E04F9F800D911D23
:100850001124AC85BD851D969C938E931C9756964E
:100860004C91411192C0B5C0EC85FD858285938580
:100870008816990614F7F981AF2EB12CC60126E02F
:10088000F29F800D911D112418161906B4F6C501AA
:1008900023E0880F991F2A95E1F7880D991D1816F6
:1008A00019065CF655E0659FB001112416011A8205
:1008B000CB018C199D0999878887D4011896BB872D
:1008C000AA87BA81B53049F0E885F985E20DF31DB4
:1008D000E45DFE4F24912B8301C01B82240134016F
:1008E0003B8130FF13C0AC85BD85ED91FC91B98192
:1008F000B13031F40480F581E02D2E813F8119C0A3
:100900000684F785E02DEE80FF801EC0EC81FD811E
:100910002E813F81E217F307F1F0AC85BD85ED91A3
:10092000FC91B981B13059F40480F581E02D2C811E
:100930003D81A301B1018C859D8509950CC006847C
:10094000F785E02DEC80FD8085019501A201B601BF
:100950008C859D850995EB81E695EB83FFEF6F1AFA
:100960007F0A4A0C5B1C2A853B856216730609F0D8
:10097000B7CF3A813F5F3A835FEF251A350ACA0C39
:10098000DB1C363009F09DCF58CF4AEF4203B0014F
:10099000439F700D1124AC85BD8518964D915C91D7
:1009A0001997460F571F481759079CF483E0220FE9
:1009B000331F8A95E1F71E968D919C911F97280F02
:1009C000391F1F963C932E931E971D961C921E92C4
:1009D0001C9781E090E02D960FB6F894DEBF0FBE15
:1009E000CDBFDF91CF911F910F91FF90EF90DF90DE
:1009F000CF90BF90AF909F908F907F906F905F90BF
:100A00004F903F902F900895EF92FF920F931F9376
:100A1000DC01ED91FC9111971A960D911C911B9799
:100A200018962D913C9119970684F785E02D7B014E
:100A300040E050E060E070E009951F910F91FF9059
:100A4000EF9008956F927F928F929F92AF92BF9294
:100A5000CF92DF92EF92FF920F931F93CF93DF938A
:100A60006C015A014801EB013B01620E731EC61571
:100A7000D70574F4D601ED91FC910084F185E02D49
:100A800087019401A501BE01C60109952196EFCF0A
:100A9000DF91CF911F910F91FF90EF90DF90CF905A
:100AA000BF90AF909F908F907F906F900895EF923E
:100AB000FF920F931F93DC01ED91FC91260F371FDE
:100AC000215031090680F781E02D78018A010995CE
:100AD0001F910F91FF90EF900895EF92FF920F9367
:100AE0001F937801DC01ED91FC91240F351F8901E2
:100AF000015011090680F781E02D9B0109951F9196
:100B00000F91FF90EF9008956F927F928F929F9236
:100B1000AF92BF92CF92DF92EF92FF920F931F930B
:100B2000CF93DF93EC014B015A0169013801E88151
:100B3000F9810284F385E02D87010995E881F98127
:100B4000A501460D571D415051090284F385E02D42
:100B50009601B401CE010995E881F9810084F185FF
:100B6000E02D9301A501B401CE010995E881F98139
:100B7000C80CD91CB601615071090084F185E02DC3
:100B80009301A501CE010995DF91CF911F910F919E
:100B9000FF90EF90DF90CF90BF90AF909F908F909D
:100BA0007F906F9008952F923F924F925F926F9235
:100BB0007F928F929F92AF92BF92CF92DF92EF92ED
:100BC000FF920F931F93CF93DF9300D01F92CDB767
:100BD000DEB74C017B836A836A01590117019801D2
:100BE000241B350B37FF03C0319521953109C50111
:100BF0004A815B81841B950B97FF03C0919581957A
:100C0000910951E059838217930714F019820BC0A0
:100C10009A2D8B2D5801092F182F9A818B81DB82F9
:100C2000CA82C92ED82E8A819B81A816B9065CF487
:100C30009C2D8D2D6801092F182F9A818B81BB82E5
:100C4000AA82A92EB82E2501AA81BB814A1A5B0A65
:100C500038016C187D0877FE03C0719461947108A7
:100C6000720157FE03C0BFEFEB1AFB0AF594E7943D
:100C7000C016D1061CF00FEF1FEF1FC001E010E0FF
:100C80001CC0D401ED91FC91B9810480F581E02D67
:100C90009101BB23C1F04A815B81B601C401099572
:100CA000E618F708F7FE04C0C00ED11EE40CF51CD0
:100CB000EA81FB813196FB83EA834A815B81A4163A
:100CC000B506FCF604C0A6016A817B81E7CF0F90D0
:100CD0000F900F90DF91CF911F910F91FF90EF90A8
:100CE000DF90CF90BF90AF909F908F907F906F904C
:100CF0005F904F903F902F900895CF93DF9300D057
:100D0000CDB7DEB7C12C3DE7D32EE12CF12C44E664
:100D1000442E512C612C712C55E0852E912CA12C48
:100D2000B12C11E080ED93E00E94781764E170E04F
:100D30008091B9029091BA020E94FF20813009F09F
:100D400070C040E050E066EC71E08BE793E00E94F9
:100D5000171A8EEE92E00E943D1D1816190674F5C2
:100D60008EEE92E00E94071EF82E682F8EEE92E023
:100D70000E94C31EF9821A82E0907F03F0908003E4
:100D80002FEFE21AF20AB7018BE793E00E94F01905
:100D90008823F9F220917B0330917C0380917F03BB
:100DA00090918003BE016F5F7F4F820F931F0E945F
:100DB0000627F0928003E0927F03CBCF80917F03E0
:100DC00090918003892BF9F0E0917B03F0917C03F3
:100DD00080818823C1F067E471E08EEE92E00E948A
:100DE000281FE091EE02F091EF0240917F035091B5
:100DF000800360917B0370917C030280F381E02D7E
:100E00008EEE92E0099580917B0390917C03009790
:100E100029F00E943A286B017C0103C0C12CD12C1F
:100E200076018091B9029091BA020E94C91FC11443
:100E3000D104E104F10409F475CFC0926102D092AB
:100E40006202E0926302F0926402F7FE08C0F0943E
:100E5000E094D094C094C11CD11CE11CF11CC701CA
:100E6000B601A30192010E94EA242B30310514F04F
:100E70002AE030E08092390290923A02A0923B023E
:100E8000B0923C024091390250913A0260913B028B
:100E900070913C02C901032E000CAA0BBB0B480F3A
:100EA000591F6A1F7B1F40933D0250933E0260937F
:100EB0003F027093400240913D0250913E0260918A
:100EC0003F0270914002480F591F6A1F7B1F4093D9
:100ED0004102509342026093430270934402409156
:100EE0004102509142026091430270914402840F8A
:100EF000951FA61FB71F8093450290934602A093AB
:100F00004702B093480240914502509146026091D9
:100F1000470270914802C901880F991F880F991FD5
:100F2000092E000CAA0BBB0B840F951FA61FB71F21
:100F30008093490290934A02A0934B02B0934C02D3
:100F40008091490290914A02A0914B02B0914C02CB
:100F5000A7019601281B390B4A0B5B0B20934D020E
:100F600030934E0240934F025093500280914502BD
:100F700090914602A0914702B0914802A7019601C4
:100F8000281B390B4A0B5B0B209351023093520202
:100F90004093530250935402809141029091420237
:100FA000A0914302B0914402A7019601281B390B7E
:100FB0004A0B5B0B20935502309356024093570225
:100FC0005093580280913D0290913E02A0913F02C1
:100FD000B0914002A7019601281B390B4A0B5B0B0D
:100FE0002093590230935A0240935B0250935C0263
:100FF0008091390290913A02A0913B02B0913C025B
:10100000C81AD90AEA0AFB0AC0925D02D0925E02AF
:10101000E0925F02F0926002F894109338027894A4
:10102000C12CD12C76017ECE88EE91E00E947817FB
:10103000C0E088248A94982C540169E170E0809182
:10104000B9029091BA020E94FF20813031F465E527
:1010500071E08EEE92E00E94281F4091360250917E
:101060003702052E000C660B770B8EEE92E00E9485
:10107000CD2010923702109236026EE671E08EEEAD
:1010800092E00E94281F4091660250916702052E4F
:10109000000C660B770B8EEE92E00E94CD2068E785
:1010A00071E08EEE92E00E94281F40913402509130
:1010B0003502052E000C660B770B8EEE92E00E9437
:1010C000CD2010923502109234026EE671E08EEE61
:1010D00092E00E94281FC0903002D0903102E09030
:1010E0003202F0903302A7019601C701B6010E94B7
:1010F0002226882319F062E971E01AC0260137011F
:10110000E89477F82FEF3FEF4FE75FE7C301B201B5
:101110000E942226811111C02FEF3FEF4FE75FE7BA
:10112000C301B2010E94762818163CF466E971E00A
:101130008EEE92E00E94CA1E7EC02FEF3FEF4FE777
:101140005FE4C701B6010E941D2618161CF46AE967
:1011500071E0EECF2FEF3FEF4FE75FECC701B60135
:101160000E94762887FDF3CF20E030E0A901C70177
:10117000B6010E94762887FF09C06DE28EEE92E0EC
:101180000E94C31EF7FAF094F7F8F0942AE037EDC6
:1011900043EA5BE3C701B6010E9410252B013C0125
:1011A0000E94EE256B017C010E947B289B01AC0113
:1011B000C301B2010E940F252B013C012AE0B701B7
:1011C000A6018EEE92E00E94DF1E6EE971E08EEEC7
:1011D00092E00E94CA1E20E030E040E251E4C301E8
:1011E000B2010E94DC282B013C010E94EE256B011C
:1011F000E12CF12C2AE0B701A6018EEE92E00E94CC
:10120000DF1EC701B6010E947B289B01AC01C30110
:10121000B2010E940F2520E030E040E251E40E943C
:10122000DC280E94EE25AB0160E070E02AE08EEE43
:1012300092E00E94DF1E60EA71E08EEE92E00E9472
:10124000281F4091000150910101609102017091AD
:1012500003012AE08EEE92E00E94DF1E69EA71E04F
:101260008EEE92E00E94281F40912C0250912D0298
:1012700060912E0270912F022AE08EEE92E00E9481
:10128000DF1E62EB71E08EEE92E00E94281F40911B
:1012900028025091290260912A0270912B028EEE51
:1012A00092E00E94CD206BEB71E08EEE92E00E9406
:1012B000281F4091240250912502609126027091CE
:1012C00027028EEE92E00E94CD2064EC71E08EEE5B
:1012D00092E00E94CA1ECA3010F4CF5F1DC08092F7
:1012E000000190920101A0920201B09203011092BC
:1012F0002C0210922D0210922E0210922F0267ECF7
:1013000071E08EEE92E00E94CA1E64EC71E08EEEF7
:1013100092E00E94CA1EC0E08091B9029091BA0288
:101320000E94C91F80ED93E00E94781786CE0E942C
:1013300071122B013C010FB6F8940F92E090C40299
:10134000F090C5020F900FBEDD24D3948091680207
:1013500081110E949C130E9452138091C4029091AB
:10136000C50287010C5F1F4F8E159F0520F40E15D7
:101370001F0548F404C00E151F0508F4B6C28017F7
:10138000910708F4B2C20E949C16811102C00E940B
:1013900021140E9471124B015C01DC01CB01841904
:1013A0009509A609B709409100015091010160918A
:1013B00002017091030184179507A607B70740F44F
:1013C0008093000190930101A0930201B093030167
:1013D00040912C0250912D0260912E0270912F02AB
:1013E000481759076A077B0740F480932C029093B3
:1013F0002D02A0932E02B0932F02809138028823F1
:1014000009F44BC0109238028091610290916202FF
:10141000A0916302B0916402181619061A061B0601
:101420004CF48091610290916202A0916302B091AC
:1014300064020FC08091610290916202A0916302E8
:10144000B0916402B095A095909581959F4FAF4F54
:10145000BF4F8093280290932902A0932A02B09351
:101460002B0260E088E00E942A1F80916102909127
:101470006202A0916302B0916402B7FF02C060E013
:1014800001C061E087E00E942A1F1092240210929E
:101490002502109226021092270280912802909134
:1014A0002902A0912A02B0912B02181619061A06D9
:1014B0001B060CF005C24091280250912902609150
:1014C0002A0270912B028091390290913A02A091E8
:1014D0003B02B0913C02481759076A077B0714F496
:1014E000C6E0D0E0409128025091290260912A0282
:1014F00070912B028091390290913A02A0913B02A7
:10150000B0913C02481759076A077B07BCF040912D
:1015100028025091290260912A0270912B02809139
:101520003D0290913E02A0913F02B09140024817C7
:1015300059076A077B0714F4C5E0D0E04091280200
:101540005091290260912A0270912B0280913D02F4
:1015500090913E02A0913F02B09140024817590776
:101560006A077B07BCF040912802509129026091E4
:101570002A0270912B028091410290914202A09127
:101580004302B0914402481759076A077B0714F4D5
:10159000C4E0D0E0409128025091290260912A02D3
:1015A00070912B028091410290914202A0914302DE
:1015B000B0914402481759076A077B07BCF0409175
:1015C00028025091290260912A0270912B02809189
:1015D000450290914602A0914702B09148024817F7
:1015E00059076A077B0714F4C3E0D0E04091280252
:1015F0005091290260912A0270912B02809145023C
:1016000090914602A0914702B091480248175907AD
:101610006A077B07BCF04091280250912902609133
:101620002A0270912B028091490290914A02A09166
:101630004B02B0914C02481759076A077B0714F414
:10164000C2E0D0E0409128025091290260912A0224
:1016500070912B028091490290914A02A0914B0215
:10166000B0914C02481759076A077B07BCF04091BC
:1016700028025091290260912A0270912B028091D8
:101680004D0290914E02A0914F02B0915002481726
:1016900059076A077B0714F4C1E0D0E040912802A3
:1016A0005091290260912A0270912B0280914D0283
:1016B00090914E02A0914F02B091500248175907E5
:1016C0006A077B07BCF04091280250912902609183
:1016D0002A0270912B028091510290915202A091A6
:1016E0005302B0915402481759076A077B0714F454
:1016F000C2E0D0E0409128025091290260912A0274
:1017000070912B028091510290915202A09153024C
:10171000B0915402481759076A077B07BCF0409103
:1017200028025091290260912A0270912B02809127
:10173000550290915602A0915702B0915802481755
:1017400059076A077B0714F4C3E0D0E040912802F0
:101750005091290260912A0270912B0280915502CA
:1017600090915602A0915702B0915802481759071C
:101770006A077B07BCF040912802509129026091D2
:101780002A0270912B028091590290915A02A091E5
:101790005B02B0915C02481759076A077B0714F493
:1017A000C4E0D0E0409128025091290260912A02C1
:1017B00070912B028091590290915A02A0915B0284
:1017C000B0915C02481759076A077B07BCF040914B
:1017D00028025091290260912A0270912B02809177
:1017E0005D0290915E02A0915F02B0916002481785
:1017F00059076A077B0714F4C5E0D0E0409128023E
:101800005091290260912A0270912B0280915D0211
:1018100090915E02A0915F02B09160024817590753
:101820006A077B0714F0C6E0D0E060912402709153
:10183000250280912602909127029E010D2E000C18
:10184000440B550B0E94EA24672B682B692B29F562
:1018500061E084E00E942A1F61E084E00E942A1F68
:1018600060E084E00E942A1F6D2D8DE00E942A1FF7
:1018700081E0D8268091280290912902A0912A0225
:10188000B0912B020197A109B1098093280290938E
:101890002902A0932A02B0932B02809124029091F6
:1018A0002502A0912602B09127020196A11DB11D2B
:1018B0008093240290932502A0932602B0932702DE
:1018C0008091280290912902A0912A02B0912B02C6
:1018D000892B8A2B8B2B21F078012401350136CD01
:1018E00061E088E00E942A1FF7CF8091EC0290917E
:1018F000ED0202960E945813C8010E941A1343CDAC
:1019000083E10E944612BC01990F880B990B0E943B
:101910007D2820E030E040EA5BE30E94DC282DECEB
:101920003CEC4CEC5EE30E940F2527E73EEB4FE9D1
:101930005CE30E947C2560933002709331028093B7
:1019400032029093330280913402909135020196D5
:10195000909335028093340284E190E00E947817DE
:10196000CFCF82E10E94461260E082E10E942A1FEE
:1019700061E083E10E942A1F61E084E10E942A1F46
:1019800060E085E10E942A1F86E10E9446129C01C8
:10199000A4EFB1E00E94D129DC01CB012AE0B5958A
:1019A000A795979587952A95D1F7BC016253710940
:1019B00070936702609366028091360290913702BD
:1019C000019690933702809336028AE090E00E945D
:1019D0007817C7CFFC01868D882339F06EBD0000D3
:1019E0000DB407FEFDCF8EB5089528E030E090E8F5
:1019F000A1A1B2A186A5492F462319F04C91842BB1
:101A000003C04C91809584238C93A3A1B4A14C91E5
:101A100087A5842B8C93A3A1B4A14C9187A5809515
:101A200084238C9396952150310911F708950895D8
:101A30008CBD9DBD08950F931F93CF93DF931F928D
:101A4000CDB7DEB78C01DC015E968C915E97882362
:101A500041F05F968D919C91909769830E94180D3B
:101A60006981D8019796ED91FC9198979081D196D4
:101A70008C91D197892B80839596ED91FC919697C7
:101A80009081D0968C91809589238083C8010E9493
:101A9000EA0CD8019596ED91FC9196979081D0969D
:101AA0008C91892B80830F90DF91CF911F910F91A3
:101AB00008950F931F93CF93DF931F92CDB7DEB797
:101AC0008C01DC015E968C915E97882341F05F96D5
:101AD0008D919C91909769830E94180D6981D8011E
:101AE0009796ED91FC9198979081D1968C91D19792
:101AF0008095892380839596ED91FC9196979081AE
:101B0000D0968C91809589238083C8010E94EA0C2D
:101B1000D8019596ED91FC9196979081D0968C91F5
:101B2000892B80830F90DF91CF911F910F910895A2
:101B3000EF92FF920F931F93CF93DF9300D0CDB717
:101B4000DEB77C01162F6AE229834A830E94590D71
:101B500060E0C7010E941B0DF70182A9612F680F89
:101B6000C7010E941B0D60E0C7010E941B0DF70119
:101B700082A92981622F680FC7010E941B0D6BE2A9
:101B8000C7010E94590D60E0C7010E941B0DF701BB
:101B900083A94A81642F680FC7010E941B0D60E072
:101BA000C7010E941B0DF70183A9602F680FC701B1
:101BB0000E941B0D6CE2C7010F900F90DF91CF9137
:101BC0001F910F91FF90EF900C94590D1092740398
:101BD0001092730361E080916B030E948D1F61E09E
:101BE00080916A030E948D1F80916A0390E0FC013E
:101BF000EB52F94FE491F0E0EE0FFF1FE953F94F7C
:101C0000259134913093670320936603FC01EC50D7
:101C1000F94FE491E093710380916B0390E0FC0134
:101C2000EB52F94FE491F0E0EE0FFF1FE953F94F4B
:101C3000259134913093690320936803FC01EC50A3
:101C4000F94FE491E093720380915F03882309F4D4
:101C500039C0CFB7F89480916502811127C0E6EEB4
:101C6000F6E08491E5E0F7E09491E82FF0E0EE0FE4
:101C7000FF1FE754F94FA591B491EC91E92321F4AA
:101C800061E081E10E942A1F61E081E10E948D1FD5
:101C90008CB580618CBD8CB580648CBD61E08FE0BB
:101CA0000E948D1F61E080E10E948D1F809165027E
:101CB0008F5F80936502CFBF80E5809360031092B1
:101CC000610349C061E080916E030E948D1F61E055
:101CD00080916D030E948D1F80916E0390E0FC0146
:101CE000EB52F94FE491F0E0EE0FFF1FE953F94F8B
:101CF000A591B491B0936503A0936403FC01EC50EB
:101D0000F94F84918093700320916D0330E0F901C5
:101D1000EB52F94FE491F0E0EE0FFF1FE953F94F5A
:101D2000459154915093630340936203F901EC5041
:101D3000F94FE491E0936F039C91E82FE095E9233C
:101D4000EC93E0916203F0916303908180916F03C3
:101D5000809589238083E0916603F09167039081E9
:101D60008091710380958923808380916C038823FF
:101D700021F161E00E948D1F61E080916C030E945F
:101D80002A1F64EF71E080E090E00E94961260E00C
:101D900080916C030E942A1F64EF71E080E090E064
:101DA0000E94961261E080916C030E942A1F64EFEA
:101DB00071E080E090E00E949612EAECF0E014916D
:101DC000CBECD0E011114EC066E381E493E00E94B9
:101DD000590DC1E0C093560368EA81E493E00E9484
:101DE0001B0D80EA90E090934A038093490380E8BA
:101DF00090E090934C0380934B03E0914103F0916A
:101E000042030088F189E02D60E070E081E493E016
:101E1000099544EB64E188EC0E943422C093550399
:101E200080915A03882309F454C01092570380917B
:101E300058039091590390935203809351039093C8
:101E400054038093530310924E0310924D0310924B
:101E5000500310924F036DEC71E081E493E00E9417
:101E6000281F37C0FE01649181E493E00E94590D60
:101E70006E01F2E0CF0ED11CFE013196C4910C2F01
:101E80000078CF777601DC2FD15050F0F7016491C4
:101E900081E493E00E941B0DFFEFEF1AFF0AF4CFDD
:101EA000C6018C0F911DEC01002389F07C019FEF8E
:101EB000E91AF90AFE01649170E06F3F710511F4AF
:101EC00064EF71E080E090E00E949612E70111500B
:101ED00079CF82E080935503E0906602F09067022C
:101EE0004FEF6FEF8FEF0E94342210924E0310924B
:101EF0004D038EE190E09093500380934F03A70130
:101F00000F2C000C660B770B81E493E00E94CD2030
:101F1000CEE1D0E080ED93E00E94781780916602D8
:101F200090916702E816F906A9F340E060E080E0CE
:101F30000E94342210924E0310924D03D09350030E
:101F4000C0934F03A701FF0C660B770B81E493E06E
:101F50000E94CD204FEF6FEF8FEF0E94342210923E
:101F60004E0310924D03D0935003C0934F03409102
:101F7000660250916702052E000C660B770B81E418
:101F800093E00E94CD20E0906602F0906702C2CFFD
:101F90000F931F93CF93DF938C01FB01808191817D
:101FA0008F3F2FEF920721F4E801AF81B8850EC073
:101FB000D801139612962D913C911397E90148810F
:101FC00059818417950710F0D901F4CF12968D919D
:101FD0009C91139793838283EC01FD83EC83B583FB
:101FE000A4831396FC93EE93129711870087F80150
:101FF00080818F5F8083DF91CF911F910F91089532
:10200000EF92FF920F931F93DC01ED91FC911197DA
:102010001A960D911C911B9718962D913C9119972A
:102020000684F785E02D7B0140E050E060E070E041
:1020300009951F910F91FF90EF9008958C01F894EE
:1020400061E08DE00E948D1FC0E0D0E0C017D10795
:10205000E4F461E08DE00E942A1F80E899EAA3E0A1
:10206000B0E000000197A109B109D9F760E08DE067
:102070000E942A1F80E899EAA3E0B0E000000197DF
:10208000A109B109D9F72196E1CF40E05AE668E10C
:1020900070E000004150510961097109D1F7D4CFB6
:1020A000611102C060E201C061E20C94590DAF926F
:1020B000BF92CF92DF92EF92FF920F931F93CF9335
:1020C000DF93EC0159016801288539856217730790
:1020D0000CF075C08A859B85481759070CF06FC0B6
:1020E000FB01EA0DFB1D2E173F071CF45901A61A30
:1020F000B70A9A012C0D3D1D821793071CF46C0141
:10210000C41AD50A8D8D823091F49701207E3770E4
:10211000C701982F8827990F990F990F822B932B1E
:10212000EF2CFF24E694E694E694E82AF92A0FEFD0
:10213000040F0C0D2FEF260F2A0DCE010E94980DD3
:102140008E8D882321F08F8D98A10E94180DEFA10C
:10215000F8A5908189A9892B8083EDA1FEA19081AA
:1021600088A98095892380831C141D049CF4850113
:10217000101611065CF46F2DCE010E94EA0C6E2D34
:10218000CE010E94EA0C01501109F2CF81E0C81A79
:10219000D108EACFEDA1FEA1908188A9892B808387
:1021A0008E8D882361F0DF91CF911F910F91FF9069
:1021B000EF90DF90CF90BF90AF900C94170DDF9110
:1021C000CF911F910F91FF90EF90DF90CF90BF9034
:1021D000AF900895CF92DF92EF92FF920F931F93EB
:1021E000CF93DF93EC0169017801888599856817A1
:1021F00079070CF061C02A853B85421753070CF024
:102200005BC09B012C0D3D1D821793071CF46C01D4
:10221000C61AD70A2FEF260F2C0D042FCE010E94CD
:10222000980D8D8D823091F49701207E3770C70113
:10223000982F8827990F990F990F822B932BEF2CAA
:10224000FF24E694E694E694E82AF92A8E8D882302
:1022500021F08F8D98A10E94180DEFA1F8A5908113
:1022600089A9892B8083EDA1FEA1908188A9809501
:1022700089238083C114D10461F06F2DCE010E94A7
:10228000EA0C6E2DCE010E94EA0C81E0C81AD1083A
:10229000F1CFEDA1FEA1908188A9892B80838E8D3D
:1022A000882351F0DF91CF911F910F91FF90EF9014
:1022B000DF90CF900C94170DDF91CF911F910F916C
:1022C000FF90EF90DF90CF900895CF92DF92EF9242
:1022D000FF920F931F93CF93DF93EC016901780175
:1022E00088859985681779070CF062C08A859B8577
:1022F000481759070CF05CC09A012C0D3D1D821740
:1023000093071CF46C01C41AD50A0FEF040F0C0DCF
:10231000262FCE010E94980D8D8D823091F4970169
:10232000207E3770C701982F8827990F990F990F32
:10233000822B932BEF2CFF24E694E694E694E82A74
:10234000F92A0F2D8E8D882321F08F8D98A10E9460
:10235000180DEFA1F8A5908189A9892B8083EDA1A3
:10236000FEA1908188A9809589238083C114D1041E
:1023700061F0602FCE010E94EA0C6E2DCE010E940A
:10238000EA0C81E0C81AD108F1CFEDA1FEA190813D
:1023900088A9892B80838E8D882351F0DF91CF917E
:1023A0001F910F91FF90EF90DF90CF900C94170D3D
:1023B000DF91CF911F910F91FF90EF90DF90CF9021
:1023C0000895EF92FF920F93CF93DF93EC01790181
:1023D00077FD56C088859985681779070CF050C03D
:1023E00057FD4EC08A859B85481759070CF048C099
:1023F00001E0040F21E0260FCE010E94980D8E8D82
:10240000882321F08F8D98A10E94180DEFA1F8A5C7
:10241000908189A9892B8083EDA1FEA1908188A953
:102420008095892380838D8D823091F49701207E61
:102430003770C701982F8827990F990F990F822B12
:10244000932BEF2CFF24E694E694E694E82AF92AED
:102450006F2DCE010E94EA0C6E2DCE010E94EA0C77
:10246000EDA1FEA1908188A9892B80838E8D882380
:1024700039F0DF91CF910F91FF90EF900C94170DF1
:10248000DF91CF910F91FF90EF900895823108F086
:102490008251E82FF0E0E95DF94FE49180917B00F3
:1024A000E3FB222720F930E095E0220F331F9A95B5
:1024B000E1F78F7D282B20937B00E770E064E093A9
:1024C0007C0080917A00806480937A0080917A0009
:1024D00086FDFCCF809178002091790090E0922BCE
:1024E00008953FB7F8948091710290917202A09183
:1024F0007302B091740226B5A89B05C02F3F19F056
:102500000196A11DB11D3FBFBA2FA92F982F882773
:10251000820F911DA11DB11DBC01CD0142E0660FCE
:10252000771F881F991F4A95D1F708958F929F9220
:10253000AF92BF92CF92DF92EF92FF926B017C013C
:102540000E9471124B015C01C114D104E104F10439
:10255000F1F00E947112DC01CB0188199909AA09D6
:10256000BB09883E9340A105B10570F321E0C21A72
:10257000D108E108F10888EE880E83E0981EA11CBE
:10258000B11CC114D104E104F10419F7DDCFFF90AF
:10259000EF90DF90CF90BF90AF909F908F90089575
:1025A0001F920F920FB60F9211242F933F938F9388
:1025B0009F93AF93BF9380916D0290916E02A09113
:1025C0006F02B091700230916C0223E0230F2D371F
:1025D00020F40196A11DB11D05C026E8230F029627
:1025E000A11DB11D20936C0280936D0290936E0229
:1025F000A0936F02B0937002809171029091720269
:10260000A0917302B09174020196A11DB11D809337
:10261000710290937202A0937302B0937402BF91FF
:10262000AF919F918F913F912F910F900FBE0F907F
:102630001F901895CF93DF93E091EC02F091ED029B
:10264000938382832091C4023091C502821793073D
:1026500070F46091EC027091ED0280917F02909194
:1026600080026E5F7F4FDF91CF910C94C80FEC0119
:102670006091EC027091ED02809181029091820252
:102680006E5F7F4F0E94C80F8091B7029091B80291
:10269000C817D90720F4D093B802C093B702DF91CE
:1026A000CF910895809168028F5F809368020895AA
:1026B000CF93DF93FC01A085B18582819381248132
:1026C0003581EC013D832C83C481D5819B838A8332
:1026D00011968D919C9112978E179F0721F4129657
:1026E000DC93CE931197118610868C9181508C9338
:1026F000DF91CF910895CF93DF939C01FB01DC0123
:102700001196CD91DC911297D383C2838C819D81E8
:10271000958384838C819D81DC0113967C936E93D9
:1027200012977D836C8331872087F90180818F5FC9
:102730008083DF91CF91089581E090E00E941E1088
:1027400010926B02E091EC02F091ED020788F08D9F
:10275000E02D80819181A281B381853A954AA54A75
:10276000B54AE9F484819581A681B781853A954A75
:10277000A54AB54AA1F480859185A285B385853A9D
:10278000954AA54AB54A59F484859585A685B785A5
:10279000853A954AA54AB54A11F499E011C080914D
:1027A000EC029091ED028091EC029091ED0283E0B9
:1027B00090E00E941E108091EB0281508093EB020A
:1027C000E091EB029E9FF0011124E953FD4F8081BF
:1027D000811106C08091EB028111EDCF0E949C1304
:1027E0008091EB0290E049E0489F9001499F300DB5
:1027F0001124F901E953FD4FA181B28112960D9088
:10280000BC91A02DB283A18326533D4FA217B307DD
:1028100031F412962D913C9113973283218329E054
:10282000289FF001299FF00D1124E953FD4F0180ED
:10283000F281E02D868197819093ED028093EC02E6
:1028400008950F920FB6F8940F921F9211242F92B1
:102850003F924F925F926F927F928F929F92AF9230
:10286000BF92CF92DF92EF92FF920F931F932F931D
:102870003F934F935F936F937F938F939F93AF9308
:10288000BF93CF93DF93EF93FF93A091EC02B091AE
:10289000ED020DB60D920EB60D928091680288235E
:1028A00021F081E080936B0202C00E94A013A091EE
:1028B000EC02B091ED02CD91CDBFDD91DEBFFF9175
:1028C000EF91DF91CF91BF91AF919F918F917F91C8
:1028D0006F915F914F913F912F911F910F91FF90B9
:1028E000EF90DF90CF90BF90AF909F908F907F90B0
:1028F0006F905F904F903F902F901F900F900FBE62
:102900000F900895FC01892B11F40E949C1361150E
:102910007105D9F30FB6F8940F924091C40250910B
:10292000C5023091C602208181819281321719F04F
:1029300048175907D8F4DB012D913C91DA01A81B07
:10294000B90BA217B30790F4841B950B820F931F4A
:10295000DB018D939C938091C60280838091C40299
:102960009091C5029283818380E001C081E00F9045
:102970000FBE08950F931F93CF93DF93DC0115963D
:10298000ED91FC911697C681D781209711F40E9492
:102990009C138E01045F1F4FC8010E945813809141
:1029A0006802811114C00A501109C8010E9458130D
:1029B0009E898091EB02891710F49093EB02B9E0A5
:1029C0009B9FC0011124B80189539D4F03C0B801DA
:1029D0008CE892E00E947B13E091EC02F091ED0212
:1029E0009E898689891720F481E080936B0201C05B
:1029F00080E0DF91CF911F910F910895FF920F9387
:102A00001F93CF93DF93EC010FB6F8940F928C01D4
:102A10000F5E1F4FFF24F3949E8D19166CF4898965
:102A2000882351F0C8010E94BA148111F0926B0200
:102A30009E8D91509E8FF0CF8FEF8E8F0F900FBE97
:102A40000FB6F8940F928E01085F1F4FFF24F39486
:102A50009D8D19166CF48885882351F0C8010E9459
:102A6000BA148111F0926B029D8D91509D8FF0CF21
:102A70008FEF8D8F0F900FBEDF91CF911F910F9130
:102A8000FF900895CF93DF93EB01009711F40E941C
:102A90009C132091EC023091ED02B901645F7F4FED
:102AA0000E94C80F8091EC029091ED0202960E9464
:102AB00058138091C4029091C5028C0F9D1FDF9125
:102AC000CF910C941A13CF92DF92EF92FF920F9353
:102AD0001F93CF93DF93809168028111B1C08091E1
:102AE000C4029091C50201969093C5028093C402DE
:102AF000E090C402F090C502E114F104B9F5E09150
:102B00008102F0918202808181110E949C13809148
:102B100081029091820220917F0230918002309355
:102B20008202209381029093800280937F028091A1
:102B3000C6028F5F8093C602E0918102F09182020B
:102B40008081811103C08FEF9FEF0CC0E091810263
:102B5000F09182020580F681E02D0680F781E02D5C
:102B6000828193819093B8028093B7028091B702DB
:102B70009091B802C0E0E816F90608F44FC0D9E019
:102B8000E0918102F09182028081811103C08FEF78
:102B90009FEF11C0E0918102F09182020580F681E1
:102BA000E02D06811781D80112968D919C91139783
:102BB000E816F90628F49093B8028093B7022EC065
:102BC0006801B2E0CB0ED11CC6010E945813F80177
:102BD00084899589892B21F0C8010C960E9458138D
:102BE000D80156969C918091EB02891710F490932E
:102BF000EB02D99FC0011124B60189539D4F0E9459
:102C00007B13E091EC02F091ED02D80156969C9175
:102C10008689981708F4B4CFC1E0B2CFE091EC02F6
:102C2000F091ED02E689B9E0EB9FF0011124E95340
:102C3000FD4F8081823008F0C1E08091690206C0BA
:102C4000809169028F5F80936902C0E080916B027E
:102C50008111C1E08C2FDF91CF911F910F91FF90D7
:102C6000EF90DF90CF9008950F920FB6F8940F92E7
:102C70001F9211242F923F924F925F926F927F92F8
:102C80008F929F92AF92BF92CF92DF92EF92FF927C
:102C90000F931F932F933F934F935F936F937F9364
:102CA0008F939F93AF93BF93CF93DF93EF93FF9354
:102CB000A091EC02B091ED020DB60D920EB60D9200
:102CC0000E946315882351F080916802882321F0C7
:102CD00081E080936B0202C00E94A013A091EC02DD
:102CE000B091ED02CD91CDBFDD91DEBFFF91EF91AF
:102CF000DF91CF91BF91AF919F918F917F916F9114
:102D00005F914F913F912F911F910F91FF90EF9005
:102D1000DF90CF90BF90AF909F908F907F906F90FB
:102D20005F904F903F902F901F900F900FBE0F908D
:102D300008950E9434161895EF92FF920F931F93F7
:102D4000CF93DF9380916802811102C00E949C138F
:102D50000FB6F8940F9280916802815080936802B8
:102D600080916802882311F080E053C08091960220
:102D70008823D1F389E0F82EEE24E39480918C022D
:102D8000882351F1E0919102F0919202C681D7819E
:102D9000CE010C960E9458138E010E5F1F4FC80182
:102DA0000E9458139E898091EB02891710F490932A
:102DB000EB02F99EC0011124B80189539D4F0E9476
:102DC0007B13E091EC02F091ED029E8986899817C1
:102DD000A8F2E0926B02D2CF80916902811109C002
:102DE00080916B02813009F0BFCF0E94211481E0F5
:102DF00010C0C1E080916902882391F30E9463159D
:102E00008111C0936B0280916902815080936902A5
:102E1000F1CF0F900FBEDF91CF911F910F91FF90D7
:102E2000EF900895CF93DF93009751F0EC010E944B
:102E30005213CE010E94A227DF91CF910C949C16D1
:102E4000DF91CF91089580916A02882349F10E9411
:102E50005213C09183020E949C16CC23A1F30FB69B
:102E6000F8940F92E0918802F0918902C681D7818F
:102E7000CE0102960E945813809196028150809351
:102E8000960280916A02815080936A020F900FBE71
:102E90008F89988D0E941217CE010E941217D3CFEE
:102EA0008091C702823078F20E942114CCCF0F9318
:102EB0001F93CF93DF9300D0CDB7DEB789839A837A
:102EC0000E94521389819A810E940D278C010E94D1
:102ED0009C160115110521F482E090E00E941E105D
:102EE000C8010F900F90DF91CF911F910F9108951E
:102EF000CF93DF93EC01892B19F40E9421141BC09E
:102F00008091680281110E949C130E9452132091AB
:102F1000C4023091C502C20FD31F8091EC02909180
:102F2000ED0202960E945813CE010E941A130E94CD
:102F30009C16882311F3DF91CF91089580919C0214
:102F400081110DC082E08093980284E08093990201
:102F500010929B0210929A0281E080939C0288E971
:102F600092E00895DF92EF92FF920F931F93CF9319
:102F7000DF93D82E8A017B01E40EF51EEB01CE15FE
:102F8000DF0571F0D7FE03C0FE01849101C0888186
:102F90000E94271E21968111F2CF8FEF9FEF01C073
:102FA000C801DF91CF911F910F91FF90EF90DF90BB
:102FB00008950F931F93CF93DF931F92CDB7DEB782
:102FC00082E0898342E450E063E376E080E80E9497
:102FD000B2170E949E17DC0112960D911C91139757
:102FE0000115110569F0D801ED91FC910280F38182
:102FF000E02DBE016F5F7F4FC801099597FF07C0A5
:1030000089810F90DF91CF911F910F910895F80161
:1030100000851185E5CF6F927F929F92AF92BF920C
:10302000CF92DF92EF92FF920F931F93CF93DF9394
:103030005C01962EC72EEA01D22E892B11F40E9434
:103040009C13822F90E00497D4F7CA010E9457176F
:103050003C01892B09F48BC189E290E00E9457174B
:103060007C010097D9F0DC0158967C926E925797BC
:10307000AE0165EA70E0C3010E94FF262197D701E7
:103080005796ED91FC915897EC0FFD1FB701675EC5
:103090007F4FA92DBC2DCD01089607C0C3010E940A
:1030A000121765C1A817B90749F09D014D91EB01B1
:1030B0004993BE01E90128812111F4CFD7019096EF
:1030C0001C928D2DB3E0BD1508F483E0E7018E8BD3
:1030D00089A31AA21B861A861D8A1C8AF986E8868D
:1030E00024E030E0A901481B51095D874C87FB8A29
:1030F000EA8A1BA21CA21DA21EA218A61FA291E171
:103100009083DF01119782E28C93119723E32C9334
:103110001197AC921197BC9211971C92119720E8CD
:103120002C9311971C92119722E02C93119723E076
:103130002C93119724E02C93119725E02C93119751
:1031400026E02C93119727E02C93119728E02C93DD
:10315000119729E02C93119720E12C9311979C93C0
:10316000119792E19C93119793E19C93119794E1AD
:103170009C93119795E19C93119796E19C931197DD
:1031800097E19C93119798E19C93119799E19C93F7
:10319000119790E29C93119791E29C9311978C93D5
:1031A000119783E28C9311971C9211971C9211979F
:1031B00086E28C93119787E28C93119788E28C9327
:1031C000119789E28C93119780E38C93119781E397
:1031D0008C93B697F983E8830115110519F0F8016E
:1031E000F182E0820FB6F8940F92809196028F5F81
:1031F000809396028091EC029091ED02892B09F068
:103200007DC0F092ED02E092EC0280919602813056
:1032100009F083C0E7ECF2E04FEF5FEF9F012D5F15
:103220003F4F328321838FEF9FEF54834383368355
:103230002583308727831082399622E0EB3EF20700
:1032400069F720EB32E03093AF022093AE02909307
:10325000B1028093B0023093B3022093B202309354
:10326000B5022093B4021092AD0227EA32E0309307
:10327000A6022093A5029093A8028093A702309300
:10328000AA022093A9023093AC022093AB021092C1
:10329000A4022FE832E030938E0220938D029093A7
:1032A000900280938F023093920220939102309388
:1032B00094022093930210928C0226E832E030931D
:1032C0008502209384029093870280938602309334
:1032D00089022093880230938B0220938A021092F5
:1032E00083028DEA92E0909382028093810284EAC5
:1032F00092E09093800280937F020FC080919502AC
:1033000081110BC0E091EC02F091ED028689D81694
:1033100020F0F092ED02E092EC028091B6028F5F15
:103320008093B602D70156968C919091EB02981734
:1033300010F48093EB02B7016E5F7F4FB9E08B9F73
:10334000C001112489539D4F0E947B130F900FBE23
:1033500080919502882349F0E091EC02F091ED0212
:1033600086898D1510F40E94211481E001C08FEF31
:10337000DF91CF911F910F91FF90EF90DF90CF9051
:10338000BF90AF909F907F906F900895FC018091C7
:103390007E02811103C08FEF9FEF08959FB7F894CD
:1033A00082E08093E9002091F20030E012161306CB
:1033B00014F421E030E02115310559F0289884E615
:1033C00080937D028091F10080838091F2008823B8
:1033D00019F09FBFC90108958BE68093E800F9CFEB
:1033E0000F931F93CF93DF93EC018881998100970E
:1033F00029F02A813B812617370788F48B016F5FFC
:103400007F4F0E942726009761F0998388831B8352
:103410000A832C813D81232B11F4FC01108281E071
:1034200001C080E0DF91CF911F910F910895EF923D
:10343000FF920F931F93CF93DF93EC017B018A01DF
:10344000BA010E94F0192881398181110DC021151E
:10345000310519F0C9010E94A227198218821D8224
:103460001C821B821A8206C01D830C83B701C9010E
:103470000E940627CE01DF91CF911F910F91FF90FF
:10348000EF9008951F920F920FB60F9211248F9311
:103490009F938091E1009091E100937F9093E100F0
:1034A00083FF0FC01092E90091E09093EB0010921F
:1034B000EC0092E39093ED0010927E0298E09093DE
:1034C000F00082FF20C093E09093E9009091F20019
:1034D000992319F09AE39093E80090917C02992344
:1034E00039F090917C02915090937C02992389F15C
:1034F00090917D02992339F090917D0291509093A3
:103500007D02992341F184FF10C08091E2008E7EFC
:1035100081608093E2008091E1008F7E8093E100E2
:1035200080917B028E7E806111C080FF16C08091E9
:10353000E2008E7E80618093E2008091E1008E7EC9
:103540008093E10080917B028E7E816080937B027C
:1035500004C05D9ACDCF289AD6CF9F918F910F90BE
:103560000FBE0F901F9018951F920F920FB60F92DB
:103570001124CF92DF92EF92FF920F931F932F931C
:103580003F934F935F936F937F938F939F93AF93EB
:10359000BF93EF93FF93CF93DF93CDB7DEB76C97D5
:1035A000DEBFCDBF1092E9008091E80083FFFAC131
:1035B00068E0CE0145960E94551E82EF8093E80098
:1035C0008D8987FF05C09091E80090FFFCCF03C074
:1035D0009EEF9093E800982F907609F0C6C09E89E0
:1035E0002F89188D91110CC0803829F480917A02AE
:1035F0008093F10002C01092F1001092F10047C1D7
:10360000422F50E0512B913051F4811140C1413093
:10361000510509F03CC180917A028D7F0BC0933037
:1036200061F4811134C14130510509F030C18091FC
:103630007A02826080937A022AC1953041F48091A7
:10364000E80080FFFCCF20682093E30020C1963083
:1036500009F05FC0EB8CFC8C1092E90010927802AC
:1036600010927702123091F5109276021092750244
:103670000E94D91799E0BE016F5F7F4FDB01E92FF0
:103680001D92EA95E9F799831A8391E09E8390EA67
:1036900098879AEF99872091770230917802275F77
:1036A0003F4F3C832B838D831092E9001092780268
:1036B00010927702F0927602E092750249E050E0B3
:1036C00080E00E94B2170E94D917E1C0F092760202
:1036D000E09275020E949E17DC011296ED90FC901C
:1036E0001397E114F10409F4C0C0D701ED91FC91E6
:1036F0000480F581E02DBE016B5E7F4FC701099507
:10370000009719F00CF0C3C0C6C0F701E084F18443
:10371000E8CF973009F4BFC0983021F481E080935E
:10372000F100B5C0993009F0B2C0837009F0B3C0A0
:10373000E7E1F1E081E021E036E39081992361F057
:103740008093E9002093EB0091919093EC003093EB
:10375000ED008F5F873089F78EE78093EA00109243
:10376000EA008F8980937E0292C08B8D9C8D10928F
:10377000E90010927802109277029093760280937B
:103780007502898D811156C08E899D89913A59F4AF
:10379000813209F080C047E050E068E071E080E0ED
:1037A0000E94B21774C0913209F075C0833289F457
:1037B000888D90E0982F88272F89822BA0E0B0E099
:1037C0008093040190930501A0930601B093070133
:1037D0005EC0803269F48091E80082FFFCCF67E030
:1037E00088E091E00E94551E8BEF8093E80006C0B0
:1037F000823209F04CC08F8980930F018091790249
:10380000882319F0EEEFFAE002C0E0E0F8E08091E2
:10381000080190910901A0910A01B0910B01803B30
:103820009440A105B10509F088C080910F0180FF87
:10383000A0C083C00E949E17DC0112960D911C91BE
:1038400013970115110539F1D801ED91FC91019003
:10385000F081E02DBE016B5E7F4FC801099581119B
:1038600016C0F80100851185ECCF1130C1F013307E
:1038700091F48F89882309F455C08230E9F440E837
:103880006FE085E896E00E947A22882321F08EEF8F
:103890008093E80087C081E28093EB0083C08B8D2A
:1038A0009C8D089711F410939702809197028111D3
:1038B00036C065E976E038C0813029F440E86BE035
:1038C00089E796E0E0CF833031F70E949E17DC0154
:1038D0001296ED90FC9013978E010F5F1F4F6801B9
:1038E000E114F10479F0D701ED91FC910680F781A4
:1038F000E02DB801C7010995080F111DF701E084FB
:10390000F184EECFD8011C92F60101900020E9F776
:103910003197BF016C197D0940E0C601B4CF67EA59
:1039200076E002C065E776E06115710509F4B3CF72
:10393000FB01449150E080E833CF0FB6F894A8958E
:1039400080916000886180936000109260000FBEDB
:10395000A895EE3F2AE0F20739F08091FE0A909197
:10396000FF0A9183808393CF1092FF0A1092FE0A80
:103970008ECFEE3F8AE0F80731F0808191819093FD
:10398000FF0A8093FE0A87E797E7918380839BE095
:1039900088E10FB6F894A895809360000FBE9093CD
:1039A000600075CF6C960FB6F894DEBF0FBECDBF2A
:1039B000DF91CF91FF91EF91BF91AF919F918F9147
:1039C0007F916F915F914F913F912F911F910F9137
:1039D000FF90EF90DF90CF900F900FBE0F901F9051
:1039E0001895CF92DF92EF92FF920F931F93CF9390
:1039F000DF936C017A018B01C0E0D0E0CE15DF05CA
:103A000089F0D8016D918D01D601ED91FC91019065
:103A1000F081E02DC6010995892B11F47E0102C0C9
:103A20002196ECCFC701DF91CF911F910F91FF90AD
:103A3000EF90DF90CF900895CF93DF931F92CDB793
:103A4000DEB76983DC01ED91FC910280F381E02D0A
:103A500041E050E0BE016F5F7F4F09950F90DF910D
:103A6000CF91089583E08093E9008091F20088234C
:103A700019F08AE38093E8000895FC018485958518
:103A800097FD0BC09FB7F89482E08093E900809186
:103A9000F2009FBF90E0019608959FB7F89482E0EE
:103AA0008093E9008091F2009FBF90E008958F928B
:103AB0009F92AF92BF92CF92DF92EF92FF920F93BD
:103AC0001F93CF93DF935C016B018A0180910F01FB
:103AD000882309F45EC080917E02882309F459C0CE
:103AE00080917B0280FF05C08091E000826080931E
:103AF000E000E8018AEFF82E93E0E92E2FE3822E12
:103B00003AE3932E209709F43DC08FB7F894E092E2
:103B1000E9009091E80095FF06C09091F200282DF1
:103B2000291B922F01C090E08FBF91110AC0FA9417
:103B3000FF2079F161E070E080E090E00E94961251
:103B4000E1CF292F30E0C217D3070CF49C2F8FB799
:103B5000F894E092E9002091E80025FF11C0292F98
:103B600030E0C21BD30BF601915020F041914093FD
:103B7000F100FACFC20ED31E9091E80095FF13C05A
:103B80008FBFC0CF5D9884E680937C02101611062B
:103B900044F081E090E0F5019383828380E090E03F
:103BA00005C0C80103C09092E800EACFDF91CF9131
:103BB0001F910F91FF90EF90DF90CF90BF90AF904B
:103BC0009F908F9008950F931F93CF93DF931F9231
:103BD000CDB7DEB78C01FC018485958597FF0EC0BB
:103BE000CE0101960E94C619019719F4298130E08F
:103BF00002C02FEF3FEFF80135872487F801848555
:103C000095850F90DF91CF911F910F910895CF93DC
:103C1000DF931F92CDB7DEB7FC018485958597FDB4
:103C200005C02FEF3FEF358724870BC0CE010196EB
:103C30000E94C619019719F4898190E002C08FEFA4
:103C40009FEF0F90DF91CF9108950E94F126409150
:103C500077025091780220917502309176024217D6
:103C60005307B4F49091E8009570E1F39091E80067
:103C700092FD19C08093F1008091770290917802B3
:103C800001968F739927892B19F48EEF8093E800A2
:103C900080917702909178020196909378028093B8
:103CA000770281E0089580E00895615030F020911E
:103CB000F100FC0120830196F8CF289884E68093D8
:103CC0007D0208951F920F920FB60F9211242F9329
:103CD0003F938F939F93AF93BF93EF93FF93809105
:103CE000C0029091C102A091C202B091C302E091C2
:103CF000BD02F091BE02892B8A2B8B2B31F1809172
:103D0000BF029081892780838091C0029091C10277
:103D1000A091C202B091C302181619061A061B061A
:103D20002CF58091C0029091C102A091C202B09185
:103D3000C3020197A109B1098093C0029093C10207
:103D4000A093C202B093C30211C0809171008D7F15
:103D5000809371009091BF028081282F30E0892FDD
:103D600090E080959095822393238083FF91EF913B
:103D7000BF91AF919F918F913F912F910F900FBE67
:103D80000F901F901895DC01ED91FC910190F0814E
:103D9000E02D09946115710579F0FB010190002077
:103DA000E9F73197AF01461B570BDC01ED91FC9110
:103DB0000280F381E02D099480E090E008954F9215
:103DC0005F926F927F92EF92FF920F931F93CF9328
:103DD000DF93CDB7DEB7A1970FB6F894DEBF0FBE65
:103DE000CDBF7C01FA01CB0119A2223008F42AE0F0
:103DF0008E010F5D1F4F422E512C612C712CBF0183
:103E0000A30192010E94C824F901CA0101501109BD
:103E10006A3014F4605D01C0695CD8016C93232B97
:103E2000242B252B61F7B801C7010E94CA1EA19659
:103E30000FB6F894DEBF0FBECDBFDF91CF911F91BB
:103E40000F91FF90EF907F906F905F904F9008954B
:103E50000C94CA1E362F90E0FC01ED5EF84F4491A1
:103E6000FC01EC50F94F2491FC01EB52F94F849185
:103E7000882309F451C04423E1F150E0FA0131975D
:103E8000EF30F105B0F5EA5AFF4F0C9409259091F7
:103E900080009F7707C0909180009F7D03C0909124
:103EA0008000977F9093800024C094B59F7702C0D4
:103EB00094B59F7D94BD1DC0909190009F7707C0E1
:103EC000909190009F7D03C090919000977F909378
:103ED00090000FC09091C0009F7703C09091C000E8
:103EE0009F7D9093C00005C09091C200977F9093F2
:103EF000C200E82FF0E0EE0FFF1FE953F94FA59144
:103F0000B4918FB7F894EC91311103C020952E2312
:103F100001C02E2B2C938FBF0895CF93DF9390E099
:103F2000FC01EC50F94F2491FC01EB52F94F8491C4
:103F3000882361F190E0880F991FFC01E754F94F45
:103F4000C591D491FC01E953F94FA591B491611148
:103F500009C09FB7F8948881209582238883EC91CB
:103F60002E230BC0623061F49FB7F8943881822F02
:103F7000809583238883EC912E2B2C939FBF06C0C2
:103F80008FB7F894E8812E2B28838FBFDF91CF91D4
:103F90000895CF92DF92EF92FF920F931F93CF93EA
:103FA000DF9300D000D01F92CDB7DEB78C011D8209
:103FB0001C82009711F40E949C13FC01848D8111D6
:103FC000FACF90E07801F8E0EF0EF11C0FB6F8940C
:103FD0000F92F801228D838D281708F07BC0448D45
:103FE000411148C080819181892B09F05CC0F801A2
:103FF000E280F380E114F10411F480E037C0809195
:10400000EC029091ED02E816F906A9F6F70182A1FB
:10401000882389F2815082A3268991A1291769F307
:104020008111EBCF6701F2E0CF0ED11CC6010E94D7
:104030005813F70191A1968B492F50E024E030E00E
:10404000241B350B358724878091EB02891710F4E8
:104050009093EB0229E0249FC001259F900D11242D
:10406000B60189539D4F0E947B1381E0F8011382B2
:1040700012821AC050E060E070E0F80184819581FE
:104080000E94F626F801248D84819581820F911D6E
:1040900095838483228133818217930720F0808166
:1040A00091819583848380E0F801928D9F5F928F48
:1040B0009189992349F0C80141960E94BA14813030
:1040C00029F40E94211402C08111FBCF0F900FBE72
:1040D00081E055C02C813D81232B19F40F900FBE38
:1040E0004DC0911109C08091C60289838091C4029C
:1040F0009091C5029B838A830F900FBE0E9452133A
:104100000FB6F8940F92F801858D8F3F09F4158E44
:10411000F801868D8F3F09F4168E0F900FBEBE01F9
:104120006C5F7F4FCE0101960E948214811121C0E5
:104130000FB6F8940F92F801928D0F900FBE838DF9
:10414000981311C06C817D81C7010E944215C8017E
:104150000E94FE140E949C16882311F091E036CF35
:104160000E942114FBCFC8010E94FE140E949C16DD
:10417000F5CFC8010E94FE140E949C1680E00F90AB
:104180000F900F900F900F90DF91CF911F910F9193
:10419000FF90EF90DF90CF900895CF92DF92EF9253
:1041A000FF920F931F93CF93DF9377FF1DC06A0198
:1041B0007B01EC016DE20E94C31E8C014427552750
:1041C000BA014C195D096E097F092AE0CE010E94EF
:1041D000DF1E800F911FDF91CF911F910F91FF90F4
:1041E000EF90DF90CF9008952AE0DF91CF911F915B
:1041F0000F91FF90EF90DF90CF900C94DF1E6F92A5
:104200007F929F92AF92BF92CF92DF92EF92FF92F6
:104210000F931F93CF93DF9300D000D01F92CDB7A1
:10422000DEB78C017D836C83009711F40E949C1390
:10423000FC01848D8111FACF80E06801F1E1CF0E9D
:10424000D11C99E0992E24E0A22EB12C0FB6F8943F
:104250000F92F801928D992309F446C0448D4423AE
:10426000B9F050E086819781840F951F97838683EC
:10427000228133818217930720F080819181978377
:104280008683F8016681778180E090E00E94F626BF
:10429000F801828D8150828F80819181892BA1F4D8
:1042A0008091EC029091ED02892B39F0E091EC02C3
:1042B000F091ED0282A18F5F82A38091EC02909138
:1042C000ED02F80193838283F8018085882341F011
:1042D000C80108960E94BA14813011F40E9421147A
:1042E0000F900FBE81E0ADC02C813D81232B19F4CE
:1042F0000F900FBEA5C0811109C08091C6028983AD
:104300008091C4029091C5029B838A830F900FBE57
:104310000E9452130FB6F8940F92F801858D8F3FCB
:1043200009F4158EF801868D8F3F09F4168E0F90D3
:104330000FBEBE016C5F7F4FCE0101960E948214BA
:10434000811179C00FB6F8940F92F801828D0F9009
:104350000FBE81116AC080819181892B09F054C000
:104360000FB6F8940F92E280F380E114F10409F49F
:1043700049C0F7018689E091EC02F091ED0296893F
:10438000891708F03FC0F7012485358537FD0BC03C
:10439000E091EC02F091ED0296899501291B31091B
:1043A000F70135872487989EC001112489539D4FBA
:1043B000F7012285338528173907E9F43701F2E040
:1043C0006F0E711CC3010E945813E091EC02F09132
:1043D000ED022689F701268B8091EB02821710F4FB
:1043E0002093EB02929EC0011124B30189539D4F8B
:1043F0000E947B1307C0E091EC02F091ED028689E8
:10440000F701868B0F900FBE6C817D81C6010E94E3
:104410004215C8010E94FE140E949C16882311F0C8
:1044200081E014CF0E942114FBCFC8010E94FE142A
:104430000E949C16F5CFC8010E94FE140E949C1693
:1044400080E00F900F900F900F900F90DF91CF9121
:104450001F910F91FF90EF90DF90CF90BF90AF90A2
:104460009F907F906F900895242F462F682F81E4AE
:1044700093E00E94CA03E1E4F3E021E0218F908FF2
:10448000878B918B808B938B828B08950F931F93D7
:10449000CF93DF938C01C0E0D0E0F801EC0FFD1F5B
:1044A0006491662371F0E091EE02F091EF020190C9
:1044B000F081E02D8EEE92E00995892B11F0219686
:1044C000ECCF64EC71E08EEE92E00E94CA1E8C0F7D
:1044D0009D1FDF91CF911F910F91089580917503DA
:1044E000909176030E94A22780917B0390917C0398
:1044F0000C94A227CF92DF92EF92FF920F931F931B
:10450000CF93DF931F92CDB7DEB7182F062FE42E7F
:10451000862F880F8E5F99830E94271E83E00E945A
:10452000271EF12EC12E9981D92E8C2D8F1980171F
:1045300098F4F601E7FE02C0849101C080810E94D8
:10454000271E182F80E00E94271E8123FFEFCF1A1D
:10455000DF0A8111EACF01C081E00F90DF91CF9196
:104560001F910F91FF90EF90DF90CF900895789476
:1045700084B5826084BD84B5816084BD85B5826068
:1045800085BD85B5816085BD80916E008160809319
:104590006E00109281008091810082608093810082
:1045A0008091810081608093810080918000816092
:1045B000809380008091910082608093910080912F
:1045C0009100816080939100809190008160809340
:1045D00090008091C10084608093C1008091C100EF
:1045E00082608093C1008091C10081608093C1008E
:1045F0008091C30081608093C3008091C00082607D
:104600008093C0008091C20081608093C20080913D
:104610007A00846080937A0080917A00826080932F
:104620007A0080917A00816080937A0080917A008C
:10463000806880937A0010927E0210927A02109223
:104640007B028091D70081608093D70080EA8093BD
:10465000D80089B5806189BD89B5826089BD09B4FA
:1046600000FEFDCF61E070E080E090E00E949612D5
:104670008091D8008F7C80618093D8008091E00089
:10468000807F8093E0008091E1008E7E8093E10046
:104690008DE08093E200559A209AEEEFFFE7859136
:1046A00094918B3F9C4D19F481E0809379028FEFB8
:1046B0009FEF9093FB028093FA02C0910F016AE092
:1046C00070E080E090E00E949612CC23B1F361E0AC
:1046D0008DE00E948D1F61E088E00E948D1F61E0E7
:1046E00088E00E942A1F61E087E00E948D1F61E040
:1046F00084E00E948D1F8091B9029091BA02892BAB
:10470000C9F58FE190E00E945717EC01892B49F120
:104710001B821A82198218821D821C821F821E82AD
:104720001A8E81E08B8F1C8E8FEF8D8F8E8FCE0136
:104730000B969A8789872FEF3FEF3C872B879E87C1
:104740008D87988B8F87188609969B8B8A8B3D8BDC
:104750002C8B9F8B8E8B998F888F198ACE010E940C
:10476000C91FD093BA02C093B902209719F0CE01A5
:104770000E94C91F00E010E022E044E650E062EE33
:1047800071E081EB9CE00E940B1822E044E650E0CF
:1047900065EE71E080E89CE00E940B1823E044E69F
:1047A00050E068EE71E087E999E00E940B1821E083
:1047B0004CE251E06FEE71E084E198E00E940B184A
:1047C00021E048EC50E06FEE71E086EE9DE00E9443
:1047D0000B1821E048EC50E065EF71E08DE796E0C2
:1047E0000E940B1886E397E00E9446220BEB12E032
:1047F00020E044E650E06BEF71E083E297E10E9435
:104800000B18813009F03FC0F8942FEF3FEF309341
:10481000B8022093B702809395021092C5021092BD
:10482000C40287BD80916E00826080936E00A0916B
:10483000EC02B091ED02CD91CDBFDD91DEBFFF91D5
:10484000EF91DF91CF91BF91AF919F918F917F9128
:104850006F915F914F913F912F911F910F91FF9019
:10486000EF90DF90CF90BF90AF909F908F907F9010
:104870006F905F904F903F902F901F900F900FBEC2
:104880000F90089504C0811102C00E949C1382E31E
:1048900097E00E944622FFCFCF93DF93EEEEF2E047
:1048A0001382128288EE93E0A0E0B0E084839583C7
:1048B000A683B78381E291E091838083CFEFDFEF1E
:1048C000D587C48761E082E10E948D1F61E083E1AA
:1048D0000E948D1F61E084E10E948D1F61E085E1EF
:1048E0000E948D1F61E085E00E948D1F61E08AE0DB
:1048F0000E948D1F61E089E00E948D1FE1E4F3E0DA
:104900001382128220E830E03583248340EA50E0AD
:1049100057834683158A158614861786168681E086
:10492000848BD38BC28BD18BC08B868B90E5978F7A
:1049300010A297E091A712A683A7868F15A614A6AA
:1049400081E391E091838083518740873387228779
:10495000EBE7F3E011821082138212821582148237
:1049600048E050E060E072E0CF010E94171AE5E7EE
:10497000F3E011821082138212821582148243E0C6
:1049800050E069E072E0CF01DF91CF910C94171AEB
:10499000A1E21A2EAA1BBB1BFD010DC0AA1FBB1F43
:1049A000EE1FFF1FA217B307E407F50720F0A21BB5
:1049B000B30BE40BF50B661F771F881F991F1A9422
:1049C00069F760957095809590959B01AC01BD014C
:1049D000CF010895052E97FB1EF400940E94012537
:1049E00057FD07D00E94C82407FC03D04EF40C9456
:1049F000012550954095309521953F4F4F4F5F4F82
:104A0000089590958095709561957F4F8F4F9F4F3A
:104A10000895EE0FFF1F0590F491E02D0994505872
:104A2000BB27AA270E9427250C9460290E9452299F
:104A300038F00E94592920F039F49F3F19F426F4E8
:104A40000C944F290EF4E095E7FB0C944929E92FCB
:104A50000E94712958F3BA176207730784079507F4
:104A600020F079F4A6F50C9493290EF4E0950B2E22
:104A7000BA2FA02D0B01B90190010C01CA01A001B0
:104A80001124FF27591B99F0593F50F4503E68F10B
:104A90001A16F040A22F232F342F4427585FF3CF4C
:104AA000469537952795A795F0405395C9F77EF41D
:104AB0001F16BA0B620B730B840BBAF09150A1F066
:104AC000FF0FBB1F661F771F881FC2F70EC0BA0FEC
:104AD000621F731F841F48F4879577956795B79574
:104AE000F7959E3F08F0B0CF9395880F08F099276F
:104AF000EE0F9795879508950E9490250C94602954
:104B00000E94592958F00E94522940F029F45F3F31
:104B100029F00C94492951110C9494290C944F2993
:104B20000E94712968F39923B1F3552391F3951BE2
:104B3000550BBB27AA2762177307840738F09F5FBE
:104B40005F4F220F331F441FAA1FA9F335D00E2E2B
:104B50003AF0E0E832D091505040E695001CCAF798
:104B60002BD0FE2F29D0660F771F881FBB1F26175B
:104B700037074807AB07B0E809F0BB0B802DBF0132
:104B8000FF2793585F4F3AF09E3F510578F00C9401
:104B900049290C9494295F3FE4F3983ED4F3869519
:104BA00077956795B795F7959F5FC9F7880F911D22
:104BB0009695879597F90895E1E0660F771F881F0E
:104BC000BB1F621773078407BA0720F0621B730BC1
:104BD000840BBA0BEE1F88F7E09508950E9479299F
:104BE00088F09F5798F0B92F9927B751B0F0E1F0AE
:104BF000660F771F881F991F1AF0BA95C9F714C05E
:104C0000B13091F00E949329B1E008950C9493295A
:104C1000672F782F8827B85F39F0B93FCCF3869596
:104C200077956795B395D9F73EF4909580957095F3
:104C300061957F4F8F4F9F4F08950E94B82808F4C9
:104C40008FEF08950E94B828880B990B0895A0E073
:104C5000B0E0EDE2F6E20C949E29EC01009721F41D
:104C6000CB010E940D27B8C0FC01E60FF71F9C0185
:104C700022503109E217F30708F4ACC0D9010D91B5
:104C80001C91119706171707B0F00530110508F4AD
:104C90009FC0C80104978617970708F499C002506F
:104CA0001109061B170B019311936D937C93CF0190
:104CB0000E94A2278DC05B01A01AB10A4C01800E90
:104CC000911EA0918303B091840340E050E0E12C59
:104CD000F12C109709F44AC0A815B905D1F56D90CB
:104CE0007C901197630182E0C80ED11CCA14DB04CA
:104CF00080F1A3014A195B096A0182E0C80ED11C48
:104D00001296BC9012971396AC91B5E0CB16D104D5
:104D100040F0B282A38351834083D9016D937C9389
:104D20000AC00E5F1F4FC301800F911FF9019183CD
:104D30008083EB2DFA2FE114F10431F0D7011396A3
:104D4000FC93EE93129744C0F0938403E0938303A3
:104D50003FC08D919C9111974817590708F4AC01F9
:104D60007D0112960D90BC91A02DB3CF809181034F
:104D70009091820388159905E1F446175707C8F406
:104D80008091100190911101009741F48DB79EB769
:104D90004091140150911501841B950BE817F907F8
:104DA000C8F4F0938203E0938103F9017183608377
:104DB0000FC0CB010E940D277C01009759F0A8017C
:104DC000BE010E94F626CE010E94A227C70104C0A0
:104DD000CE0102C080E090E0CDB7DEB7EEE00C94EB
:104DE000BA2981E090E0F8940C94E029FB01DC0101
:104DF00002C001900D9241505040D8F70895DC0157
:104E000001C06D9341505040E0F70895FB01DC0173
:104E100001900D920020E1F70895CF93DF93823047
:104E2000910510F482E090E0E0918303F091840317
:104E300020E030E0C0E0D0E0309711F140815181B6
:104E400048175907C0F04817590761F482819381C8
:104E5000209719F09B838A832BC0909384038093BF
:104E6000830326C02115310519F04217530718F4A2
:104E70009A01BE01DF01EF010280F381E02DDCCF5A
:104E80002115310509F1281B390B2430310590F427
:104E900012968D919C9113976115710521F0FB017C
:104EA0009383828304C09093840380938303FD01E2
:104EB000329644C0FD01E20FF31F8193919322507B
:104EC00031092D933C933AC02091810330918203A4
:104ED000232B41F42091120130911301309382036E
:104EE000209381032091100130911101211531058A
:104EF00041F42DB73EB74091140150911501241B88
:104F0000350BE0918103F0918203E217F307A0F4DF
:104F10002E1B3F0B2817390778F0AC014E5F5F4F0F
:104F20002417350748F04E0F5F1F509382034093BC
:104F300081038193919302C0E0E0F0E0CF01DF9123
:104F4000CF9108950F931F93CF93DF93009709F4A8
:104F50008CC0FC013297138212820091830310915E
:104F600084030115110581F420813181820F931F83
:104F700020918103309182032817390779F5F09346
:104F80008203E093810371C0D80140E050E0AE1786
:104F9000BF0750F412962D913C911397AD01211546
:104FA000310509F1D901F3CF9D01DA013383228361
:104FB00060817181860F971F8217930769F4EC0156
:104FC00028813981260F371F2E5F3F4F3183208381
:104FD0008A819B8193838283452B29F4F0938403F8
:104FE000E093830342C01396FC93EE931297ED0176
:104FF000499159919E01240F351FE217F30771F46F
:1050000080819181840F951F029611969C938E93B7
:105010008281938113969C938E931297E0E0F0E047
:10502000D80112968D919C911397009719F0F80171
:105030008C01F6CF8D919C9198012E5F3F4F820F8E
:10504000931F20918103309182032817390769F457
:10505000309729F4109284031092830302C01382C4
:1050600012821093820300938103DF91CF911F91ED
:105070000F9108951F93FC0199278827BC01E8949C
:1050800011911032E9F3193010F01E30C8F31B32C1
:1050900051F01D3249F4689406C00E946128610FE6
:1050A000711D811D911D119110531A30B0F33EF402
:1050B00090958095709561957F4F8F4F9F4F1F9171
:1050C0000895592F482F372F262F660F771F881FD7
:1050D000991F660F771F881F991F620F731F841F08
:1050E000951F660F771F881F991F08950E94B82883
:1050F00008F481E00895E89409C097FB3EF4909588
:105100008095709561957F4F8F4F9F4F9923A9F0A0
:10511000F92F96E9BB279395F6958795779567952F
:10512000B795F111F8CFFAF4BB0F11F460FF1BC073
:105130006F5F7F4F8F4F9F4F16C0882311F096E906
:1051400011C0772321F09EE8872F762F05C06623B4
:1051500071F096E8862F70E060E02AF09A95660F6D
:10516000771F881FDAF7880F9695879597F9089526
:10517000990F0008550FAA0BE0E8FEEF1616170668
:10518000E807F907C0F012161306E407F50798F0D0
:10519000621B730B840B950B39F40A2661F0232BE9
:1051A000242B252B21F408950A2609F4A140A69565
:1051B0008FEF811D811D08950E94EF280C946029B6
:1051C0000E94522938F00E94592920F0952311F0AD
:1051D0000C9449290C944F2911240C9494290E9471
:1051E000712970F3959FC1F3950F50E0551F629F91
:1051F000F001729FBB27F00DB11D639FAA27F00D30
:10520000B11DAA1F649F6627B00DA11D661F829F56
:105210002227B00DA11D621F739FB00DA11D621F3B
:10522000839FA00D611D221F749F3327A00D611D58
:10523000231F849F600D211D822F762F6A2F11243A
:105240009F5750409AF0F1F088234AF0EE0FFF1F6D
:10525000BB1F661F771F881F91505040A9F79E3FC4
:10526000510580F00C9449290C9494295F3FE4F394
:10527000983ED4F3869577956795B795F795E7951A
:105280009F5FC1F7FE2B880F911D9695879597F923
:10529000089597F99F6780E870E060E008959FEFB8
:1052A00080EC089500240A941616170618060906BD
:1052B000089500240A94121613061406050608958C
:1052C000092E0394000C11F4882352F0BB0F40F414
:1052D000BF2B11F460FF04C06F5F7F4F8F4F9F4F54
:1052E000089557FD9058440F551F59F05F3F71F0D6
:1052F0004795880F97FB991F61F09F3F79F087953D
:105300000895121613061406551FF2CF4695F1DFC5
:1053100008C0161617061806991FF1CF8695710555
:10532000610508940895E894BB2766277727CB0189
:1053300097F908952F923F924F925F926F927F92CA
:105340008F929F92AF92BF92CF92DF92EF92FF9295
:105350000F931F93CF93DF93CDB7DEB7CA1BDB0B41
:105360000FB6F894DEBF0FBECDBF09942A883988E6
:1053700048885F846E847D848C849B84AA84B984ED
:10538000C884DF80EE80FD800C811B81AA81B981F9
:10539000CE0FD11D0FB6F894DEBF0FBECDBFED010D
:1053A0000895A29FB001B39FC001A39F700D811DFE
:1053B0001124911DB29F700D811D1124911D08951E
:1053C00013E0CFE9D3E004C0FE010E940925219635
:0A53D000C03AD107C9F7F894FFCFE7
:1053DA00FFFFFFFFFFFFFFFF00E1000000000000EA
:1053EA0000008503800000C18081000000000000E9
:1053FA00001C1D571D3D1D071EE31D321D00000028
:10540A0000DB03F11CE111D3056511EA108405578D
:10541A001000105010CA036461746F206C657474B4
:10542A006F203D20004E2056616C756520666F72B4
:10543A0020413020726561642061743A200009209D
:10544A0074656D70203D2000094E2056616C7565AB
:10545A0020666F7220413120726561642061743A5E
:10546A0020006E616E00696E66006F7666002E001F
:10547A0009746D696E203D200009746D6178203DC4
:10548A0020000953746570203D2000097469636B1C
:10549A00203D20000D0A00636C6561720054656D41
:1054AA00702E20696E2067726164692043203A0A6F
:1054BA002000543100543200544D6F746F720054FE
:1054CA00536572540054536572520049444C450066
:0E54DA0020202020202020200054203F000011
:00000001FF
