:100000000C9462000C948A000C948A000C948A0070
:100010000C948A000C948A000C948A000C948A0038
:100020000C948A000C948A000C948A000C948A0028
:100030000C948A000C948A000C9421060C948A007B
:100040000C9490020C948A000C945E020C9438027A
:100050000C948A000C948A000C948A000C948A00F8
:100060000C948A000C948A00446965005374617290
:10007000740000000000240027002A000000000097
:10008000250028002B0004040404040404040202D4
:100090000202020203030303030301020408102007
:1000A0004080010204081020010204081020000012
:1000B0000008000201000003040700000000000027
:1000C0000000AD0E11241FBECFEFD8E0DEBFCDBFC4
:1000D00011E0A0E0B1E0ECE7F7E202C005900D927C
:1000E000A43AB107D9F722E0A4EAB1E001C01D9219
:1000F000A13CB207E1F710E0C2E6D0E004C02197CE
:10010000FE010E943810C136D107C9F70E94DA0EED
:100110000C94BC130C940000FC01918D828D9817F7
:1001200061F0828DDF01A80FB11D5D968C91928DDB
:100130009F5F9F73928F90E008958FEF9FEF0895D8
:10014000FC01918D828D981731F0828DE80FF11DA1
:10015000858D90E008958FEF9FEF0895FC01918DBC
:10016000228D892F90E0805C9F4F821B91098F73B5
:10017000992708958AE092E00E94AE0021E0892B41
:1001800009F420E0822F0895FC01848DDF01A80F7F
:10019000B11DA35ABF4F2C91848D90E001968F73AF
:1001A0009927848FA689B7892C93A089B1898C91CE
:1001B00080648C93938D848D981306C00288F38994
:1001C000E02D80818F7D80830895EF92FF920F93C1
:1001D0001F93CF93DF93EC0181E0888F9B8D8C8DF3
:1001E000981305C0E889F989808185FD24C0F62E21
:1001F0000B8D10E00F5F1F4F0F731127E02E8C8DBA
:10020000E8120CC00FB607FCFACFE889F9898081A3
:1002100085FFF5CFCE010E94C400F1CF8B8DFE018A
:10022000E80FF11DE35AFF4FF0820B8FEA89FB893B
:100230008081806207C0EE89FF896083E889F9893F
:1002400080818064808381E090E0DF91CF911F9175
:100250000F91FF90EF900895CF93DF93EC01888D7D
:100260008823C9F0EA89FB89808185FD05C0A889BA
:10027000B9898C9186FD0FC00FB607FCF5CF808140
:1002800085FFF2CFA889B9898C9185FFEDCFCE018A
:100290000E94C400E7CFDF91CF91089580E090E005
:1002A000892B29F00E94BA0081110C940000089556
:1002B0008E3008F08E5087702091040190E4299FC1
:1002C00090011124822B80937C0080917A008064BD
:1002D00080937A0080917A0086FDFCCF809178002F
:1002E0002091790090E0922B08953FB7F894809187
:1002F000C1019091C201A091C301B091C40126B582
:10030000A89B05C02F3F19F00196A11DB11D3FBF4D
:10031000BA2FA92F982F8827820F911DA11DB11DDB
:10032000BC01CD0142E0660F771F881F991F4A95D7
:10033000D1F708950F931F93CF93DF938C01FB01A7
:10034000808191818F3F2FEF920721F4E801AF81E7
:10035000B8850EC0D801139612962D913C91139733
:10036000E901488159818417950710F0D901F4CF2C
:1003700012968D919C91139793838283EC01FD8358
:10038000EC83B583A4831396FC93EE9312971187A5
:100390000087F80180818F5F8083DF91CF911F916B
:1003A0000F910895CF93DF93E0910702F091080237
:1003B000938382832091C9013091CA0182179307E8
:1003C00070F460910702709108028091CC019091C5
:1003D000CD016E5F7F4FDF91CF910C949A01EC01BC
:1003E00060910702709108028091CE019091CF0137
:1003F0006E5F7F4F0E949A018091C5019091C60166
:10040000C817D90720F4D093C601C093C501DF9166
:10041000CF9108958C01F8940E94100CC0E0D0E0B8
:10042000C017D107D4F481E00E94C80B80E899EA94
:10043000A3E0B0E000000197A109B109D9F780E07D
:100440000E94C80B80E899EAA3E0B0E000000197A1
:10045000A109B109D9F72196E3CF40E05AE668E156
:1004600070E000004150510961097109D1F7D6CF00
:100470001F920F920FB60F9211242F933F934F9319
:100480005F936F937F938F939F93AF93BF93EF93FC
:10049000FF938AE092E00E94C400FF91EF91BF9128
:1004A000AF919F918F917F916F915F914F913F910C
:1004B0002F910F900FBE0F901F9018951F920F92C3
:1004C0000FB60F9211242F938F939F93EF93FF9367
:1004D000E0911A02F0911B028081E0912002F091DC
:1004E000210282FD12C09081809123028F5F8F7361
:1004F00020912402821751F0E0912302F0E0E65FA0
:10050000FD4F958F8093230201C08081FF91EF9171
:100510009F918F912F910F900FBE0F901F90189564
:100520001F920F920FB60F9211242F933F938F9328
:100530009F93AF93BF938091BD019091BE01A09115
:10054000BF01B091C0013091BC0123E0230F2D37D2
:1005500020F40196A11DB11D05C026E8230F0296C7
:10056000A11DB11D2093BC018093BD019093BE01DC
:10057000A093BF01B093C0018091C1019091C201CD
:10058000A091C301B091C4010196A11DB11D80933A
:10059000C1019093C201A093C301B093C401BF9164
:1005A000AF919F918F913F912F910F900FBE0F9020
:1005B0001F9018958091B9018F5F8093B9010895BC
:1005C000CF93DF93FC01A085B18582819381248143
:1005D0003581EC013D832C83C481D5819B838A8343
:1005E00011968D919C9112978E179F0721F4129668
:1005F000DC93CE931197118610868C9181508C9349
:10060000DF91CF910895CF93DF939C01FB01DC0133
:100610001196CD91DC911297D383C2838C819D81F9
:10062000958384838C819D81DC0113967C936E93EA
:1006300012977D836C8331872087F90180818F5FDA
:100640008083DF91CF91089581E090E00E940A02BB
:100650001092BB01E0910702F09108020788F08D2B
:10066000E02D80819181A281B381853A954AA54A86
:10067000B54AE9F484819581A681B781853A954A86
:10068000A54AB54AA1F480859185A285B385853AAE
:10069000954AA54AB54A59F484859585A685B785B6
:1006A000853A954AA54AB54A11F499E011C080915E
:1006B000070290910802809107029091080283E05E
:1006C00090E00E940A028091060281508093060207
:1006D000E09106029E9FF0011124EE51FE4F8081B1
:1006E000811106C0809106028111EDCF0E94240382
:1006F0008091060290E049E0489F9001499F300DAB
:100700001124F901EE51FE4FA181B28112960D9094
:10071000BC91A02DB283A1832B513E4FA217B307EA
:1007200031F412962D913C9113973283218329E065
:10073000289FF001299FF00D1124EE51FE4F0180FA
:10074000F281E02D868197819093080280930702C1
:1007500008950F920FB6F8940F921F9211242F92C2
:100760003F924F925F926F927F928F929F92AF9241
:10077000BF92CF92DF92EF92FF920F931F932F932E
:100780003F934F935F936F937F938F939F93AF9319
:10079000BF93CF93DF93EF93FF93A0910702B091A4
:1007A00008020DB60D920EB60D928091B901882304
:1007B00021F081E08093BB0102C00E942803A09138
:1007C0000702B0910802CD91CDBFDD91DEBFFF9150
:1007D000EF91DF91CF91BF91AF919F918F917F91D9
:1007E0006F915F914F913F912F911F910F91FF90CA
:1007F000EF90DF90CF90BF90AF909F908F907F90C1
:100800006F905F904F903F902F901F900F900FBE72
:100810000F900895FC01892B11F40E9424036115A7
:100820007105D9F30FB6F8940F924091C901509118
:10083000CA013091CB01208181819281321719F058
:1008400048175907D8F4DB012D913C91DA01A81B18
:10085000B90BA217B30790F4841B950B820F931F5B
:10086000DB018D939C938091CB0180838091C901A2
:100870009091CA019283818380E001C081E00F9052
:100880000FBE08950F931F93CF93DF93DC0115964E
:10089000ED91FC911697C681D781209711F40E94A3
:1008A00024038E01045F1F4FC8010E94E002809163
:1008B000B901811114C00A501109C8010E94E00257
:1008C0009E8980910602891710F490930602B9E080
:1008D0009B9FC0011124B8018E519E4F03C0B801E7
:1008E00089ED91E00E940303E0910702F091080274
:1008F0009E898689891720F481E08093BB0101C01D
:1009000080E0DF91CF911F910F910895FF920F9397
:100910001F93CF93DF93EC010FB6F8940F928C01E5
:100920000F5E1F4FFF24F3949E8D19166CF4898976
:10093000882351F0C8010E9442048111F092BB014A
:100940009E8D91509E8FF0CF8FEF8E8F0F900FBEA8
:100950000FB6F8940F928E01085F1F4FFF24F39497
:100960009D8D19166CF48885882351F0C8010E946A
:1009700042048111F092BB019D8D91509D8FF0CF6B
:100980008FEF8D8F0F900FBEDF91CF911F910F9141
:10099000FF900895CF93DF93EB01009711F40E942D
:1009A00024032091070230910802B901645F7F4F50
:1009B0000E949A01809107029091080202960E947B
:1009C000E0028091C9019091CA018C0F9D1FDF91B7
:1009D000CF910C94D201CF92DF92EF92FF920F93BE
:1009E0001F93CF93DF938091B9018111B1C08091A2
:1009F000C9019091CA0101969093CA018093C901DF
:100A0000E090C901F090CA01E114F104B9F5E09158
:100A1000CE01F091CF01808181110E942403809149
:100A2000CE019091CF012091CC013091CD01309336
:100A3000CF012093CE019093CD018093CC01809182
:100A4000CB018F5F8093CB01E091CE01F091CF017C
:100A50008081811103C08FEF9FEF0CC0E091CE0128
:100A6000F091CF010580F681E02D0680F781E02D21
:100A7000828193819093C6018093C5018091C501C5
:100A80009091C601C0E0E816F90608F44FC0D9E01D
:100A9000E091CE01F091CF018081811103C08FEFF1
:100AA0009FEF11C0E091CE01F091CF010580F6815A
:100AB000E02D06811781D80112968D919C91139794
:100AC000E816F90628F49093C6018093C5012EC05C
:100AD0006801B2E0CB0ED11CC6010E94E002F80111
:100AE00084899589892B21F0C8010C960E94E00227
:100AF000D80156969C9180910602891710F4909324
:100B00000602D99FC0011124B6018E519E4F0E944A
:100B10000303E0910702F0910802D80156969C91D8
:100B20008689981708F4B4CFC1E0B2CFE0910702EC
:100B3000F0910802E689B9E0EB9FF0011124EE5133
:100B4000FE4F8081823008F0C1E08091B80106C07C
:100B50008091B8018F5F8093B801C0E08091BB01A4
:100B60008111C1E08C2FDF91CF911F910F91FF90E8
:100B7000EF90DF90CF9008950F920FB6F8940F92F8
:100B80001F9211242F923F924F925F926F927F9209
:100B90008F929F92AF92BF92CF92DF92EF92FF928D
:100BA0000F931F932F933F934F935F936F937F9375
:100BB0008F939F93AF93BF93CF93DF93EF93FF9365
:100BC000A0910702B09108020DB60D920EB60D92DB
:100BD0000E94EB04882351F08091B901882321F011
:100BE00081E08093BB0102C00E942803A09107020C
:100BF000B0910802CD91CDBFDD91DEBFFF91EF91A5
:100C0000DF91CF91BF91AF919F918F917F916F9124
:100C10005F914F913F912F911F910F91FF90EF9016
:100C2000DF90CF90BF90AF909F908F907F906F900C
:100C30005F904F903F902F901F900F900FBE0F909E
:100C400008950E94BC051895EF92FF920F931F9391
:100C5000CF93DF938091B901811102C00E942403D8
:100C60000FB6F8940F928091B90181508093B90129
:100C70008091B901882311F080E053C0809109026E
:100C80008823D1F389E0F82EEE24E3948091D901F2
:100C9000882351F1E091DE01F091DF01C681D78117
:100CA000CE010C960E94E0028E010E5F1F4FC8011C
:100CB0000E94E0029E8980910602891710F49093A9
:100CC0000602F99EC0011124B8018E519E4F0E9468
:100CD0000303E0910702F09108029E898689981724
:100CE000A8F2E092BB01D2CF8091B801811109C076
:100CF0008091BB01813009F0BFCF0E94A90381E040
:100D000010C0C1E08091B801882391F30E94EB04E8
:100D10008111C093BB018091B80181508093B801CB
:100D2000F1CF0F900FBEDF91CF911F910F91FF90E8
:100D3000EF900895CF93DF93009751F0EC010E945C
:100D4000DA02CE010E942413DF91CF910C94240685
:100D5000DF91CF9108958091BA01882349F10E94D3
:100D6000DA02C091D0010E942406CC23A1F30FB671
:100D7000F8940F92E091D501F091D601C681D78108
:100D8000CE0102960E94E002809109028150809378
:100D900009028091BA0181508093BA010F900FBE71
:100DA0008F89988D0E949A06CE010E949A06D3CF11
:100DB0008091E201823078F20E94A903CCCF0F9398
:100DC0001F93CF93DF9300D0CDB7DEB789839A838B
:100DD0000E94DA0289819A810E948F128C010E94FE
:100DE00024060115110521F482E090E00E940A0218
:100DF000C8010F900F90DF91CF911F910F9108952F
:100E0000CF93DF93EC01892B19F40E94A9031BC037
:100E10008091B90181110E9424030E94DA0220917D
:100E2000C9013091CA01C20FD31F8091070290916E
:100E3000080202960E94E002CE010E94D2010E94A6
:100E40002406882311F3DF91CF9108958FE00E944B
:100E50005801BC01990F880B990B0E9453112DEC7E
:100E60003CEC4CE85AE30E9408122DEC3CEC4CECB4
:100E70005EE30E943E1027E73EEB4FE95CE30E94F1
:100E8000B0106093AC017093AD018093AE0190936C
:100E9000AF018091B0019091B10101969093B101A1
:100EA0008093B00184E190E00E940007CFCF8EE0F4
:100EB0000E945801BC01990F880B990B0E94531195
:100EC0002DEC3CEC4CE85AE30E9408122DEC3CEC73
:100ED0004CEC5EE30E943E1027E73EEB4FE95CE3FB
:100EE0000E94B0106093B2017093B3018093B4017B
:100EF0009093B5018091B6019091B70101969093BE
:100F0000B7018093B6018AE090E00E940007CFCF3E
:100F1000CF93DF9300D000D01F92CDB7DEB7D12C96
:100F200089E0C82E94E0892E912C22242A94322C18
:100F300021010091C7011091C80182E090E09D83DA
:100F40008C830115110511F40E942403F801848D8E
:100F50008111FACF80E03801F1E16F0E711C0FB6FC
:100F6000F8940F92F801928D992309F449C0448DA9
:100F70004423B9F050E086819781840F951F9783B1
:100F80008683228133818217930720F080819181AB
:100F900097838683F8016681778180E090E00E94E4
:100FA0007F12F801828D8150828F80819181892BFF
:100FB000A1F48091070290910802892B39F0E09109
:100FC0000702F091080282A18F5F82A3809107023D
:100FD00090910802F80193838283F8018085882329
:100FE00041F0C80108960E944204813011F40E9429
:100FF000A9030F900FBE8BE191E00E942C0CACC0B6
:101000002C813D81232B19F40F900FBEA5C08111B7
:1010100009C08091CB0189838091C9019091CA0157
:101020009B838A830F900FBE0E94DA020FB6F8945A
:101030000F92F801858D8F3F09F4158EF801868D8A
:101040008F3F09F4168E0F900FBEBE016C5F7F4F6D
:10105000CE0101960E940A04811179C00FB6F8945E
:101060000F92F801828D0F900FBE81116AC08081AE
:101070009181892B09F054C00FB6F8940F92E28049
:10108000F380E114F10409F449C0F7018689E09185
:101090000702F09108029689891708F03FC0F7010E
:1010A0002485358537FD0BC0E0910702F0910802D9
:1010B00096899401291B3109F70135872487C89E39
:1010C000C00111248E519E4FF701228533852817C8
:1010D0003907E9F45701F2E0AF0EB11CC5010E94D7
:1010E000E002E0910702F09108028689F701868B01
:1010F00090910602981710F480930602C89EC001D2
:101100001124B5018E519E4F0E94030307C0E09148
:101110000702F09108028689F701868B0F900FBEB7
:101120006C817D81C3010E94CA04C8010E948604AB
:101130000E942406882311F081E011CF0E94A903A8
:10114000FBCFC8010E9486040E942406F5CFC80187
:101150000E9486040E9424066091B6017091B70136
:10116000072E000C880B990B97FF03C00E94A90D56
:1011700003C04AE00E94680D1092B7011092B601B8
:1011800084E391E00E942C0C6091B2017091B30154
:101190008091B4019091B50142E00E94D00D8EE3A0
:1011A00091E00E942C0C6091B0017091B101072E6A
:1011B000000C880B990B97FF03C00E94A90D03C078
:1011C0004AE00E94680D1092B1011092B00184E3D0
:1011D00091E00E942C0C6091AC017091AD01809166
:1011E000AE019091AF0142E00E94D00D88E591E000
:1011F0000E942C0C6091000170910101809102010C
:10120000909103014AE00E94680D81E691E00E94FE
:101210002C0C6091A8017091A9018091AA01909174
:10122000AB014AE00E94680D8AE691E00E942C0C16
:101230006091A6017091A701072E000C880B990BF5
:1012400097FF03C00E94A90D03C04AE00E94680DE9
:1012500083E791E00E942C0CF9E0FD1510F0D39487
:101260001DC0209200013092010140920201509273
:1012700003011092A8011092A9011092AA011092E4
:10128000AB0186E791E00E942C0C83E791E00E947D
:101290002C0C1092A7011092A601D12C8AE092E0AA
:1012A0000E942C018091C7019091C8010E94640C9A
:1012B00080ED93E00E9400073CCE0E9475014B0137
:1012C0005C010FB6F8940F920091C9011091CA0108
:1012D0000F900FBEFF24F394EE24E3948091B901A4
:1012E00081110E9424030E94DA028091C901909129
:1012F000CA01E80121968017910720F4C017D10791
:1013000048F404C0C017D10708F44FC08C179D07DC
:1013100008F44BC00E942406811102C00E94A90358
:101320000E9475012B013C01AB01BC014819590910
:101330006A097B098091000190910101A09102014D
:10134000B0910301481759076A077B0740F440939F
:101350000001509301016093020170930301809199
:10136000A8019091A901A091AA01B091AB018417A5
:101370009507A607B70740F44093A8015093A90129
:101380006093AA017093AB018F2D0E94C80BFE24BD
:101390008091A6019091A70101969093A701809357
:1013A000A6018E015301420199CF809107029091CD
:1013B000080202960E94E002CE010E94D201AACF4A
:1013C000CF92DF92EF92FF920F931F93CF93DF9311
:1013D0006C017A018B01C0E0D0E0CE15DF0589F009
:1013E000D8016D918D01D601ED91FC910190F081B4
:1013F000E02DC6010995892B11F47E0102C02196CA
:10140000ECCFC701DF91CF911F910F91FF90EF902B
:10141000DF90CF9008956F927F929F92AF92BF928C
:10142000CF92DF92EF92FF920F931F93CF93DF93B0
:101430005C01962EC72EEA01D22E892B11F40E9450
:101440002403822F90E00497D4F7CA010E94DF069C
:101450003C01892B09F48BC189E290E00E94DF06F0
:101460007C010097D9F0DC0158967C926E925797D8
:10147000AE0165EA70E0C3010E9488122197D7018E
:101480005796ED91FC915897EC0FFD1FB701675EE1
:101490007F4FA92DBC2DCD01089607C0C3010E9426
:1014A0009A0665C1A817B90749F09D014D91EB0156
:1014B0004993BE01E90128812111F4CFD70190960B
:1014C0001C928D2DB3E0BD1508F483E0E7018E8BEF
:1014D00089A31AA21B861A861D8A1C8AF986E886A9
:1014E00024E030E0A901481B51095D874C87FB8A45
:1014F000EA8A1BA21CA21DA21EA218A61FA291E18D
:101500009083DF01119782E28C93119723E32C9350
:101510001197AC921197BC9211971C92119720E8E9
:101520002C9311971C92119722E02C93119723E092
:101530002C93119724E02C93119725E02C9311976D
:1015400026E02C93119727E02C93119728E02C93F9
:10155000119729E02C93119720E12C9311979C93DC
:10156000119792E19C93119793E19C93119794E1C9
:101570009C93119795E19C93119796E19C931197F9
:1015800097E19C93119798E19C93119799E19C9313
:10159000119790E29C93119791E29C9311978C93F1
:1015A000119783E28C9311971C9211971C921197BB
:1015B00086E28C93119787E28C93119788E28C9343
:1015C000119789E28C93119780E38C93119781E3B3
:1015D0008C93B697F983E8830115110519F0F8018A
:1015E000F182E0820FB6F8940F92809109028F5F2A
:1015F000809309028091070290910802892B09F0DB
:101600007DC0F0920802E0920702809109028130C9
:1016100009F083C0E2EEF1E04FEF5FEF9F012D5F35
:101620003F4F328321838FEF9FEF54834383368371
:101630002583308727831082399622E0E630F2072F
:1016400069F725EB32E03093B4022093B302909314
:10165000B6028093B5023093B8022093B70230935C
:10166000BA022093B9021092B2022CEA32E030930F
:10167000AB022093AA029093AD028093AC02309308
:10168000AF022093AE023093B1022093B0021092C9
:10169000A9022CED31E03093DB012093DA01909325
:1016A000DD018093DC013093DF012093DE01309374
:1016B000E1012093E0011092D90123ED31E0309354
:1016C000D2012093D1019093D4018093D301309320
:1016D000D6012093D5013093D8012093D7011092E1
:1016E000D00182EB92E09093CF018093CE0189EA02
:1016F00092E09093CD018093CC010FC08091BC0209
:1017000081110BC0E0910702F09108028689D8167A
:1017100020F0F0920802E09207028091BB028F5FF6
:101720008093BB02D70156968C9190910602981730
:1017300010F480930602B7016E5F7F4FB9E08B9F74
:10174000C00111248E519E4F0E9403030F900FBEC3
:101750008091BC02882349F0E0910702F0910802D1
:1017600086898D1510F40E94A90381E001C08FEFD6
:10177000DF91CF911F910F91FF90EF90DF90CF906D
:10178000BF90AF909F907F906F9008950E947A12C3
:10179000EBEBF0E02491E7EAF0E09491E3E9F0E08C
:1017A000E491EE2309F43BC0222339F1233091F078
:1017B00038F42130A9F0223001F524B52F7D12C074
:1017C000273091F02830A1F02430B9F42091800026
:1017D0002F7D03C0209180002F77209380000DC0C3
:1017E00024B52F7724BD09C02091B0002F7703C006
:1017F0002091B0002F7D2093B000F0E0EE0FFF1F8E
:10180000E458FF4FA591B4912FB7F894EC91811152
:1018100003C090959E2301C09E2B9C932FBF0895DB
:10182000E7EAF0E02491E3E9F0E08491882399F07D
:1018300090E0880F991FFC01EE58FF4FA591B491DD
:10184000FC01E458FF4F859194918FB7F894EC9187
:10185000E22BEC938FBF0895009769F0FC01019093
:101860000020E9F73197AF01481B590BBC018AE012
:1018700092E00C94E00980E090E008950F931F93AC
:10188000CF93DF938C01C0E0D0E0F801EC0FFD1F97
:101890006491662371F0E0910A02F0910B020190CD
:1018A000F081E02D8AE092E00995892B11F02196D4
:1018B000ECCF83E791E00E942C0C8C0F9D1FDF91F1
:1018C000CF911F910F910895CF92DF92EF92FF92E7
:1018D0000F931F93CF93DF9300D000D01F92CDB70B
:1018E000DEB78C011D821C82009711F40E94240334
:1018F000FC01848D8111FACF90E07801F8E0EF0EC1
:10190000F11C0FB6F8940F92F801228D838D2817E1
:1019100008F07BC0448D411148C080819181892BA2
:1019200009F05CC0F801E280F380E114F10411F4E5
:1019300080E037C08091070290910802E816F9060E
:10194000A9F6F70182A1882389F2815082A3268912
:1019500091A1291769F38111EBCF6701F2E0CF0E56
:10196000D11CC6010E94E002F70191A1968B492F7C
:1019700050E024E030E0241B350B3587248780912C
:101980000602891710F49093060229E0249FC001F3
:10199000259F900D1124B6018E519E4F0E94030386
:1019A00081E0F801138212821AC050E060E070E01A
:1019B000F801848195810E947F12F801248D848131
:1019C0009581820F911D95838483228133818217B3
:1019D000930720F0808191819583848380E0F801D2
:1019E000928D9F5F928F9189992349F0C80141960A
:1019F0000E944204813029F40E94A90302C081118F
:101A0000FBCF0F900FBE81E055C02C813D81232B71
:101A100019F40F900FBE4DC0911109C08091CB01F8
:101A200089838091C9019091CA019B838A830F9019
:101A30000FBE0E94DA020FB6F8940F92F801858D5E
:101A40008F3F09F4158EF801868D8F3F09F4168EAD
:101A50000F900FBEBE016C5F7F4FCE0101960E94BA
:101A60000A04811121C00FB6F8940F92F801928DEB
:101A70000F900FBE838D981311C06C817D81C701BB
:101A80000E94CA04C8010E9486040E94240688237A
:101A900011F091E036CF0E94A903FBCFC8010E944C
:101AA00086040E942406F5CFC8010E9486040E9485
:101AB000240680E00F900F900F900F900F90DF9111
:101AC000CF911F910F91FF90EF90DF90CF900895ED
:101AD0008F929F92AF92BF920F931F93CF93DF93FA
:101AE000CDB7DEB7A1970FB6F894DEBF0FBECDBF5E
:101AF00019A2423008F44AE08E010F5D1F4F842E78
:101B0000912CA12CB12CA50194010E941610E62F56
:101B1000B901CA0101501109EA3014F4E05D01C0B5
:101B2000E95CD801EC93232B242B252B61F7C8010A
:101B30000E942C0CA1960FB6F894DEBF0FBECDBF4D
:101B4000DF91CF911F910F91BF90AF909F908F9099
:101B50000895CF92DF92EF92FF92CF93DF936B01C4
:101B60007C01E0910A02F0910B020190F081E02DDE
:101B70006DE28AE092E00995EC0166277727CB01B8
:101B80006C197D098E099F094AE00E94680D8C0F2F
:101B90009D1FDF91CF91FF90EF90DF90CF90089540
:101BA0004F925F926F927F928F929F92AF92BF926D
:101BB000CF92DF92EF92FF926B017C01B42E9B01DA
:101BC000AC010E947512882319F08CE791E027C0C0
:101BD00026013701E89477F82FEF3FEF4FE75FE7F3
:101BE000C301B2010E94751281110DC02FEF3FEFAA
:101BF0004FE75FE7C301B2010E94AB1018161CF457
:101C000080E891E00CC02FEF3FEF4FE75FE4C701A2
:101C1000B6010E940312181684F484E891E0FF9044
:101C2000EF90DF90CF90BF90AF909F908F907F907C
:101C30006F905F904F900C942C0C2FEF3FEF4FE77D
:101C40005FECC701B6010E94AB1087FDE6CF20E034
:101C500030E0A901C701B6010E94AB1087FF11C097
:101C6000E0910A02F0910B020190F081E02D6DE20B
:101C70008AE092E009954C01F7FAF094F7F8F094B5
:101C800002C0812C912CA12C60E070E080E09FE3E9
:101C9000AB1441F020E030E040E251E40E94B0108B
:101CA000A394F6CF9B01AC01C701B6010E943F107F
:101CB0002B013C010E9422116B017C010E945111F9
:101CC0009B01AC01C301B2010E943E102B013C01FB
:101CD0004AE0C701B6010E94680D7C01E80CF91CBE
:101CE000BB2031F088E891E00E942C0CE80EF91E30
:101CF000DB2CDD2021F120E030E040E251E4C301A3
:101D0000B2010E9408122B013C010E9422114B01DA
:101D1000A12CB12C4AE0C501B4010E94680DE80E67
:101D2000F91EC501B4010E9451119B01AC01C30110
:101D3000B2010E943E102B013C01DA94DACFC701B8
:101D4000FF90EF90DF90CF90BF90AF909F908F90DB
:101D50007F906F905F904F900895EAE0F2E01382D9
:101D6000128288EE93E0A0E0B0E084839583A6839E
:101D7000B7838FE091E09183808385EC90E0958735
:101D8000848784EC90E09787868780EC90E0918B45
:101D9000808B81EC90E0938B828B82EC90E0958B32
:101DA000848B86EC90E0978B868B118E128E138E2F
:101DB000148E0895789484B5826084BD84B5816062
:101DC00084BD85B5826085BD85B5816085BD809106
:101DD0006E00816080936E0010928100809181007E
:101DE0008260809381008091810081608093810076
:101DF000809180008160809380008091B100846038
:101E00008093B1008091B00081608093B000809198
:101E10007A00846080937A0080917A008260809357
:101E20007A0080917A00816080937A0080917A00B4
:101E3000806880937A001092C100E0911A02F091BC
:101E40001B0282E08083E0911602F091170210825B
:101E5000E0911802F091190280E180831092220231
:101E6000E0911E02F0911F0286E08083E0911C0247
:101E7000F0911D02808180618083E0911C02F091CD
:101E80001D02808188608083E0911C02F0911D0218
:101E9000808180688083E0911C02F0911D02808126
:101EA0008F7D808383E0809304010E94100C8091D9
:101EB000C7019091C801892BC9F58FE190E00E947C
:101EC000DF06EC01892B49F11B821A8219821882E4
:101ED0001D821C821F821E821A8E81E08B8F1C8EB7
:101EE0008FEF8D8F8E8FCE010B969A8789872FEF7C
:101EF0003FEF3C872B879E878D87988B8F8718862F
:101F000009969B8B8A8B3D8B2C8B9F8B8E8B998F0D
:101F1000888F198ACE010E94640CD093C801C093A7
:101F2000C701209719F0CE010E94640C00E010E078
:101F300021E048EC50E06AE871E087E597E00E9414
:101F40000B0A21E048EC50E06DE871E086E297E092
:101F50000E940B0A22E044E651E060E971E08DE561
:101F600099E00E940B0A21E04CE251E067E971E040
:101F700088E897E00E940B0A8CE690E00E943E0CF5
:101F800007EA12E020E044E650E06FE971E08BEAF6
:101F900096E00E940B0A813009F03FC0F8942FEFC1
:101FA0003FEF3093C6012093C5018093BC0210928D
:101FB000CA011092C90187BD80916E008260809332
:101FC0006E00A0910702B0910802CD91CDBFDD91C6
:101FD000DEBFFF91EF91DF91CF91BF91AF919F91C4
:101FE0008F917F916F915F914F913F912F911F91B1
:101FF0000F91FF90EF90DF90CF90BF90AF909F90A8
:102000008F907F906F905F904F903F902F901F9098
:102010000F900FBE0F90089504C0811102C00E945E
:10202000240388E690E00E943E0CFFCFA1E21A2E26
:10203000AA1BBB1BFD010DC0AA1FBB1FEE1FFF1F6C
:10204000A217B307E407F50720F0A21BB30BE40BBC
:10205000F50B661F771F881F991F1A9469F7609503
:102060007095809590959B01AC01BD01CF010895BD
:10207000EE0FFF1F0590F491E02D09945058BB27F7
:10208000AA270E9456100C94C9110E94BB1138F067
:102090000E94C21120F039F49F3F19F426F40C94E9
:1020A000B8110EF4E095E7FB0C94B211E92F0E94F1
:1020B000DA1158F3BA17620773078407950720F0FF
:1020C00079F4A6F50C94FC110EF4E0950B2EBA2FC2
:1020D000A02D0B01B90190010C01CA01A00111242E
:1020E000FF27591B99F0593F50F4503E68F11A16DA
:1020F000F040A22F232F342F4427585FF3CF46956B
:1021000037952795A795F0405395C9F77EF41F168C
:10211000BA0B620B730B840BBAF09150A1F0FF0F56
:10212000BB1F661F771F881FC2F70EC0BA0F621F42
:10213000731F841F48F4879577956795B795F79532
:102140009E3F08F0B0CF9395880F08F09927EE0FC7
:102150009795879508950E948E1108F481E008955F
:102160000E94C4100C94C9110E94C21158F00E9420
:10217000BB1140F029F45F3F29F00C94B2115111CA
:102180000C94FD110C94B8110E94DA1168F3992394
:10219000B1F3552391F3951B550BBB27AA27621763
:1021A0007307840738F09F5F5F4F220F331F441F70
:1021B000AA1FA9F335D00E2E3AF0E0E832D09150A4
:1021C0005040E695001CCAF72BD0FE2F29D0660F91
:1021D000771F881FBB1F261737074807AB07B0E8D4
:1021E00009F0BB0B802DBF01FF2793585F4F3AF0DA
:1021F0009E3F510578F00C94B2110C94FD115F3F95
:10220000E4F3983ED4F3869577956795B795F7955F
:102210009F5FC9F7880F911D9695879597F9089547
:10222000E1E0660F771F881FBB1F621773078407E3
:10223000BA0720F0621B730B840BBA0BEE1F88F7F2
:10224000E09508950E94E21188F09F5798F0B92F09
:102250009927B751B0F0E1F0660F771F881F991FDB
:102260001AF0BA95C9F714C0B13091F00E94FC1170
:10227000B1E008950C94FC11672F782F8827B85F80
:1022800039F0B93FCCF3869577956795B395D9F733
:102290003EF490958095709561957F4F8F4F9F4F3D
:1022A0000895E89409C097FB3EF490958095709549
:1022B00061957F4F8F4F9F4F9923A9F0F92F96E992
:1022C000BB279395F695879577956795B795F11107
:1022D000F8CFFAF4BB0F11F460FF1BC06F5F7F4FA4
:1022E0008F4F9F4F16C0882311F096E911C07723B6
:1022F00021F09EE8872F762F05C0662371F096E8BF
:10230000862F70E060E02AF09A95660F771F881F8D
:10231000DAF7880F9695879597F90895990F000831
:10232000550FAA0BE0E8FEEF16161706E807F907A7
:10233000C0F012161306E407F50798F0621B730B42
:10234000840B950B39F40A2661F0232B242B252BC3
:1023500021F408950A2609F4A140A6958FEF811D66
:10236000811D089597F99F6780E870E060E0089507
:102370009FEF80EC089500240A941616170618069D
:102380000906089500240A94121613061406050679
:102390000895092E0394000C11F4882352F0BB0F0A
:1023A00040F4BF2B11F460FF04C06F5F7F4F8F4F6D
:1023B0009F4F089557FD9058440F551F59F05F3FA8
:1023C00071F04795880F97FB991F61F09F3F79F057
:1023D00087950895121613061406551FF2CF4695D9
:1023E000F1DF08C0161617061806991FF1CF86955B
:1023F0007105610508940895E894BB27662777273F
:10240000CB0197F908950E948E1108F48FEF08957B
:102410000E941B120C94C9110E94BB1138F00E943B
:10242000C21120F0952311F00C94B2110C94B81144
:1024300011240C94FD110E94DA1170F3959FC1F3E1
:10244000950F50E0551F629FF001729FBB27F00D62
:10245000B11D639FAA27F00DB11DAA1F649F6627B7
:10246000B00DA11D661F829F2227B00DA11D621F06
:10247000739FB00DA11D621F839FA00D611D221FC0
:10248000749F3327A00D611D231F849F600D211DA4
:10249000822F762F6A2F11249F5750409AF0F1F027
:1024A00088234AF0EE0FFF1FBB1F661F771F881F90
:1024B00091505040A9F79E3F510580F00C94B21105
:1024C0000C94FD115F3FE4F3983ED4F38695779525
:1024D0006795B795F795E7959F5FC1F7FE2B880F36
:1024E000911D9695879597F908950E948E11880BF6
:1024F000990B089581E090E0F8940C94BC13FB01D3
:10250000DC0102C001900D9241505040D8F708956F
:10251000DC0101C06D9341505040E0F70895CF9326
:10252000DF938230910510F482E090E0E091BF02E9
:10253000F091C00220E030E0C0E0D0E0309711F12F
:102540004081518148175907C0F04817590761F475
:1025500082819381209719F09B838A832BC090936B
:10256000C0028093BF0226C02115310519F0421721
:10257000530718F49A01BE01DF01EF010280F381D5
:10258000E02DDCCF2115310509F1281B390B243052
:10259000310590F412968D919C91139761157105F8
:1025A00021F0FB019383828304C09093C002809347
:1025B000BF02FD01329644C0FD01E20FF31F81937B
:1025C0009193225031092D933C933AC02091BD0242
:1025D0003091BE02232B41F4209107013091080174
:1025E0003093BE022093BD02209105013091060177
:1025F0002115310541F42DB73EB7409109015091A5
:102600000A01241B350BE091BD02F091BE02E217D6
:10261000F307A0F42E1B3F0B2817390778F0AC0105
:102620004E5F5F4F2417350748F04E0F5F1F5093E2
:10263000BE024093BD028193919302C0E0E0F0E0BE
:10264000CF01DF91CF9108950F931F93CF93DF9325
:10265000009709F48CC0FC0132971382128200911A
:10266000BF021091C0020115110581F42081318152
:10267000820F931F2091BD023091BE0228173907A7
:1026800079F5F093BE02E093BD0271C0D80140E03D
:1026900050E0AE17BF0750F412962D913C9113975E
:1026A000AD012115310509F1D901F3CF9D01DA0101
:1026B0003383228360817181860F971F821793076E
:1026C00069F4EC0128813981260F371F2E5F3F4FB7
:1026D000318320838A819B8193838283452B29F4D4
:1026E000F093C002E093BF0242C01396FC93EE93B6
:1026F0001297ED01499159919E01240F351FE21760
:10270000F30771F480819181840F951F02961196D1
:102710009C938E938281938113969C938E931297B0
:10272000E0E0F0E0D80112968D919C91139700970C
:1027300019F0F8018C01F6CF8D919C9198012E5FD4
:102740003F4F820F931F2091BD023091BE02281788
:10275000390769F4309729F41092C0021092BF0231
:1027600002C0138212821093BE020093BD02DF9159
:0C277000CF911F910F910895F894FFCFB6
:10277C00FFFFFFFF010000C102800000000000E528
:10278C0000E009AE008C00A0002C014E2056616CBC
:10279C00756520666F72204130207265616420611E
:1027AC00743A2000092074656D70203D2000094E9C
:1027BC002056616C756520666F7220413120726500
:1027CC0061642061743A200009746D696E203D20AB
:1027DC000009746D6178203D2000095374657020E8
:1027EC003D20000D0A00636C656172006E616E0025
:1027FC00696E66006F7666002E005431005432000C
:10280C00544D6F746F72005453657269616C00495A
:04281C00444C4500E3
:00000001FF
