:100000000C94A0030C94C8030C94C8030C94C8036C
:100010000C94C8030C94C8030C94C8030C94C80334
:100020000C94C8030C94C8030C94E70D0C94590E5F
:100030000C94C8030C94C8030C94C8030C94C80314
:100040000C94C8030C94C8030C94C8030C94C80304
:100050000C94C8030C9480170C94C8030C94B71329
:100060000C94C8030C94C8030C94C8030C94C803E4
:100070000C94C8030C94C8030C94C8030C94C803D4
:100080000C9496100C94C8030C94C8030C94C803E9
:100090000C94C8030C94C8030C94C8030C94C803B4
:1000A0000C94C8030C94C8030C94C80387128A12DA
:1000B00079127D128112AB12AB12AB128E12921218
:1000C00096129C12A012AB12A6121301803211805C
:1000D00064260104B1020B14C0020800C10105C569
:1000E000024130C701C1EC011B3A8155642A04006A
:1000F00000007F2B040000009F3601C8B70100F20A
:100100000100E08F282422312B0E53A5421618122D
:100110001A140332E18F171B1D0E14112CA53D0973
:10012000272D252B3C3213800A2980FF4469650066
:10013000537461727400080B00020202010009048A
:100140000000010202000005240010010524010145
:10015000010424020605240600010705810310009E
:100160004009040100020A000000070502024000E5
:10017000000705830240000004030904417264750E
:10018000696E6F204C4C430041726475696E6F203C
:100190004573706C6F726100120100020000004034
:1001A00041233C8000010102030112010002EF0221
:1001B000014041233C8000010102030107060504C0
:1001C0000100080A0B0C0D090000000024002700A4
:1001D0002A002D00300000000000250028002B0020
:1001E0002E00310004040404040304050202020288
:1001F00004030202020206060606060604040202C0
:100200000204040408020110408040102040804095
:10021000800802040180402010020110801020405C
:1002200040200000000200090F0000030401000C40
:1002300000000000000000000000000000000000BE
:100240000000000000003E5B4F5B3E3E6B4F6B3E8C
:100250001C3E7C3E1C183C7E3C181C577D571C1CC9
:100260005E7F5E1C00183C1800FFE7C3E7FF001824
:10027000241800FFE7DBE7FF30483A060E2629790D
:100280002926407F050507407F05253F5A3CE73C6E
:100290005A7F3E1C1C08081C1C3E7F14227F22141F
:1002A0005F5F005F5F06097F017F006689956A6076
:1002B0006060606094A2FFA29408047E040810208D
:1002C0007E201008082A1C08081C2A08081E101086
:1002D00010100C1E0C1E0C30383E3830060E3E0E30
:1002E00006000000000000005F000000070007009B
:1002F000147F147F14242A7F2A1223130864623681
:10030000495620500008070300001C22410000410C
:10031000221C002A1C7F1C2A08083E080800807046
:100320003000080808080800006060002010080479
:10033000023E5149453E00427F40007249494946CC
:100340002141494D331814127F1027454545393C4A
:100350004A49493141211109073649494936464937
:1003600049291E0000140000004034000000081459
:1003700022411414141414004122140802015909D2
:10038000063E415D594E7C1211127C7F4949493627
:100390003E414141227F4141413E7F494949417FA0
:1003A000090909013E414151737F0808087F004156
:1003B0007F41002040413F017F081422417F40409F
:1003C00040407F021C027F7F0408107F3E41414174
:1003D0003E7F090909063E4151215E7F09192946E0
:1003E000264949493203017F01033F4040403F1FF6
:1003F0002040201F3F4038403F631408146303042B
:100400007804036159494D43007F4141410204088A
:100410001020004141417F0402010204404040405D
:1004200040000307080020545478407F2844443893
:100430003844444428384444287F385454541800DD
:10044000087E090218A4A49C787F0804047800445C
:100450007D40002040403D007F1028440000417F47
:1004600040007C047804787C0804047838444444D0
:1004700038FC1824241818242418FC7C08040408C8
:10048000485454542404043F44243C4040207C1CE1
:100490002040201C3C4030403C44281028444C90D4
:1004A00090907C4464544C4400083641000000772E
:1004B0000000004136080002010204023C26232607
:1004C0003C1EA1A161123A4040207A38545455593B
:1004D0002155557941215454784121555478402073
:1004E000545579400C1E527212395555555939548C
:1004F00054545939555454580000457C4100024524
:100500007D420001457C40F0292429F0F02825286F
:10051000F07C545545002054547C547C0A097F4992
:1005200032494949323248484832324A4848303ADA
:100530004141217A3A42402078009DA0A07D394473
:100540004444393D4040403D3C24FF2424487E49FA
:1005500043662B2FFC2F2BFF0929F620C0887E092C
:100560000320545479410000447D413048484A32C8
:10057000384040227A007A0A0A727D0D19317D26B0
:1005800029292F28262929292630484D4020380896
:1005900008080808080808382F10C8ACBA2F102817
:1005A00034FA00007B000008142A142222142A14B2
:1005B00008AA005500AAAA55AA55AA000000FF00E3
:1005C000101010FF00141414FF001010FF00FF1093
:1005D00010F010F0141414FC001414F700FF0000C5
:1005E000FF00FF1414F404FC141417101F10101F44
:1005F000101F1414141F00101010F0000000001F32
:10060000101010101F10101010F010000000FF103C
:100610001010101010101010FF10000000FF140038
:1006200000FF00FF00001F10170000FC04F414146A
:100630001710171414F404F40000FF00F714141436
:1006400014141414F700F7141414171410101F10B6
:100650001F141414F4141010F010F000001F101FD9
:100660000000001F14000000FC140000F010F01047
:1006700010FF10FF141414FF141010101F000000BE
:1006800000F010FFFFFFFFFFF0F0F0F0F0FFFFFFC2
:100690000000000000FFFF0F0F0F0F0F3844443819
:1006A000447C2A2A3E147E02020606027E027E0254
:1006B00063554941633844443C04407E201E200673
:1006C000027E020299A5E7A5991C2A492A1C4C72B0
:1006D00001724C304A4D4D303048784830BC625A37
:1006E000463D3E494949007E0101017E2A2A2A2AC7
:1006F0002A44445F444440514A444040444A5140A3
:100700000000FF0103E080FF000008086B6B083663
:1007100012362436060F090F0600001818000000D4
:100720001010003040FF0101001F01011E00191DC3
:100730001712003C3C3C3C00000000006224DE2418
:1007400011241FBECFEFDAE0DEBFCDBF12E0A0E084
:10075000B1E0E6EAF4E502C005900D92A031B107E0
:10076000D9F723E0A0E1B2E001C01D92A738B2079B
:10077000E1F713E0CFE9D3E004C02197FE010E9426
:100780002B25CE39D107C9F70E94CD220C94462AD9
:100790000C940000CF93DF93CDB7DEB768970FB608
:1007A000F894DEBF0FBECDBF1092570310925603D0
:1007B00061E080914E030E94BF1261E080914D0381
:1007C0000E94BF1280914D0390E0FC01EC51FE4F5E
:1007D000E491F0E0EE0FFF1FEA52FE4F25913491B5
:1007E00030934A0320934903FC01ED5FFD4FE491F0
:1007F000E093540380914E0390E0FC01EC51FE4FD6
:10080000E491F0E0EE0FFF1FEA52FE4F2591349184
:1008100030934C0320934B03FC01ED5FFD4FE491BB
:10082000E093550380914203882309F439C01FB730
:10083000F89480916702811127C0E5EFF1E084917F
:10084000E4E1F2E09491E82FF0E0EE0FFF1FE853AF
:10085000FE4FA591B491EC91E92321F461E081E18F
:100860000E945C1261E081E10E94BF128CB5806140
:100870008CBD8CB580648CBD61E08FE00E94BF129E
:1008800061E080E10E94BF12809167028F5F8093D8
:1008900067021FBF80E5809343031092440349C061
:1008A00061E0809151030E94BF1261E0809150038A
:1008B0000E94BF128091510390E0FC01EC51FE4F69
:1008C000E491F0E0EE0FFF1FEA52FE4FA591B491C4
:1008D000B0934803A0934703FC01ED5FFD4F849163
:1008E000809353032091500330E0F901EC51FE4F07
:1008F000E491F0E0EE0FFF1FEA52FE4F4591549154
:100900005093460340934503F901ED5FFD4FE49199
:10091000E09352039C91E82FE095E923EC93E0915A
:100920004503F0914603908180915203809589237D
:100930008083E0914903F0914A03908180915403B0
:1009400080958923808380914F03882321F161E082
:100950000E94BF1261E080914F030E945C1264EF1D
:1009600071E080E090E00E947D1360E080914F0391
:100970000E945C1264EF71E080E090E00E947D13C1
:1009800061E080914F030E945C1264EF71E080E0AF
:1009900090E00E947D13EAECF0E0D4900BEC10E0C4
:1009A000D11056C066E384E293E00E94CC2011E0AF
:1009B0001093390368EA84E293E00E948E2080EA73
:1009C00090E090932D0380932C0380E890E0909327
:1009D0002F0380932E03E0912403F09125030088D8
:1009E000F189E02D60E070E084E293E009951093D6
:1009F0003D0386EB98EC90933C0380933B039093EC
:100A00003503809334039093370380933603109318
:100A1000380310923A03109231031092300310926F
:100A20003303109232036AE471E084E293E00E949F
:100A30000C1183E080933803CE0101967C01992448
:100A400093948EE1A82EB12CCC24CA94DC2C85C0C2
:100A5000F801649184E293E00E94CC205801F2E016
:100A6000AF0EB11CF80131960491802F8078C82E0A
:100A70000F777501102F115050F0F701649184E247
:100A800093E00E948E20FFEFEF1AFF0AF4CFC5011A
:100A9000800F911D8C01CC2089F07C019FEFE91A19
:100AA000F90AF801649170E06F3F710511F464EF89
:100AB00071E080E090E00E947D138701DA9470CFAE
:100AC0006B897C896115710509F09AC00E94D32752
:100AD0008B899C8990935903809358038D899E89B3
:100AE00090935B0380935A038F89988D90935D0355
:100AF00080935C031C8A1B8A1E8A1D8A188E1F8A9B
:100B00008B899C890E94D32780915C0390915D031F
:100B1000009709F088C01092040180913D0388235A
:100B2000E1F010923A0380913B0390913C03909343
:100B300035038093340390933703809336031092E8
:100B4000310310923003B0923303A092320364E079
:100B500071E084E293E00E940C1180ED93E00E942A
:100B60005F1890923D0310923C0310923B03109249
:100B7000350310923403109237031092360310920B
:100B80003A031092310310923003B0923303A092D3
:100B9000320364E071E084E293E00E940C119092D1
:100BA0003D03D0923C03C0923B03D0923503C092E8
:100BB0003403D0923703C09236038091680290913B
:100BC00069021C8A1B8A1E8A1D8A188E1F8A4AE0A7
:100BD000B7010E949228F70101900020E9F73197B0
:100BE000AF014E195F09B701CE0143960E947F1DE8
:100BF0008091580390915903009709F061CF68CF15
:100C000040915A0350915B032F89388D4217530747
:100C100008F45CCF0E9428278F89988D90935D03FC
:100C200080935C036BCF029718F002E010E002C0E3
:100C300001E010E06091580370915903A80184E02D
:100C400091E00E942F27F801EC5FFE4F108265CFE4
:100C5000CF93DF9300D0CDB7DEB7C12C3DE7D32EC5
:100C6000E12CF12C44E6442E512C612C712C55E0E2
:100C7000852E912CA12CB12C11E080ED93E00E94E7
:100C80005F1864E170E080916C0290916D020E94A7
:100C9000021A813009F06DC040E050E06EED71E065
:100CA0008EE593E00E947F1D81ED92E00E940E117F
:100CB000181619065CF581ED92E00E947E11F82E5F
:100CC0000E94CD19F9821A82E0906203F0906303CA
:100CD0002FEFE21AF20AB7018EE593E00E94581D49
:100CE000882311F320915E0330915F0380916203AA
:100CF00090916303BE016F5F7F4F820F931F0E942D
:100D00002827F0926303E0926203CECF80916203C2
:100D100090916303892BF9F0E0915E03F0915F03FA
:100D200080818823C1F06FE571E081ED92E00E943F
:100D30000C11E091D102F091D202409162035091E6
:100D4000630360915E0370915F030280F381E02D85
:100D500081ED92E0099580915E0390915F03009789
:100D600029F00E946B286B017C0103C0C12CD12C9F
:100D7000760180916C0290916D020E948618C114D8
:100D8000D104E104F10409F478CFC0926302D09257
:100D90006402E0926502F0926602F7FE08C0F094E9
:100DA000E094D094C094C11CD11CE11CF11CC7017B
:100DB000B601A30192010E940C252B30310514F0DD
:100DC0002AE030E080923B0290923C02A0923D02E9
:100DD000B0923E0240913B0250913C0260913D0234
:100DE00070913E02C901032E000CAA0BBB0B480FE9
:100DF000591F6A1F7B1F40933F025093400260932C
:100E000041027093420240913F0250914002609132
:100E1000410270914202480F591F6A1F7B1F409385
:100E200043025093440260934502709346024091FE
:100E30004302509144026091450270914602840F32
:100E4000951FA61FB71F8093470290934802A09357
:100E50004902B0934A024091470250914802609182
:100E6000490270914A02C901880F991F880F991F82
:100E7000092E000CAA0BBB0B840F951FA61FB71FD2
:100E800080934B0290934C02A0934D02B0934E027C
:100E900080914B0290914C02A0914D02B0914E0274
:100EA000A7019601281B390B4A0B5B0B20934F02BD
:100EB0003093500240935102509352028091470266
:100EC00090914802A0914902B0914A02A70196016F
:100ED000281B390B4A0B5B0B2093530230935402AF
:100EE00040935502509356028091430290914402E0
:100EF000A0914502B0914602A7019601281B390B2B
:100F00004A0B5B0B209357023093580240935902CF
:100F100050935A0280913F0290914002A091410269
:100F2000B0914202A7019601281B390B4A0B5B0BBB
:100F300020935B0230935C0240935D0250935E020B
:100F400080913B0290913C02A0913D02B0913E0203
:100F5000C81AD90AEA0AFB0AC0925F02D09260025C
:100F6000E0926102F0926202F89410933A0278944F
:100F7000C12CD12C760181CE88EE91E00E945F18C1
:100F8000C0E088248A94982C540169E170E0809133
:100F90006C0290916D020E94021A813031F46DE66C
:100FA00071E081ED92E00E940C1160913802709125
:100FB0003902072E000C880B990B0E94D819109249
:100FC00039021092380266E871E081ED92E00E94E9
:100FD0000C116091680270916902072E000C880B59
:100FE000990B0E94D81960E971E081ED92E00E94AE
:100FF0000C116091360270913702072E000C880B9D
:10100000990B0E94D819109237021092360266E8A6
:1010100071E081ED92E00E940C11C0903202D090FC
:101020003302E0903402F0903502A7019601C70127
:10103000B6010E944426882319F06AEA71E01AC0BA
:1010400026013701E89477F82FEF3FEF4FE75FE78E
:10105000C301B2010E944426811111C02FEF3FEF5E
:101060004FE75FE7C301B2010E94DC2818163CF489
:101070006EEA71E081ED92E00E94F71075C02FEFEB
:101080003FEF4FE75FE4C701B6010E943F26181605
:101090001CF462EB71E0EECF2FEF3FEF4FE75FEC18
:1010A000C701B6010E94DC2887FDF3CF20E030E0C5
:1010B000A901C701B6010E94DC2887FF07C08DE2A5
:1010C0000E94CD19F7FAF094F7F8F0942AE037ED82
:1010D00043EA5BE3C701B6010E9432252B013C01C4
:1010E0000E9410266B017C010E94E1289B01AC014B
:1010F000C301B2010E9431252B013C014AE0C70126
:10110000B6010E948A1966EB71E081ED92E00E94BF
:10111000F71020E030E040E251E4C301B2010E9448
:1011200042292B013C010E9410266B01E12CF12C7D
:101130004AE0C701B6010E948A19C701B6010E94A0
:10114000E1289B01AC01C301B2010E94312520E0DE
:1011500030E040E251E40E9442290E94102680E0E3
:1011600090E04AE00E948A1968EB71E081ED92E01C
:101170000E940C11609100017091010180910201A7
:10118000909103014AE00E948A1961EC71E081EDBF
:1011900092E00E940C1160912E0270912F028091BA
:1011A0003002909131024AE00E948A196AEC71E0A3
:1011B00081ED92E00E940C1160912A0270912B0245
:1011C00080912C0290912D020E94D81963ED71E05C
:1011D00081ED92E00E940C1160912602709127022D
:1011E00080912802909129020E94D8196CED71E03B
:1011F00081ED92E00E94F710CA3010F4CF5F1DC05D
:101200008092000190920101A0920201B09203012C
:1012100010922E0210922F02109230021092310280
:101220006FED71E081ED92E00E94F7106CED71E0DE
:1012300081ED92E00E94F710C0E080916C029091E5
:101240006D020E94861880ED93E00E945F189DCE8B
:101250000E9458132B013C010FB6F8940F92E090B6
:10126000A702F090A8020F900FBEDD24D3948091C6
:10127000800281110E9483140E9439148091A70278
:101280009091A80287010C5F1F4F8E159F0520F4D7
:101290000E151F0548F404C00E151F0508F4B6C24C
:1012A0008017910708F4B2C20E948317811102C00F
:1012B0000E9408150E9458134B015C01DC01CB0110
:1012C00084199509A609B7094091000150910101BF
:1012D000609102017091030184179507A607B70773
:1012E00040F48093000190930101A0930201B09318
:1012F000030140912E0250912F02609130027091B3
:101300003102481759076A077B0740F480932E0281
:1013100090932F02A0933002B093310280913A0251
:10132000882309F44BC010923A0280916302909195
:101330006402A0916502B0916602181619061A0699
:101340001B064CF48091630290916402A0916502A7
:10135000B09166020FC08091630290916402A091E7
:101360006502B0916602B095A095909581959F4FCA
:10137000AF4FBF4F80932A0290932B02A0932C0271
:10138000B0932D0260E088E00E945C1280916302BD
:1013900090916402A0916502B0916602B7FF02C00D
:1013A00060E001C061E087E00E945C1210922602BA
:1013B00010922702109228021092290280912A028C
:1013C00090912B02A0912C02B0912D0218161906B3
:1013D0001A061B060CF005C240912A0250912B02FE
:1013E00060912C0270912D0280913B0290913C0201
:1013F000A0913D02B0913E02481759076A077B074A
:1014000014F4C6E0D0E040912A0250912B02609182
:101410002C0270912D0280913B0290913C02A09190
:101420003D02B0913E02481759076A077B07BCF09E
:1014300040912A0250912B0260912C0270912D0252
:1014400080913F0290914002A0914102B0914202EE
:10145000481759076A077B0714F4C5E0D0E04091AC
:101460002A0250912B0260912C0270912D028091E2
:101470003F0290914002A0914102B0914202481770
:1014800059076A077B07BCF040912A0250912B0252
:1014900060912C0270912D02809143029091440240
:1014A000A0914502B0914602481759076A077B0789
:1014B00014F4C4E0D0E040912A0250912B026091D4
:1014C0002C0270912D028091430290914402A091D0
:1014D0004502B0914602481759076A077B07BCF0DE
:1014E00040912A0250912B0260912C0270912D02A2
:1014F0008091470290914802A0914902B0914A021E
:10150000481759076A077B0714F4C3E0D0E04091FD
:101510002A0250912B0260912C0270912D02809131
:10152000470290914802A0914902B0914A0248179F
:1015300059076A077B07BCF040912A0250912B02A1
:1015400060912C0270912D0280914B0290914C027F
:10155000A0914D02B0914E02481759076A077B07C8
:1015600014F4C2E0D0E040912A0250912B02609125
:101570002C0270912D0280914B0290914C02A0910F
:101580004D02B0914E02481759076A077B07BCF01D
:1015900040912A0250912B0260912C0270912D02F1
:1015A00080914F0290915002A0915102B09152024D
:1015B000481759076A077B0714F4C1E0D0E040914F
:1015C0002A0250912B0260912C0270912D02809181
:1015D0004F0290915002A0915102B09152024817CF
:1015E00059076A077B07BCF040912A0250912B02F1
:1015F00060912C0270912D028091530290915402BF
:10160000A0915502B0915602481759076A077B0707
:1016100014F4C2E0D0E040912A0250912B02609174
:101620002C0270912D028091530290915402A0914E
:101630005502B0915602481759076A077B07BCF05C
:1016400040912A0250912B0260912C0270912D0240
:101650008091570290915802A0915902B0915A027C
:10166000481759076A077B0714F4C3E0D0E040919C
:101670002A0250912B0260912C0270912D028091D0
:10168000570290915802A0915902B0915A024817FE
:1016900059076A077B07BCF040912A0250912B0240
:1016A00060912C0270912D0280915B0290915C02FE
:1016B000A0915D02B0915E02481759076A077B0747
:1016C00014F4C4E0D0E040912A0250912B026091C2
:1016D0002C0270912D0280915B0290915C02A0918E
:1016E0005D02B0915E02481759076A077B07BCF09C
:1016F00040912A0250912B0260912C0270912D0290
:1017000080915F0290916002A0916102B0916202AB
:10171000481759076A077B0714F4C5E0D0E04091E9
:101720002A0250912B0260912C0270912D0280911F
:101730005F0290916002A0916102B091620248172D
:1017400059076A077B0714F0C6E0D0E060912602D3
:101750007091270280912802909129029E010D2EFE
:10176000000C440B550B0E940C25672B682B692B32
:1017700029F561E084E00E945C1261E084E00E944F
:101780005C1260E084E00E945C126D2D8DE00E948E
:101790005C1281E0D82680912A0290912B02A091C0
:1017A0002C02B0912D020197A109B10980932A0260
:1017B00090932B02A0932C02B0932D0280912602CD
:1017C00090912702A0912802B09129020196A11DB3
:1017D000B11D8093260290932702A0932802B09314
:1017E000290280912A0290912B02A0912C02B091A3
:1017F0002D02892B8A2B8B2B21F0780124013501B6
:1018000036CD61E088E00E945C12F7CF8091CF0274
:101810009091D00202960E943F14C8010E940114C8
:1018200043CD83E10E942D13BC01990F880B990BC6
:101830000E94E32820E030E040EA5BE30E94422976
:101840002DEC3CEC4CEC5EE30E94312527E73EEBAF
:101850004FE95CE30E949E2560933202709333024D
:101860008093340290933502809136029091370232
:101870000196909337028093360284E190E00E94B3
:101880005F18CFCF82E10E942D1360E082E10E94B9
:101890005C1261E083E10E945C1261E084E10E94DD
:1018A0005C1260E085E10E945C1286E10E942D13CB
:1018B0009C01A4EFB1E00E94372ADC01CB012AE0B1
:1018C000B595A795979587952A95D1F7BC01625351
:1018D0007109709369026093680280913802909157
:1018E0003902019690933902809338028AE090E0A1
:1018F0000E945F18C7CF40917A0250917B022091DD
:1019000078023091790242175307B4F49091E800BD
:101910009570E1F39091E80092FD19C08093F10079
:1019200080917A0290917B0201968F739927892B7F
:1019300019F48EEF8093E80080917A0290917B02F7
:10194000019690937B0280937A0281E0089580E073
:101950000895DF92EF92FF920F931F93CF93DF933F
:10196000D82E8A017B01E40EF51EEB01CE15DF05B2
:1019700071F0D7FE03C0FE01849101C088810E94EE
:101980007B0C21968111F2CF8FEF9FEF01C0C80130
:10199000DF91CF911F910F91FF90EF90DF9008950D
:1019A000615030F02091F100FC0120830196F8CFC6
:1019B000289884E680938D020895CF92DF92EF926B
:1019C000FF920F931F93CF93DF936C017A018B01EA
:1019D000C0E0D0E0CE15DF0589F0D8016D918D0112
:1019E000D601ED91FC910190F081E02DC6010995A1
:1019F000892B11F47E0102C02196ECCFC701DF9143
:101A0000CF911F910F91FF90EF90DF90CF900895AD
:101A1000CF93DF931F92CDB7DEB76983DC01ED91E1
:101A2000FC910280F381E02D41E050E0BE016F5F48
:101A30007F4F09950F90DF91CF91089583E08093B8
:101A4000E9008091F200882319F08AE38093E8008E
:101A500008950F931F93CF93DF931F92CDB7DEB7F7
:101A600082E0898342E450E066E371E080E80E940E
:101A7000A90C0E94441DDC0112960D911C91139734
:101A80000115110569F0D801ED91FC910280F381F7
:101A9000E02DBE016F5F7F4FC801099597FF07C01A
:101AA00089810F90DF91CF911F910F910895F801D7
:101AB00000851185E5CF8F929F92AF92BF92CF9212
:101AC000DF92EF92FF920F931F93CF93DF935C010E
:101AD0006B018A0180911201882309F45EC0809114
:101AE0008E02882309F459C080917E0280FF05C0D0
:101AF0008091E00082608093E000E8018AEFF82E98
:101B000093E0E92E2FE3822E3AE3932E209709F4F7
:101B10003DC08FB7F894E092E9009091E80095FFFE
:101B200006C09091F200282D291B922F01C090E051
:101B30008FBF91110AC0FA94FF2079F161E070E043
:101B400080E090E00E947D13E1CF292F30E0C217A2
:101B5000D3070CF49C2F8FB7F894E092E900209102
:101B6000E80025FF11C0292F30E0C21BD30BF6017E
:101B7000915020F041914093F100FACFC20ED31E54
:101B80009091E80095FF13C08FBFC0CF5D9884E6A9
:101B900080937F021016110644F081E090E0F50179
:101BA0009383828380E090E005C0C80103C09092D7
:101BB000E800EACFDF91CF911F910F91FF90EF9056
:101BC000DF90CF90BF90AF909F908F9008951F921D
:101BD0000F920FB60F9211248F939F938091E10083
:101BE0009091E100937F9093E10083FF0FC01092EA
:101BF000E90091E09093EB001092EC0092E3909357
:101C0000ED0010928E0298E09093F00082FF20C0C9
:101C100093E09093E9009091F200992319F09AE3F0
:101C20009093E80090917F02992339F090917F0280
:101C3000915090937F02992389F190918D0299237D
:101C400039F090918D02915090938D02992341F13A
:101C500084FF10C08091E2008E7E81608093E2005C
:101C60008091E1008F7E8093E10080917E028E7EE4
:101C7000806111C080FF16C08091E2008E7E80617D
:101C80008093E2008091E1008E7E8093E10080915C
:101C90007E028E7E816080937E0204C05D9ACDCFED
:101CA000289AD6CF9F918F910F900FBE0F901F90C3
:101CB00018951F920F920FB60F921124CF92DF92B8
:101CC000EF92FF920F931F932F933F934F935F9346
:101CD0006F937F938F939F93AF93BF93EF93FF93F4
:101CE000CF93DF93CDB7DEB76C97DEBFCDBF109239
:101CF000E9008091E80083FFFAC168E0CE014596D3
:101D00000E94D00C82EF8093E8008D8987FF05C088
:101D10009091E80090FFFCCF03C09EEF9093E80005
:101D2000982F907609F0C6C09E892F89188D911141
:101D30000CC0803829F480917D028093F10002C0AC
:101D40001092F1001092F10047C1422F50E0512B48
:101D5000913051F4811140C14130510509F03CC12D
:101D600080917D028D7F0BC0933061F4811134C16D
:101D70004130510509F030C180917D02826080932D
:101D80007D022AC1953041F48091E80080FFFCCFAC
:101D900020682093E30020C1963009F05FC0EB8CEF
:101DA000FC8C1092E90010927B0210927A021230A1
:101DB00091F510927902109278020E94290D99E013
:101DC000BE016F5F7F4FDB01E92F1D92EA95E9F7B6
:101DD00099831A8391E09E8390EA98879AEF998776
:101DE00020917A0230917B02275F3F4F3C832B8307
:101DF0008D831092E90010927B0210927A02F09289
:101E00007902E092780249E050E080E00E94A90C5B
:101E10000E94290DE1C0F0927902E09278020E94BE
:101E2000441DDC011296ED90FC901397E114F1042F
:101E300009F4C0C0D701ED91FC910480F581E02D3B
:101E4000BE016B5E7F4FC7010995009719F00CF03A
:101E5000C3C0C6C0F701E084F184E8CF973009F42D
:101E6000BFC0983021F481E08093F100B5C0993073
:101E700009F0B2C0837009F0B3C0EAE1F1E081E09B
:101E800021E036E39081992361F08093E90020936B
:101E9000EB0091919093EC003093ED008F5F8730D1
:101EA00089F78EE78093EA001092EA008F89809389
:101EB0008E0292C08B8D9C8D1092E90010927B0255
:101EC00010927A029093790280937802898D811121
:101ED00056C08E899D89913A59F4813209F080C0AB
:101EE00047E050E06BE071E080E00E94A90C74C014
:101EF000913209F075C0833289F4888D90E0982F73
:101F000088272F89822BA0E0B0E08093070190936F
:101F10000801A0930901B0930A015EC0803269F400
:101F20008091E80082FFFCCF67E08BE091E00E94A7
:101F3000D00C8BEF8093E80006C0823209F04CC0D1
:101F40008F898093120180917C02882319F0EEEF33
:101F5000FAE002C0E0E0F8E080910B0190910C0102
:101F6000A0910D01B0910E01803B9440A105B105F7
:101F700009F088C08091120180FFA0C083C00E9438
:101F8000441DDC0112960D911C911397011511054A
:101F900039F1D801ED91FC910190F081E02DBE0165
:101FA0006B5E7F4FC8010995811116C0F80100854D
:101FB0001185ECCF1130C1F0133091F48F89882353
:101FC00009F455C08230E9F440E86FE088E891E018
:101FD0000E949022882321F08EEF8093E80087C032
:101FE00081E28093EB0083C08B8D9C8D089711F468
:101FF0001093770280917702811136C068E971E011
:1020000038C0813029F440E86BE08CE791E0E0CF04
:10201000833031F70E94441DDC011296ED90FC9054
:1020200013978E010F5F1F4F6801E114F10479F0DF
:10203000D701ED91FC910680F781E02DB801C70131
:102040000995080F111DF701E084F184EECFD80146
:102050001C92F60101900020E9F73197BF016C193D
:102060007D0940E0C601B4CF6AEA71E002C068E7CA
:1020700071E06115710509F4B3CFFB01449150E0A3
:1020800080E833CF0FB6F894A895809160008861FE
:1020900080936000109260000FBEA895EE3F2AE08A
:1020A000F20739F08091FE0A9091FF0A91838083B4
:1020B00093CF1092FF0A1092FE0A8ECFEE3F8AE075
:1020C000F80731F0808191819093FF0A8093FE0A96
:1020D00087E797E7918380839BE088E10FB6F894C8
:1020E000A895809360000FBE9093600075CF6C96AA
:1020F0000FB6F894DEBF0FBECDBFDF91CF91FF9139
:10210000EF91BF91AF919F918F917F916F915F916F
:102110004F913F912F911F910F91FF90EF90DF9082
:10212000CF900F900FBE0F901F9018951F920F9297
:102130000FB60F9211242F933F938F939F93AF93DA
:10214000BF93EF93FF938091730290917402A091DB
:102150007502B0917602E0917002F0917102892BC4
:102160008A2B8B2B31F18091720290818927808399
:102170008091730290917402A0917502B0917602E1
:10218000181619061A061B062CF5809173029091F9
:102190007402A0917502B09176020197A109B1096C
:1021A0008093730290937402A0937502B0937602A9
:1021B00011C0809171008D7F8093710090917202A7
:1021C0008081282F30E0892F90E0809590958223A0
:1021D00093238083FF91EF91BF91AF919F918F9156
:1021E0003F912F910F900FBE0F901F901895611582
:1021F000710579F0FB0101900020E9F73197AF01FB
:10220000461B570BDC01ED91FC910280F381E02D20
:10221000099480E090E008950C94F710FC01848507
:10222000958597FD0BC09FB7F89482E08093E900F5
:102230008091F2009FBF90E0019608959FB7F894B7
:1022400082E08093E9008091F2009FBF90E00895C2
:102250000F931F93CF93DF938C01FB0180819181BA
:102260008F3F2FEF920721F4E801AF81B8850EC0B0
:10227000D801139612962D913C911397E90148814C
:1022800059818417950710F0D901F4CF12968D91DA
:102290009C91139793838283EC01FD83EC83B58338
:1022A000A4831396FC93EE93129711870087F8018D
:1022B00080818F5F8083DF91CF911F910F9108956F
:1022C000EF92FF920F931F93DC01ED91FC91119718
:1022D0001A960D911C911B9718962D913C91199768
:1022E0000684F785E02D7B0140E050E060E070E07F
:1022F00009951F910F91FF90EF900895CF93DF9371
:102300001F92CDB7DEB7FC018485958597FD05C08A
:102310002FEF3FEF358724870BC0CE0101960E9437
:102320001A1D019719F4898190E002C08FEF9FEF89
:102330000F90DF91CF9108950F931F93CF93DF9369
:102340001F92CDB7DEB78C01FC018485958597FF80
:102350000EC0CE0101960E941A1D019719F4298121
:1023600030E002C02FEF3FEFF80135872487F801F6
:10237000848595850F90DF91CF911F910F910895DE
:102380000E941327611102C060E201C061E20C9457
:10239000CC20AF92BF92CF92DF92EF92FF920F9339
:1023A0001F93CF93DF93EC0159016801288539858C
:1023B000621773070CF075C08A859B85481759070B
:1023C0000CF06FC0FB01EA0DFB1D2E173F071CF43C
:1023D0005901A61AB70A9A012C0D3D1D82179307C1
:1023E0001CF46C01C41AD50A8D8D823091F49701CA
:1023F000207E3770C701982F8827990F990F990F62
:10240000822B932BEF2CFF24E694E694E694E82AA3
:10241000F92A0FEF040F0C0D2FEF260F2A0DCE0116
:102420000E940B218E8D882321F08F8D98A10E9410
:102430008B20EFA1F8A5908189A9892B8083EDA13C
:10244000FEA1908188A98095892380831C141D0496
:102450009CF48501101611065CF46F2DCE010E94CC
:102460005D206E2DCE010E945D2001501109F2CF3A
:1024700081E0C81AD108EACFEDA1FEA1908188A918
:10248000892B80838E8D882361F0DF91CF911F91FE
:102490000F91FF90EF90DF90CF90BF90AF900C9492
:1024A0008A20DF91CF911F910F91FF90EF90DF90E5
:1024B000CF90BF90AF900895362F90E0FC01EE5D75
:1024C000FD4F4491FC01ED5FFD4F2491FC01EC5167
:1024D000FE4F8491882309F451C04423E1F150E078
:1024E000FA013197EF30F105B0F5EA5AFF4F0C943D
:1024F0002B25909180009F7707C0909180009F7D51
:1025000003C090918000977F9093800024C094B581
:102510009F7702C094B59F7D94BD1DC0909190009F
:102520009F7707C0909190009F7D03C0909190008D
:10253000977F909390000FC09091C0009F7703C049
:102540009091C0009F7D9093C00005C09091C20003
:10255000977F9093C200E82FF0E0EE0FFF1FEA5242
:10256000FE4FA591B4918FB7F894EC91311103C04F
:1025700020952E2301C02E2B2C938FBF0895CF932F
:10258000DF9390E0FC01ED5FFD4F2491FC01EC51E5
:10259000FE4F8491882361F190E0880F991FFC0120
:1025A000E853FE4FC591D491FC01EA52FE4FA5912C
:1025B000B491611109C09FB7F89488812095822356
:1025C0008883EC912E230BC0623061F49FB7F8949E
:1025D0003881822F809583238883EC912E2B2C9336
:1025E0009FBF06C08FB7F894E8812E2B28838FBF3A
:1025F000DF91CF9108958C01F89461E08DE00E9405
:10260000BF12C0E0D0E0C017D107E4F461E08DE074
:102610000E945C1280E899EAA3E0B0E00000019714
:10262000A109B109D9F760E08DE00E945C1280E851
:1026300099EAA3E0B0E000000197A109B109D9F738
:102640002196E1CF40E05AE668E170E00000415099
:10265000510961097109D1F7D4CF823108F0825153
:10266000E82FF0E0E454FE4FE49180917B00E3FB1F
:10267000222720F930E095E0220F331F9A95E1F7E9
:102680008F7D282B20937B00E770E064E0937C0033
:1026900080917A00806480937A0080917A0086FD30
:1026A000FCCF809178002091790090E0922B0895E2
:1026B0003FB7F8948091890290918A02A0918B0291
:1026C000B0918C0226B5A89B05C02F3F19F001964A
:1026D000A11DB11D3FBFBA2FA92F982F8827820FA8
:1026E000911DA11DB11DBC01CD0142E0660F771FF8
:1026F000881F991F4A95D1F708958F929F92AF92A4
:10270000BF92CF92DF92EF92FF926B017C010E9409
:1027100058134B015C01C114D104E104F104F1F040
:102720000E945813DC01CB0188199909AA09BB0939
:10273000883E9340A105B10570F321E0C21AD1088B
:10274000E108F10888EE880E83E0981EA11CB11CF8
:10275000C114D104E104F10419F7DDCFFF90EF902B
:10276000DF90CF90BF90AF909F908F9008951F9271
:102770000F920FB60F9211242F933F938F939F9335
:10278000AF93BF938091850290918602A0918702BA
:10279000B09188023091840223E0230F2D3720F47A
:1027A0000196A11DB11D05C026E8230F0296A11DAB
:1027B000B11D209384028093850290938602A0939A
:1027C0008702B09388028091890290918A02A09139
:1027D0008B02B0918C020196A11DB11D80938902DC
:1027E00090938A02A0938B02B0938C02BF91AF9119
:1027F0009F918F913F912F910F900FBE0F901F903F
:102800001895CF93DF93E091CF02F091D00293839C
:1028100082832091A7023091A8028217930770F457
:102820006091CF027091D00280918F0290919002BE
:102830006E5F7F4FDF91CF910C942811EC01609176
:10284000CF027091D00280919102909192026E5FBE
:102850007F4F0E94281180916A0290916B02C817E5
:10286000D90720F4D0936B02C0936A02DF91CF9115
:102870000895809180028F5F809380020895CF93A6
:10288000DF93FC01A085B18582819381248135810C
:10289000EC013D832C83C481D5819B838A8311966F
:1028A0008D919C9112978E179F0721F41296DC93BD
:1028B000CE931197118610868C9181508C93DF9165
:1028C000CF910895CF93DF939C01FB01DC0111961A
:1028D000CD91DC911297D383C2838C819D819583A6
:1028E00084838C819D81DC0113967C936E93129777
:1028F0007D836C8331872087F90180818F5F80839E
:10290000DF91CF91089581E090E00E94FB12109238
:102910008302E091CF02F091D0020788F08DE02D84
:1029200080819181A281B381853A954AA54AB54AB1
:10293000E9F484819581A681B781853A954AA54AB3
:10294000B54AA1F480859185A285B385853A954ADB
:10295000A54AB54A59F484859585A685B785853AF3
:10296000954AA54AB54A11F499E011C08091CF0269
:102970009091D0028091CF029091D00283E090E0BC
:102980000E94FB128091CE0281508093CE02E09192
:10299000CE029E9FF0011124E655FD4F80818111EA
:1029A00006C08091CE028111EDCF0E9483148091E8
:1029B000CE0290E049E0489F9001499F300D1124DC
:1029C000F901E655FD4FA181B28112960D90BC919F
:1029D000A02DB283A18323553D4FA217B30731F435
:1029E00012962D913C9113973283218329E0289FE1
:1029F000F001299FF00D1124E655FD4F0180F28171
:102A0000E02D868197819093D0028093CF02089524
:102A10000F920FB6F8940F921F9211242F923F92AB
:102A20004F925F926F927F928F929F92AF92BF92DE
:102A3000CF92DF92EF92FF920F931F932F933F93CA
:102A40004F935F936F937F938F939F93AF93BF93B6
:102A5000CF93DF93EF93FF93A091CF02B091D00279
:102A60000DB60D920EB60D9280918002882321F052
:102A700081E08093830202C00E948714A091CF025C
:102A8000B091D002CD91CDBFDD91DEBFFF91EF912E
:102A9000DF91CF91BF91AF919F918F917F916F9176
:102AA0005F914F913F912F911F910F91FF90EF9068
:102AB000DF90CF90BF90AF909F908F907F906F905E
:102AC0005F904F903F902F901F900F900FBE0F90F0
:102AD0000895FC01892B11F40E948314611571057E
:102AE000D9F30FB6F8940F924091A7025091A80223
:102AF0003091A902208181819281321719F0481703
:102B00005907D8F4DB012D913C91DA01A81BB90BD0
:102B1000A217B30790F4841B950B820F931FDB0160
:102B20008D939C938091A90280838091A7029091BC
:102B3000A8029283818380E001C081E00F900FBEE4
:102B400008950F931F93CF93DF93DC011596ED91BA
:102B5000FC911697C681D781209711F40E948314A7
:102B60008E01045F1F4FC8010E943F1480918002B4
:102B7000811114C00A501109C8010E943F149E8996
:102B80008091CE02891710F49093CE02B9E09B9FFA
:102B9000C0011124B80186559D4F03C0B8018CE9CE
:102BA00092E00E946214E091CF02F091D0029E89DF
:102BB0008689891720F481E08093830201C080E038
:102BC000DF91CF911F910F910895FF920F931F9363
:102BD000CF93DF93EC010FB6F8940F928C010F5E48
:102BE0001F4FFF24F3949E8D19166CF48989882356
:102BF00051F0C8010E94A1158111F09283029E8DAF
:102C000091509E8FF0CF8FEF8E8F0F900FBE0FB62B
:102C1000F8940F928E01085F1F4FFF24F3949D8D4F
:102C200019166CF48885882351F0C8010E94A115FB
:102C30008111F09283029D8D91509D8FF0CF8FEF87
:102C40008D8F0F900FBEDF91CF911F910F91FF904D
:102C50000895CF93DF93EB01009711F40E94831442
:102C60002091CF023091D002B901645F7F4F0E9462
:102C700028118091CF029091D00202960E943F14B9
:102C80008091A7029091A8028C0F9D1FDF91CF9198
:102C90000C940114CF92DF92EF92FF920F931F9347
:102CA000CF93DF93809180028111B1C08091A70200
:102CB0009091A80201969093A8028093A702E090B9
:102CC000A702F090A802E114F104B9F5E091910295
:102CD000F0919202808181110E948314809191026F
:102CE0009091920220918F02309190023093920243
:102CF000209391029093900280938F028091A90279
:102D00008F5F8093A902E0919102F09192028081FD
:102D1000811103C08FEF9FEF0CC0E0919102F09101
:102D200092020580F681E02D0680F781E02D8281F8
:102D3000938190936B0280936A0280916A029091D2
:102D40006B02C0E0E816F90608F44FC0D9E0E09144
:102D50009102F09192028081811103C08FEF9FEF69
:102D600011C0E0919102F09192020580F681E02D70
:102D700006811781D80112968D919C911397E816C0
:102D8000F90628F490936B0280936A022EC06801C2
:102D9000B2E0CB0ED11CC6010E943F14F801848919
:102DA0009589892B21F0C8010C960E943F14D80107
:102DB00056969C918091CE02891710F49093CE0282
:102DC000D99FC0011124B60186559D4F0E946214FF
:102DD000E091CF02F091D002D80156969C9186895D
:102DE000981708F4B4CFC1E0B2CFE091CF02F091D0
:102DF000D002E689B9E0EB9FF0011124E655FD4FC2
:102E00008081823008F0C1E08091810206C080910B
:102E100081028F5F80938102C0E0809183028111E3
:102E2000C1E08C2FDF91CF911F910F91FF90EF9018
:102E3000DF90CF9008950F920FB6F8940F921F92E3
:102E400011242F923F924F925F926F927F928F92B6
:102E50009F92AF92BF92CF92DF92EF92FF920F9329
:102E60001F932F933F934F935F936F937F938F9312
:102E70009F93AF93BF93CF93DF93EF93FF93A09173
:102E8000CF02B091D0020DB60D920EB60D920E94F7
:102E90004A16882351F080918002882321F081E036
:102EA0008093830202C00E948714A091CF02B09148
:102EB000D002CD91CDBFDD91DEBFFF91EF91DF91CB
:102EC000CF91BF91AF919F918F917F916F915F91C2
:102ED0004F913F912F911F910F91FF90EF90DF90B5
:102EE000CF90BF90AF909F908F907F906F905F90AA
:102EF0004F903F902F901F900F900FBE0F9008950E
:102F00000E941B171895EF92FF920F931F93CF9378
:102F1000DF9380918002811102C00E9483140FB65A
:102F2000F8940F928091800281508093800280916A
:102F30008002882311F080E053C08091A60288238C
:102F4000D1F389E0F82EEE24E39480919C0288234B
:102F500051F1E091A102F091A202C681D781CE0188
:102F60000C960E943F148E010E5F1F4FC8010E94F5
:102F70003F149E898091CE02891710F49093CE025F
:102F8000F99EC0011124B80186559D4F0E9462141C
:102F9000E091CF02F091D0029E8986899817A8F21D
:102FA000E0928302D2CF80918102811109C0809189
:102FB0008302813009F0BFCF0E94081581E010C064
:102FC000C1E080918102882391F30E944A16811109
:102FD000C093830280918102815080938102F1CF5E
:102FE0000F900FBEDF91CF911F910F91FF90EF9047
:102FF0000895CF93DF93009751F0EC010E943914AC
:10300000CE010E94D327DF91CF910C948317DF91DB
:10301000CF91089580918202882349F10E9439144A
:10302000C09193020E948317CC23A1F30FB6F894AA
:103030000F92E0919802F0919902C681D781CE015A
:1030400002960E943F148091A60281508093A602AE
:10305000809182028150809382020F900FBE8F89EF
:10306000988D0E94F917CE010E94F917D3CF809155
:10307000AA02823078F20E940815CCCF0F931F93DA
:10308000CF93DF9300D0CDB7DEB789839A830E94B8
:10309000391489819A810E943E278C010E948317EE
:1030A0000115110521F482E090E00E94FB12C80195
:1030B0000F900F90DF91CF911F910F910895CF93B3
:1030C000DF93EC01892B19F40E9408151BC0809135
:1030D000800281110E9483140E9439142091A7025A
:1030E0003091A802C20FD31F8091CF029091D002DD
:1030F00002960E943F14CE010E9401140E94831781
:10310000882311F3DF91CF9108950895CF92DF9234
:10311000EF92FF920F931F93CF93DF9300D000D0D5
:103120001F92CDB7DEB78C011D821C82009711F46F
:103130000E948314FC01848D8111FACF90E0780104
:10314000F8E0EF0EF11C0FB6F8940F92F801228D03
:10315000838D281708F07BC0448D411148C08081C1
:103160009181892B09F05CC0F801E280F380E114C1
:10317000F10411F480E037C08091CF029091D00229
:10318000E816F906A9F6F70182A1882389F2815091
:1031900082A3268991A1291769F38111EBCF6701D9
:1031A000F2E0CF0ED11CC6010E943F14F70191A19D
:1031B000968B492F50E024E030E0241B350B3587F7
:1031C00024878091CE02891710F49093CE0229E0D3
:1031D000249FC001259F900D1124B60186559D4F57
:1031E0000E94621481E0F801138212821AC050E03A
:1031F00060E070E0F801848195810E941827F80151
:10320000248D84819581820F911D958384832281F1
:1032100033818217930720F0808191819583848385
:1032200080E0F801928D9F5F928F9189992349F0F8
:10323000C80141960E94A115813029F40E94081509
:1032400002C08111FBCF0F900FBE81E055C02C81D1
:103250003D81232B19F40F900FBE4DC0911109C071
:103260008091A90289838091A7029091A8029B83F3
:103270008A830F900FBE0E9439140FB6F8940F92F4
:10328000F801858D8F3F09F4158EF801868D8F3FEB
:1032900009F4168E0F900FBEBE016C5F7F4FCE01FA
:1032A00001960E946915811121C00FB6F8940F9202
:1032B000F801928D0F900FBE838D981311C06C8111
:1032C0007D81C7010E942916C8010E94E5150E9450
:1032D0008317882311F091E036CF0E940815FBCFA9
:1032E000C8010E94E5150E948317F5CFC8010E940E
:1032F000E5150E94831780E00F900F900F900F90BC
:103300000F90DF91CF911F910F91FF90EF90DF9081
:10331000CF9008958F929F92AF92BF920F931F9379
:10332000CF93DF93CDB7DEB7A1970FB6F894DEBF8A
:103330000FBECDBF19A2423008F44AE08E010F5DE6
:103340001F4F842E912CA12CB12CA50194010E9419
:10335000EA24E62FB901CA0101501109EA3014F438
:10336000E05D01C0E95CD801EC93232B242B252BD5
:1033700061F7B80181ED92E00E94F710A1960FB6B7
:10338000F894DEBF0FBECDBFDF91CF911F910F919B
:10339000BF90AF909F908F900895E091D102F091EF
:1033A000D2020190F081E02D682F81ED92E0099426
:1033B000CF92DF92EF92FF92CF93DF9397FF19C0E6
:1033C0006B017C018DE20E94CD19EC016627772705
:1033D000CB016C197D098E099F094AE00E948A1968
:1033E0008C0F9D1FDF91CF91FF90EF90DF90CF90DA
:1033F00008954AE0DF91CF91FF90EF90DF90CF905A
:103400000C948A196F927F929F92AF92BF92CF9243
:10341000DF92EF92FF920F931F93CF93DF9300D031
:1034200000D01F92CDB7DEB78C017D836C830097EF
:1034300011F40E948314FC01848D8111FACF80E085
:103440006801F1E1CF0ED11C99E0992E24E0A22E63
:10345000B12C0FB6F8940F92F801928D992309F4CC
:1034600046C0448D4423B9F050E086819781840F93
:10347000951F97838683228133818217930720F0DB
:103480008081918197838683F8016681778180E0CE
:1034900090E00E941827F801828D8150828F8081F0
:1034A0009181892BA1F48091CF029091D002892B38
:1034B00039F0E091CF02F091D00282A18F5F82A318
:1034C0008091CF029091D002F80193838283F8011A
:1034D0008085882341F0C80108960E94A11581309B
:1034E00011F40E9408150F900FBE81E0ADC02C8131
:1034F0003D81232B19F40F900FBEA5C0811109C087
:103500008091A90289838091A7029091A8029B8350
:103510008A830F900FBE0E9439140FB6F8940F9251
:10352000F801858D8F3F09F4158EF801868D8F3F48
:1035300009F4168E0F900FBEBE016C5F7F4FCE0157
:1035400001960E946915811179C00FB6F8940F9207
:10355000F801828D0F900FBE81116AC08081918128
:10356000892B09F054C00FB6F8940F92E280F380D3
:10357000E114F10409F449C0F7018689E091CF0212
:10358000F091D0029689891708F03FC0F701248591
:10359000358537FD0BC0E091CF02F091D0029689BE
:1035A0009501291B3109F70135872487989EC001B1
:1035B000112486559D4FF701228533852817390739
:1035C000E9F43701F2E06F0E711CC3010E943F1451
:1035D000E091CF02F091D0022689F701268B8091ED
:1035E000CE02821710F42093CE02929EC0011124C5
:1035F000B30186559D4F0E94621407C0E091CF022F
:10360000F091D0028689F701868B0F900FBE6C81F6
:103610007D81C6010E942916C8010E94E5150E94FD
:103620008317882311F081E014CF0E940815FBCF87
:10363000C8010E94E5150E948317F5CFC8010E94BA
:10364000E5150E94831780E00F900F900F900F9068
:103650000F90DF91CF911F910F91FF90EF90DF902E
:10366000CF90BF90AF909F907F906F9008950F93F1
:103670001F93CF93DF938C01C0E0D0E0F801EC0FF3
:10368000FD1F6491662371F0E091D102F091D202A6
:103690000190F081E02D81ED92E00995892B11F0E8
:1036A0002196ECCF6CED71E081ED92E00E94F71075
:1036B0008C0F9D1FDF91CF911F910F9108956F92F5
:1036C0007F929F92AF92BF92CF92DF92EF92FF9242
:1036D0000F931F93CF93DF935C01962EC72EEA01C1
:1036E000D22E892B11F40E948314822F90E004972C
:1036F000D4F7CA010E943E183C01892B09F48BC102
:1037000089E290E00E943E187C010097D9F0DC012C
:1037100058967C926E925797AE0165EA70E0C301AD
:103720000E9421272197D7015796ED91FC91589738
:10373000EC0FFD1FB701675E7F4FA92DBC2DCD019A
:10374000089607C0C3010E94F91765C1A817B907F9
:1037500049F09D014D91EB014993BE01E90128819A
:103760002111F4CFD70190961C928D2DB3E0BD1599
:1037700008F483E0E7018E8B89A31AA21B861A86C0
:103780001D8A1C8AF986E88624E030E0A901481BDE
:1037900051095D874C87FB8AEA8A1BA21CA21DA2E5
:1037A0001EA218A61FA291E19083DF01119782E269
:1037B0008C93119723E32C931197AC921197BC92A1
:1037C00011971C92119720E82C9311971C92119736
:1037D00022E02C93119723E02C93119724E02C9353
:1037E000119725E02C93119726E02C93119727E051
:1037F0002C93119728E02C93119729E02C93119783
:1038000020E12C9311979C93119792E19C9311972F
:1038100093E19C93119794E19C93119795E19C936C
:10382000119796E19C93119797E19C93119798E1DA
:103830009C93119799E19C93119790E29C93119717
:1038400091E29C9311978C93119783E28C9311973B
:103850001C9211971C92119786E28C93119787E224
:103860008C93119788E28C93119789E28C9311972E
:1038700080E38C93119781E38C93B697F983E88367
:103880000115110519F0F801F182E0820FB6F894E4
:103890000F928091A6028F5F8093A6028091CF0243
:1038A0009091D002892B09F07DC0F092D002E09275
:1038B000CF028091A602813009F083C0EAEAF2E0EB
:1038C0004FEF5FEF9F012D5F3F4F328321838FEFDB
:1038D0009FEF548343833683258330872783108269
:1038E000399622E0EE3CF20769F72CE733E030939B
:1038F0007B0320937A0390937D0380937C03309322
:103900007F0320937E0330938103209380031092E2
:10391000790323E733E0309372032093710390938C
:10392000740380937303309376032093750330936D
:10393000780320937703109270032FE932E03093DD
:103940009E0220939D029093A00280939F02309349
:10395000A2022093A1023093A4022093A30210920A
:103960009C0226E932E030939502209394029093D2
:103970009702809396023093990220939802309395
:103980009B0220939A021092930289E793E090930E
:1039900092028093910280E793E09093900280934B
:1039A0008F020FC08091A50281110BC0E091CF0260
:1039B000F091D0028689D81620F0F092D002E092E1
:1039C000CF02809182038F5F80938203D701569646
:1039D0008C919091CE02981710F48093CE02B7018B
:1039E0006E5F7F4FB9E08B9FC001112486559D4FBC
:1039F0000E9462140F900FBE8091A502882349F0A7
:103A0000E091CF02F091D00286898D1510F40E94CA
:103A1000081581E001C08FEFDF91CF911F910F91C9
:103A2000FF90EF90DF90CF90BF90AF909F907F90EE
:103A30006F900895FC0180918E02811103C08FEF79
:103A40009FEF08959FB7F89482E08093E90020915A
:103A5000F20030E01216130614F421E030E02115D4
:103A6000310559F0289884E680938D028091F10009
:103A700080838091F200882319F09FBFC9010895C7
:103A80008BE68093E800F9CF8091680381110DC027
:103A900082E08093640384E080936503109267035F
:103AA0001092660381E08093680384E693E00895B2
:103AB0000F931F93CF93DF93EC0188819981009737
:103AC00029F02A813B812617370788F48B016F5F25
:103AD0007F4F0E944926009761F0998388831B835A
:103AE0000A832C813D81232B11F4FC01108281E09B
:103AF00001C080E0DF91CF911F910F910895EF9267
:103B0000FF920F931F93CF93DF93EC017B018A0108
:103B1000BA010E94581D2881398181110DC02115DB
:103B2000310519F0C9010E94D327198218821D821C
:103B30001C821B821A8206C01D830C83B701C90137
:103B40000E942827CE01DF91CF911F910F91FF9006
:103B5000EF9008954C7F38E0439FC001112430E07E
:103B600043E0359527954A95E1F7822B932B687FA3
:103B7000962B089508952F923F924F925F926F92E5
:103B80007F928F929F92AF92BF92CF92DF92EF92ED
:103B9000FF920F931F93CF93DF93CDB7DEB72D978F
:103BA0000FB6F894DEBF0FBECDBFFC016A3069F4DA
:103BB00024898685978538E0239F800D911D1124E7
:103BC0009787868715861486E4C06D3009F4E1C0B6
:103BD0009D878C8754895983828993899D838C839F
:103BE000A089B189BF83AE8386849784C484D58439
:103BF00080859185C816D906BCF0EC85FD85448981
:103C0000242F30E084859585F6E04F9F800D911D2F
:103C10001124AC85BD851D969C938E931C9756965A
:103C20004C91411192C0B5C0EC85FD85828593858C
:103C30008816990614F7F981AF2EB12CC60126E03B
:103C4000F29F800D911D112418161906B4F6C501B6
:103C500023E0880F991F2A95E1F7880D991D181602
:103C600019065CF655E0659FB001112416011A8211
:103C7000CB018C199D0999878887D4011896BB8739
:103C8000AA87BA81B53049F0E885F985E20DF31DC0
:103C9000EF5BFD4F24912B8301C01B822401340173
:103CA0003B8130FF13C0AC85BD85ED91FC91B9819E
:103CB000B13031F40480F581E02D2E813F8119C0AF
:103CC0000684F785E02DEE80FF801EC0EC81FD812B
:103CD0002E813F81E217F307F1F0AC85BD85ED91B0
:103CE000FC91B981B13059F40480F581E02D2C812B
:103CF0003D81A301B1018C859D8509950CC0068489
:103D0000F785E02DEC80FD8085019501A201B601CB
:103D10008C859D850995EB81E695EB83FFEF6F1A06
:103D20007F0A4A0C5B1C2A853B856216730609F0E4
:103D3000B7CF3A813F5F3A835FEF251A350ACA0C45
:103D4000DB1C363009F09DCF58CF4AEF4203B0015B
:103D5000439F700D1124AC85BD8518964D915C91E3
:103D60001997460F571F481759079CF483E0220FF5
:103D7000331F8A95E1F71E968D919C911F97280F0E
:103D8000391F1F963C932E931E971D961C921E92D0
:103D90001C9781E090E02D960FB6F894DEBF0FBE21
:103DA000CDBFDF91CF911F910F91FF90EF90DF90EA
:103DB000CF90BF90AF909F908F907F906F905F90CB
:103DC0004F903F902F900895EF92FF920F931F9383
:103DD000DC01ED91FC9111971A960D911C911B97A6
:103DE00018962D913C9119970684F785E02D7B015B
:103DF00040E050E060E070E009951F910F91FF9066
:103E0000EF9008956F927F928F929F92AF92BF92A0
:103E1000CF92DF92EF92FF920F931F93CF93DF9396
:103E20006C015A014801EB013B01620E731EC6157D
:103E3000D70574F4D601ED91FC910084F185E02D55
:103E400087019401A501BE01C60109952196EFCF16
:103E5000DF91CF911F910F91FF90EF90DF90CF9066
:103E6000BF90AF909F908F907F906F900895EF924A
:103E7000FF920F931F93DC01ED91FC91260F371FEA
:103E8000215031090680F781E02D78018A010995DA
:103E90001F910F91FF90EF900895EF92FF920F9373
:103EA0001F937801DC01ED91FC91240F351F8901EE
:103EB000015011090680F781E02D9B0109951F91A2
:103EC0000F91FF90EF9008956F927F928F929F9243
:103ED000AF92BF92CF92DF92EF92FF920F931F9318
:103EE000CF93DF93EC014B015A0169013801E8815E
:103EF000F9810284F385E02D87010995E881F98134
:103F0000A501460D571D415051090284F385E02D4E
:103F10009601B401CE010995E881F9810084F1850B
:103F2000E02D9301A501B401CE010995E881F98145
:103F3000C80CD91CB601615071090084F185E02DCF
:103F40009301A501CE010995DF91CF911F910F91AA
:103F5000FF90EF90DF90CF90BF90AF909F908F90A9
:103F60007F906F9008952F923F924F925F926F9241
:103F70007F928F929F92AF92BF92CF92DF92EF92F9
:103F8000FF920F931F93CF93DF9300D01F92CDB773
:103F9000DEB74C017B836A836A01590117019801DE
:103FA000241B350B37FF03C0319521953109C5011D
:103FB0004A815B81841B950B97FF03C09195819586
:103FC000910951E059838217930714F019820BC0AD
:103FD0009A2D8B2D5801092F182F9A818B81DB8206
:103FE000CA82C92ED82E8A819B81A816B9065CF494
:103FF0009C2D8D2D6801092F182F9A818B81BB82F2
:10400000AA82A92EB82E2501AA81BB814A1A5B0A71
:1040100038016C187D0877FE03C0719461947108B3
:10402000720157FE03C0BFEFEB1AFB0AF594E79449
:10403000C016D1061CF00FEF1FEF1FC001E010E00B
:104040001CC0D401ED91FC91B9810480F581E02D73
:104050009101BB23C1F04A815B81B601C40109957E
:10406000E618F708F7FE04C0C00ED11EE40CF51CDC
:10407000EA81FB813196FB83EA834A815B81A41646
:10408000B506FCF604C0A6016A817B81E7CF0F90DC
:104090000F900F90DF91CF911F910F91FF90EF90B4
:1040A000DF90CF90BF90AF909F908F907F906F9058
:1040B0005F904F903F902F900895FC01868D88234C
:1040C00039F06EBD00000DB407FEFDCF8EB508952A
:1040D00028E030E090E8A1A1B2A186A5492F4623AF
:1040E00019F04C91842B03C04C91809584238C93C0
:1040F000A3A1B4A14C9187A5842B8C93A3A1B4A1B7
:104100004C9187A5809584238C93969521503109F5
:1041100011F7089508958CBD9DBD08950F931F93C9
:10412000CF93DF931F92CDB7DEB78C01DC015E9693
:104130008C915E97882341F05F968D919C9190972A
:1041400069830E948B206981D8019796ED91FC913B
:1041500098979081D1968C91D197892B8083959651
:10416000ED91FC9196979081D0968C9180958923C2
:104170008083C8010E945D20D8019596ED91FC9145
:1041800096979081D0968C91892B80830F90DF91A8
:10419000CF911F910F9108950F931F93CF93DF93AA
:1041A0001F92CDB7DEB78C01DC015E968C915E97D5
:1041B000882341F05F968D919C91909769830E942E
:1041C0008B206981D8019796ED91FC919897908109
:1041D000D1968C91D1978095892380839596ED9186
:1041E000FC9196979081D0968C91809589238083BD
:1041F000C8010E945D20D8019596ED91FC9196979B
:104200009081D0968C91892B80830F90DF91CF91F4
:104210001F910F910895EF92FF920F931F93CF93E9
:10422000DF9300D0CDB7DEB77C01162F6AE2298379
:104230004A830E94CC2060E0C7010E948E20F701D3
:1042400082A9612F680FC7010E948E2060E0C7011C
:104250000E948E20F70182A92981622F680FC70171
:104260000E948E206BE2C7010E94CC2060E0C70153
:104270000E948E20F70183A94A81642F680FC7012D
:104280000E948E2060E0C7010E948E20F70183A962
:10429000602F680FC7010E948E206CE2C7010F904B
:1042A0000F90DF91CF911F910F91FF90EF900C94A1
:1042B000CC20CF92DF92EF92FF920F931F93CF9378
:1042C000DF93EC0169017801888599856817790782
:1042D0000CF054C02A853B85421753070CF04EC0A2
:1042E0009B012C0D3D1D821793071CF46C01C61A0F
:1042F000D70A2FEF260F2C0D042FCE010E940B2181
:104300008D8D823091F49701207E3770C701982FF0
:104310008827990F990F990F822B932BEF2CFF244D
:10432000E694E694E694E82AF92A8E8D882321F013
:104330008F8D98A10E948B20EFA1F8A5908189A96B
:10434000892B8083EDA1FEA1908188A98095892386
:104350008083C114D10461F06F2DCE010E945D20D5
:104360006E2DCE010E945D2081E0C81AD108F1CFE8
:10437000EDA1FEA1908188A9892B8083DF91CF9147
:104380001F910F91FF90EF90DF90CF900895CF9203
:10439000DF92EF92FF920F931F93CF93DF93EC0185
:1043A0006901780188859985681779070CF055C0EF
:1043B0008A859B85481759070CF04FC09A012C0D30
:1043C0003D1D821793071CF46C01C41AD50A0FEF28
:1043D000040F0C0D262FCE010E940B218D8D8230F3
:1043E00091F49701207E3770C701982F8827990F85
:1043F000990F990F822B932BEF2CFF24E694E694D0
:10440000E694E82AF92A0F2D8E8D882321F08F8DCE
:1044100098A10E948B20EFA1F8A5908189A9892BF2
:104420008083EDA1FEA1908188A980958923808356
:10443000C114D10461F0602FCE010E945D206E2D69
:10444000CE010E945D2081E0C81AD108F1CFEDA114
:10445000FEA1908188A9892B8083DF91CF911F9144
:104460000F91FF90EF90DF90CF900895EF92FF9221
:104470000F93CF93DF93EC01790177FD4BC08885D3
:104480009985681779070CF045C057FD43C08A85A8
:104490009B8548175907F4F501E0040F21E0260F2A
:1044A000CE010E940B218E8D882321F08F8D98A143
:1044B0000E948B20EFA1F8A5908189A9892B808388
:1044C000EDA1FEA1908188A98095892380838D8D9F
:1044D000823091F49701207E3770C701982F88278A
:1044E000990F990F990F822B932BEF2CFF24E694B1
:1044F000E694E694E82AF92A6F2DCE010E945D2009
:104500006E2DCE010E945D20EDA1FEA1908188A9B3
:10451000892B8083DF91CF910F91FF90EF900895C9
:10452000CF92DF92EF92FF920F931F93CF93DF937F
:104530001F92CDB7DEB7182F062FE42E862F880FD7
:104540008E5F99830E947B0C83E00E947B0CF12E8E
:10455000C12E9981D92E8C2D8F19801798F4F601D0
:10456000E7FE02C0849101C080810E947B0C182F5D
:1045700080E00E947B0C8123FFEFCF1ADF0A8111BC
:10458000EACF01C081E00F90DF91CF911F910F9191
:10459000FF90EF90DF90CF900895789484B582607B
:1045A00084BD84B5816084BD85B5826085BD85B5D7
:1045B000816085BD80916E00816080936E00109255
:1045C00081008091810082608093810080918100D0
:1045D0008160809381008091800081608093800061
:1045E0008091910082608093910080919100816020
:1045F00080939100809190008160809390008091E1
:10460000C10084608093C1008091C100826080936A
:10461000C1008091C10081608093C1008091C3007E
:1046200081608093C3008091C00082608093C0004D
:104630008091C20081608093C20080917A00846082
:1046400080937A0080917A00826080937A008091D2
:104650007A00816080937A0080917A0080688093EC
:104660007A0010928E0210927D0210927E0280914A
:10467000D70081608093D70080EA8093D80089B505
:10468000806189BD89B5826089BD09B400FEFDCF16
:1046900061E070E080E090E00E947D138091D8009E
:1046A0008F7C80618093D8008091E000807F809330
:1046B000E0008091E1008E7E8093E1008DE08093A8
:1046C000E200559A209AEEEFFFE7859194918B3F97
:1046D0009C4D19F481E080937C028FEF9FEF9093C3
:1046E000DE028093DD02C09112016AE070E080E09A
:1046F00090E00E947D13CC23B1F361E08DE00E9435
:10470000BF1261E088E00E94BF1261E088E00E9471
:104710005C1261E087E00E94BF1261E084E00E94C9
:10472000BF1280916C0290916D02892BC9F58FE1C7
:1047300090E00E943E18EC01892B49F11B821A82FD
:10474000198218821D821C821F821E821A8E81E0AD
:104750008B8F1C8E8FEF8D8F8E8FCE010B969A874D
:1047600089872FEF3FEF3C872B879E878D87988B1C
:104770008F87188609969B8B8A8B3D8B2C8B9F8B02
:104780008E8B998F888F198ACE010E948618D093BC
:104790006D02C0936C02209719F0CE010E9486181A
:1047A00000E010E022E044E650E065EE71E082E4D3
:1047B0009CE00E945F1B22E044E650E068EE71E05E
:1047C00081E19CE00E945F1B23E044E650E06BEE39
:1047D00071E088E299E00E945F1B21E04CE251E029
:1047E00062EF71E08CEB97E00E945F1B21E048ECE8
:1047F00050E062EF71E08AEC93E00E945F1B21E0E1
:1048000048EC50E068EF71E088E296E00E945F1BA0
:1048100080E391E00E94371B0EE612E020E044E6C0
:1048200050E06EEF71E08AE098E10E945F1B8130FA
:1048300009F03FC0F8942FEF3FEF30936B022093C5
:104840006A028093A5021092A8021092A70287BD67
:1048500080916E00826080936E00A091CF02B09133
:10486000D002CD91CDBFDD91DEBFFF91EF91DF9101
:10487000CF91BF91AF919F918F917F916F915F91F8
:104880004F913F912F911F910F91FF90EF90DF90EB
:10489000CF90BF90AF909F908F907F906F905F90E0
:1048A0004F903F902F901F900F900FBE0F90089544
:1048B00004C0811102C00E9483148CE291E00E9426
:1048C000371BFFCFCF93DF93E1EDF2E0138212822B
:1048D00088EE93E0A0E0B0E084839583A683B7835D
:1048E00084E291E091838083CFEFDFEFD587C487A7
:1048F00061E082E10E94BF1261E083E10E94BF1289
:1049000061E084E10E94BF1261E085E10E94BF1274
:1049100061E085E00E94BF1261E08AE00E94BF1260
:1049200061E089E00E94BF12E4E2F3E013821282A8
:1049300020E830E03583248340EA50E05783468303
:10494000158A158614861786168681E0848BD38B8C
:10495000C28BD18BC08B868B90E5978F10A297E08E
:1049600091A712A683A7868F15A614A684E391E0CB
:10497000918380835187408733872287EEE5F3E078
:1049800011821082138212821582148248E050E054
:1049900063E072E0CF010E947F1DE8E5F3E0118241
:1049A0001082138212821582148243E050E06CE080
:1049B00072E0CF01DF91CF910C947F1D809158035D
:1049C000909159030E94D32780915E0390915F03D9
:1049D0000C94D327A1E21A2EAA1BBB1BFD010DC00C
:1049E000AA1FBB1FEE1FFF1FA217B307E407F5079F
:1049F00020F0A21BB30BE40BF50B661F771F881F7B
:104A0000991F1A9469F760957095809590959B0110
:104A1000AC01BD01CF010895052E97FB1EF4009453
:104A20000E94232557FD07D00E94EA2407FC03D0EB
:104A30004EF40C94232550954095309521953F4F89
:104A40004F4F5F4F089590958095709561957F4F7A
:104A50008F4F9F4F0895EE0FFF1F0590F491E02DAB
:104A600009945058BB27AA270E9449250C94C629AF
:104A70000E94B82938F00E94BF2920F039F49F3FE6
:104A800019F426F40C94B5290EF4E095E7FB0C9488
:104A9000AF29E92F0E94D72958F3BA176207730785
:104AA0008407950720F079F4A6F50C94F9290EF403
:104AB000E0950B2EBA2FA02D0B01B90190010C012E
:104AC000CA01A0011124FF27591B99F0593F50F446
:104AD000503E68F11A16F040A22F232F342F44279E
:104AE000585FF3CF469537952795A795F040539596
:104AF000C9F77EF41F16BA0B620B730B840BBAF066
:104B00009150A1F0FF0FBB1F661F771F881FC2F7D0
:104B10000EC0BA0F621F731F841F48F487957795E4
:104B20006795B795F7959E3F08F0B0CF9395880F9E
:104B300008F09927EE0F9795879508950E94B22562
:104B40000C94C6290E94BF2958F00E94B82940F051
:104B500029F45F3F29F00C94AF2951110C94FA29E4
:104B60000C94B5290E94D72968F39923B1F35523F2
:104B700091F3951B550BBB27AA2762177307840770
:104B800038F09F5F5F4F220F331F441FAA1FA9F306
:104B900035D00E2E3AF0E0E832D091505040E695F4
:104BA000001CCAF72BD0FE2F29D0660F771F881F55
:104BB000BB1F261737074807AB07B0E809F0BB0B48
:104BC000802DBF01FF2793585F4F3AF09E3F51055C
:104BD00078F00C94AF290C94FA295F3FE4F3983EE7
:104BE000D4F3869577956795B795F7959F5FC9F745
:104BF000880F911D9695879597F90895E1E0660FC6
:104C0000771F881FBB1F621773078407BA0720F03E
:104C1000621B730B840BBA0BEE1F88F7E0950895A7
:104C20000E94DF2988F09F5798F0B92F9927B75134
:104C3000B0F0E1F0660F771F881F991F1AF0BA9540
:104C4000C9F714C0B13091F00E94F929B1E008957C
:104C50000C94F929672F782F8827B85F39F0B93F6E
:104C6000CCF3869577956795B395D9F73EF49095F3
:104C70008095709561957F4F8F4F9F4F08950E944B
:104C80001E2908F48FEF08950E941E29880B990BA6
:104C90000895A0E0B0E0EFE4F6E20C94042AEC0101
:104CA000009721F4CB010E943E27B8C0FC01E60F1B
:104CB000F71F9C0122503109E217F30708F4ACC03A
:104CC000D9010D911C91119706171707B0F0053007
:104CD000110508F49FC0C80104978617970708F4C8
:104CE00099C002501109061B170B019311936D9384
:104CF0007C93CF010E94D3278DC05B01A01AB10A1B
:104D00004C01800E911EA0918503B091860340E076
:104D100050E0E12CF12C109709F44AC0A815B90510
:104D2000D1F56D907C901197630182E0C80ED11C83
:104D3000CA14DB0480F1A3014A195B096A0182E00D
:104D4000C80ED11C1296BC9012971396AC91B5E088
:104D5000CB16D10440F0B282A38351834083D901A2
:104D60006D937C930AC00E5F1F4FC301800F911F8C
:104D7000F90191838083EB2DFA2FE114F10431F0D6
:104D8000D7011396FC93EE93129744C0F0938603D9
:104D9000E09385033FC08D919C9111974817590767
:104DA00008F4AC017D0112960D90BC91A02DB3CFFB
:104DB000809183039091840388159905E1F4461747
:104DC0005707C8F48091130190911401009741F4A2
:104DD0008DB79EB74091170150911801841B950B18
:104DE000E817F907C8F4F0938403E0938303F9010B
:104DF000718360830FC0CB010E943E277C01009726
:104E000059F0A801BE010E941827CE010E94D327A5
:104E1000C70104C0CE0102C080E090E0CDB7DEB78C
:104E2000EEE00C94202A81E090E0F8940C94462A5D
:104E3000FB01DC0102C001900D9241505040D8F7B7
:104E40000895DC0101C06D9341505040E0F7089592
:104E5000FB01DC0101900D920020E1F70895FB01B8
:104E6000DC014150504048F001900D920020C9F7FC
:104E700001C01D9241505040E0F70895CF93DF9359
:104E80008230910510F482E090E0E0918503F0918A
:104E9000860320E030E0C0E0D0E0309711F140819F
:104EA000518148175907C0F04817590761F48281AA
:104EB0009381209719F09B838A832BC0909386035C
:104EC0008093850326C02115310519F04217530739
:104ED00018F49A01BE01DF01EF010280F381E02D99
:104EE000DCCF2115310509F1281B390B24303105A0
:104EF00090F412968D919C9113976115710521F094
:104F0000FB019383828304C090938603809385037F
:104F1000FD01329644C0FD01E20FF31F819391938E
:104F2000225031092D933C933AC020918303309154
:104F30008403232B41F42091150130911601309305
:104F400084032093830320911301309114012115D0
:104F5000310541F42DB73EB740911701509118012A
:104F6000241B350BE0918303F0918403E217F307D0
:104F7000A0F42E1B3F0B2817390778F0AC014E5FC9
:104F80005F4F2417350748F04E0F5F1F509384037F
:104F9000409383038193919302C0E0E0F0E0CF015E
:104FA000DF91CF9108950F931F93CF93DF930097D5
:104FB00009F48CC0FC0132971382128200918503A0
:104FC000109186030115110581F420813181820F32
:104FD000931F20918303309184032817390779F5B3
:104FE000F0938403E093830371C0D80140E050E064
:104FF000AE17BF0750F412962D913C911397AD0157
:105000002115310509F1D901F3CF9D01DA0133836F
:10501000228360817181860F971F8217930769F43D
:10502000EC0128813981260F371F2E5F3F4F3183D6
:1050300020838A819B8193838283452B29F4F0937B
:105040008603E093850342C01396FC93EE93129778
:10505000ED01499159919E01240F351FE217F30785
:1050600071F480819181840F951F029611969C9313
:105070008E938281938113969C938E931297E0E096
:10508000F0E0D80112968D919C911397009719F03A
:10509000F8018C01F6CF8D919C9198012E5F3F4FC6
:1050A000820F931F209183033091840328173907BF
:1050B00069F4309729F4109286031092850302C098
:1050C000138212821093840300938303DF91CF91A4
:1050D0001F910F9108951F93FC0199278827BC0108
:1050E000E89411911032E9F3193010F01E30C8F332
:1050F0001B3251F01D3249F4689406C00E949D286D
:10510000610F711D811D911D119110531A30B0F363
:105110003EF490958095709561957F4F8F4F9F4F8E
:105120001F910895BB274A3031F4992322F4BDE240
:10513000909581959F4F0C94B328592F482F372F66
:10514000262F660F771F881F991F660F771F881FEE
:10515000991F620F731F841F951F660F771F881F8B
:10516000991F0895BB27FB015527AA27880F991F70
:10517000AA1FA41710F0A41B83955051B9F7A05D86
:10518000AA3308F0A95DA193009779F7B111B19303
:105190001192CB010C94CC28DC01FC01672F71919A
:1051A0007723E1F7329704C07C916D93708362910D
:1051B000AE17BF07C8F308950E941E2908F481E0C6
:1051C0000895E89409C097FB3EF4909580957095FA
:1051D00061957F4F8F4F9F4F9923A9F0F92F96E943
:1051E000BB279395F695879577956795B795F111B8
:1051F000F8CFFAF4BB0F11F460FF1BC06F5F7F4F55
:105200008F4F9F4F16C0882311F096E911C0772366
:1052100021F09EE8872F762F05C0662371F096E86F
:10522000862F70E060E02AF09A95660F771F881F3E
:10523000DAF7880F9695879597F90895990F0008E2
:10524000550FAA0BE0E8FEEF16161706E807F90758
:10525000C0F012161306E407F50798F0621B730BF3
:10526000840B950B39F40A2661F0232B242B252B74
:1052700021F408950A2609F4A140A6958FEF811D17
:10528000811D08950E9455290C94C6290E94B829B1
:1052900038F00E94BF2920F0952311F00C94AF291B
:1052A0000C94B52911240C94FA290E94D72970F383
:1052B000959FC1F3950F50E0551F629FF001729FBB
:1052C000BB27F00DB11D639FAA27F00DB11DAA1FCA
:1052D000649F6627B00DA11D661F829F2227B00D17
:1052E000A11D621F739FB00DA11D621F839FA00DA2
:1052F000611D221F749F3327A00D611D231F849FF2
:10530000600D211D822F762F6A2F11249F57504048
:105310009AF0F1F088234AF0EE0FFF1FBB1F661FC3
:10532000771F881F91505040A9F79E3F510580F08C
:105330000C94AF290C94FA295F3FE4F3983ED4F320
:10534000869577956795B795F795E7959F5FC1F730
:10535000FE2B880F911D9695879597F9089597F9DB
:105360009F6780E870E060E008959FEF80EC08950B
:1053700000240A9416161706180609060895002434
:105380000A9412161306140605060895092E0394AE
:10539000000C11F4882352F0BB0F40F4BF2B11F422
:1053A00060FF04C06F5F7F4F8F4F9F4F089557FD81
:1053B0009058440F551F59F05F3F71F04795880F83
:1053C00097FB991F61F09F3F79F08795089512161A
:1053D00013061406551FF2CF4695F1DF08C01616C6
:1053E00017061806991FF1CF869571056105089477
:1053F0000895E894BB2766277727CB0197F908958E
:105400002F923F924F925F926F927F928F929F92D4
:10541000AF92BF92CF92DF92EF92FF920F931F93C2
:10542000CF93DF93CDB7DEB7CA1BDB0B0FB6F89473
:10543000DEBF0FBECDBF09942A88398848885F84B3
:105440006E847D848C849B84AA84B984C884DF8024
:10545000EE80FD800C811B81AA81B981CE0FD11D08
:105460000FB6F894DEBF0FBECDBFED010895A29F29
:10547000B001B39FC001A39F700D811D1124911D28
:10548000B29F700D811D1124911D089513E0CFE985
:10549000D3E004C0FE010E942B252196C03AD1071B
:0654A000C9F7F894FFCFEC
:1054A600FFFFFFFF616200FFFFFFFF00E10000005A
:1054B60000000000008703800000C180810000001A
:1054C60000000000080D5B0D0E117E119C111E0DD3
:1054D60000000000BB1DDD0C3622B31FC721592179
:1054E600641FC9116011C211AA1D54656D702E206A
:1054F600696E2067726164692043203A0A2000645D
:1055060061746F206C6574746F203D20004E2056C8
:10551600616C756520666F7220413020726561642A
:105526002061743A2000092074656D70203D2000CA
:10553600094E2056616C756520666F7220413120D8
:10554600726561642061743A20006E616E00696E56
:1055560066006F7666002E0009746D696E203D2028
:105566000009746D6178203D200009537465702030
:105576003D2000097469636B203D20000D0A00631D
:105586006C65617200543100543200544D6F746F73
:105596007200545365725400545365725200494464
:1055A6004C450020202020202020200054203F00B1
:00000001FF
